:100000000C9457050C94A00A0C94790A0C947F0563
:100010000C947F050C947F050C947F050C947F0550
:100020000C947F050C947F050C947F050C947F0540
:100030000C947F050C947F050C947F050C947F0530
:100040000C94B51A0C947F050C942E0C0C94080C8F
:100050000C947F050C947F050C947F050C947F0510
:100060000C943D130C947F05DB40A4A62EAF20001A
:10007000A1C8D300408DAED580A80000600000006C
:100080000000000000000000000000E00000000090
:1000900000000000000000000001E000000000007F
:1000A000000000000000000001F00000000000005F
:1000B0000000000000000003F0000000000000004D
:1000C00000000000000007F0000000000000000039
:1000D000000000000007F800000000000000000021
:1000E000000000000FF800000003C0007E000001C7
:1000F000E0007F0FF800000003C000FE000001E0F8
:1001000000FFEFF800000003C000FE000001E00067
:10011000FFFFF800000003C000F00000000F007FA8
:10012000FE7FC0000003C000F00000000F003FFE93
:100130007FF83FF1FBCFFCFEF3BC3DEFE01FFE7FFD
:10014000FF7FFBFFDFFEFEFFBC3DEFE01FC6FFFFB2
:100150007FFBFFDFFEFEFFBC3DEFE00FE3C7FE7855
:100160007BC3DE1EF0FFBC3DEF0007FF87FC787B02
:10017000C3DE1EF0F83C3DEF0001FFFFF0007BC343
:10018000C01EF0F03C3DEF0001F37FE03FFBC3CF2A
:10019000FEF0F03C3DEF0003E33F807FFBC3DFFE5A
:1001A000F0F03C3DEF0007E73C00787BC3DE1EF03B
:1001B000F03C3DEF0007FFBE00787BC3DE1EF0F091
:1001C0003C3DEF0007FFFE00787BC3DE1EF0F03CF5
:1001D0003DEF000FFFFE007FFBFFDFFEF0F03FFD75
:1001E000EFE00FFFFF007FFBFFDFFEF0F03FFDEFD2
:1001F000E00FF9FF003E79F9CF9EF0F01F3DE7E0F8
:100200001FF1FF0000000000000000000000001FC0
:1002100080FF007FFFFFFFFFFFFFFFFFFFE01C00ED
:100220007F007FFFFFFFFEB46D888D18E000001F88
:10023000007FFFFFFFFE95AD7DB577E000000F006A
:100240007FFFFFFFFEA5AD9D8D19E0000006007F3A
:10025000FFFFFFFEB5ADEDB57EE000000000000140
:10026000800000000000000000000380000000008B
:10027000000000000007C0000000000000000000B7
:1002800007C00000000000000000000FC0000000D8
:100290000000000000001FE000000000000000005F
:1002A000001FE00000000000000000003FE0000030
:1002B000000000000000003FF0000000000000000F
:1002C00000007FF0000000000000001FF87FF00039
:1002D0000000000000003FFE7FF000000000000072
:1002E000003FFF7FF0000000000000001FFFFBE068
:1002F000000000000000000FFFF9FFC00000000038
:1003000000000FFFF9FFF800000000000007FFF1F8
:10031000FFFF00000000000003FC73FFFF800000EF
:1003200000000001FE3FFFFF80000000000000FF12
:100330001E0FFF000000000000007FFE1FFC0000F9
:1003400000000000003FFFFFF80000000000000078
:100350000FDFFFE0000000000000001F19FFC000D9
:100360000000000000003F3CFF0000000000000013
:10037000007E7CF800000000000000007FFE7C0092
:1003800000000000000000FFFFFC00000000000073
:100390000000FFFFFE0000000000000000FFFFFE65
:1003A0000000000000000001FFEFFE000000000060
:1003B000000001FFCFFE0000000000000003FF0767
:1003C000FE0000000000000003FC07FE000000002B
:1003D00000000003F003FE000000000000000180A8
:1003E00000FE000000000000000000007E00000091
:1003F000000000000000003E0000000000000000BF
:1004000000000C000000000000078000FC0000035A
:10041000C0000000078001FC000003C000000007CE
:100420008001FC000003C0000000078001E0000024
:10043000001E000000078001E00000001E007FE3B6
:10044000F79FF9FDE7787BDFC0FFF7FFBFFDFDFFFA
:10045000787BDFC0FFF7FFBFFDFDFF787BDFC0F0DB
:10046000F787BC3DE1FF787BDE00F0F787BC3DE11C
:10047000F0787BDE0000F787803DE1E0787BDE00EE
:100480007FF7879FFDE1E0787BDE00FFF787BFFD08
:10049000E1E0787BDE00F0F787BC3DE1E0787BDED1
:1004A00000F0F787BC3DE1E0787BDE00F0F787BC29
:1004B0003DE1E0787BDE00FFF7FFBFFDE1E07FFB81
:1004C000DFC0FFF7FFBFFDE1E07FFBDFC07CF3F3A0
:1004D0009F3DE1E03E7BCFC0000000000000000037
:1004E000000000FFFFFFFFFFFFFFFFFFFFC0FFFF58
:1004F000FFFFFD68DB111A31C0FFFFFFFFFD2B5A24
:10050000FB6AEFC0FFFFFFFFFD4B5B3B1A33C0FFF1
:10051000FFFFFFFD6B5BDB6AFDC00000000800020F
:10052000010000030407000000000000000022009A
:10053000FF2100000000002300260029000404041D
:10054000040404040402020202020203030303037C
:100550000301020408102040800102040810200159
:100560000204081020005EBCE2613FDD83C29C7E75
:1005700020A3FD1F41009D23BE46DB65F88C11AF13
:1005800032CA57E97400000000240027002A000046
:10059000000000250028002B00000103070F1F3F6B
:1005A0007F0080C0E0F0F8FCFE00000000003E5B31
:1005B0004F5B3E3E6B4F6B3E1C3E7C3E1C183C7EB0
:1005C0003C181C577D571C1C5E7F5E1C00183C1895
:1005D00000FFE7C3E7FF0018241800FFE7DBE7FF91
:1005E00030483A060E2629792926407F050507401E
:1005F0007F05253F5A3CE73C5A7F3E1C1C08081CDF
:100600001C3E7F14227F22145F5F005F5F06097F1C
:10061000017F006689956A606060606094A2FFA2B5
:100620009408047E040810207E201008082A1C0864
:10063000081C2A08081E101010100C1E0C1E0C306E
:10064000383E3830060E3E0E060000000000000066
:100650005F00000007000700147F147F14242A7F26
:100660002A122313086462364956205000080703F3
:1006700000001C2241000041221C002A1C7F1C2A71
:1006800008083E08080080703000080808080800C4
:100690000060600020100804023E5149453E0042BF
:1006A0007F400072494949462141494D331814128F
:1006B0007F1027454545393C4A49493141211109B7
:1006C000073649494936464949291E0000140000A9
:1006D00000403400000008142241141414141400C3
:1006E0004122140802015909063E415D594E7C120F
:1006F00011127C7F494949363E414141227F4141A7
:10070000413E7F494949417F090909013E41415123
:10071000737F0808087F00417F41002040413F016E
:100720007F081422417F404040407F021C027F7FAF
:100730000408107F3E4141413E7F090909063E41C0
:1007400051215E7F09192946264949493203017F13
:1007500001033F4040403F1F2040201F3F403840A2
:100760003F631408146303047804036159494D433B
:10077000007F4141410204081020004141417F04B3
:10078000020102044040404040000307080020549A
:100790005478407F284444383844444428384444FA
:1007A000287F385454541800087E090218A4A49CC9
:1007B000787F0804047800447D40002040403D00DC
:1007C0007F1028440000417F40007C047804787C3E
:1007D000080404783844444438FC182424181824A5
:1007E0002418FC7C08040408485454542404043F8E
:1007F00044243C4040207C1C2040201C3C40304095
:100800003C44281028444C9090907C4464544C44C0
:100810000008364100000077000000413608000261
:10082000010204023C2623263C1EA1A161123A408B
:1008300040207A3854545559215555794122545401
:100840007842215554784020545579400C1E5272FC
:1008500012395555555939545454593955545458D9
:100860000000457C410002457D420001457C407D01
:100870001211127DF0282528F07C54554500205493
:10088000547C547C0A097F4932494949323A4444EC
:10089000443A324A4848303A4141217A3A4240206B
:1008A00078009DA0A07D3D4242423D3D4040403DFC
:1008B0003C24FF2424487E4943662B2FFC2F2BFF2A
:1008C0000929F620C0887E0903205454794100008C
:1008D000447D413048484A32384040227A007A0A02
:1008E0000A727D0D19317D2629292F2826292929CB
:1008F0002630484D402038080808080808080838FD
:100900002F10C8ACBA2F102834FA00007B00000862
:10091000142A142222142A14085500550055AA55E9
:10092000AA55AAFF55FF55FF000000FF0010101048
:10093000FF00141414FF001010FF00FF1010F0103F
:10094000F0141414FC001414F700FF0000FF00FF63
:100950001414F404FC141417101F10101F101F148B
:1009600014141F00101010F0000000001F101010D1
:10097000101F10101010F010000000FF10101010C9
:100980001010101010FF10000000FF140000FF00F6
:10099000FF00001F10170000FC04F41414171017B8
:1009A0001414F404F40000FF00F7141414141414C5
:1009B00014F700F7141414171410101F101F141438
:1009C00014F4141010F010F000001F101F000000AD
:1009D0001F14000000FC140000F010F01010FF10B5
:1009E000FF141414FF141010101F00000000F0106A
:1009F000FFFFFFFFFFF0F0F0F0F0FFFFFF0000004F
:100A00000000FFFF0F0F0F0F0F3844443844FC4A1B
:100A10004A4A347E02020606027E027E026355497D
:100A200041633844443C04407E201E2006027E027E
:100A30000299A5E7A5991C2A492A1C4C7201724CFF
:100A4000304A4D4D303048784830BC625A463D3EC1
:100A5000494949007E0101017E2A2A2A2A2A444462
:100A60005F444440514A444040444A51400000FFE2
:100A70000103E080FF000008086B6B083612362483
:100A800036060F090F0600001818000000101000AD
:100A90003040FF0101001F01011E00191D17120047
:100AA0003C3C3C3C0000000000009D218E231124B2
:100AB0001FBECFEFD8E0DEBFCDBF11E0A0E0B1E0B8
:100AC000E8E9FEE402C005900D92A23AB107D9F719
:100AD00023E0A2EAB1E001C01D92A438B207E1F719
:100AE00015E0C6E5D5E004C02197FE010E94D5239C
:100AF000C535D107C9F70E94FF1A0C943F270C9403
:100B000000000895CF92DF92EF92FF920F931F9310
:100B1000CF93DF936C017A018B01C0E0D0E0CE155A
:100B2000DF0581F0D8016D918D01D601ED91FC9129
:100B30000190F081E02DC6010995892B11F02196D5
:100B4000EECF7E01C701DF91CF911F910F91FF90F2
:100B5000EF90DF90CF900895FC01538D448D252FA9
:100B600030E0842F90E0821B930B541710F0CF9647
:100B7000089501970895FC01918D828D981761F079
:100B8000828DDF01A80FB11D5D968C91928D9F5FC4
:100B90009F73928F90E008958FEF9FEF0895FC016F
:100BA000918D828D981731F0828DE80FF11D858D22
:100BB00090E008958FEF9FEF0895FC01918D228DB5
:100BC000892F90E0805C9F4F821B91098F7399273A
:100BD00008958EE192E00E94DD0521E0892B09F461
:100BE00020E0822F0895FC01848DDF01A80FB11D44
:100BF000A35ABF4F2C91848D90E001968F73992753
:100C0000848FA689B7892C93A089B1898C91837030
:100C100080648C93938D848D981306C00288F38929
:100C2000E02D80818F7D80830895EF92FF920F9356
:100C30001F93CF93DF93EC0181E0888F9B8D8C8D88
:100C4000981305C0E889F989808185FD26C0F62EB4
:100C50000B8D10E00F5F1F4F0F731127E02E8C8D4F
:100C6000E8120CC00FB607FCFACFE889F989808139
:100C700085FFF5CFCE010E94F305F1CF8B8DFE01EC
:100C8000E80FF11DE35AFF4FF0829FB7F8940B8FE6
:100C9000EA89FB89808180620AC09FB7F894EE8957
:100CA000FF896083E889F98980818370806480830B
:100CB0009FBF81E090E0DF91CF911F910F91FF9056
:100CC000EF900895CF93DF93EC01888D8823C9F0CE
:100CD000EA89FB89808185FD05C0A889B9898C9145
:100CE00086FD0FC00FB607FCF5CF808185FFF2CFE0
:100CF000A889B9898C9185FFEDCFCE010E94F305BB
:100D0000E7CFDF91CF91089580E090E0892B29F023
:100D10000E94E90581110C9400000895FC0177FD03
:100D2000B9C080859185681779070CF0B3C057FD6D
:100D3000B1C082859385481759070CF008958689BC
:100D4000823079F484819581DC01A61BB70BBD014B
:100D50006150710986819781DC01A41BB50BAD013F
:100D60000EC0833009F084C064277527CA01862726
:100D700097276827792746815781481B590B41508F
:100D800051092130310531F048F12230310509F4A3
:100D90004AC00895CA0157FD07969C01A3E0359506
:100DA0002795AA95E1F7A481B5812A9FC0012B9FC1
:100DB000900D3A9F900D1124680F791F078CF0A1B8
:100DC000E02DE60FF71F4770552781E090E001C046
:100DD000880F4A95EAF79081892B48C0CA0157FDD0
:100DE00007969C0193E0359527959A95E1F7A481A4
:100DF000B5812A9FC0012B9F900D3A9F900D112421
:100E0000680F791F078CF0A1E02DE60FF71F4770E0
:100E1000552781E090E001C0880F4A95EAF7809558
:100E20009081892323C0CA0157FD07969C0183E066
:100E3000359527958A95E1F7A481B5812A9FC00150
:100E40002B9F900D3A9F900D1124680F791F078CEE
:100E5000F0A1E02DE60FF71F4770552781E090E0E5
:100E600001C0880F4A95EAF7908189278083089509
:100E7000813009F086CF64277527462757276427D6
:100E8000752784819581DC01A61BB70BBD016150DC
:100E9000710977CF08950895FC016370668B848192
:100EA000958126813781613039F0633029F091874F
:100EB00080873387228708953187208793878287A9
:100EC00008956F927F928F929F92AF92BF92CF922E
:100ED000DF92EF92FF920F931F93CF93DF93EC017A
:100EE0004B015A0169013801E881F9810284F385D7
:100EF000E02D0995E881F9810288F389E02D8701C9
:100F00009601A501B401CE010995A501460D571D15
:100F100041505109E881F9810288F389E02D960159
:100F2000B401CE010995E881F9810088F189E02DAD
:100F30009301A501B401CE010995C80CD91CB601D5
:100F400061507109E881F9810088F189E02D9301F0
:100F5000A501CE010995E881F9810688F789E02D80
:100F6000CE01DF91CF911F910F91FF90EF90DF9015
:100F7000CF90BF90AF909F908F907F906F9009948B
:100F80008F929F92AF92BF92CF92DF92EF92FF9299
:100F90000F931F93CF93DF934C016B015A01E9012B
:100FA000DC01ED91FC916217730781F404171507BA
:100FB00024F48B2D5801042F182F0A191B099801AE
:100FC0002F5F3F4F048CF58DE02D12C04017510765
:100FD00009F52617370724F48D2D6901C62FD82F60
:100FE0009E012C193D092F5F3F4F068CF78DE02D98
:100FF0008701A501B601C4010995DF91CF911F9129
:101000000F91FF90EF90DF90CF90BF90AF909F90A7
:101010008F9008950284F385E02D0995D401ED9118
:10102000FC910488F589E02D9E01A501B601C4015B
:101030000995D401ED91FC910688F789E02DC40152
:10104000DF91CF911F910F91FF90EF90DF90CF90A4
:10105000BF90AF909F908F900994EF92FF920F9363
:101060001F93DC011A960D911C911B9718962D91D8
:101070003C911997ED91FC9100A0F1A1E02D7B012D
:1010800040E050E060E070E009951F910F91FF9003
:10109000EF9008954F925F926F927F928F929F92FE
:1010A000AF92BF92CF92DF92EF92FF920F931F9376
:1010B000CF93DF936C012B015A0139014801DC0108
:1010C000ED91FC910284F385E02D0995E201640C19
:1010D000751CD601ED91FC91C615D7055CF400880E
:1010E000F189E02D87019401A501BE01C601099592
:1010F0002196EFCF0688F789E02DC601DF91CF91C9
:101100001F910F91FF90EF90DF90CF90BF90AF9025
:101110009F908F907F906F905F904F9009948F92E7
:101120009F92AF92BF92CF92DF92EF92FF920F9376
:101130001F93CF93DF93EC015B014A016901E881C2
:10114000F9810284F385E02D099595012C0D3D1D53
:1011500021503109E881F9810488F589E02D780171
:101160008401A401B501CE010995E881F9810688C1
:10117000F789E02DCE01DF91CF911F910F91FF9064
:10118000EF90DF90CF90BF90AF909F908F90099499
:101190008F929F92AF92BF92CF92DF92EF92FF9287
:1011A0000F931F93CF93DF93EC015B014A01690119
:1011B0007801E881F9810284F385E02D0995C80C56
:1011C000D91C860101501109E881F9810488F5894B
:1011D000E02D9501A401B501CE010995E881F981C1
:1011E0000688F789E02DCE01DF91CF911F910F91F5
:1011F000FF90EF90DF90CF90BF90AF909F908F9037
:1012000009940895EF92FF920F931F93DC01ED91E3
:10121000FC9100A0F1A1E02D09951F910F91FF9085
:10122000EF9008950F931F93CF93DF93DC015696B1
:10123000EC915697E23071F0E330E9F0E13079F566
:10124000FB0114960D90BC91A02DA41BB50BA21B05
:10125000B30B18C0EC01EC81FD81E61BF70BBF015D
:1012600061507109EE81FF81DF01A41BB50BAD0157
:10127000421B530B14C0DA01EC01EE81FF81E61B27
:10128000F70B3197F7FD0DC0EC014E815F81E4173C
:10129000F5073CF4AF01BD010E949A1802C00E94FC
:1012A0000119DF91CF911F910F9108950F931F9313
:1012B000DC015696EC915697E23061F0E33009F18B
:1012C000E13081F51496ED91FC911597E41BF50B37
:1012D000319723C0DC011496ED91FC911597DF0145
:1012E000A61BB70BBD01DC011696ED91FC9117977B
:1012F000DF01A41BB50BAD0141505109621B730BFB
:1013000011C0FA01DC0116964D915C911797DA0134
:10131000A61BB70BBD01621B730BAB01BF010E9483
:1013200001190CC057FD0AC0DC011696ED91FC9125
:1013300017974E175F0714F40E949A181F910F9188
:1013400008958F929F92AF92CF92EF92FF920F9358
:101350001F93CF93DF93EC01262F898D9A8D0097F1
:1013600009F042C06A3059F41D861C862D898E858D
:101370009F8538E0239F800D911D112443C06D305F
:1013800009F4AAC08F898823C9F03C898C859D8582
:1013900046E0349F800D911D1124488559854817DA
:1013A000590764F41D861C863D898E859F8548E01B
:1013B000349F800D911D11249F878E87EA88FB88BA
:1013C000088919894E855F856C857D85AD88CC88B7
:1013D000CE010E9466162C898C859D8536E0239F60
:1013E000800D911D11243EC06A3079F41D861C8643
:1013F0002D89FC013896E4918E859F852E9F800D66
:10140000911D11249F878E8767C06D3009F464C0D9
:10141000FC0134963491631708F45EC03296E4916F
:10142000E61708F459C0462F431B342FFC013296AF
:101430008590949047E0349F800C911C1124F40116
:10144000329634913196E491332311F0E1110DC0BD
:10145000F4013496E4912C898C859D85E29F800D62
:10146000911D11249D878C8737C0F40135964491D6
:101470005F89552319F15C89E32FF0E0E40FF11D3A
:1014800047FDFA955E9FB0015F9F700D11244C855A
:101490005D85460F571F688579856417750774F455
:1014A0001D861C863D89FC013896E4918E859F85BA
:1014B0003E9F800D911D11249F878E87EA88FB88AF
:1014C000088919894E855F856C857D85AD88CC88B6
:1014D000CE010E946616BCCF81E090E0DF91CF91F3
:1014E0001F910F91FF90EF90CF90AF909F908F90B2
:1014F00008951F920F920FB60F9211242F933F93CE
:101500004F935F936F937F938F939F93AF93BF930B
:10151000EF93FF93E0910201F09103010995FF9190
:10152000EF91BF91AF919F918F917F916F915F915B
:101530004F913F912F910F900FBE0F901F901895D4
:101540001F920F920FB60F9211242F933F934F9338
:101550005F936F937F938F939F93AF93BF93EF931B
:10156000FF93E0910001F09101010995FF91EF9146
:10157000BF91AF919F918F917F916F915F914F91AB
:101580003F912F910F900FBE0F901F901895DC0187
:10159000ED91FC910190F081E02D099461157105A8
:1015A00079F0FB0101900020E9F73197AF01461B6C
:1015B000570BDC01ED91FC910280F381E02D099441
:1015C00080E090E008958F929F92AF92BF92EF9249
:1015D000FF920F931F93CF93DF93CDB7DEB7A19701
:1015E0000FB6F894DEBF0FBECDBF7C01FA01CB0170
:1015F00019A2223008F42AE08E010F5D1F4F822EBF
:10160000912CA12CB12CBF01A50194010E94B32300
:10161000F901CA01015011096A3014F4605D01C07A
:10162000695CD8016C93232B242B252B61F7B8011F
:10163000C7010E94CE0AA1960FB6F894DEBF0FBE76
:10164000CDBFDF91CF911F910F91FF90EF90BF9091
:10165000AF909F908F9008957F928F929F92AF92BC
:10166000BF92CF92DF92EF92FF920F931F93CF938F
:10167000DF938C016A017B01722E9A01AB01C701D5
:10168000B6010E941226882319F06EE571E027C08A
:1016900046015701E894B7F82FEF3FEF4FE75FE7B8
:1016A000C501B4010E94122681110DC02FEF3FEF3A
:1016B0004FE75FE7C501B4010E94482418161CF4E7
:1016C00062E671E00CC02FEF3FEF4FE75FE4C70128
:1016D000B6010E94A025181694F466E671E0C801D0
:1016E000DF91CF911F910F91FF90EF90DF90CF90FE
:1016F000BF90AF909F908F907F900C94CE0A2FEF69
:101700003FEF4FE75FECC701B6010E94482487FD19
:10171000E4CF20E030E0A901C701B6010E944824CF
:1017200087FF0AC06DE2C8010E94C70AEC01F7FA00
:10173000F094F7F8F09402C0C0E0D0E0B12C60E083
:1017400070E080E09FE37B1441F020E030E040E275
:1017500051E40E944D24B394F6CFA70196010E9454
:10176000DC236B017C010E94BF244B015C012AE059
:10177000AB01BC01C8010E94E30AC80FD91F772042
:10178000C1F1C501B4010E94EE249B01AC01C70167
:10179000B6010E94DB236B017C016EE2C8010E944E
:1017A000C70AC80FD91F20E030E040E251E4C7016A
:1017B000B6010E94A5254B015C010E94BF246B016C
:1017C000E12CF12C2AE0B701A601C8010E94E30A2E
:1017D000C80FD91FC701B6010E94EE249B01AC01BE
:1017E000C501B4010E94DB236B017C017A94711066
:1017F000DACFCE01DF91CF911F910F91FF90EF9043
:10180000DF90CF90BF90AF909F908F907F90089582
:101810001F920F920FB60F9211242F933F934F9365
:101820005F936F937F938F939F93AF93BF93EF9348
:10183000FF938EE192E00E94F305FF91EF91BF913B
:10184000AF919F918F917F916F915F914F913F9158
:101850002F910F900FBE0F901F9018951F920F920F
:101860000FB60F9211242F938F939F93EF93FF93B3
:10187000E0912E02F0912F028081E0913402F091EC
:10188000350282FD12C09081809137028F5F8F7385
:1018900020913802821751F0E0913702F0E0E25EC9
:1018A000FD4F958F8093370201C08081FF91EF91AA
:1018B0009F918F912F910F900FBE0F901F901895B1
:1018C00008958EBD00000DB407FEFDCF8EB50895BE
:1018D0001F93CF93DF93FC01858D968D009729F19F
:1018E000162FEF0121A131E03093FA0120931C0261
:1018F0001092FB0110921D02DC01ED91FC91019010
:10190000F081E02D60E009958D8D9E8DDC01ED91DB
:10191000FC910190F081E02D612F09958D8D9E8DB8
:10192000DF91CF911F910C94280DA5A5B6A59C9190
:1019300083A9809589238C93838D948D892B31F095
:10194000862FDF91CF911F910C94610C28E030E03D
:1019500080E8A1A5B2A591A9462F482319F04C9182
:10196000942B03C04C91909594239C93A3A5B4A56C
:101970004C9192A9942B9C93A3A5B4A54C9192A9A8
:10198000909594239C9386952150310911F7DF910E
:10199000CF911F9108958CBD9DBD08951F93CF9346
:1019A000DF93EC01162F8D8D9E8D892BB1F02DA923
:1019B0003EA94FA958AD60E074E284EF90E00E9428
:1019C000B323DA01C9014097A109B109B695A795DA
:1019D000979587958093B8000FC08B8D9C8D892B30
:1019E00021F08EAD9FAD0E94CB0CEFA5F8A99081A0
:1019F0008CA9809589238083111102C066EA01C0F9
:101A000067EACE010E94680C8D8D9E8D892BB1F006
:101A100029AD3AAD4BAD5CAD60E074E284EF90E08F
:101A20000E94B323DA01C9014097A109B109B69513
:101A3000A795979587958093B80006C0EFA5F8A95C
:101A400090818CA9892B8083DF91CF911F9108957C
:101A50008F929F92AF92BF92CF92DF92EF92FF92BE
:101A60000F931F93CF93DF9310911D02113208F053
:101A7000C2C0D0911C020E944A1A6B017C01C09125
:101A8000F401CC2311F18091F6019091F701A0911E
:101A9000F801B091F901892B8A2B8B2B81F30E94DD
:101AA0004A1A8090F6019090F701A090F801B0904A
:101AB000F901DC01CB018C199D09AE09BF0988161B
:101AC0009906AA06BB06D8F682C082E08093F4018C
:101AD00081E08093F3018FEF8093F2011092F10186
:101AE0001093F001ACEFB1E0E0EDF1E080E0181709
:101AF00021F09D9191938F5FFACF1092CF01909139
:101B0000CF018D2F880F892B8093CF018091CE013B
:101B1000813089F51092CE010E944A1A6B017C0136
:101B20008091CF018093BB008091F6019091F701E5
:101B3000A091F801B091F901892B8A2B8B2BA9F088
:101B40000E944A1A0091F6011091F7012091F801C4
:101B50003091F901DC01CB018C199D09AE09BF0957
:101B6000081719072A073B0790F18091BC0083FDF5
:101B7000D7CF85EC01C085EE8093BC000E944A1A45
:101B80006B017C018091F401823039F58091F6017E
:101B90009091F701A091F801B091F901892B8A2B5E
:101BA0008B2B81F30E944A1A0091F6011091F701E4
:101BB0002091F8013091F901DC01CB018C199D09CC
:101BC000AE09BF09081719072A073B07D8F6809105
:101BD000F5010E94E412C5E013C08091F2018F3F2D
:101BE00079F08091F201803241F08091F2018033EE
:101BF00031F0C4E005C0C1E003C0C2E001C0C3E0F1
:101C00001092FB0110921D021092FA018C2FDF91AD
:101C1000CF911F910F91FF90EF90DF90CF90BF90E9
:101C2000AF909F908F900895DF92EF92FF920F9365
:101C30001F93CF93DF93D82ED92FC62F8091E00228
:101C40009091E102009709F454C02091E40231E040
:101C50003093FA0120931C021092FB0110921D0296
:101C6000DC01ED91FC910190F081E02D60E009959F
:101C7000ED2CFD2E11E0D1E08091E0029091E10287
:101C8000CC2371F11032C8F00E94280D8091E4023B
:101C9000D093FA0180931C021092FB0110921D0256
:101CA0008091E0029091E102DC01ED91FC910190C4
:101CB000F081E02D60E0099511E08091E0029091C3
:101CC000E102F7016491DC01ED91FC910190F0815A
:101CD000E02D09951F5FC150BFEFEB1AFB0ACCCF77
:101CE000DF91CF911F910F91FF90EF90DF900C94B7
:101CF000280DE091F002F091F10290818091F602BE
:101D00008095892380830D2D1D2FCC2309F439C0A4
:101D1000F80184912091DE023091DF02232B31F013
:101D20000E94610CC1500F5F1F4FEFCF28E030E0E1
:101D300040E8E091EC02F091ED029091F402582F0E
:101D4000542319F05081952B03C050819095952311
:101D50009083E091EE02F091EF0250819091F502B4
:101D6000952B9083E091EE02F091EF0250819091DB
:101D7000F502909595239083469521503109C9F637
:101D8000D1CFDF91CF911F910F91FF90EF90DF9016
:101D90000895EF92FF920F931F93CF93DF9380915B
:101DA000E0029091E102892BD1F02091F80230916C
:101DB000F9024091FA025091FB0260E074E284EF74
:101DC00090E00E94B323DA01C9014097A109B1094B
:101DD000B695A795979587958093B80016C0809182
:101DE000DE029091DF02892B31F080910103909106
:101DF00002030E94CB0CE091F202F091F302908179
:101E00008091F70280958923808365E08EE295E0DA
:101E10000E94140E6091C702615083EC92E00E9410
:101E2000680C2091C9023091CA02C901079697FD3A
:101E3000079633E0959587953A95E1F72091C7028B
:101E40003091C802829F8001839F100D929F100DD8
:101E50001124C091E202D091E3028091E0029091BE
:101E6000E1020C0F1D1F009709F44CC02091E40201
:101E700031E03093FA0120931C021092FB01109282
:101E80001D02DC01ED91FC910190F081E02D60E4F8
:101E90000995FF24F394EE24E3948091E00290915D
:101EA000E1020C171D0759F1BFE1BF15D0F40E94E4
:101EB000280D8091E402E092FA0180931C021092B6
:101EC000FB0110921D028091E0029091E102DC0181
:101ED000ED91FC910190F081E02D60E40995FF24E3
:101EE000F3948091E0029091E1026991DC01ED911F
:101EF000FC910190F081E02D0995F394CECF0E94E2
:101F0000280D41C0E091F002F091F10290818091A2
:101F1000F602892B80830C171D07A9F18991209166
:101F2000DE023091DF02232B19F00E94610CF3CF07
:101F300028E030E040E8E091EC02F091ED02909171
:101F4000F402582F542319F05081952B03C050816F
:101F5000909595239083E091EE02F091EF025081ED
:101F60009091F502952B9083E091EE02F091EF02B3
:101F700050819091F502909595239083469521503C
:101F80003109C9F6C8CF8091E0029091E102892B16
:101F9000D1F02091FC023091FD024091FE0250915F
:101FA000FF0260E074E284EF90E00E94B323DA0164
:101FB000C9014097A109B109B695A795979587954D
:101FC0008093B80017C0E091F202F091F302908183
:101FD0008091F702892B80838091DE029091DF024D
:101FE000892B41F0DF91CF911F910F91FF90EF90DE
:101FF0000C94600CDF91CF911F910F91FF90EF90A7
:1020000008952091C9023091CA02C901079697FD2F
:10201000079623E0959587952A95E1F72091C702C9
:102020003091C802829FA001839F500D929F500D56
:10203000112460E070E08091E2029091E3020C9440
:1020400038273F924F925F926F927F928F929F922A
:10205000AF92BF92CF92DF92EF92FF920F931F93B6
:10206000CF93DF9300D000D000D0CDB7DEB72C01E6
:102070003B014A015901C901079697FD07969C014A
:1020800093E0359527959A95E1F73C832B83C12CF6
:10209000D12CE12CF12C312CC3018E0D9F1D9A8384
:1020A0008983E016F106C4F51E821D822D813E81D2
:1020B0002A153B054CF5C90187709927892B11F02A
:1020C000330C0EC0ED81FE81F7FD379683E0F59568
:1020D000E7958A95E1F7EC0DFD1DE80DF91D3490AB
:1020E00037FE0CC021E030E049815A816D817E814C
:1020F000640D751D83EC92E00E943C118D819E81E0
:1021000001969E838D83D2CF9FEFE91AF90A2B8126
:102110003C81C20ED31EC0CF26960FB6F894DEBF08
:102120000FBECDBFDF91CF911F910F91FF90EF9028
:10213000DF90CF90BF90AF909F908F907F906F90E7
:102140005F904F903F900895CF93DF93BC0183EC55
:1021500092E00E94CE0AEC016BE871E083EC92E021
:102160000E94CE0A8C0F9D1FDF91CF910895CF93CF
:10217000DF93EDE1F5E08491E4E5F5E0D491E0E46E
:10218000F5E0C491CC2391F081110E94B619EC2F97
:10219000F0E0EE0FFF1FED5CFA4FA591B491EC91CA
:1021A000ED2381E090E021F480E002C080E090E047
:1021B000DF91CF910895CF92DF92EF92FF920F932C
:1021C0001F93CF93DF936B01770FEE08FF08F7FEA5
:1021D0001BC0EC016DE20E94C70A8C014427552701
:1021E000BA014C195D096E097F092AE0CE010E94EF
:1021F000E30A800F911FDF91CF911F910F91FF9004
:10220000EF90DF90CF9008952AE0B701A601DF910B
:10221000CF911F910F91FF90EF90DF90CF900C9492
:10222000E30A81E480937C0080917A00806480934B
:102230007A0080917A0086FDFCCF80917800209111
:10224000790090E0922B08950F931F93DC01ED919C
:10225000FC91068CF78DE02D09951F910F91089543
:102260000F931F93DC01ED91FC91048CF58DE02D13
:1022700009951F910F910895DC01ED91FC91008467
:10228000F185E02D09942F923F924F925F926F92C9
:102290007F928F929F92AF92BF92CF92DF92EF92F6
:1022A000FF920F931F93CF93DF9300D000D000D005
:1022B000CDB7DEB72C017E836D836A015901C80159
:1022C000FC82EB824801841A950A97FE03C0919420
:1022D0008194910835012D813E81621A730A77FE3F
:1022E00003C0719461947108681479045CF43A2D08
:1022F0002B2D5C01832F922F3D812E81DE82CD829A
:10230000C32ED22EAD81BE81AA16BB065CF43C2D35
:102310002D2D6C01832F922F3D812E81BE82AD82A7
:10232000A32EB22E85012D813E81021B130B1C01B1
:102330002C183D0837FE03C03194219431087801F0
:1023400017FF03C03FEFE31AF30AF594E794C816AA
:10235000D9062CF08FEF9FEF9A83898304C0A1E008
:10236000B0E0BA83A9832D813E81A216B30624F181
:10237000D201ED91FC910484F585E02D2B813C8107
:102380006814790424F44D815E81B60103C0A6016E
:102390006D817E81C2010995E218F308F7FE06C03F
:1023A00029813A81C20ED31EE00EF11E8D819E81DD
:1023B00001969E838D83D7CF26960FB6F894DEBF05
:1023C0000FBECDBFDF91CF911F910F91FF90EF9086
:1023D000DF90CF90BF90AF909F908F907F906F9045
:1023E0005F904F903F902F90089540915403262F77
:1023F00030E0240F311D21323105DCF42091F4014D
:102400002430C9F4FC0180E090E0861758F4309144
:1024100054032191DC01AC5CBC4FA30FB11D2C9384
:102420000196F3CF80915403680F6093540380E0CA
:10243000089581E0089582E0089508950895E09157
:10244000A7018091A601E81730F4F0E0ED5EFC4FA3
:10245000808190E008958FEF9FEF08959091A701FC
:102460008091A601981750F4E92FF0E0ED5EFC4F43
:10247000208130E09F5F9093A70102C02FEF3FEFD4
:10248000C90108958091A60190E02091A701821BC7
:1024900091090895CF92DF92EF92FF920F931F93CD
:1024A000CF93DF937C01CB018A012091FA01222393
:1024B00089F0EB016B01C40ED51ECC15DD0569F06A
:1024C0006991D701ED91FC910190F081E02DC70158
:1024D0000995F3CF642F0E94F511C801DF91CF91C8
:1024E0001F910F91FF90EF90DF90CF900895CF93C1
:1024F000DF931F92CDB7DEB769832091FA012223C3
:10250000D1F020911D02203240F021E030E0FC01AA
:102510003383228380E090E015C08091FB01E82F97
:10252000F0E0E450FE4F998190838F5F8093FB0130
:1025300080931D0205C061E0CE0101960E94F51155
:1025400081E090E00F90DF91CF910895089580E0B1
:1025500090E008950E94A91A6093A8017093A901C0
:102560008093AA019093AB0181E08093AC01089520
:102570000E94A91A6093A8017093A9018093AA01EF
:102580009093AB0181E08093AD0108951092F40126
:1025900081E08093F3011092CE0161E082E10E941C
:1025A000DF1961E083E10E94DF19E9EBF0E080814F
:1025B0008E7F808380818D7F808388E48093B800C4
:1025C00085E48093BC000895CF93DF9391E09093CE
:1025D00033038823B9F0C091B800D091BA0080913C
:1025E000BC008A7B8093BC0060E082E10E94DF191E
:1025F00060E083E10E94DF190E94C612D093BA0006
:10260000C093B800DF91CF91089585ED8093BC0011
:102610008091F6019091F701A091F801B091F90134
:102620000796A11DB11D23E0B695A79597958795AF
:102630002A95D1F72091BC0024FF1CC04091F601DF
:102640005091F7016091F8017091F901452B462BEB
:10265000472B81F30097A105B10541F025E32A95A9
:10266000F1F700000197A109B109E4CF8091F501CC
:102670000C94E4121092F40108951F920F920FB679
:102680000F9211242F933F934F935F936F937F93F8
:102690008F939F93AF93BF93EF93FF938091B90074
:1026A000887F803609F49CC068F5883209F45BC0E5
:1026B00090F4803109F454C038F4882309F4F6C04A
:1026C000883009F44DC0F6C0883109F44CC080321E
:1026D00009F45DC0EFC0803409F468C048F4803369
:1026E00009F455C0883309F0E5C08093F201D8C0E1
:1026F000803509F44FC0883509F45DC0883409F08D
:10270000D9C0D6C0883909F4C7C0A8F4883709F4FD
:1027100067C038F4883609F463C0803709F460C0B4
:10272000C9C0883809F4B8C0803909F45FC080385E
:1027300009F0C0C05BC0803B09F486C038F4803A21
:1027400009F466C0883A09F47FC0B4C0803C09F43B
:10275000A7C0883C09F4A4C0883B09F48AC0AAC079
:102760008091CF0110C09091F1018091F0019817F4
:1027700070F5E091F10181E08E0F8093F101F0E0BE
:10278000E053FE4F80818093BB0085EC86C0809330
:10279000F2018EC0E091F10181E08E0F8093F10192
:1027A0008091BB00F0E0E053FE4F80839091F101F7
:1027B0008091F0016EC0E091F10181E08E0F809375
:1027C000F1018091BB00F0E0E053FE4F80838091E7
:1027D000F30181116DC081E08093CE0184EA61C074
:1027E00083E08093F40110927603CFCF809176033B
:1027F000803208F051C0E091760381E08E0F809323
:1028000076038091BB00F0E0EA5AFC4F8083BDCF95
:1028100085EC8093BC001092F401809176038032A5
:1028200030F4E0917603F0E0EA5AFC4F10826091B8
:10283000760370E0E091A201F091A30186E593E0B8
:1028400009951092760336C084E08093F4011092CB
:10285000550310925403E091A401F091A50109954C
:1028600080915403811105C081E08093540310923C
:102870003403E091550381E08E0F80935503F0E01F
:10288000EC5CFC4F80818093BB009091550380915C
:102890005403981708F479CF85E88093BC000AC0E8
:1028A00085EC8093BC001092F40104C01092F201F8
:1028B0000E940513FF91EF91BF91AF919F918F916E
:1028C0007F916F915F914F913F912F910F900FBE2C
:1028D0000F901F901895DC0180E0615098F02D91C9
:1028E000982F9227E92FEF70F0E0EB59FA4F2491DF
:1028F00092959F70E92FF0E0EB58FA4FE491822F08
:102900008E27EBCF0895FC0190810180F281E02DAC
:10291000F8948181892B81832281892F80952823B6
:102920002283A7E0B0E01197F1F721818223818310
:10293000A3E2B0E01197F1F780817894EFECF0E03A
:102940003197F1F7982381E009F480E00895FC01C4
:1029500090810180F281E02D892F809560FF12C067
:10296000F8942281822382838181892B8183A3E24F
:10297000B0E01197F1F78281982B9283789487EDDC
:1029800090E011C0F8942281822382838181892B77
:102990008183AFEFB0E01197F1F78281982B92839A
:1029A00078948FE090E00197F1F70895DF92EF922D
:1029B000FF920F931F93CF93DF93EC01D62EE42E5B
:1029C00008E010E0FF24F39461E08D2D8F2109F4DD
:1029D00060E0CE010E94A714FF0C01501109A1F77D
:1029E000E11010C0F894E981FA8191818881809585
:1029F00089238183E981FA81928188818095892365
:102A000082837894DF91CF911F910F91FF90EF9087
:102A1000DF900895DC012C911196ED91FC911297B5
:102A2000F8948181922F90958923818378948DE702
:102A300043E050E0815021F1DA011197F1F7308144
:102A40003223C1F3F8948281892382838181822B8E
:102A500081837894ABE7B7E01197F1F7F89481811F
:102A60009823918383E191E00197F1F780812823F6
:102A700081E009F080E07894E3E6F6E03197F1F741
:102A80000895EF92FF920F931F93CF93DF93EC0182
:102A9000162F0E940A15882349F11C3CA1F078F4F6
:102AA000153519F540E065E5CE010E94D6148E017A
:102AB0000F5E1F4F7E0189E1E80EF11C0AC01C3E2B
:102AC00011F0103F91F440E0612FCE010E94D61426
:102AD0000AC0F80161918F0140E0CE010E94D61436
:102AE0000E151F05B1F781E001C080E0DF91CF91A5
:102AF0001F910F91FF90EF9008958F929F92AF9248
:102B0000BF92CF92DF92EF92FF920F931F93CF93DA
:102B1000DF93EC0165E50E944115882329F040E030
:102B20006EEBCE010E94D6148E01075E1F4F5E0130
:102B300082E2A80EB11C480188E0C82ED12CF12CED
:102B4000EE24E394CE010E9483148111FE28EE0C42
:102B5000E1E0CE1AD108B1F7F801F1928F01EA1540
:102B6000FB0551F768E0C4010E946B1491E029A1B4
:102B7000281390E0892FDF91CF911F910F91FF9043
:102B8000EF90DF90CF90BF90AF909F908F9008957F
:102B90001F93CF93DF93EC011BA165E50E944115C4
:102BA000882339F041E0111140E064E4CE010E9435
:102BB000D6148BA1882331F0CE010E948314882380
:102BC000D9F31FC08AA18A3089F038F48930C9F45A
:102BD0006EE570E080E090E012C08B3061F08C30E8
:102BE00081F46EEE72E080E090E009C06CEB70E082
:102BF00080E090E004C067E771E080E090E00E9430
:102C00006F1ACE010E947D15898D6A8D9AA19A3026
:102C100031F09B3031F0993029F4887F03C08C7FEC
:102C200001C08E7F70E0762F6627680F711D072E1A
:102C3000000C880B990B0E94F02420E030E040E863
:102C40005DE30E94A525DF91CF911F9108950F9319
:102C50001F93CF93DF938C01EB010E949D23888308
:102C6000C80101960E949D238983CE01DF91CF91F7
:102C70001F910F910895AF92BF92DF92EF92FF9252
:102C80000F931F93CF93DF93EC017B018B015C01CA
:102C900082E0A80EB11CF801D1908F01CE010E94F4
:102CA0009D23D81621F06D2DCE010E94A5232196DB
:102CB000CA15DB0581F7C701DF91CF911F910F91F5
:102CC000FF90EF90DF90BF90AF9008952F923F92CA
:102CD0004F925F926F927F928F929F92AF92BF922C
:102CE000CF92DF92EF92FF920F931F93CF93DF93D8
:102CF000CDB7DEB76B970FB6F894DEBF0FBECDBF72
:102D00009B8F8A8F1B014A01D22E198708873701B2
:102D1000A982DC0159962D913C915A9721153105D4
:102D200009F0FFC018968D919C9119976817790743
:102D30000CF0E7C11A968D919C911B974817590783
:102D40000CF0DFC1EC2DF0E0FB83EA839B0146E051
:102D5000C49E200D311D11243D872C8712161306A9
:102D60000CF0CFC16A2D70E07B876A8783E0660F25
:102D7000771F8A95E1F77F876E87CB01880D991DB4
:102D8000181619060CF0BDC158968C91811104C01B
:102D90008FEA8D1508F4D394AA8DBB8DED91FC912B
:102DA00011970284F385E02DCD010995B5E0DB9EF6
:102DB000C0011124EC2DF0E0F98BE88B91012B5F21
:102DC0003F4F3B8B2A8B3D822C822101AC01421963
:102DD00053095D8B4C8B7981672F70E07F8B6E8BF5
:102DE000C4010896998F888FEC89FD89E40DF51D43
:102DF000E755FA4FD49054019F828E82D0FE16C0C0
:102E0000AA8DBB8DED91FC91B1E0CB1209C0298157
:102E1000213031F40484F585E02D2885398519C0E9
:102E20000684F785E02DE884F9841DC0488559851E
:102E30004615570519F1AA8DBB8DED91FC91B1E0B6
:102E4000CB120DC02981213051F40484F585E02D89
:102E50009301A501B2018A8D9B8D09950FC006844F
:102E6000F785E02D73010A851B852A813B814E8100
:102E70005F816C817D818A8D9B8D0995D6943FEF12
:102E8000A31AB30A4E815F816E897F89460F571F4F
:102E90005F834E83888D998DA816B90609F0AECF51
:102EA0009FEF491A590AAC81BD81E889F989AE0FB3
:102EB000BF1FBD83AC832A893B894216530609F0A4
:102EC00093CF488559854615570509F4F8C0AA8D52
:102ED000BB8DED91FC91B1E0CB1211C02981213065
:102EE00071F4B1016B5F7F4F0088F189E02D8301A0
:102EF00028E030E0A4018A8D9B8D0995E0C06C85A7
:102F00007D854A815B81641B750B0684F785E02D06
:102F100073010E851F859A01A4018A8D9B8D0995E9
:102F2000CEC0F9013496E491DE1AF901329685910A
:102F30009491B7E0DB9E800D911D1124F90125913C
:102F400034913B8B2A8BFC01259134915901FC0172
:102F500032965490319634913C87329674903196E3
:102F6000149141E04C1518F05981523068F0672DEA
:102F7000072C000C770B7D836C83812F012E000CB6
:102F8000990B9B838A8304C01B821A821D821C8238
:102F9000AA8DBB8DED91FC9111970284F385E02DF4
:102FA000CD010995412CD12C612CF981EF2FF0E056
:102FB000FF83EE832C2D30E03B872A87A401410F4D
:102FC000511D17FD5A955F8B4E8BB101670D711D19
:102FD00077FC7A95798F688F7C85671608F06FC0CB
:102FE000262D30E04A815B81420F531FAE81BF81A5
:102FF000A49FC001A59F900DB49F900D1124F401D2
:10300000E80FF91FF98BE88B842D712C4E895F89AD
:10301000420F531F5D8B4C8B751408F04DC051E06F
:10302000580F5E87877041F4C5010196EA89FB89D4
:10303000EA0DFB1DD4905C01D7FE3AC061E0C612D8
:1030400016C07981713099F4AA8DBB8DED91FC91F8
:1030500011970484F585E02D288539854C895D8993
:10306000688D798D670D711DCD01099521C08C8109
:103070009D81870D911DEA85FB858E9FB0018F9FF5
:10308000700D9E9F700D1124620D731DAA8DBB8D56
:10309000ED91FC9111970684F785E02DE884F98481
:1030A0000E811F812A853B8548895989CD01099563
:1030B000DD0C73948E85B0CF450C63948DCFAA8DB3
:1030C000BB8DED91FC9111970688F789E02DCD011C
:1030D0006B960FB6F894DEBF0FBECDBFDF91CF91D8
:1030E0001F910F91FF90EF90DF90CF90BF90AF9026
:1030F0009F908F907F906F905F904F903F902F9018
:1031000009946B960FB6F894DEBF0FBECDBFDF916A
:10311000CF911F910F91FF90EF90DF90CF90BF90D4
:10312000AF909F908F907F906F905F904F903F9067
:103130002F9008950F931F93CF93DF9377FF04C0D1
:10314000260F371F60E070E0DC011496CD91DC9112
:103150001597FB01E20FF31FCE17DF071CF49E014A
:10316000261B370B121613060CF046C0FA0157FD4A
:103170003796DF01E3E0B595A795EA95E1F7AC9FB7
:10318000F001AD9FF00DBC9FF00D11246E0F7F1F5D
:10319000DC015F96ED91FC919097E60FF71F477069
:1031A000552781E090E001C0880F4A95EAF7482F43
:1031B0000130110539F078F002301105E9F42E0FD5
:1031C0003F1F13C02E0F3F1FE217F307A9F08081A6
:1031D000842B8193F9CF80952E0F3F1FE217F307C1
:1031E00059F0908198239193F9CFE217F30721F0DA
:1031F000808184278193F9CFDF91CF911F910F9127
:103200000895EF92FF920F931F93CF93DF93EC01FA
:1032100077FDA5C0EC80FD806E157F050CF09FC08A
:1032200057FF04C0240F351F40E050E08E819F817E
:10323000FA01E20FF31F8E179F071CF49C01241B59
:10324000350B121613060CF08AC0922F842F869528
:10325000869586958E9DD0018F9DB00D11246A0FA5
:103260007B1FAF8DB8A1A60FB71F4770B1F188E0E3
:10327000841B482F682F70E0FB01EF55FA4FE49153
:10328000281798F4621B71092FEF30E002C03595C2
:1032900027956A95E2F7E2230130110549F078F0AD
:1032A0000230110509F05BC00EC00130110519F4A0
:1032B0008C91E82B0AC00130110508F049C0E09557
:1032C0008C91E82302C08C91E827EC93941708F4C2
:1032D00046C02C813D81A20FB31FE92FE41BE830CB
:1032E000F8F00230110561F48E2F9C9190959C931B
:1032F0002C813D81A20FB31F88508830B0F70FC0DA
:1033000081E00115110509F480E081959E2F8C93D1
:103310002C813D81A20FB31F98509830C0F7E77001
:10332000EE23E9F0F0E0E756FA4FE49101301105A1
:1033300039F048F00230110591F48C91E82706C06D
:103340008C91E82B03C0E0958C91E823EC9307C0A7
:103350000230110509F4B7CFAE0DBF1DBECFDF910E
:10336000CF911F910F91FF90EF900895833081F0DE
:1033700028F4813099F08230A1F008958730A9F0C7
:103380008830B9F08430D1F4809180008F7D03C003
:10339000809180008F7780938000089584B58F7727
:1033A00002C084B58F7D84BD08958091B0008F7771
:1033B00003C08091B0008F7D8093B00008951F936B
:1033C000CF93DF93282F30E0F901E65EFA4F849126
:1033D000F901EF5AFA4FD491F901E35CFA4FC49125
:1033E000CC23C1F0162F81110E94B619EC2FF0E00A
:1033F000EE0FFF1FE157FA4FA591B4919FB7F894D4
:10340000111104C08C91D095D82302C0EC91DE2B11
:10341000DC939FBFDF91CF911F910895CF93DF93EE
:1034200090E0FC01EF5AFA4F2491FC01E35CFA4F63
:103430008491882361F190E0880F991FFC01EB577C
:10344000FA4FC591D491FC01E157FA4FA591B4917F
:10345000611109C09FB7F8948881209582238883E1
:10346000EC912E230BC0623061F49FB7F8948881F1
:10347000322F309583238883EC912E2B2C939FBF82
:1034800006C08FB7F894E8812E2B28838FBFDF9179
:10349000CF9108953FB7F89480917C0390917D037C
:1034A000A0917E03B0917F0326B5A89B05C02F3F56
:1034B00019F00196A11DB11D3FBFBA2FA92F982F5A
:1034C0008827820F911DA11DB11DBC01CD0142E0D5
:1034D000660F771F881F991F4A95D1F708958F921D
:1034E0009F92AF92BF92CF92DF92EF92FF926B01C9
:1034F0007C010E944A1A4B015C01C114D104E10411
:10350000F104F1F00E944A1ADC01CB0188199909F3
:10351000AA09BB09883E9340A105B10570F321E0DB
:10352000C21AD108E108F10888EE880E83E0981EDF
:10353000A11CB11CC114D104E104F10419F7DDCFC1
:10354000FF90EF90DF90CF90BF90AF909F908F90C3
:1035500008952FB7F8946091780370917903809162
:103560007A0390917B032FBF08951F920F920FB69D
:103570000F9211242F933F938F939F93AF93BF93F9
:103580008091780390917903A0917A03B0917B03A5
:103590003091770323E0230F2D3720F40196A11DEE
:1035A000B11D05C026E8230F0296A11DB11D209371
:1035B00077038093780390937903A0937A03B09371
:1035C0007B0380917C0390917D03A0917E03B09159
:1035D0007F030196A11DB11D80937C0390937D0311
:1035E000A0937E03B0937F03BF91AF919F918F9182
:1035F0003F912F910F900FBE0F901F901895CF9372
:10360000DF9300D000D0CDB7DEB7789484B5826068
:1036100084BD84B5816084BD85B5826085BD85B576
:10362000816085BD80916E00816080936E001092F4
:10363000810080918100826080938100809181006F
:103640008160809381008091800081608093800000
:103650008091B10084608093B1008091B00081605E
:103660008093B00080917A00846080937A0080918A
:103670007A00826080937A0080917A0081608093E2
:103680007A0080917A00806880937A001092C1005D
:10369000E0912E02F0912F0282E08083E0912A02D5
:1036A000F0912B021082E0912C02F0912D028FEC10
:1036B000808310923602E0913202F091330286E06C
:1036C0008083E0913002F0913102808180618083BB
:1036D000E0913002F0913102808188608083E09136
:1036E0003002F0913102808180688083E091300265
:1036F000F091310280818F7D8083E0910503F0910C
:103700000603138615861486DF011B9633961E92D8
:10371000AE17BF07E1F7BB24B394009105031091E6
:103720000603F801858581115EC0C8010E940A1553
:10373000882309F458C040E060EFC8010E94D61405
:10374000EE24E394C12CA12CFF24F394C8010E9421
:103750008314D82EC8010E948314F1E0DF1203C045
:103760008130C1F437C02C2D30E0D8121DC0F801D3
:103770008385F81630F4E20FF31F83818E2151F414
:1037800002C08F1539F0D12CF8E0FF1560F0F80178
:10379000F48609C0F801EC0DF11D83818E29838325
:1037A000DD24D39409C0AF2CF801E20FF31F9381FD
:1037B0008E2D8095892383836D2DC8010E94A714C7
:1037C000F394EE0C19F4C394EE24E394F7E0FC15A3
:1037D00008F0BCCF20E42F1530F4F801A386A11027
:1037E00007C0B58605C0F8011386158614861DC06E
:1037F000F80183818823B9F33396AEEAB1E0055F1F
:103800001F4F81918D930E171F07D9F78091AE013D
:10381000883209F082CF67E08EEA91E00E946B1453
:103820009091B501891709F478CF8091E2029091C7
:10383000E302892B11F52091C9023091CA02C90116
:10384000079697FD0796B3E095958795BA95E1F7AA
:103850002091C7023091C802AC01429FC001439F32
:10386000900D529F900D11240E9417269093E30211
:103870008093E202892B09F40FC10E94011020916C
:10388000C9023091CA028091C7029091C8022132C8
:1038900031050CF419C3B9016054710977FF02C0F6
:1038A0006F5F7F4F759567958255910997FD0196DA
:1038B00000E410E022E530E04AE552E09595879576
:1038C0000E94211082E08093E5028091E0029091B5
:1038D000E102892B09F40CC38CE38093E40210927B
:1038E000A7011092A6011092FB0110921D020E94E6
:1038F000C6128DE192E19093A5018093A4018EE11F
:1039000092E19093A3018093A2018091EB0287FD45
:103910001EC061E00E940E1A61E08091EB020E94DD
:10392000DF1961E070E080E090E00E946F1A60E0D3
:103930008091EB020E94DF196AE070E080E090E085
:103940000E946F1A61E08091EB020E94DF19809162
:10395000E0029091E102892B09F489C32091F802D9
:103960003091F9024091FA025091FB0260E074E25A
:1039700084EF90E00E94B323DA01C9014097A109C6
:10398000B109B695A795979587958093B80064E09F
:1039900086E790E00E94140E6091C902615083ECAA
:1039A00092E00E94680C64E082E790E00E94140EAE
:1039B0008091E502813009F471C364E183EC92E007
:1039C0000E94680C64E08EE690E00E94140E8FE87E
:1039D000809300038091C7029091C80280389105BE
:1039E00009F060C38091C9029091CA0280349105A8
:1039F00009F06AC38091E502813009F451C38FEC6C
:103A00008093000312E16AED83EC92E00E94680C5F
:103A1000612F83EC92E00E94680C61E883EC92E0F5
:103A20000E94680C6091000383EC92E00E94680C95
:103A300069ED83EC92E00E94680C8091E502813090
:103A400009F444C361EF83EC92E00E94680C66E0E5
:103A500088E690E00E94140E8091E0029091E102CD
:103A6000892B09F435C32091FC023091FD0240916D
:103A7000FE025091FF0260E074E284EF90E00E9449
:103A8000B323DA01C9014097A109B109B695A795F9
:103A9000979587958093B8000E94011082E0F82ED8
:103AA000F092D702F092D80201E010E01093D60213
:103AB0000093D5021093D4020093D3020E94C90E42
:103AC0000E9401101092D0021092CF021092D202E6
:103AD0001092D1028AE691E00E94A41081E08093C6
:103AE000D7028093D80283E791E00E94A4100E943D
:103AF000C90EF092D702F092D802BE016D5F7F4FDF
:103B000080E090E00E942716BE016F5F7F4F84E047
:103B100090E00E942716E980FA80CB80DC80BE010D
:103B20006D5F7F4F88E090E00E942716BE016F5FB7
:103B30007F4F8CE090E00E9427166B817C816C198E
:103B40007D09072E000C880B990B0E94F0244B0175
:103B50005C0169817A816E197F09072E000C880B40
:103B6000990B0E94F0249B01AC01C501B4010E9495
:103B70004D244B015C016093BB027093BC028093A7
:103B8000BD029093BE02B601DD0C880B990B0E941A
:103B9000F0242B013C01B701FF0C880B990B0E940C
:103BA000F024A50194010E94A5259B01AC01C3014D
:103BB000B2010E94DB236093BF027093C002809326
:103BC000C1029093C20261E085E00E940E1A61E09A
:103BD00085E00E94DF1962E083E00E940E1A62E035
:103BE00082E00E940E1A88EB92E190930301809389
:103BF000020180916900837F886080936900E99A5F
:103C00008AEA92E19093010180930001809169001A
:103C10008C7F826080936900E89A1093CD010093B5
:103C2000CC0193E0892E912C2224239433243394C5
:103C300022E0A22EB12C8091CC019091CD01813057
:103C4000910521F0039709F4A8C03BC180910303BB
:103C5000909104030E94C8156B017C010E94111110
:103C60008C01BC01990F880B990B0E94F0242091C4
:103C7000BB023091BC024091BD025091BE020E9435
:103C8000A5252091BF023091C0024091C102509100
:103C9000C2020E94DC232B013C0161E871E08EE14D
:103CA00092E00E94CE0A22E0B701A6018EE192E0E6
:103CB0000E942C0B69E871E08EE192E00E94CE0A2E
:103CC000B8018EE192E00E94DB1069E871E08EE1BC
:103CD00092E00E94CE0A22E0B301A2018EE192E0BE
:103CE0000E942C0B6BE871E08EE192E00E94CE0AFC
:103CF0000E9401101092D0021092CF021092D202B4
:103D00001092D10222E0B701A60183EC92E00E945A
:103D10002C0B67EF83EC92E00E94C70A8EE891E0DB
:103D20000E94A41022E0B301A20183EC92E00E9461
:103D30002C0B6FE971E083EC92E00E94CE0A0E94A6
:103D4000C90E8091AD01811105C08091AC0188231D
:103D500009F4B7C00E94A91A0091A8011091A90105
:103D60002091AA013091AB01DC01CB01801B910BAA
:103D7000A20BB30B813D9740A105B10524F09092B1
:103D8000CD018092CC010E94B710892B09F0B3C1FC
:103D90000E94B710892BF1F2AEC18091C40181114C
:103DA00012C01092BD011092BC011092BF0110927E
:103DB000BE011092C1011092C0011092C301109275
:103DC000C2013092C4018091AD01811104C0809183
:103DD000AC018823D1F064E670E080E090E00E94BE
:103DE0006F1A10E00E94B710892B09F089C10E9458
:103DF000B710892B09F084C18091AD01811123C2D4
:103E00008091AC0181111FC27BC10091040110910E
:103E100005010E94A91A2B013C0180910303909196
:103E200004030E94C8156B017C010E9401101092CE
:103E3000D0021092CF021092D2021092D10222E050
:103E4000B701A60183EC92E00E942C0B67EF83EC94
:103E500092E00E94C70A8EE891E00E94A41080912F
:103E6000B8019091B901A091BA01B091BB01481A73
:103E7000590A6A0A7B0A97E94916510461047104D8
:103E80007CF00E94A91A6093B8017093B9018093E5
:103E9000BA019093BB018091B70182258093B7014D
:103EA0008091B701882359F0B80183EC92E00E9419
:103EB000DB106CE971E083EC92E00E94CE0A0E9474
:103EC000C90E0E948406B7CEB9016052710977FF0E
:103ED00002C06F5F7F4F759567958357910997FD76
:103EE000019600E210E023E730E04AE750E0E6CC3C
:103EF00061E08091E9020E940E1A61E08091EA027D
:103F00000E940E1A8091E902082E000C990BFC0108
:103F1000E35CFA4FE491F0E0EE0FFF1FE157FA4F38
:103F2000259134913093F1022093F002FC01EF5A75
:103F3000FA4FE491E093F6028091EA02082E000C19
:103F4000990BFC01E35CFA4FE491F0E0EE0FFF1FE8
:103F5000E157FA4FA591B491B093F302A093F20206
:103F6000FC01EF5AFA4FE491E093F7028C91E82BB1
:103F7000EC938091DE029091DF02892B09F434C02A
:103F80001FB7F8948091B601811127C0E7E4F5E0EE
:103F90008491EBE5F5E09491E82FF0E0EE0FFF1F40
:103FA000EB57FA4FA591B491EC91E92321F461E02C
:103FB0008AE00E94DF1961E08AE00E940E1A8CB547
:103FC00080618CBD8CB580648CBD61E08DE00E9409
:103FD0000E1A61E08BE00E940E1A8091B6018F5F8D
:103FE0008093B6011FBF91CC61E08091E7020E94EF
:103FF0000E1A61E08091E8020E940E1A8091E70299
:10400000082E000C990BFC01E35CFA4FE491F0E000
:10401000EE0FFF1FE157FA4F259134913093ED02D7
:104020002093EC02FC01EF5AFA4FE491E093F40282
:104030008091E802082E000C990BFC01E35CFA4F1A
:10404000E491F0E0EE0FFF1FE157FA4FA591B49114
:10405000B093EF02A093EE02FC01EF5AFA4FE49105
:10406000E093F5028C91E095E823EC934ECC80919F
:10407000DE029091DF02892B31F080910103909153
:1040800002030E94CB0CE091F202F091F3029081C6
:104090008091F70280958923808379CC60E18ECC72
:1040A0008FE9AECC8036910579F48091C902909168
:1040B000CA02409749F48091E502813011F08FEAFD
:1040C00001C080E18093000312E09DCC62E2BBCC92
:1040D000E091F202F091F30290818091F702892B36
:1040E00080838091DE029091DF02892B09F4D4CC89
:1040F0000E94600CD1CC1092AD011092AC01E1CEC7
:104100002091AD018091040190910501222311F0CD
:10411000019601C0019790930501809304011092CC
:10412000AD011092AC01112309F46FCE81E090E053
:1041300090930701809306018091BE019091BF0189
:104140009A838983BE016F5F7F4F80E090E00E9479
:104150003B168091BC019091BD019A838983BE0179
:104160006F5F7F4F84E090E00E943B168091C20118
:104170009091C3019A838983BE016F5F7F4F88E06E
:1041800090E00E943B168091C0019091C1019A83FA
:104190008983BE016F5F7F4F8CE090E00E943B16E9
:1041A000E090BC01F090BD010091BE011091BF01F3
:1041B0006091C0017091C1016E197F09072E000C3A
:1041C000880B990B0E94F0242B013C016091C201E5
:1041D0007091C301601B710B072E000C880B990BAB
:1041E0000E94F0249B01AC01C301B2010E944D2446
:1041F0002B013C016093BB027093BC028093BD0213
:104200009093BE02B701FF0C880B990B0E94F0241B
:104210006B017C01B801110F880B990B0E94F024EF
:10422000A30192010E94A5259B01AC01C701B60123
:104230000E94DB236093BF027093C0028093C1028F
:104240009093C2023ECE0E94A91A4090A8015090BD
:10425000A9016090AA017090AB01DC01CB01841927
:104260009509A609B709813D9740A105B1050CF450
:10427000B9CD1111B7CD2091060130910701809180
:104280000401909105012130310579F49093BF012B
:104290008093BE010E9411119093BD018093BC01D7
:1042A000B0920701A09206010BC09093C3018093C6
:1042B000C2010E9411119093C1018093C00111E0CD
:1042C0000E9401101092D0021092CF021092D202DE
:1042D0001092D10280E991E00E94A41086E991E059
:1042E0000E94A4100E94C90E1092AD011092AC0160
:1042F00079CDCF93DF93EC0160E084E00E940E1A49
:10430000E5E5F5E0E491E883E1E4F5E0E491F0E04F
:10431000EE0FFF1FED5CFA4F859194919A8389838C
:104320001B861D861C86FE013B9623961292EC1777
:10433000FD07E1F7DF91CF9108956F927F928F9201
:104340009F92AF92BF92CF92DF92EF92FF920F9324
:104350001F93CF93DF93109221021092200288EED8
:1043600093E0A0E0B0E08093220290932302A09318
:104370002402B093250222E131E030931F02209302
:104380001E0225EC30E030932B0220932A0224EC0D
:1043900030E030932D0220932C0220EC30E030935B
:1043A0002F0220932E0221EC30E030933102209333
:1043B000300222EC30E0309333022093320226ECBC
:1043C00030E030933502209334021092370210927D
:1043D00038021092390210923A0210920A03109297
:1043E000090380930B0390930C03A0930D03B093E8
:1043F0000E0384E291E090930803809307038EE01C
:1044000090E00E941726EC010E947921D0930603C8
:10441000C09305038EE290E00E941726EC010E94F3
:1044200079211CA61DA66CECCE010E9441158823A3
:1044300029F040E064EBCE010E94D614CE010E9428
:1044400083148F87812C912C540183946624639468
:104450008E010C5D1F4F7E0181E1E80EF11C8DA5E0
:104460008111E2C060EFCE010E944115882309F45A
:10447000DBC0712CD12CCE010E948314C82ECE013A
:104480000E948314CC2021F0882311F01CA644C084
:104490004D2D47702D2D26952695269530E0C1107F
:1044A000C8C08111D6C08CA5D81609F4C0C08D151E
:1044B00008F4CEC0FE01E20FF31F84A190E0042EA9
:1044C00002C0959587950A94E2F780FFC1C0AFC0FE
:1044D0008D2D869586958695F801E80FF11D6081F2
:1044E00070E08D2D877002C0759567958A95E2F70B
:1044F0006170CE010E94A714D39480E4D81609F409
:10450000CDC0CE010E948314C82ECE010E94831418
:10451000CC20F1F28823E1F2D0930403C09303038B
:104520001092C6021092C50220E830E03093C80213
:104530002093C70280E290E09093CA028093C90260
:104540003093CC022093CB029093CE028093CD0285
:104550001092D9021092D0021092CF021092D20281
:104560001092D10281E08093D8028093D7022FEF7E
:104570003FEF3093D6022093D5023093D40220939C
:10458000D3028093DA021092DB021092DD021092C5
:10459000DC0286E391E09093C4028093C302109200
:1045A000DF021092DE0287E093E09093E1028093B5
:1045B000E0021092E3021092E2028FEF8093E70292
:1045C0008093E8028093E9028093EA028093EB02F1
:1045D00080E89AE1A6E0B0E08093F8029093F902B7
:1045E000A093FA02B093FB0280EA96E8A1E0B0E063
:1045F0008093FC029093FD02A093FE02B093FF0211
:1046000080E58093010310920203DF91CF911F9107
:104610000F91FF90EF90DF90CF90BF90AF909F9061
:104620008F907F906F9008951CA61DA675CFCC2407
:10463000C394FE01E20FF31FD501C40104C0880F2B
:10464000991FAA1FBB1F4A95D2F724A1822B10C025
:104650007D2CFE01E20FF31FD501C40104C0880FB9
:10466000991FAA1FBB1F4A95D2F7809594A1892351
:1046700084A36C2DCE010E94A714D39480E4D81299
:10468000FACE7CA6711001C06DA660EFCE010E942B
:104690004115882309F440CFD12C33CF88E0F801AD
:1046A000D70101900D928A95E1F7CE010E947D1508
:1046B000882309F431CFCE010E9479238AA365E5CE
:1046C000CE010E944115882329F040E064EBCE0121
:1046D0000E94D614CE010E9483148BA3CE010E94A7
:1046E00079239E85981708F48E8788898F5F888B39
:1046F000B6CEFC01858D8F3351F018F48F3151F017
:1047000008C08F3549F08F3721F48CE008958AE096
:104710000895089589E008958BE0089586E391E077
:104720009093C4028093C3028091E2029091E302CD
:10473000009711F00C94AF260895F999FECF92BD21
:1047400081BDF89A992780B50895262FF999FECF53
:104750001FBA92BD81BD20BD0FB6F894FA9AF99A9E
:104760000FBE01960895A1E21A2EAA1BBB1BFD01E4
:104770000DC0AA1FBB1FEE1FFF1FA217B307E40740
:10478000F50720F0A21BB30BE40BF50B661F771F98
:10479000881F991F1A9469F7609570958095909578
:1047A0009B01AC01BD01CF010895EE0FFF1F0590E5
:1047B000F491E02D09945058BB27AA270E94F323B7
:1047C0000C9466250E94582538F00E945F2520F041
:1047D00039F49F3F19F426F40C9455250EF4E09516
:1047E000E7FB0C944F25E92F0E94772558F3BA1761
:1047F000620773078407950720F079F4A6F50C94F7
:1048000099250EF4E0950B2EBA2FA02D0B01B901BE
:1048100090010C01CA01A0011124FF27591B99F036
:10482000593F50F4503E68F11A16F040A22F232F42
:10483000342F4427585FF3CF469537952795A79592
:10484000F0405395C9F77EF41F16BA0B620B730B39
:10485000840BBAF09150A1F0FF0FBB1F661F771FAA
:10486000881FC2F70EC0BA0F621F731F841F48F45F
:10487000879577956795B795F7959E3F08F0B0CFE8
:104880009395880F08F09927EE0F979587950895CF
:104890000E942B2508F481E008950E9461240C9465
:1048A00066250E945F2558F00E94582540F029F4A3
:1048B0005F3F29F00C944F2551110C949A250C94CC
:1048C00055250E94772568F39923B1F3552391F379
:1048D000951B550BBB27AA2762177307840738F06F
:1048E0009F5F5F4F220F331F441FAA1FA9F335D0CC
:1048F0000E2E3AF0E0E832D091505040E695001C80
:10490000CAF72BD0FE2F29D0660F771F881FBB1F39
:10491000261737074807AB07B0E809F0BB0B802D17
:10492000BF01FF2793585F4F3AF09E3F510578F043
:104930000C944F250C949A255F3FE4F3983ED4F3F2
:10494000869577956795B795F7959F5FC9F7880F17
:10495000911D9695879597F90895E1E0660F771F69
:10496000881FBB1F621773078407BA0720F0621BFA
:10497000730B840BBA0BEE1F88F7E09508950E9425
:104980007F2588F09F5798F0B92F9927B751B0F03D
:10499000E1F0660F771F881F991F1AF0BA95C9F7C3
:1049A00014C0B13091F00E949925B1E008950C94A3
:1049B0009925672F782F8827B85F39F0B93FCCF356
:1049C000869577956795B395D9F73EF49095809540
:1049D000709561957F4F8F4F9F4F0895E89409C060
:1049E00097FB3EF490958095709561957F4F8F4F22
:1049F0009F4F9923A9F0F92F96E9BB279395F69538
:104A0000879577956795B795F111F8CFFAF4BB0FB5
:104A100011F460FF1BC06F5F7F4F8F4F9F4F16C019
:104A2000882311F096E911C0772321F09EE8872FA3
:104A3000762F05C0662371F096E8862F70E060E05F
:104A40002AF09A95660F771F881FDAF7880F9695D8
:104A5000879597F90895990F0008550FAA0BE0E87C
:104A6000FEEF16161706E807F907C0F01216130630
:104A7000E407F50798F0621B730B840B950B39F470
:104A80000A2661F0232B242B252B21F408950A26D6
:104A900009F4A140A6958FEF811D811D089597F916
:104AA0009F6780E870E060E008959FEF80EC0895D4
:104AB00000240A94161617061806090608950024FD
:104AC0000A9412161306140605060895092E039477
:104AD000000C11F4882352F0BB0F40F4BF2B11F4EB
:104AE00060FF04C06F5F7F4F8F4F9F4F089557FD4A
:104AF0009058440F551F59F05F3F71F04795880F4C
:104B000097FB991F61F09F3F79F0879508951216E2
:104B100013061406551FF2CF4695F1DF08C016168E
:104B200017061806991FF1CF86957105610508943F
:104B30000895E894BB2766277727CB0197F9089556
:104B40000E942B2508F48FEF08950E94B8250C943D
:104B500066250E94582538F00E945F2520F0952395
:104B600011F00C944F250C94552511240C949A2582
:104B70000E94772570F3959FC1F3950F50E0551F64
:104B8000629FF001729FBB27F00DB11D639FAA27A2
:104B9000F00DB11DAA1F649F6627B00DA11D661FF1
:104BA000829F2227B00DA11D621F739FB00DA11D12
:104BB000621F839FA00D611D221F749F3327A00DCC
:104BC000611D231F849F600D211D822F762F6A2F68
:104BD00011249F5750409AF0F1F088234AF0EE0FCD
:104BE000FF1FBB1F661F771F881F91505040A9F7FA
:104BF0009E3F510580F00C944F250C949A255F3F01
:104C0000E4F3983ED4F3869577956795B795F79535
:104C1000E7959F5FC1F7FE2B880F911D96958795AD
:104C200097F908950E942B25880B990B08950F93EF
:104C30001F93CF93DF938230910510F482E090E0D0
:104C4000E0918203F091830320E030E0A0E0B0E047
:104C5000309719F14081518102811381481759071A
:104C6000C8F08417950769F4109731F012960C93E9
:104C7000129713961C9327C000938203109383030B
:104C800022C02115310519F04217530718F49A0173
:104C9000BD01EF01DF01F801DBCF21153105F9F08E
:104CA000281B390B2430310580F48A819B816115E2
:104CB000710521F0FB019383828304C090938303E9
:104CC00080938203FE01329644C0FE01E20FF31F7F
:104CD0008193919322503109398328833AC02091DE
:104CE000800330918103232B41F420910A013091FC
:104CF0000B013093810320938003209108013091B0
:104D000009012115310541F42DB73EB740910C0141
:104D100050910D01241B350BE0918003F09181032C
:104D2000E217F307A0F42E1B3F0B2817390778F082
:104D3000AC014E5F5F4F2417350748F04E0F5F1FE1
:104D400050938103409380038193919302C0E0E0EC
:104D5000F0E0CF01DF91CF911F910F910895CF9394
:104D6000DF93009709F481C0FC013297138212820D
:104D7000A0918203B0918303109781F42081318147
:104D8000820F931F209180033091810328173907E8
:104D900051F5F0938103E093800367C0ED0120E0BB
:104DA00030E0CE17DF0740F44A815B819E01411558
:104DB0005105F1F0EA01F5CFD383C28340815181DF
:104DC000840F951FC817D90759F488819981840FDA
:104DD000951F0296918380838A819B81938382832E
:104DE0002115310529F4F0938303E09382033DC03C
:104DF000E901FB83EA8349915991C40FD51FEC1750
:104E0000FD0761F480819181840F951F0296E9016D
:104E100099838883828193819B838A83E0E0F0E099
:104E200012968D919C911397009719F0FD01DC016A
:104E3000F7CF8D919C9111979D012E5F3F4F820F6F
:104E4000931F20918003309181032817390769F45B
:104E5000309729F4109283031092820302C01382C8
:104E60001282B0938103A0938003DF91CF910895C4
:104E7000DC0101C06D9341505040E0F7089515E00A
:104E8000C6E5D5E004C0FE010E94D5232196C735B2
:084E9000D107C9F7F894FFCF28
:104E98008105810504000100000084032000000052
:104EA800000015068205AC056206DD05BB05CF05C9
:104EB8000000000077124A12A712010942122E12AE
:104EC8001F1200000000A1098205A712A6128E0673
:104ED80001093C11020930112411431101094C0741
:104EE800CE0C120956094A082D08C00761076E61E1
:104EF8006E00696E66006F7666007048206D657496
:104F0800657200696E7A796E69657220446F6D7595
:104F1800006D656173757265003B000D0A00430002
:104F2800504F494E54005341564544002E3020708E
:024F380048002F
:00000001FF
