:100000000C9457050C94920A0C946B0A0C947F057F
:100010000C947F050C947F050C947F050C947F0550
:100020000C947F050C947F050C947F050C947F0540
:100030000C947F050C947F050C947F050C947F0530
:100040000C94A81A0C947F050C94200C0C94FA0BB9
:100050000C947F050C947F050C947F050C947F0510
:100060000C9407130C947F05DB40A4A62EAF200050
:10007000A1C8D300408DAED580A80000600000006C
:100080000000000000000000000000E00000000090
:1000900000000000000000000001E000000000007F
:1000A000000000000000000001F00000000000005F
:1000B0000000000000000003F0000000000000004D
:1000C00000000000000007F0000000000000000039
:1000D000000000000007F800000000000000000021
:1000E000000000000FF800000003C0007E000001C7
:1000F000E0007F0FF800000003C000FE000001E0F8
:1001000000FFEFF800000003C000FE000001E00067
:10011000FFFFF800000003C000F00000000F007FA8
:10012000FE7FC0000003C000F00000000F003FFE93
:100130007FF83FF1FBCFFCFEF3BC3DEFE01FFE7FFD
:10014000FF7FFBFFDFFEFEFFBC3DEFE01FC6FFFFB2
:100150007FFBFFDFFEFEFFBC3DEFE00FE3C7FE7855
:100160007BC3DE1EF0FFBC3DEF0007FF87FC787B02
:10017000C3DE1EF0F83C3DEF0001FFFFF0007BC343
:10018000C01EF0F03C3DEF0001F37FE03FFBC3CF2A
:10019000FEF0F03C3DEF0003E33F807FFBC3DFFE5A
:1001A000F0F03C3DEF0007E73C00787BC3DE1EF03B
:1001B000F03C3DEF0007FFBE00787BC3DE1EF0F091
:1001C0003C3DEF0007FFFE00787BC3DE1EF0F03CF5
:1001D0003DEF000FFFFE007FFBFFDFFEF0F03FFD75
:1001E000EFE00FFFFF007FFBFFDFFEF0F03FFDEFD2
:1001F000E00FF9FF003E79F9CF9EF0F01F3DE7E0F8
:100200001FF1FF0000000000000000000000001FC0
:1002100080FF007FFFFFFFFFFFFFFFFFFFE01C00ED
:100220007F007FFFFFFFFEB46D888D18E000001F88
:10023000007FFFFFFFFE95AD7DB577E000000F006A
:100240007FFFFFFFFEA5AD9D8D19E0000006007F3A
:10025000FFFFFFFEB5ADEDB57EE000000000000140
:10026000800000000000000000000380000000008B
:10027000000000000007C0000000000000000000B7
:1002800007C00000000000000000000FC0000000D8
:100290000000000000001FE000000000000000005F
:1002A000001FE00000000000000000003FE0000030
:1002B000000000000000003FF0000000000000000F
:1002C00000007FF0000000000000001FF87FF00039
:1002D0000000000000003FFE7FF000000000000072
:1002E000003FFF7FF0000000000000001FFFFBE068
:1002F000000000000000000FFFF9FFC00000000038
:1003000000000FFFF9FFF800000000000007FFF1F8
:10031000FFFF00000000000003FC73FFFF800000EF
:1003200000000001FE3FFFFF80000000000000FF12
:100330001E0FFF000000000000007FFE1FFC0000F9
:1003400000000000003FFFFFF80000000000000078
:100350000FDFFFE0000000000000001F19FFC000D9
:100360000000000000003F3CFF0000000000000013
:10037000007E7CF800000000000000007FFE7C0092
:1003800000000000000000FFFFFC00000000000073
:100390000000FFFFFE0000000000000000FFFFFE65
:1003A0000000000000000001FFEFFE000000000060
:1003B000000001FFCFFE0000000000000003FF0767
:1003C000FE0000000000000003FC07FE000000002B
:1003D00000000003F003FE000000000000000180A8
:1003E00000FE000000000000000000007E00000091
:1003F000000000000000003E0000000000000000BF
:1004000000000C000000000000078000FC0000035A
:10041000C0000000078001FC000003C000000007CE
:100420008001FC000003C0000000078001E0000024
:10043000001E000000078001E00000001E007FE3B6
:10044000F79FF9FDE7787BDFC0FFF7FFBFFDFDFFFA
:10045000787BDFC0FFF7FFBFFDFDFF787BDFC0F0DB
:10046000F787BC3DE1FF787BDE00F0F787BC3DE11C
:10047000F0787BDE0000F787803DE1E0787BDE00EE
:100480007FF7879FFDE1E0787BDE00FFF787BFFD08
:10049000E1E0787BDE00F0F787BC3DE1E0787BDED1
:1004A00000F0F787BC3DE1E0787BDE00F0F787BC29
:1004B0003DE1E0787BDE00FFF7FFBFFDE1E07FFB81
:1004C000DFC0FFF7FFBFFDE1E07FFBDFC07CF3F3A0
:1004D0009F3DE1E03E7BCFC0000000000000000037
:1004E000000000FFFFFFFFFFFFFFFFFFFFC0FFFF58
:1004F000FFFFFD68DB111A31C0FFFFFFFFFD2B5A24
:10050000FB6AEFC0FFFFFFFFFD4B5B3B1A33C0FFF1
:10051000FFFFFFFD6B5BDB6AFDC02200FF210000D7
:10052000000000230026002900040404040404043D
:100530000402020202020203030303030301020492
:100540000810204080010204081020010204081055
:1005500020005EBCE2613FDD83C29C7E20A3FD1FC4
:1005600041009D23BE46DB65F88C11AF32CA57E9C6
:100570007400000000240027002A0000000000256D
:100580000028002B00000000080002010000030406
:10059000070000000000000000000103070F1F3FDC
:1005A0007F0080C0E0F0F8FCFE00000000003E5B31
:1005B0004F5B3E3E6B4F6B3E1C3E7C3E1C183C7EB0
:1005C0003C181C577D571C1C5E7F5E1C00183C1895
:1005D00000FFE7C3E7FF0018241800FFE7DBE7FF91
:1005E00030483A060E2629792926407F050507401E
:1005F0007F05253F5A3CE73C5A7F3E1C1C08081CDF
:100600001C3E7F14227F22145F5F005F5F06097F1C
:10061000017F006689956A606060606094A2FFA2B5
:100620009408047E040810207E201008082A1C0864
:10063000081C2A08081E101010100C1E0C1E0C306E
:10064000383E3830060E3E0E060000000000000066
:100650005F00000007000700147F147F14242A7F26
:100660002A122313086462364956205000080703F3
:1006700000001C2241000041221C002A1C7F1C2A71
:1006800008083E08080080703000080808080800C4
:100690000060600020100804023E5149453E0042BF
:1006A0007F400072494949462141494D331814128F
:1006B0007F1027454545393C4A49493141211109B7
:1006C000073649494936464949291E0000140000A9
:1006D00000403400000008142241141414141400C3
:1006E0004122140802015909063E415D594E7C120F
:1006F00011127C7F494949363E414141227F4141A7
:10070000413E7F494949417F090909013E41415123
:10071000737F0808087F00417F41002040413F016E
:100720007F081422417F404040407F021C027F7FAF
:100730000408107F3E4141413E7F090909063E41C0
:1007400051215E7F09192946264949493203017F13
:1007500001033F4040403F1F2040201F3F403840A2
:100760003F631408146303047804036159494D433B
:10077000007F4141410204081020004141417F04B3
:10078000020102044040404040000307080020549A
:100790005478407F284444383844444428384444FA
:1007A000287F385454541800087E090218A4A49CC9
:1007B000787F0804047800447D40002040403D00DC
:1007C0007F1028440000417F40007C047804787C3E
:1007D000080404783844444438FC182424181824A5
:1007E0002418FC7C08040408485454542404043F8E
:1007F00044243C4040207C1C2040201C3C40304095
:100800003C44281028444C9090907C4464544C44C0
:100810000008364100000077000000413608000261
:10082000010204023C2623263C1EA1A161123A408B
:1008300040207A3854545559215555794122545401
:100840007842215554784020545579400C1E5272FC
:1008500012395555555939545454593955545458D9
:100860000000457C410002457D420001457C407D01
:100870001211127DF0282528F07C54554500205493
:10088000547C547C0A097F4932494949323A4444EC
:10089000443A324A4848303A4141217A3A4240206B
:1008A00078009DA0A07D3D4242423D3D4040403DFC
:1008B0003C24FF2424487E4943662B2FFC2F2BFF2A
:1008C0000929F620C0887E0903205454794100008C
:1008D000447D413048484A32384040227A007A0A02
:1008E0000A727D0D19317D2629292F2826292929CB
:1008F0002630484D402038080808080808080838FD
:100900002F10C8ACBA2F102834FA00007B00000862
:10091000142A142222142A14085500550055AA55E9
:10092000AA55AAFF55FF55FF000000FF0010101048
:10093000FF00141414FF001010FF00FF1010F0103F
:10094000F0141414FC001414F700FF0000FF00FF63
:100950001414F404FC141417101F10101F101F148B
:1009600014141F00101010F0000000001F101010D1
:10097000101F10101010F010000000FF10101010C9
:100980001010101010FF10000000FF140000FF00F6
:10099000FF00001F10170000FC04F41414171017B8
:1009A0001414F404F40000FF00F7141414141414C5
:1009B00014F700F7141414171410101F101F141438
:1009C00014F4141010F010F000001F101F000000AD
:1009D0001F14000000FC140000F010F01010FF10B5
:1009E000FF141414FF141010101F00000000F0106A
:1009F000FFFFFFFFFFF0F0F0F0F0FFFFFF0000004F
:100A00000000FFFF0F0F0F0F0F3844443844FC4A1B
:100A10004A4A347E02020606027E027E026355497D
:100A200041633844443C04407E201E2006027E027E
:100A30000299A5E7A5991C2A492A1C4C7201724CFF
:100A4000304A4D4D303048784830BC625A463D3EC1
:100A5000494949007E0101017E2A2A2A2A2A444462
:100A60005F444440514A444040444A51400000FFE2
:100A70000103E080FF000008086B6B083612362483
:100A800036060F090F0600001818000000101000AD
:100A90003040FF0101001F01011E00191D17120047
:100AA0003C3C3C3C000000000000A62197231124A0
:100AB0001FBECFEFD8E0DEBFCDBF11E0A0E0B1E0B8
:100AC000E4EBFEE402C005900D92AC39B107D9F712
:100AD00023E0ACE9B1E001C01D92AE37B207E1F707
:100AE00015E0C6E5D5E004C02197FE010E94DE2393
:100AF000C535D107C9F70E94F21A0C944D270C9402
:100B000000000895CF92DF92EF92FF920F931F9310
:100B1000CF93DF936C017A018B01C0E0D0E0CE155A
:100B2000DF0581F0D8016D918D01D601ED91FC9129
:100B30000190F081E02DC6010995892B11F02196D5
:100B4000EECF7E01C701DF91CF911F910F91FF90F2
:100B5000EF90DF90CF900895FC01538D448D252FA9
:100B600030E0842F90E0821B930B541710F0CF9647
:100B7000089501970895FC01918D828D981761F079
:100B8000828DDF01A80FB11D5D968C91928D9F5FC4
:100B90009F73928F90E008958FEF9FEF0895FC016F
:100BA000918D828D981731F0828DE80FF11D858D22
:100BB00090E008958FEF9FEF0895FC01918D228DB5
:100BC000892F90E0805C9F4F821B91098F7399273A
:100BD000089588E192E00E94DD0521E0892B09F467
:100BE00020E0822F0895FC01848DDF01A80FB11D44
:100BF000A35ABF4F2C91848D90E001968F73992753
:100C0000848FA689B7892C93A089B1898C91837030
:100C100080648C93938D848D981306C00288F38929
:100C2000E02D80818F7D80830895EF92FF920F9356
:100C30001F93CF93DF93EC0181E0888F9B8D8C8D88
:100C4000981305C0E889F989808185FD26C0F62EB4
:100C50000B8D10E00F5F1F4F0F731127E02E8C8D4F
:100C6000E8120CC00FB607FCFACFE889F989808139
:100C700085FFF5CFCE010E94F305F1CF8B8DFE01EC
:100C8000E80FF11DE35AFF4FF0829FB7F8940B8FE6
:100C9000EA89FB89808180620AC09FB7F894EE8957
:100CA000FF896083E889F98980818370806480830B
:100CB0009FBF81E090E0DF91CF911F910F91FF9056
:100CC000EF900895CF93DF93EC01888D8823C9F0CE
:100CD000EA89FB89808185FD05C0A889B9898C9145
:100CE00086FD0FC00FB607FCF5CF808185FFF2CFE0
:100CF000A889B9898C9185FFEDCFCE010E94F305BB
:100D0000E7CFDF91CF91089580E090E0892B29F023
:100D10000E94E90581110C9400000895FC0177FD03
:100D2000B9C080859185681779070CF0B3C057FD6D
:100D3000B1C082859385481759070CF008958689BC
:100D4000823079F484819581DC01A61BB70BBD014B
:100D50006150710986819781DC01A41BB50BAD013F
:100D60000EC0833009F084C064277527CA01862726
:100D700097276827792746815781481B590B41508F
:100D800051092130310531F048F12230310509F4A3
:100D90004AC00895CA0157FD07969C01A3E0359506
:100DA0002795AA95E1F7A481B5812A9FC0012B9FC1
:100DB000900D3A9F900D1124680F791F078CF0A1B8
:100DC000E02DE60FF71F4770552781E090E001C046
:100DD000880F4A95EAF79081892B48C0CA0157FDD0
:100DE00007969C0193E0359527959A95E1F7A481A4
:100DF000B5812A9FC0012B9F900D3A9F900D112421
:100E0000680F791F078CF0A1E02DE60FF71F4770E0
:100E1000552781E090E001C0880F4A95EAF7809558
:100E20009081892323C0CA0157FD07969C0183E066
:100E3000359527958A95E1F7A481B5812A9FC00150
:100E40002B9F900D3A9F900D1124680F791F078CEE
:100E5000F0A1E02DE60FF71F4770552781E090E0E5
:100E600001C0880F4A95EAF7908189278083089509
:100E7000813009F086CF64277527462757276427D6
:100E8000752784819581DC01A61BB70BBD016150DC
:100E9000710977CF08950895FC016370668B848192
:100EA000958126813781613039F0633029F091874F
:100EB00080873387228708953187208793878287A9
:100EC00008956F927F928F929F92AF92BF92CF922E
:100ED000DF92EF92FF920F931F93CF93DF93EC017A
:100EE0004B015A0169013801E881F9810284F385D7
:100EF000E02D0995E881F9810288F389E02D8701C9
:100F00009601A501B401CE010995A501460D571D15
:100F100041505109E881F9810288F389E02D960159
:100F2000B401CE010995E881F9810088F189E02DAD
:100F30009301A501B401CE010995C80CD91CB601D5
:100F400061507109E881F9810088F189E02D9301F0
:100F5000A501CE010995E881F9810688F789E02D80
:100F6000CE01DF91CF911F910F91FF90EF90DF9015
:100F7000CF90BF90AF909F908F907F906F9009948B
:100F80008F929F92AF92BF92CF92DF92EF92FF9299
:100F90000F931F93CF93DF934C016B015A01E9012B
:100FA000DC01ED91FC916217730781F404171507BA
:100FB00024F48B2D5801042F182F0A191B099801AE
:100FC0002F5F3F4F048CF58DE02D12C04017510765
:100FD00009F52617370724F48D2D6901C62FD82F60
:100FE0009E012C193D092F5F3F4F068CF78DE02D98
:100FF0008701A501B601C4010995DF91CF911F9129
:101000000F91FF90EF90DF90CF90BF90AF909F90A7
:101010008F9008950284F385E02D0995D401ED9118
:10102000FC910488F589E02D9E01A501B601C4015B
:101030000995D401ED91FC910688F789E02DC40152
:10104000DF91CF911F910F91FF90EF90DF90CF90A4
:10105000BF90AF909F908F900994EF92FF920F9363
:101060001F93DC011A960D911C911B9718962D91D8
:101070003C911997ED91FC9100A0F1A1E02D7B012D
:1010800040E050E060E070E009951F910F91FF9003
:10109000EF9008954F925F926F927F928F929F92FE
:1010A000AF92BF92CF92DF92EF92FF920F931F9376
:1010B000CF93DF936C012B015A0139014801DC0108
:1010C000ED91FC910284F385E02D0995E201640C19
:1010D000751CD601ED91FC91C615D7055CF400880E
:1010E000F189E02D87019401A501BE01C601099592
:1010F0002196EFCF0688F789E02DC601DF91CF91C9
:101100001F910F91FF90EF90DF90CF90BF90AF9025
:101110009F908F907F906F905F904F9009948F92E7
:101120009F92AF92BF92CF92DF92EF92FF920F9376
:101130001F93CF93DF93EC015B014A016901E881C2
:10114000F9810284F385E02D099595012C0D3D1D53
:1011500021503109E881F9810488F589E02D780171
:101160008401A401B501CE010995E881F9810688C1
:10117000F789E02DCE01DF91CF911F910F91FF9064
:10118000EF90DF90CF90BF90AF909F908F90099499
:101190008F929F92AF92BF92CF92DF92EF92FF9287
:1011A0000F931F93CF93DF93EC015B014A01690119
:1011B0007801E881F9810284F385E02D0995C80C56
:1011C000D91C860101501109E881F9810488F5894B
:1011D000E02D9501A401B501CE010995E881F981C1
:1011E0000688F789E02DCE01DF91CF911F910F91F5
:1011F000FF90EF90DF90CF90BF90AF909F908F9037
:10120000099408950E9441270F931F93CF93DF9372
:10121000DC015696EC915697E23071F0E330E9F03C
:10122000E13079F5FB0114960D90BC91A02DA41B23
:10123000B50BA21BB30B18C0EC01EC81FD81E61BC2
:10124000F70BBF0161507109EE81FF81DF01A41B23
:10125000B50BAD01421B530B14C0DA01EC01EE815A
:10126000FF81E61BF70B3197F7FD0DC0EC014E81B6
:101270005F81E417F5073CF4AF01BD010E948D18B2
:1012800002C00E94F418DF91CF911F910F91089531
:101290000F931F93DC015696EC915697E23061F064
:1012A000E33009F1E13081F51496ED91FC91159749
:1012B000E41BF50B319723C0DC011496ED91FC91F2
:1012C0001597DF01A61BB70BBD01DC011696ED914A
:1012D000FC911797DF01A41BB50BAD0141505109DB
:1012E000621B730B11C0FA01DC0116964D915C91E3
:1012F0001797DA01A61BB70BBD01621B730BAB017D
:10130000BF010E94F4180CC057FD0AC0DC011696FC
:10131000ED91FC9117974E175F0714F40E948D18FA
:101320001F910F9108958F929F92AF92CF92EF925B
:10133000FF920F931F93CF93DF93EC01262F898D9C
:101340009A8D009709F042C06A3059F41D861C86B8
:101350002D898E859F8538E0239F800D911D112456
:1013600043C06D3009F4AAC08F898823C9F03C8935
:101370008C859D8546E0349F800D911D1124488504
:1013800059854817590764F41D861C863D898E854A
:101390009F8548E0349F800D911D11249F878E8783
:1013A000EA88FB88088919894E855F856C857D856B
:1013B000AD88CC88CE010E9459162C898C859D85DC
:1013C00036E0239F800D911D11243EC06A3079F4D0
:1013D0001D861C862D89FC013896E4918E859F859B
:1013E0002E9F800D911D11249F878E8767C06D30C1
:1013F00009F464C0FC0134963491631708F45EC0AC
:101400003296E491E61708F459C0462F431B342F57
:10141000FC0132968590949047E0349F800C911C9B
:101420001124F401329634913196E491332311F072
:10143000E1110DC0F4013496E4912C898C859D85D1
:10144000E29F800D911D11249D878C8737C0F40188
:10145000359644915F89552319F15C89E32FF0E0BB
:10146000E40FF11D47FDFA955E9FB0015F9F700D7F
:1014700011244C855D85460F571F68857985641753
:10148000750774F41D861C863D89FC013896E4912D
:101490008E859F853E9F800D911D11249F878E878D
:1014A000EA88FB88088919894E855F856C857D856A
:1014B000AD88CC88CE010E945916BCCF81E090E067
:1014C000DF91CF911F910F91FF90EF90CF90AF9050
:1014D0009F908F9008951F920F920FB60F92112434
:1014E0002F933F934F935F936F937F938F939F932C
:1014F000AF93BF93EF93FF93E0910201F09103014B
:101500000995FF91EF91BF91AF919F918F917F913D
:101510006F915F914F913F912F910F900FBE0F9060
:101520001F9018951F920F920FB60F9211242F93B0
:101530003F934F935F936F937F938F939F93AF935B
:10154000BF93EF93FF93E0910001F09101010995A2
:10155000FF91EF91BF91AF919F918F917F916F918B
:101560005F914F913F912F910F900FBE0F901F9061
:101570001895DC01ED91FC910190F081E02D09942A
:101580006115710579F0FB0101900020E9F73197B1
:10159000AF01461B570BDC01ED91FC910280F381FA
:1015A000E02D099480E090E008958F929F92AF9291
:1015B000BF92EF92FF920F931F93CF93DF93CDB71C
:1015C000DEB7A1970FB6F894DEBF0FBECDBF7C018A
:1015D000FA01CB0119A2223008F42AE08E010F5D36
:1015E0001F4F822E912CA12CB12CBF01A50194017B
:1015F0000E94BC23F901CA01015011096A3014F498
:10160000605D01C0695CD8016C93232B242B252BD2
:1016100061F7B801C7010E94C00AA1960FB6F894FD
:10162000DEBF0FBECDBFDF91CF911F910F91FF9015
:10163000EF90BF90AF909F908F9008957F928F9280
:101640009F92AF92BF92CF92DF92EF92FF920F9351
:101650001F93CF93DF938C016A017B01722E9A0155
:10166000AB01C701B6010E941B26882319F06FE861
:1016700071E027C046015701E894B7F82FEF3FEF1C
:101680004FE75FE7C501B4010E941B2681110DC021
:101690002FEF3FEF4FE75FE7C501B4010E945124F0
:1016A00018161CF463E971E00CC02FEF3FEF4FE711
:1016B0005FE4C701B6010E94A925181694F467E9F2
:1016C00071E0C801DF91CF911F910F91FF90EF90D2
:1016D000DF90CF90BF90AF909F908F907F900C94B1
:1016E000C00A2FEF3FEF4FE75FECC701B6010E9442
:1016F000512487FDE4CF20E030E0A901C701B60105
:101700000E94512487FF0AC06DE2C8010E94B90AF5
:10171000EC01F7FAF094F7F8F09402C0C0E0D0E0E2
:10172000B12C60E070E080E09FE37B1441F020E0AA
:1017300030E040E251E40E945624B394F6CFA70172
:1017400096010E94E5236B017C010E94C8244B0195
:101750005C012AE0AB01BC01C8010E94D50AC80F98
:10176000D91F7720C1F1C501B4010E94F7249B0164
:10177000AC01C701B6010E94E4236B017C016EE25B
:10178000C8010E94B90AC80FD91F20E030E040E22A
:1017900051E4C701B6010E94AE254B015C010E94D5
:1017A000C8246B01E12CF12C2AE0B701A601C80185
:1017B0000E94D50AC80FD91FC701B6010E94F7249D
:1017C0009B01AC01C501B4010E94E4236B017C01C3
:1017D0007A947110DACFCE01DF91CF911F910F91E2
:1017E000FF90EF90DF90CF90BF90AF909F908F9041
:1017F0007F9008951F920F920FB60F9211242F938E
:101800003F934F935F936F937F938F939F93AF9388
:10181000BF93EF93FF9388E192E00E94F305FF915D
:10182000EF91BF91AF919F918F917F916F915F9158
:101830004F913F912F910F900FBE0F901F901895D1
:101840001F920F920FB60F9211242F938F939F9395
:10185000EF93FF93E0912802F09129028081E091BB
:101860002E02F0912F0282FD12C0908180913102F0
:101870008F5F8F7320913202821751F0E091310215
:10188000F0E0E85EFD4F958F8093310201C08081CA
:10189000FF91EF919F918F912F910F900FBE0F901D
:1018A0001F90189508958EBD00000DB407FEFDCF62
:1018B0008EB508951F93CF93DF93FC01858D968D90
:1018C000009729F1162FEF0121A131E03093F401A7
:1018D000209316021092F50110921702DC01ED918F
:1018E000FC910190F081E02D60E009958D8D9E8D39
:1018F000DC01ED91FC910190F081E02D612F0995C3
:101900008D8D9E8DDF91CF911F910C941A0DA5A501
:10191000B6A59C9183A9809589238C93838D948D02
:10192000892B31F0862FDF91CF911F910C94530CAE
:1019300028E030E080E8A1A5B2A591A9462F482370
:1019400019F04C91942B03C04C91909594239C9347
:10195000A3A5B4A54C9192A9942B9C93A3A5B4A53F
:101960004C9192A9909594239C938695215031098E
:1019700011F7DF91CF911F9108958CBD9DBD089502
:101980001F93CF93DF93EC01162F8D8D9E8D892BA6
:10199000B1F02DA93EA94FA958AD60E074E284EFE3
:1019A00090E00E94BC23DA01C9014097A109B10966
:1019B000B695A795979587958093B8000FC08B8DA6
:1019C0009C8D892B21F08EAD9FAD0E94BD0CEFA5A3
:1019D000F8A990818CA9809589238083111102C078
:1019E00066EA01C067EACE010E945A0C8D8D9E8D79
:1019F000892BB1F029AD3AAD4BAD5CAD60E074E23E
:101A000084EF90E00E94BC23DA01C9014097A1094C
:101A1000B109B695A795979587958093B80006C0AC
:101A2000EFA5F8A990818CA9892B8083DF91CF91B4
:101A30001F9108958F929F92AF92BF92CF92DF92A3
:101A4000EF92FF920F931F93CF93DF9310911702A2
:101A5000113208F0C2C0D09116020E943D1A6B01EB
:101A60007C01C091EE01CC2311F18091F0019091A5
:101A7000F101A091F201B091F301892B8A2B8B2BFC
:101A800081F30E943D1A8090F0019090F101A090A6
:101A9000F201B090F301DC01CB018C199D09AE0974
:101AA000BF0988169906AA06BB06D8F682C082E04E
:101AB0008093EE0181E08093ED018FEF8093EC0144
:101AC0001092EB011093EA01A6EFB1E0EAECF1E02D
:101AD00080E0181721F09D9191938F5FFACF1092BB
:101AE000C9019091C9018D2F880F892B8093C9015D
:101AF0008091C801813089F51092C8010E943D1A79
:101B00006B017C018091C9018093BB008091F00141
:101B10009091F101A091F201B091F301892B8A2BF0
:101B20008B2BA9F00E943D1A0091F0011091F10158
:101B30002091F2013091F301DC01CB018C199D0958
:101B4000AE09BF09081719072A073B0790F18091D2
:101B5000BC0083FDD7CF85EC01C085EE8093BC002F
:101B60000E943D1A6B017C018091EE01823039F5B3
:101B70008091F0019091F101A091F201B091F301F7
:101B8000892B8A2B8B2B81F30E943D1A0091F00147
:101B90001091F1012091F2013091F301DC01CB01B0
:101BA0008C199D09AE09BF09081719072A073B07B9
:101BB000D8F68091EF010E94AE12C5E013C080916B
:101BC000EC018F3F79F08091EC01803241F08091FF
:101BD000EC01803331F0C4E005C0C1E003C0C2E0D5
:101BE00001C0C3E01092F501109217021092F401A7
:101BF0008C2FDF91CF911F910F91FF90EF90DF908D
:101C0000CF90BF90AF909F908F900895DF92EF920A
:101C1000FF920F931F93CF93DF93D82ED92FC62F08
:101C20008091DA029091DB02009709F454C0209170
:101C3000DE0231E03093F401209316021092F50198
:101C400010921702DC01ED91FC910190F081E02DE2
:101C500060E00995ED2CFD2E11E0D1E08091DA02D3
:101C60009091DB02CC2371F11032C8F00E941A0D62
:101C70008091DE02D093F401809316021092F50158
:101C8000109217028091DA029091DB02DC01ED9153
:101C9000FC910190F081E02D60E0099511E08091C8
:101CA000DA029091DB02F7016491DC01ED91FC9185
:101CB0000190F081E02D09951F5FC150BFEFEB1A35
:101CC000FB0ACCCFDF91CF911F910F91FF90EF9046
:101CD000DF900C941A0DE091EA02F091EB029081F2
:101CE0008091F0028095892380830D2D1D2FCC23B8
:101CF00009F439C0F80184912091D8023091D902B9
:101D0000232B31F00E94530CC1500F5F1F4FEFCFB8
:101D100028E030E040E8E091E602F091E70290919F
:101D2000EE02582F542319F05081952B03C0508197
:101D3000909595239083E091E802F091E90250811B
:101D40009091EF02952B9083E091E802F091E902E7
:101D500050819091EF029095952390834695215064
:101D60003109C9F6D1CFDF91CF911F910F91FF902B
:101D7000EF90DF900895EF92FF920F931F93CF9310
:101D8000DF938091DA029091DB02892BD1F02091D0
:101D9000F2023091F3024091F4025091F50260E0BA
:101DA00074E284EF90E00E94BC23DA01C9014097FD
:101DB000A109B109B695A795979587958093B80025
:101DC00016C08091D8029091D902892B31F0809170
:101DD000FB029091FC020E94BD0CE091EC02F0919C
:101DE000ED0290818091F10280958923808365E0E6
:101DF0008AE195E00E94060E6091C10261508DEB70
:101E000092E00E945A0C2091C3023091C402C90191
:101E1000079697FD079633E0959587953A95E1F7F4
:101E20002091C1023091C202829F8001839F100DD8
:101E3000929F100D1124C091DC02D091DD0280919F
:101E4000DA029091DB020C0F1D1F009709F44CC0C1
:101E50002091DE0231E03093F401209316021092BB
:101E6000F50110921702DC01ED91FC910190F081D7
:101E7000E02D60E40995FF24F394EE24E39480912F
:101E8000DA029091DB020C171D0759F1BFE1BF1573
:101E9000D0F40E941A0D8091DE02E092F40180934A
:101EA00016021092F501109217028091DA029091B9
:101EB000DB02DC01ED91FC910190F081E02D60E40A
:101EC0000995FF24F3948091DA029091DB026991E5
:101ED000DC01ED91FC910190F081E02D0995F394E6
:101EE000CECF0E941A0D41C0E091EA02F091EB02C0
:101EF00090818091F002892B80830C171D07A9F136
:101F000089912091D8023091D902232B19F00E9497
:101F1000530CF3CF28E030E040E8E091E602F09186
:101F2000E7029091EE02582F542319F05081952B1F
:101F300003C05081909595239083E091E802F09141
:101F4000E90250819091EF02952B9083E091E80295
:101F5000F091E90250819091EF0290959523908342
:101F6000469521503109C9F6C8CF8091DA02909187
:101F7000DB02892BD1F02091F6023091F7024091DB
:101F8000F8025091F90260E074E284EF90E00E9460
:101F9000BC23DA01C9014097A109B109B695A795FB
:101FA000979587958093B80017C0E091EC02F09167
:101FB000ED0290818091F102892B80838091D8027B
:101FC0009091D902892B41F0DF91CF911F910F9110
:101FD000FF90EF900C94520CDF91CF911F910F91D5
:101FE000FF90EF9008952091C3023091C402C9017F
:101FF000079697FD079623E0959587952A95E1F733
:102000002091C1023091C202829FA001839F500D96
:10201000929F500D112460E070E08091DC0290915D
:10202000DD020C9446273F924F925F926F927F920F
:102030008F929F92AF92BF92CF92DF92EF92FF92D8
:102040000F931F93CF93DF9300D000D000D0CDB774
:10205000DEB72C013B014A015901C901079697FDE2
:1020600007969C0193E0359527959A95E1F73C8377
:102070002B83C12CD12CE12CF12C312CC3018E0DE2
:102080009F1D9A838983E016F106C4F51E821D8286
:102090002D813E812A153B054CF5C9018770992792
:1020A000892B11F0330C0EC0ED81FE81F7FD3796C0
:1020B00083E0F595E7958A95E1F7EC0DFD1DE80DB8
:1020C000F91D349037FE0CC021E030E049815A817F
:1020D0006D817E81640D751D8DEB92E00E941A1159
:1020E0008D819E8101969E838D83D2CF9FEFE91AC9
:1020F000F90A2B813C81C20ED31EC0CF26960FB6A3
:10210000F894DEBF0FBECDBFDF91CF911F910F912D
:10211000FF90EF90DF90CF90BF90AF909F908F9007
:102120007F906F905F904F903F900895CF93DF9393
:10213000BC018DEB92E00E94C00AEC0162E871E004
:102140008DEB92E00E94C00A8C0F9D1FDF91CF9112
:102150000895CF92DF92EF92FF920F931F93CF9348
:10216000DF936B01770FEE08FF08F7FE1BC0EC0151
:102170006DE20E94B90A8C0144275527BA014C1917
:102180005D096E097F092AE0CE010E94D50A800F01
:10219000911FDF91CF911F910F91FF90EF90DF90F2
:1021A000CF9008952AE0B701A601DF91CF911F914A
:1021B0000F91FF90EF90DF90CF900C94D50A81E4BF
:1021C00080937C0080917A00806480937A00809173
:1021D0007A0086FDFCCF809178002091790090E014
:1021E000922B0895EF92FF920F931F93DC01ED91D4
:1021F000FC9100A0F1A1E02D09951F910F91FF9096
:10220000EF9008950F931F93DC01ED91FC91068CE4
:10221000F78DE02D09951F910F9108950F931F934E
:10222000DC01ED91FC91048CF58DE02D09951F9159
:102230000F910895DC01ED91FC910084F185E02D72
:1022400009942F923F924F925F926F927F928F925A
:102250009F92AF92BF92CF92DF92EF92FF920F9335
:102260001F93CF93DF9300D000D000D0CDB7DEB75F
:102270002C017E836D836A015901C801FC82EB82C7
:102280004801841A950A97FE03C09194819491089D
:1022900035012D813E81621A730A77FE03C0719465
:1022A00061947108681479045CF43A2D2B2D5C015B
:1022B000832F922F3D812E81DE82CD82C32ED22E9E
:1022C000AD81BE81AA16BB065CF43C2D2D2D6C01A0
:1022D000832F922F3D812E81BE82AD82A32EB22EFE
:1022E00085012D813E81021B130B1C012C183D081A
:1022F00037FE03C0319421943108780117FF03C0E1
:102300003FEFE31AF30AF594E794C816D9062CF0C8
:102310008FEF9FEF9A83898304C0A1E0B0E0BA8376
:10232000A9832D813E81A216B30624F1D201ED913D
:10233000FC910484F585E02D2B813C81681479049F
:1023400024F44D815E81B60103C0A6016D817E81BA
:10235000C2010995E218F308F7FE06C029813A8107
:10236000C20ED31EE00EF11E8D819E8101969E83CA
:102370008D83D7CF26960FB6F894DEBF0FBECDBFA4
:10238000DF91CF911F910F91FF90EF90DF90CF9051
:10239000BF90AF909F908F907F906F905F904F9085
:1023A0003F902F90089540914E03262F30E0240F48
:1023B000311D21323105DCF42091EE012430C9F4C5
:1023C000FC0180E090E0861758F430914E03219193
:1023D000DC01A25DBC4FA30FB11D2C930196F3CF7E
:1023E00080914E03680F60934E0380E0089581E072
:1023F000089582E0089508950895E091A1018091E3
:10240000A001E81730F4F0E0E35FFC4F808190E03A
:1024100008958FEF9FEF08959091A1018091A00101
:10242000981750F4E92FF0E0E35FFC4F208130E093
:102430009F5F9093A10102C02FEF3FEFC901089564
:102440008091A00190E02091A101821B9109089543
:10245000CF92DF92EF92FF920F931F93CF93DF9370
:102460007C01CB018A012091F401222389F0EB0148
:102470006B01C40ED51ECC15DD0569F06991D7013D
:10248000ED91FC910190F081E02DC7010995F3CF0A
:10249000642F0E94D311C801DF91CF911F910F913A
:1024A000FF90EF90DF90CF900895CF93DF931F922E
:1024B000CDB7DEB769832091F4012223D1F02091BA
:1024C0001702203240F021E030E0FC013383228308
:1024D00080E090E015C08091F501E82FF0E0EA502F
:1024E000FE4F998190838F5F8093F501809317024F
:1024F00005C061E0CE0101960E94D31181E090E019
:102500000F90DF91CF910895089580E090E00895B5
:1025100081E08093A201089581E08093A301089552
:102520001092EE0181E08093ED011092C80161E00C
:1025300082E10E94D21961E083E10E94D219E9EBA5
:10254000F0E080818E7F808380818D7F808388E42E
:102550008093B80085E48093BC000895CF93DF9307
:1025600091E090932D038823B9F0C091B800D091E9
:10257000BA008091BC008A7B8093BC0060E082E15D
:102580000E94D21960E083E10E94D2190E94901249
:10259000D093BA00C093B800DF91CF91089585ED34
:1025A0008093BC008091F0019091F101A091F20123
:1025B000B091F3010796A11DB11D23E0B695A79533
:1025C000979587952A95D1F72091BC0024FF1CC0D0
:1025D0004091F0015091F1016091F2017091F3018D
:1025E000452B462B472B81F30097A105B10541F000
:1025F00025E32A95F1F700000197A109B109E4CF7D
:102600008091EF010C94AE121092EE0108951F928A
:102610000F920FB60F9211242F933F934F935F9316
:102620006F937F938F939F93AF93BF93EF93FF939A
:102630008091B900887F803609F49CC068F58832A3
:1026400009F45BC090F4803109F454C038F4882355
:1026500009F4F6C0883009F44DC0F6C0883109F499
:102660004CC0803209F45DC0EFC0803409F468C00A
:1026700048F4803309F455C0883309F0E5C08093ED
:10268000EC01D8C0803509F44FC0883509F45DC02D
:10269000883409F0D9C0D6C0883909F4C7C0A8F475
:1026A000883709F467C038F4883609F463C0803786
:1026B00009F460C0C9C0883809F4B8C0803909F489
:1026C0005FC0803809F0C0C05BC0803B09F486C0A1
:1026D00038F4803A09F466C0883A09F47FC0B4C07F
:1026E000803C09F4A7C0883C09F4A4C0883B09F4E5
:1026F0008AC0AAC08091C90110C09091EB0180915D
:10270000EA01981770F5E091EB0181E08E0F80935C
:10271000EB01F0E0E653FE4F80818093BB0085EC37
:1027200086C08093EC018EC0E091EB0181E08E0FBA
:102730008093EB018091BB00F0E0E653FE4F808375
:102740009091EB018091EA016EC0E091EB0181E094
:102750008E0F8093EB018091BB00F0E0E653FE4FBB
:1027600080838091ED0181116DC081E08093C8016B
:1027700084EA61C083E08093EE0110927003CFCFB2
:1027800080917003803208F051C0E091700381E0C5
:102790008E0F809370038091BB00F0E0E05BFC4FF4
:1027A0008083BDCF85EC8093BC001092EE018091B8
:1027B0007003803230F4E0917003F0E0E05BFC4F96
:1027C00010826091700370E0E0919C01F0919D0196
:1027D00080E593E009951092700336C084E0809301
:1027E000EE0110924F0310924E03E0919E01F09182
:1027F0009F01099580914E03811105C081E080936E
:102800004E0310922E03E0914F0381E08E0F8093D0
:102810004F03F0E0E25DFC4F80818093BB0090911C
:102820004F0380914E03981708F479CF85E8809381
:10283000BC000AC085EC8093BC001092EE0104C07D
:102840001092EC010E94CF12FF91EF91BF91AF91D6
:102850009F918F917F916F915F914F913F912F91B8
:102860000F900FBE0F901F901895DC0180E0615013
:1028700098F02D91982F9227E92FEF70F0E0EF5A02
:10288000FA4F249192959F70E92FF0E0EF59FA4F9B
:10289000E491822F8E27EBCF0895FC019081018077
:1028A000F281E02DF8948181892B81832281892F07
:1028B000809528232283A7E0B0E01197F1F72181CA
:1028C00082238183A3E2B0E01197F1F780817894AD
:1028D000EFECF0E03197F1F7982381E009F480E024
:1028E0000895FC0190810180F281E02D892F80956F
:1028F00060FF12C0F8942281822382838181892B18
:102900008183A3E2B0E01197F1F78281982B928343
:10291000789487ED90E011C0F8942281822382831D
:102920008181892B8183AFEFB0E01197F1F782812C
:10293000982B928378948FE090E00197F1F70895B7
:10294000DF92EF92FF920F931F93CF93DF93EC01EF
:10295000D62EE42E08E010E0FF24F39461E08D2DE4
:102960008F2109F460E0CE010E947114FF0C015028
:102970001109A1F7E11010C0F894E981FA81918161
:102980008881809589238183E981FA819281888178
:102990008095892382837894DF91CF911F910F9145
:1029A000FF90EF90DF900895DC012C911196ED914E
:1029B000FC911297F8948181922F909589238183BD
:1029C00078948DE743E050E0815021F1DA011197CE
:1029D000F1F730813223C1F3F89482818923828315
:1029E0008181822B81837894ABE7B7E01197F1F76F
:1029F000F89481819823918383E191E00197F1F725
:102A00008081282381E009F080E07894E3E6F6E015
:102A10003197F1F70895EF92FF920F931F93CF93A1
:102A2000DF93EC01162F0E94D414882349F11C3C3B
:102A3000A1F078F4153519F540E065E5CE010E9466
:102A4000A0148E010F5E1F4F7E0189E1E80EF11C7C
:102A50000AC01C3E11F0103F91F440E0612FCE01FE
:102A60000E94A0140AC0F80161918F0140E0CE01DC
:102A70000E94A0140E151F05B1F781E001C080E08F
:102A8000DF91CF911F910F91FF90EF9008958F925A
:102A90009F92AF92BF92CF92DF92EF92FF920F93ED
:102AA0001F93CF93DF93EC0165E50E940B158823FC
:102AB00029F040E06EEBCE010E94A0148E01075E6B
:102AC0001F4F5E0182E2A80EB11C480188E0C82EAB
:102AD000D12CF12CEE24E394CE010E944D148111EF
:102AE000FE28EE0CE1E0CE1AD108B1F7F801F19220
:102AF0008F01EA15FB0551F768E0C4010E94351407
:102B000091E029A1281390E0892FDF91CF911F91A7
:102B10000F91FF90EF90DF90CF90BF90AF909F907C
:102B20008F9008951F93CF93DF93EC011BA165E570
:102B30000E940B15882339F041E0111140E064E454
:102B4000CE010E94A0148BA1882331F0CE010E94F7
:102B50004D148823D9F31FC08AA18A3089F038F434
:102B60008930C9F46EE570E080E090E012C08B30EF
:102B700061F08C3081F46EEE72E080E090E009C08C
:102B80006CEB70E080E090E004C067E771E080E00B
:102B900090E00E94621ACE010E944715898D6A8DCD
:102BA0009AA19A3031F09B3031F0993029F4887F26
:102BB00003C08C7F01C08E7F70E0762F6627680F80
:102BC000711D072E000C880B990B0E94F92420E040
:102BD00030E040E85DE30E94AE25DF91CF911F9188
:102BE00008950F931F93CF93DF938C01EB010E9405
:102BF000A6238883C80101960E94A6238983CE015B
:102C0000DF91CF911F910F910895AF92BF92DF9204
:102C1000EF92FF920F931F93CF93DF93EC017B0111
:102C20008B015C0182E0A80EB11CF801D1908F01EC
:102C3000CE010E94A623D81621F06D2DCE010E9450
:102C4000AE232196CA15DB0581F7C701DF91CF912D
:102C50001F910F91FF90EF90DF90BF90AF9008957C
:102C6000833081F028F4813099F08230A1F008950A
:102C70008730A9F08830B9F08430D1F48091800099
:102C80008F7D03C0809180008F77809380000895AE
:102C900084B58F7702C084B58F7D84BD08958091FF
:102CA000B0008F7703C08091B0008F7D8093B0001B
:102CB00008952F923F924F925F926F927F928F92E0
:102CC0009F92AF92BF92CF92DF92EF92FF920F93BB
:102CD0001F93CF93DF93CDB7DEB76B970FB6F89402
:102CE000DEBF0FBECDBF9B8F8A8F1B014A01D22E44
:102CF000198708873701A982DC0159962D913C91EB
:102D00005A972115310509F0FFC018968D919C91B5
:102D10001997681779070CF0E7C11A968D919C9165
:102D20001B97481759070CF0DFC1EC2DF0E0FB832F
:102D3000EA839B0146E0C49E200D311D11243D878E
:102D40002C87121613060CF0CFC16A2D70E07B871A
:102D50006A8783E0660F771F8A95E1F77F876E8722
:102D6000CB01880D991D181619060CF0BDC1589697
:102D70008C91811104C08FEA8D1508F4D394AA8D2B
:102D8000BB8DED91FC9111970284F385E02DCD016F
:102D90000995B5E0DB9EC0011124EC2DF0E0F98B24
:102DA000E88B91012B5F3F4F3B8B2A8B3D822C821E
:102DB0002101AC01421953095D8B4C8B7981672F3E
:102DC00070E07F8B6E8BC4010896998F888FEC8999
:102DD000FD89E40DF51DE755FA4FD49054019F820B
:102DE0008E82D0FE16C0AA8DBB8DED91FC91B1E014
:102DF000CB1209C02981213031F40484F585E02DFE
:102E00002885398519C00684F785E02DE884F98482
:102E10001DC0488559854615570519F1AA8DBB8DEA
:102E2000ED91FC91B1E0CB120DC02981213051F41C
:102E30000484F585E02D9301A501B2018A8D9B8D57
:102E400009950FC00684F785E02D73010A851B855F
:102E50002A813B814E815F816C817D818A8D9B8D32
:102E60000995D6943FEFA31AB30A4E815F816E890C
:102E70007F89460F571F5F834E83888D998DA816D3
:102E8000B90609F0AECF9FEF491A590AAC81BD814E
:102E9000E889F989AE0FBF1FBD83AC832A893B89BE
:102EA0004216530609F093CF4885598546155705B4
:102EB00009F4F8C0AA8DBB8DED91FC91B1E0CB1265
:102EC00011C02981213071F4B1016B5F7F4F0088FF
:102ED000F189E02D830128E030E0A4018A8D9B8DEB
:102EE0000995E0C06C857D854A815B81641B750B0B
:102EF0000684F785E02D73010E851F859A01A401D4
:102F00008A8D9B8D0995CEC0F9013496E491DE1A25
:102F1000F901329685919491B7E0DB9E800D911D69
:102F20001124F901259134913B8B2A8BFC012591C9
:102F300034915901FC0132965490319634913C877A
:102F4000329674903196149141E04C1518F05981E5
:102F5000523068F0672D072C000C770B7D836C8353
:102F6000812F012E000C990B9B838A8304C01B8246
:102F70001A821D821C82AA8DBB8DED91FC91119746
:102F80000284F385E02DCD010995412CD12C612CD3
:102F9000F981EF2FF0E0FF83EE832C2D30E03B87AB
:102FA0002A87A401410F511D17FD5A955F8B4E8B47
:102FB000B101670D711D77FC7A95798F688F7C85DB
:102FC000671608F06FC0262D30E04A815B81420F02
:102FD000531FAE81BF81A49FC001A59F900DB49FD8
:102FE000900D1124F401E80FF91FF98BE88B842D63
:102FF000712C4E895F89420F531F5D8B4C8B75146A
:1030000008F04DC051E0580F5E87877041F4C5014C
:103010000196EA89FB89EA0DFB1DD4905C01D7FE7D
:103020003AC061E0C61216C07981713099F4AA8D58
:10303000BB8DED91FC9111970484F585E02D2885D9
:1030400039854C895D89688D798D670D711DCD013C
:10305000099521C08C819D81870D911DEA85FB8595
:103060008E9FB0018F9F700D9E9F700D1124620D79
:10307000731DAA8DBB8DED91FC9111970684F78588
:10308000E02DE884F9840E811F812A853B854889DB
:103090005989CD010995DD0C73948E85B0CF450C0F
:1030A00063948DCFAA8DBB8DED91FC91119706880D
:1030B000F789E02DCD016B960FB6F894DEBF0FBEF9
:1030C000CDBFDF91CF911F910F91FF90EF90DF90D7
:1030D000CF90BF90AF909F908F907F906F905F90B8
:1030E0004F903F902F9009946B960FB6F894DEBFE7
:1030F0000FBECDBFDF91CF911F910F91FF90EF9049
:10310000DF90CF90BF90AF909F908F907F906F9007
:103110005F904F903F902F9008950F931F93CF9300
:10312000DF9377FF04C0260F371F60E070E0DC01FB
:103130001496CD91DC911597FB01E20FF31FCE178A
:10314000DF071CF49E01261B370B121613060CF02A
:1031500046C0FA0157FD3796DF01E3E0B595A79524
:10316000EA95E1F7AC9FF001AD9FF00DBC9FF00D2B
:1031700011246E0F7F1FDC015F96ED91FC919097FB
:10318000E60FF71F4770552781E090E001C0880FD8
:103190004A95EAF7482F0130110539F078F00230EE
:1031A0001105E9F42E0F3F1F13C02E0F3F1FE2172A
:1031B000F307A9F08081842B8193F9CF80952E0F9E
:1031C0003F1FE217F30759F0908198239193F9CFAD
:1031D000E217F30721F0808184278193F9CFDF91F3
:1031E000CF911F910F910895EF92FF920F931F932C
:1031F000CF93DF93EC0177FDA5C0EC80FD806E15C9
:103200007F050CF09FC057FF04C0240F351F40E01E
:1032100050E08E819F81FA01E20FF31F8E179F0706
:103220001CF49C01241B350B121613060CF08AC0EB
:10323000922F842F8695869586958E9DD0018F9DA1
:10324000B00D11246A0F7B1FAF8DB8A1A60FB71F59
:103250004770B1F188E0841B482F682F70E0FB01B4
:10326000EF55FA4FE491281798F4621B71092FEF7C
:1032700030E002C0359527956A95E2F7E2230130E8
:10328000110549F078F00230110509F05BC00EC05D
:103290000130110519F48C91E82B0AC00130110599
:1032A00008F049C0E0958C91E82302C08C91E82792
:1032B000EC93941708F446C02C813D81A20FB31FF4
:1032C000E92FE41BE830F8F00230110561F48E2F8D
:1032D0009C9190959C932C813D81A20FB31F8850A7
:1032E0008830B0F70FC081E00115110509F480E0C6
:1032F00081959E2F8C932C813D81A20FB31F9850F6
:103300009830C0F7E770EE23E9F0F0E0E756FA4FA7
:10331000E4910130110539F048F00230110591F4C3
:103320008C91E82706C08C91E82B03C0E0958C9126
:10333000E823EC9307C00230110509F4B7CFAE0DB6
:10334000BF1DBECFDF91CF911F910F91FF90EF90E6
:103350000895CF93DF93282F30E0F901EB57FA4F10
:103360008491F901E35CFA4FD491F901E75DFA4FDA
:10337000C491CC2391F081110E943016EC2FF0E023
:10338000EE0FFF1FE15EFA4FA591B491EC91ED2392
:1033900081E090E021F480E002C080E090E0DF91E5
:1033A000CF9108951F93CF93DF93282F30E0F90139
:1033B000EB57FA4F8491F901E35CFA4FD491F9018C
:1033C000E75DFA4FC491CC23C1F0162F81110E9402
:1033D0003016EC2FF0E0EE0FFF1FE558FA4FA591E5
:1033E000B4919FB7F894111104C08C91D095D82353
:1033F00002C0EC91DE2BDC939FBFDF91CF911F9138
:103400000895CF93DF9390E0FC01E35CFA4F2491A1
:10341000FC01E75DFA4F8491882361F190E0880F09
:10342000991FFC01EF58FA4FC591D491FC01E55862
:10343000FA4FA591B491611109C09FB7F8948881A2
:10344000209582238883EC912E230BC0623061F497
:103450009FB7F8948881322F309583238883EC912D
:103460002E2B2C939FBF06C08FB7F894E8812E2B8C
:1034700028838FBFDF91CF9108953FB7F894809153
:10348000760390917703A0917803B091790326B5E4
:10349000A89B05C02F3F19F00196A11DB11D3FBF8C
:1034A000BA2FA92F982F8827820F911DA11DB11D1A
:1034B000BC01CD0142E0660F771F881F991F4A9516
:1034C000D1F708958F929F92AF92BF92CF92DF92E1
:1034D000EF92FF926B017C010E943D1A4B015C014F
:1034E000C114D104E104F104F1F00E943D1ADC01A1
:1034F000CB0188199909AA09BB09883E9340A10507
:10350000B10570F321E0C21AD108E108F10888EE94
:10351000880E83E0981EA11CB11CC114D104E104E3
:10352000F10419F7DDCFFF90EF90DF90CF90BF90BF
:10353000AF909F908F9008952FB7F8946091720389
:103540007091730380917403909175032FBF089558
:103550001F920F920FB60F9211242F933F938F93C8
:103560009F93AF93BF938091720390917303A09147
:103570007403B09175033091710323E0230F2D374D
:1035800020F40196A11DB11D05C026E8230F029667
:10359000A11DB11D20937103809372039093730357
:1035A000A0937403B0937503809176039091770391
:1035B000A0917803B09179030196A11DB11D80936C
:1035C000760390937703A0937803B0937903BF9128
:1035D000AF919F918F913F912F910F900FBE0F90C0
:1035E0001F901895CF93DF9300D000D0CDB7DEB7F2
:1035F000789484B5826084BD84B5816084BD85B5CE
:10360000826085BD85B5816085BD80916E008160D9
:1036100080936E001092810080918100826080937F
:103620008100809181008160809381008091800081
:103630008160809380008091B10084608093B100AC
:103640008091B00081608093B00080917A008460A6
:1036500080937A0080917A00826080937A008091D2
:103660007A00816080937A0080917A0080688093EC
:103670007A001092C100E0912802F091290282E0C4
:103680008083E0912402F09125021082E0912602CD
:10369000F09127028FEC808310923002E0912C028F
:1036A000F0912D0286E08083E0912A02F0912B02B6
:1036B000808180618083E0912A02F0912B028081D9
:1036C00088608083E0912A02F0912B0280818068DB
:1036D0008083E0912A02F0912B0280818F7D80838C
:1036E000E091FF02F0910003138615861486DF0136
:1036F0001B9633961E92AE17BF07E1F7AA24A39438
:103700000091FF0210910003F801858581116CC0C2
:10371000C8010E94D414882309F466C040E060EF19
:10372000C8010E94A014EE24E394C12CB12CFF2404
:10373000F394C8010E944D14D82EC8010E944D1464
:10374000F1E0DF1203C08130C1F437C02C2D30E02E
:10375000D8121DC0F8018385F81630F4E20FF31F6C
:1037600083818E2151F402C08F1539F0D12CF8E0FD
:10377000FF1560F0F801F48609C0F801EC0DF11DA9
:1037800083818E298383DD24D39409C0BF2CF80163
:10379000E20FF31F93818E2D8095892383836D2DF6
:1037A000C8010E947114F394EE0C19F4C394EE2432
:1037B000E394F7E0FC1508F0BCCF20E42F15A0F44B
:1037C000F801B386B11001C0A586F8018381882372
:1037D00059F03396A4EAB1E0055F1F4F81918D93B4
:1037E000E017F107D9F705C0F8011386158614868E
:1037F0000FC08091A401883209F082CF67E084EA8B
:1038000091E00E9435149091AB01891709F478CFAB
:103810008091DC029091DD02892B11F52091C30289
:103820003091C402C901079697FD079623E095954C
:1038300087952A95E1F72091C1023091C202AC012F
:10384000429FC001439F900D529F900D11240E94F2
:1038500020269093DD028093DC02892B09F40FC1AE
:103860000E94F30F2091C3023091C4028091C102E3
:103870009091C202213231050CF423C4B901605485
:10388000710977FF02C06F5F7F4F7595679582550D
:10389000910997FD019600E410E022E530E04AE549
:1038A00052E0959587950E94131082E08093DF0285
:1038B0008091DA029091DB02892B09F416C48CE323
:1038C0008093DE021092A1011092A0011092F501E6
:1038D000109217020E9490128BEF91E190939F013A
:1038E00080939E018CEF91E190939D0180939C01C8
:1038F0008091E50287FD1EC061E00E94011A61E02F
:103900008091E5020E94D21961E070E080E090E0D1
:103910000E94621A60E08091E5020E94D2196AE07A
:1039200070E080E090E00E94621A61E08091E50220
:103930000E94D2198091DA029091DB02892B09F45E
:1039400093C42091F2023091F3024091F40250911D
:10395000F50260E074E284EF90E00E94BC23DA019B
:10396000C9014097A109B109B695A7959795879583
:103970008093B80064E086E790E00E94060E6091B4
:10398000C30261508DEB92E00E945A0C64E082E722
:1039900090E00E94060E8091DF02813009F47BC422
:1039A00064E18DEB92E00E945A0C64E08EE690E0B8
:1039B0000E94060E8FE88093FA028091C1029091D6
:1039C000C2028038910509F06AC48091C3029091C7
:1039D000C4028034910509F074C48091DF02813003
:1039E00009F45BC48FEC8093FA0212E16AED8DEB6F
:1039F00092E00E945A0C612F8DEB92E00E945A0CCB
:103A000061E88DEB92E00E945A0C6091FA028DEB16
:103A100092E00E945A0C69ED8DEB92E00E945A0CE4
:103A20008091DF02813009F44EC461EF8DEB92E0AA
:103A30000E945A0C66E088E690E00E94060E809193
:103A4000DA029091DB02892B09F43FC42091F6023F
:103A50003091F7024091F8025091F90260E074E26F
:103A600084EF90E00E94BC23DA01C9014097A109CC
:103A7000B109B695A795979587958093B8000E9450
:103A8000F30F82E0F82EF092D102F092D20201E020
:103A900010E01093D0020093CF021093CE02009357
:103AA000CD020E94BB0E0E94F30F1092CA02109228
:103AB000C9021092CC021092CB028EE591E00E94D6
:103AC000961081E08093D1028093D20287E691E044
:103AD0000E9496100E94BB0EF092D102F092D20288
:103AE000BE016D5F7F4F80E090E00E94F115BE0146
:103AF0006F5F7F4F84E090E00E94F115E980FA80CB
:103B0000CB80DC80BE016D5F7F4F88E090E00E943B
:103B1000F115BE016F5F7F4F8CE090E00E94F115C0
:103B20006B817C816C197D09072E000C880B990B29
:103B30000E94F9244B015C0169817A816E197F0929
:103B4000072E000C880B990B0E94F9249B01AC01F5
:103B5000C501B4010E9456244B015C016093B5027B
:103B60007093B6028093B7029093B802B601DD0C51
:103B7000880B990B0E94F9242B013C01B701FF0C23
:103B8000880B990B0E94F924A50194010E94AE258F
:103B90009B01AC01C301B2010E94E4236093B9020E
:103BA0007093BA028093BB029093BC0261E085E0FF
:103BB0000E94011A61E085E00E94D21962E083E070
:103BC0000E94011A62E082E00E94011A8CE892E1F0
:103BD000909303018093020180916900837F886044
:103BE00080936900E99A88E892E1909301018093BB
:103BF0000001809169008C7F826080936900E89A5F
:103C00001093C7010093C60192E0292E312C109128
:103C1000A301111105C08091A201882309F44CC0B1
:103C20000E949C1A6B017C016093AD017093AE0100
:103C30008093AF019093B0010E949C1ADC01CB01EC
:103C40008C199D09AE09BF09813D9740A105B105B9
:103C50003CF01092A2011092A30101E010E041C0DB
:103C600083E00E94A919892B29F482E00E94A919F6
:103C7000892B11F30E949C1ADC01CB018C199D0940
:103C8000AE09BF09813D9740A105B1055CF03092B6
:103C9000C7012092C6011092A2011092A30102E076
:103CA00010E01FC083E00E94A919892B29F482E04B
:103CB0000E94A919892BF1F683E00E94A919892B8A
:103CC00009F416C382E00E94A919892B09F410C3D4
:103CD0008091A201882309F40EC31092A20104E08E
:103CE00010E0E090C601F090C701F2E0EF16F10499
:103CF00009F494C023E0E216F10409F4A5C041E000
:103D0000E416F10409F0DAC18091FD029091FE02FF
:103D10000E9492152B013C010E94DF106C01BC0136
:103D2000990F880B990B0E94F9242091B5023091CC
:103D3000B6024091B7025091B8020E94AE25209180
:103D4000B9023091BA024091BB025091BC020E946C
:103D5000E5234B015C0165E771E088E192E00E9498
:103D6000C00A22E0B301A20188E192E00E941E0B8A
:103D700060E871E088E192E00E94C00AB60188E143
:103D800092E00E94A91060E871E088E192E00E9450
:103D9000C00A22E0B501A40188E192E00E941E0B56
:103DA00062E871E088E192E00E94C00A0E94F30F8D
:103DB0001092CA021092C9021092CC021092CB0249
:103DC00022E0B301A2018DEB92E00E941E0B67EF8F
:103DD0008DEB92E00E94B90A85E891E00E9496106E
:103DE00022E0B501A4018DEB92E00E941E0B6CE86D
:103DF00071E08DEB92E00E94C00A0E94BB0E013080
:103E0000110539F483E090E09093C7018093C601D7
:103E100055C1F092C701E092C60150C10E94F30F54
:103E20001092CA021092C9021092CC021092CB02D8
:103E300067EF8DEB92E00E94B90A85E891E00E945D
:103E4000961067E871E034C18091BE01811113C002
:103E50001092B7011092B6011092B9011092B801F8
:103E60001092BB011092BA011092BD011092BC01D8
:103E700091E09093BE01E0900601F09007010330BD
:103E8000110509F4BAC00430110509F4B2C00130BB
:103E9000110509F0BAC080910401909105010197C4
:103EA00079F4F092B901E092B8010E94DF1090938A
:103EB000B7018093B6013092050120920401FEC043
:103EC000F092BD01E092BC010E94DF109093BB0113
:103ED0008093BA0110930501009304018091B80109
:103EE0009091B9019A838983BE016F5F7F4F80E013
:103EF00090E00E9405168091B6019091B7019A83D7
:103F00008983BE016F5F7F4F84E090E00E940516B9
:103F10008091BC019091BD019A838983BE016F5F3E
:103F20007F4F88E090E00E9405168091BA01909141
:103F3000BB019A838983BE016F5F7F4F8CE090E065
:103F40000E940516C090B601D090B701E090B8016C
:103F5000F090B9016091BA017091BB016C197D09B3
:103F6000072E000C880B990B0E94F9244B015C0171
:103F70006091BC017091BD016E197F09072E000C84
:103F8000880B990B0E94F9249B01AC01C501B40177
:103F90000E9456244B015C016093B5027093B602F7
:103FA0008093B7029093B802B601DD0C880B990B91
:103FB0000E94F9242B013C01B701FF0C880B990BDF
:103FC0000E94F924A50194010E94AE259B01AC0139
:103FD000C301B2010E94E4236093B9027093BA0254
:103FE0008093BB029093BC021093C7010093C6015B
:103FF00065C0E1E0EE1AF10803C0FFEFEF1AFF0A17
:10400000F0920701E092060159C00E949C1A4B01F0
:104010005C018091FD029091FE020E9492152B019D
:104020003C010E94F30F1092CA021092C902109232
:10403000CC021092CB0222E0B301A2018DEB92E000
:104040000E941E0B67EF8DEB92E00E94B90A85E893
:1040500091E00E9496108091B2019091B301A091DD
:10406000B401B091B501881A990AAA0ABB0A27E9D6
:1040700082169104A104B10484F00E949C1A6093FA
:10408000B2017093B3018093B4019093B501809114
:10409000B10141E084278093B1018091B10188236F
:1040A00059F0B7018DEB92E00E94A91069E871E028
:1040B0008DEB92E00E94C00A0E94BB0E0E94840613
:1040C000A6CDB9016052710977FF02C06F5F7F4FC3
:1040D000759567958357910997FD019600E210E069
:1040E00023E730E04AE750E0DCCB61E08091E30277
:1040F0000E94011A61E08091E4020E94011A8091FD
:10410000E302082E000C990BFC01E75DFA4FE491E5
:10411000F0E0EE0FFF1FE558FA4F259134913093F0
:10412000EB022093EA02FC01E35CFA4FE491E09396
:10413000F0028091E402082E000C990BFC01E75D6F
:10414000FA4FE491F0E0EE0FFF1FE558FA4FA5910A
:10415000B491B093ED02A093EC02FC01E35CFA4F42
:10416000E491E093F1028C91E82BEC938091D802DA
:104170009091D902892B09F434C01FB7F89480912B
:10418000AC01811127C0E3E3F5E08491E7E4F5E0B9
:104190009491E82FF0E0EE0FFF1FEF58FA4FA59132
:1041A000B491EC91E92321F461E08AE00E94D219F4
:1041B00061E08AE00E94011A8CB580618CBD8CB5EB
:1041C00080648CBD61E08DE00E94011A61E08BE0AB
:1041D0000E94011A8091AC018F5F8093AC011FBFD8
:1041E00087CB61E08091E1020E94011A61E0809139
:1041F000E2020E94011A8091E102082E000C990B44
:10420000FC01E75DFA4FE491F0E0EE0FFF1FE55887
:10421000FA4F259134913093E7022093E602FC0196
:10422000E35CFA4FE491E093EE028091E202082E03
:10423000000C990BFC01E75DFA4FE491F0E0EE0F02
:10424000FF1FE558FA4FA591B491B093E902A093EE
:10425000E802FC01E35CFA4FE491E093EF028C91F9
:10426000E095E823EC9344CB8091D8029091D90259
:10427000892B31F08091FB029091FC020E94BD0CD1
:10428000E091EC02F091ED0290818091F102809535
:10429000892380836FCB60E184CB8FE9A4CB803608
:1042A000910579F48091C3029091C402409749F43A
:1042B0008091DF02813011F08FEA01C080E18093AC
:1042C000FA0212E093CB62E2B1CBE091EC02F09102
:1042D000ED0290818091F102892B80838091D80238
:1042E0009091D902892B09F4CACB0E94520CC7CBFA
:1042F00000E010E0F6CC1123D9F31092A30103E003
:1043000010E0EFCCCF93DF93EC0160E084E00E94FB
:10431000011AE1E4F5E0E491E883EDE2F5E0E491EF
:10432000F0E0EE0FFF1FE15EFA4F859194919A83C2
:1043300089831B861D861C86FE013B96239612925E
:10434000EC17FD07E1F7DF91CF9108956F927F920F
:104350008F929F92AF92BF92CF92DF92EF92FF9295
:104360000F931F93CF93DF9310921B0210921A02A8
:1043700088EE93E0A0E0B0E080931C0290931D02D1
:10438000A0931E02B0931F0222E131E03093190284
:104390002093180225EC30E030932502209324026C
:1043A00024EC30E0309327022093260220EC30E00A
:1043B000309329022093280221EC30E030932B0225
:1043C00020932A0222EC30E030932D0220932C021D
:1043D00026EC30E030932F0220932E02109231020F
:1043E000109232021092330210923402109204039F
:1043F000109203038093050390930603A093070391
:10440000B093080384E291E0909302038093010348
:104410008EE090E00E942026EC010E948221D09341
:104420000003C093FF028EE290E00E942026EC0180
:104430000E9482211CA61DA66CECCE010E940B15C9
:10444000882329F040E064EBCE010E94A014CE0145
:104450000E944D148F87812C912C540183946624E3
:1044600063948E010C5D1F4F7E0181E1E80EF11C0B
:104470008DA58111E2C060EFCE010E940B1588234B
:1044800009F4DBC0712CD12CCE010E944D14C82E32
:10449000CE010E944D14CC2021F0882311F01CA6DF
:1044A00044C04D2D47702D2D26952695269530E03C
:1044B000C110C8C08111D6C08CA5D81609F4C0C0DF
:1044C0008D1508F4CEC0FE01E20FF31F84A190E029
:1044D000042E02C0959587950A94E2F780FFC1C02B
:1044E000AFC08D2D869586958695F801E80FF11D54
:1044F000608170E08D2D877002C0759567958A95F3
:10450000E2F76170CE010E947114D39480E4D81652
:1045100009F4CDC0CE010E944D14C82ECE010E94D8
:104520004D14CC20F1F28823E1F2D093FE02C09327
:10453000FD021092C0021092BF0220E830E03093DA
:10454000C2022093C10280E290E09093C402809363
:10455000C3023093C6022093C5029093C802809391
:10456000C7021092D3021092CA021092C90210928E
:10457000CC021092CB0281E08093D2028093D102D0
:104580002FEF3FEF3093D0022093CF023093CE0233
:104590002093CD028093D4021092D5021092D702BC
:1045A0001092D60286E391E09093BE028093BD0202
:1045B0001092D9021092D80281E093E09093DB022E
:1045C0008093DA021092DD021092DC028FEF80936A
:1045D000E1028093E2028093E3028093E4028093FD
:1045E000E50280E89AE1A6E0B0E08093F2029093C1
:1045F000F302A093F402B093F50280EA96E8A1E0FA
:10460000B0E08093F6029093F702A093F802B09383
:10461000F90280E58093FB021092FC02DF91CF91BA
:104620001F910F91FF90EF90DF90CF90BF90AF90D0
:104630009F908F907F906F9008951CA61DA675CFB8
:10464000CC24C394FE01E20FF31FD501C40104C0C2
:10465000880F991FAA1FBB1F4A95D2F724A1822B4E
:1046600010C07D2CFE01E20FF31FD501C40104C070
:10467000880F991FAA1FBB1F4A95D2F7809594A156
:10468000892384A36C2DCE010E947114D39480E4FD
:10469000D812FACE7CA6711001C06DA660EFCE01D3
:1046A0000E940B15882309F440CFD12C33CF88E02A
:1046B000F801D70101900D928A95E1F7CE010E9491
:1046C0004715882309F431CFCE010E9482238AA3A3
:1046D00065E5CE010E940B15882329F040E064EBCC
:1046E000CE010E94A014CE010E944D148BA3CE01D6
:1046F0000E9482239E85981708F48E8788898F5F91
:10470000888BB6CEFC01858D8F3351F018F48F3134
:1047100051F008C08F3549F08F3721F48CE00895AF
:104720008AE00895089589E008958BE0089586E36E
:1047300091E09093BE028093BD028091DC02909143
:10474000DD02009711F00C94B8260895F999FECF78
:1047500092BD81BDF89A992780B50895262FF999C1
:10476000FECF1FBA92BD81BD20BD0FB6F894FA9A54
:10477000F99A0FBE01960895A1E21A2EAA1BBB1B3F
:10478000FD010DC0AA1FBB1FEE1FFF1FA217B3071D
:10479000E407F50720F0A21BB30BE40BF50B661F33
:1047A000771F881F991F1A9469F7609570958095F7
:1047B00090959B01AC01BD01CF010895EE0FFF1F45
:1047C0000590F491E02D09945058BB27AA270E9428
:1047D000FC230C946F250E94612538F00E94682507
:1047E00020F039F49F3F19F426F40C945E250EF462
:1047F000E095E7FB0C945825E92F0E94802558F39B
:10480000BA17620773078407950720F079F4A6F5B5
:104810000C94A2250EF4E0950B2EBA2FA02D0B01BF
:10482000B90190010C01CA01A0011124FF27591BF5
:1048300099F0593F50F4503E68F11A16F040A22FFB
:10484000232F342F4427585FF3CF4695379527956C
:10485000A795F0405395C9F77EF41F16BA0B620B6B
:10486000730B840BBAF09150A1F0FF0FBB1F661FB2
:10487000771F881FC2F70EC0BA0F621F731F841FF5
:1048800048F4879577956795B795F7959E3F08F01B
:10489000B0CF9395880F08F09927EE0F97958795DD
:1048A00008950E94342508F481E008950E946A2446
:1048B0000C946F250E94682558F00E94612540F0F5
:1048C00029F45F3F29F00C94582551110C94A3252D
:1048D0000C945E250E94802568F39923B1F355233B
:1048E00091F3951B550BBB27AA2762177307840703
:1048F00038F09F5F5F4F220F331F441FAA1FA9F399
:1049000035D00E2E3AF0E0E832D091505040E69586
:10491000001CCAF72BD0FE2F29D0660F771F881FE7
:10492000BB1F261737074807AB07B0E809F0BB0BDA
:10493000802DBF01FF2793585F4F3AF09E3F5105EE
:1049400078F00C9458250C94A3255F3FE4F3983E2F
:10495000D4F3869577956795B795F7959F5FC9F7D7
:10496000880F911D9695879597F90895E1E0660F58
:10497000771F881FBB1F621773078407BA0720F0D1
:10498000621B730B840BBA0BEE1F88F7E09508953A
:104990000E94882588F09F5798F0B92F9927B75122
:1049A000B0F0E1F0660F771F881F991F1AF0BA95D3
:1049B000C9F714C0B13091F00E94A225B1E008956A
:1049C0000C94A225672F782F8827B85F39F0B93F5C
:1049D000CCF3869577956795B395D9F73EF4909586
:1049E0008095709561957F4F8F4F9F4F0895E89404
:1049F00009C097FB3EF490958095709561957F4F27
:104A00008F4F9F4F9923A9F0F92F96E9BB279395D4
:104A1000F695879577956795B795F111F8CFFAF4E4
:104A2000BB0F11F460FF1BC06F5F7F4F8F4F9F4F15
:104A300016C0882311F096E911C0772321F09EE873
:104A4000872F762F05C0662371F096E8862F70E0D9
:104A500060E02AF09A95660F771F881FDAF7880FB3
:104A60009695879597F90895990F0008550FAA0B09
:104A7000E0E8FEEF16161706E807F907C0F0121671
:104A80001306E407F50798F0621B730B840B950B74
:104A900039F40A2661F0232B242B252B21F40895C9
:104AA0000A2609F4A140A6958FEF811D811D089566
:104AB00097F99F6780E870E060E008959FEF80ECD1
:104AC000089500240A941616170618060906089574
:104AD00000240A9412161306140605060895092EDA
:104AE0000394000C11F4882352F0BB0F40F4BF2B49
:104AF00011F460FF04C06F5F7F4F8F4F9F4F089589
:104B000057FD9058440F551F59F05F3F71F047957E
:104B1000880F97FB991F61F09F3F79F08795089563
:104B2000121613061406551FF2CF4695F1DF08C082
:104B3000161617061806991FF1CF8695710561059F
:104B400008940895E894BB2766277727CB0197F947
:104B500008950E94342508F48FEF08950E94C1251E
:104B60000C946F250E94612538F00E94682520F082
:104B7000952311F00C9458250C945E2511240C9467
:104B8000A3250E94802570F3959FC1F3950F50E0F7
:104B9000551F629FF001729FBB27F00DB11D639FEF
:104BA000AA27F00DB11DAA1F649F6627B00DA11D95
:104BB000661F829F2227B00DA11D621F739FB00D3B
:104BC000A11D621F839FA00D611D221F749F3327AB
:104BD000A00D611D231F849F600D211D822F762F44
:104BE0006A2F11249F5750409AF0F1F088234AF021
:104BF000EE0FFF1FBB1F661F771F881F915050408D
:104C0000A9F79E3F510580F00C9458250C94A325DC
:104C10005F3FE4F3983ED4F3869577956795B79513
:104C2000F795E7959F5FC1F7FE2B880F911D96952D
:104C3000879597F908950E943425880B990B08955C
:104C40000F931F93CF93DF938230910510F482E08E
:104C500090E0E0917C03F0917D0320E030E0A0E063
:104C6000B0E0309719F140815181028113814817DA
:104C70005907C8F08417950769F4109731F0129618
:104C80000C93129713961C9327C000937C031093E8
:104C90007D0322C02115310519F04217530718F47E
:104CA0009A01BD01EF01DF01F801DBCF21153105CC
:104CB000F9F0281B390B2430310580F48A819B815F
:104CC0006115710521F0FB019383828304C09093E9
:104CD0007D0380937C03FE01329644C0FE01E20F07
:104CE000F31F8193919322503109398328833AC06D
:104CF00020917A0330917B03232B41F420910A0108
:104D000030910B0130937B0320937A0320910801AB
:104D1000309109012115310541F42DB73EB740917D
:104D20000C0150910D01241B350BE0917A03F09199
:104D30007B03E217F307A0F42E1B3F0B281739075C
:104D400078F0AC014E5F5F4F2417350748F04E0FE7
:104D50005F1F50937B0340937A038193919302C02A
:104D6000E0E0F0E0CF01DF91CF911F910F91089526
:104D7000CF93DF93009709F481C0FC01329713822F
:104D80001282A0917C03B0917D03109781F4208161
:104D90003181820F931F20917A0330917B03281772
:104DA000390751F5F0937B03E0937A0367C0ED0177
:104DB00020E030E0CE17DF0740F44A815B819E019E
:104DC00041155105F1F0EA01F5CFD383C28340814B
:104DD0005181840F951FC817D90759F4888199818B
:104DE000840F951F0296918380838A819B81938390
:104DF00082832115310529F4F0937D03E0937C0330
:104E00003DC0E901FB83EA8349915991C40FD51F45
:104E1000EC17FD0761F480819181840F951F029644
:104E2000E90199838883828193819B838A83E0E06F
:104E3000F0E012968D919C911397009719F0FD0167
:104E4000DC01F7CF8D919C9111979D012E5F3F4F13
:104E5000820F931F20917A0330917B032817390723
:104E600069F4309729F410927D0310927C0302C0FC
:104E700013821282B0937B03A0937A03DF91CF91C8
:104E8000089581E090E0F8940C944D27DC0101C076
:104E90006D9341505040E0F7089515E0C6E5D5E028
:104EA00004C0FE010E94DE232196C735D107C9F751
:044EB000F894FFCFA4
:104EB400810581050100040000007E03200000003C
:104EC400000015068205AC056206DD05BB05CF05AD
:104ED40000000000551228128512010920120C123C
:104EE400FD110000000093098205851284128E06CC
:104EF40001091A11F2100E110211211101094C07B6
:104F0400C00C040948094A082D08C0076107704805
:104F1400206D6574657200696E7A796E69657220B8
:104F2400446F6D75006D65617375726520706800FE
:104F34003B000D0A00430053002E30207048006EE1
:0C4F4400616E00696E66006F766600000A
:00000001FF
