:100000000C9480050C94D70A0C94B00A0C94A805A3
:100010000C94A8050C94A8050C94A8050C94A805AC
:100020000C94A8050C94A8050C94A8050C94A8059C
:100030000C94A8050C94A8050C94A8050C94A8058C
:100040000C94261A0C94A8050C94640C0C943E0C89
:100050000C94A8050C94A8050C94A8050C94A8056C
:100060000C949B120C94A8052C2000307800312DA4
:10007000576972652062757320636F6E6E65637475
:10008000696F6E206572726F722100DB40A4A62E2C
:10009000AF2000A1C8D300408DAED580A80000607D
:1000A0000000000000000000000000000000E00070
:1000B00000000000000000000000000001E000005F
:1000C000000000000000000000000001F00000003F
:1000D0000000000000000000000003F0000000002D
:1000E00000000000000000000007F0000000000019
:1000F000000000000000000007F800000000000001
:10010000000000000000000FF800000003C0007EA7
:10011000000001E0007F0FF800000003C000FE00B7
:100120000001E000FFEFF800000003C000FE000047
:1001300001E000FFFFF800000003C000F000000035
:100140000F007FFE7FC0000003C000F00000000F22
:10015000003FFE7FF83FF1FBCFFCFEF3BC3DEFE03C
:100160001FFE7FFF7FFBFFDFFEFEFFBC3DEFE01FBA
:10017000C6FFFF7FFBFFDFFEFEFFBC3DEFE00FE3AE
:10018000C7FE787BC3DE1EF0FFBC3DEF0007FF8794
:10019000FC787BC3DE1EF0F83C3DEF0001FFFFF072
:1001A000007BC3C01EF0F03C3DEF0001F37FE03F59
:1001B000FBC3CFFEF0F03C3DEF0003E33F807FFB4D
:1001C000C3DFFEF0F03C3DEF0007E73C00787BC367
:1001D000DE1EF0F03C3DEF0007FFBE00787BC3DE83
:1001E0001EF0F03C3DEF0007FFFE00787BC3DE1EF3
:1001F000F0F03C3DEF000FFFFE007FFBFFDFFEF065
:10020000F03FFDEFE00FFFFF007FFBFFDFFEF0F0B0
:100210003FFDEFE00FF9FF003E79F9CF9EF0F01FB0
:100220003DE7E01FF1FF00000000000000000000BB
:1002300000001F80FF007FFFFFFFFFFFFFFFFFFFAA
:10024000E01C007F007FFFFFFFFEB46D888D18E08B
:1002500000001F007FFFFFFFFE95AD7DB577E0003A
:10026000000F007FFFFFFFFEA5AD9D8D19E0000090
:1002700006007FFFFFFFFEB5ADEDB57EE00000009C
:10028000000001800000000000000000000380006A
:10029000000000000000000007C000000000000097
:1002A00000000007C00000000000000000000FC0B8
:1002B0000000000000000000001FE000000000003F
:1002C000000000001FE00000000000000000003FF0
:1002D000E00000000000000000003FF0000000000F
:1002E00000000000007FF0000000000000001FF888
:1002F0007FF0000000000000003FFE7FF0000000E3
:10030000000000003FFF7FF0000000000000001F21
:10031000FFFBE0000000000000000FFFF9FFC0003D
:1003200000000000000FFFF9FFF8000000000000CF
:1003300007FFF1FFFF00000000000003FC73FFFF58
:1003400080000000000001FE3FFFFF800000000071
:100350000000FF1E0FFF000000000000007FFE1FD6
:10036000FC000000000000003FFFFFF8000000005C
:100370000000000FDFFFE0000000000000001F1978
:10038000FFC0000000000000003F3CFF0000000034
:10039000000000007E7CF800000000000000007FEC
:1003A000FE7C0000000000000000FFFFFC000000D9
:1003B0000000000000FFFFFE000000000000000041
:1003C000FFFFFE0000000000000001FFEFFE000044
:1003D000000000000001FFCFFE0000000000000050
:1003E00003FF07FE0000000000000003FC07FE0002
:1003F00000000000000003F003FE00000000000009
:1004000000018000FE000000000000000000007EEF
:10041000000000000000000000003E00000000009E
:1004200000000000000C000000000000078000FC3D
:10043000000003C0000000078001FC000003C000B2
:100440000000078001FC000003C0000000078001DD
:10045000E00000001E000000078001E00000001E18
:10046000007FE3F79FF9FDE7787BDFC0FFF7FFBF71
:10047000FDFDFF787BDFC0FFF7FFBFFDFDFF787B51
:10048000DFC0F0F787BC3DE1FF787BDE00F0F78747
:10049000BC3DE1F0787BDE0000F787803DE1E0784D
:1004A0007BDE007FF7879FFDE1E0787BDE00FFF7D2
:1004B00087BFFDE1E0787BDE00F0F787BC3DE1E03F
:1004C000787BDE00F0F787BC3DE1E0787BDE00F072
:1004D000F787BC3DE1E0787BDE00FFF7FFBFFDE181
:1004E000E07FFBDFC0FFF7FFBFFDE1E07FFBDFC088
:1004F0007CF3F39F3DE1E03E7BCFC00000000000B5
:10050000000000000000FFFFFFFFFFFFFFFFFFFFF5
:10051000C0FFFFFFFFFD68DB111A31C0FFFFFFFFC7
:10052000FD2B5AFB6AEFC0FFFFFFFFFD4B5B3B1A41
:1005300033C0FFFFFFFFFD6B5BDB6AFDC05353441D
:100540003133303620616C6C6F636174696F6E207B
:100550006F6B005353443133303620616C6C6F63E2
:100560006174696F6E206661696C656400000000EB
:100570000800020100000304070000000000000062
:10058000002200FF210000000000230026002900B7
:100590000404040404040404020202020202030329
:1005A0000303030301020408102040800102040831
:1005B0001020010204081020005EBCE2613FDD83D0
:1005C000C29C7E20A3FD1F41009D23BE46DB65F833
:1005D0008C11AF32CA57E9740000000024002700D4
:1005E0002A0000000000250028002B00000103075E
:1005F0000F1F3F7F0080C0E0F0F8FCFE000000000D
:10060000003E5B4F5B3E3E6B4F6B3E1C3E7C3E1C98
:10061000183C7E3C181C577D571C1C5E7F5E1C00DE
:10062000183C1800FFE7C3E7FF0018241800FFE795
:10063000DBE7FF30483A060E2629792926407F0558
:100640000507407F05253F5A3CE73C5A7F3E1C1C6E
:1006500008081C1C3E7F14227F22145F5F005F5F2E
:1006600006097F017F006689956A6060606060941A
:10067000A2FFA29408047E040810207E201008081F
:100680002A1C08081C2A08081E101010100C1E0C2A
:100690001E0C30383E3830060E3E0E0600000000BC
:1006A0000000005F00000007000700147F147F14A3
:1006B000242A7F2A122313086462364956205000E8
:1006C00008070300001C2241000041221C002A1CD4
:1006D0007F1C2A08083E08080080703000080808BF
:1006E0000808000060600020100804023E514945DF
:1006F0003E00427F400072494949462141494D33FD
:100700001814127F1027454545393C4A4949314163
:10071000211109073649494936464949291E000031
:100720001400000040340000000814224114141486
:100730001414004122140802015909063E415D5972
:100740004E7C1211127C7F494949363E414141227B
:100750007F4141413E7F494949417F090909013EA5
:10076000414151737F0808087F00417F41002040CC
:10077000413F017F081422417F404040407F021CDE
:10078000027F7F0408107F3E4141413E7F090909F5
:10079000063E4151215E7F091929462649494932C1
:1007A00003017F01033F4040403F1F2040201F3F87
:1007B0004038403F6314081463030478040361590C
:1007C000494D43007F41414102040810200041414E
:1007D000417F0402010204404040404000030708FA
:1007E0000020545478407F284444383844444428F6
:1007F000384444287F385454541800087E0902189D
:10080000A4A49C787F0804047800447D4000204024
:10081000403D007F1028440000417F40007C047868
:1008200004787C080404783844444438FC182424B0
:100830001818242418FC7C08040408485454542430
:1008400004043F44243C4040207C1C2040201C3CAD
:100850004030403C44281028444C9090907C4464A4
:10086000544C440008364100000077000000413637
:10087000080002010204023C2623263C1EA1A161BD
:10088000123A4040207A38545455592155557941EF
:100890002254547842215554784020545579400CC4
:1008A0001E527212395555555939545454593955A7
:1008B0005454580000457C410002457D42000145EA
:1008C0007C407D1211127DF0282528F07C5455457E
:1008D000002054547C547C0A097F493249494932EA
:1008E0003A4444443A324A4848303A4141217A3AFB
:1008F00042402078009DA0A07D3D4242423D3D40C7
:1009000040403D3C24FF2424487E4943662B2FFC75
:100910002F2BFF0929F620C0887E09032054547923
:10092000410000447D413048484A32384040227AF4
:10093000007A0A0A727D0D19317D2629292F282671
:100940002929292630484D40203808080808080879
:100950000808382F10C8ACBA2F102834FA00007BD2
:10096000000008142A142222142A140855005500E5
:1009700055AA55AA55AAFF55FF55FF000000FF00D4
:10098000101010FF00141414FF001010FF00FF10CF
:1009900010F010F0141414FC001414F700FF000001
:1009A000FF00FF1414F404FC141417101F10101F80
:1009B000101F1414141F00101010F0000000001F6E
:1009C000101010101F10101010F010000000FF1079
:1009D0001010101010101010FF10000000FF140075
:1009E00000FF00FF00001F10170000FC04F41414A7
:1009F0001710171414F404F40000FF00F714141473
:100A000014141414F700F7141414171410101F10F2
:100A10001F141414F4141010F010F000001F101F15
:100A20000000001F14000000FC140000F010F01083
:100A300010FF10FF141414FF141010101F000000FA
:100A400000F010FFFFFFFFFFF0F0F0F0F0FFFFFFFE
:100A50000000000000FFFF0F0F0F0F0F3844443855
:100A600044FC4A4A4A347E02020606027E027E02A4
:100A700063554941633844443C04407E201E2006AF
:100A8000027E020299A5E7A5991C2A492A1C4C72EC
:100A900001724C304A4D4D303048784830BC625A73
:100AA000463D3E494949007E0101017E2A2A2A2A03
:100AB0002A44445F444440514A444040444A5140DF
:100AC0000000FF0103E080FF000008086B6B0836A0
:100AD00012362436060F090F060000181800000011
:100AE0001010003040FF0101001F01011E00191D00
:100AF0001712003C3C3C3C0000000000F021E123C8
:100B000011241FBECFEFD8E0DEBFCDBF12E0A0E0C2
:100B1000B1E0E8E4FFE402C005900D92A431B10712
:100B2000D9F723E0A4E1B2E001C01D92AF3EB207C5
:100B3000E1F715E0CFE7D5E004C02197FE010E9460
:100B40002824CE37D107C9F70E94701A0C94972732
:100B50000C9400000895CF92DF92EF92FF920F93D2
:100B60001F93CF93DF936C017A018B01C0E0D0E03B
:100B7000CE15DF0581F0D8016D918D01D601ED9183
:100B8000FC910190F081E02DC6010995892B11F0AF
:100B90002196EECF7E01C701DF91CF911F910F917A
:100BA000FF90EF90DF90CF900895FC01538D448D1E
:100BB000252F30E0842F90E0821B930B541710F008
:100BC000CF96089501970895FC01918D828D981715
:100BD00061F0828DDF01A80FB11D5D968C91928D21
:100BE0009F5F9F73928F90E008958FEF9FEF08951E
:100BF000FC01918D828D981731F0828DE80FF11DE7
:100C0000858D90E008958FEF9FEF0895FC01918D01
:100C1000228D892F90E0805C9F4F821B91098F73FA
:100C20009927089582E992E00E94060621E0892B27
:100C300009F420E0822F0895FC01848DDF01A80FC4
:100C4000B11DA35ABF4F2C91848D90E001968F73F4
:100C50009927848FA689B7892C93A089B1898C9113
:100C6000837080648C93938D848D981306C0028862
:100C7000F389E02D80818F7D80830895EF92FF922C
:100C80000F931F93CF93DF93EC0181E0888F9B8DAF
:100C90008C8D981305C0E889F989808185FD26C06F
:100CA000F62E0B8D10E00F5F1F4F0F731127E02EF4
:100CB0008C8DE8120CC00FB607FCFACFE889F989D1
:100CC000808185FFF5CFCE010E941C06F1CF8B8D70
:100CD000FE01E80FF11DE35AFF4FF0829FB7F89431
:100CE0000B8FEA89FB89808180620AC09FB7F894E4
:100CF000EE89FF896083E889F98980818370806447
:100D000080839FBF81E090E0DF91CF911F910F9191
:100D1000FF90EF900895CF93DF93EC01888D8823A7
:100D2000C9F0EA89FB89808185FD05C0A889B98958
:100D30008C9186FD0FC00FB607FCF5CF808185FF33
:100D4000F2CFA889B9898C9185FFEDCFCE010E94A1
:100D50001C06E7CFDF91CF91089580E090E0892BCA
:100D600029F00E94120681110C9400000895FC01E4
:100D700077FDB9C080859185681779070CF0B3C0FD
:100D800057FDB1C082859385481759070CF0089527
:100D90008689823079F484819581DC01A61BB70BAA
:100DA000BD016150710986819781DC01A41BB50BDF
:100DB000AD010EC0833009F084C064277527CA01D5
:100DC000862797276827792746815781481B590B23
:100DD000415051092130310531F048F122303105BF
:100DE00009F44AC00895CA0157FD07969C01A3E083
:100DF00035952795AA95E1F7A481B5812A9FC00171
:100E00002B9F900D3A9F900D1124680F791F078C2E
:100E1000F0A1E02DE60FF71F4770552781E090E025
:100E200001C0880F4A95EAF79081892B48C0CA0112
:100E300057FD07969C0193E0359527959A95E1F724
:100E4000A481B5812A9FC0012B9F900D3A9F900DE0
:100E50001124680F791F078CF0A1E02DE60FF71F12
:100E60004770552781E090E001C0880F4A95EAF766
:100E700080959081892323C0CA0157FD07969C0164
:100E800083E0359527958A95E1F7A481B5812A9F5E
:100E9000C0012B9F900D3A9F900D1124680F791F70
:100EA000078CF0A1E02DE60FF71F4770552781E072
:100EB00090E001C0880F4A95EAF7908189278083E6
:100EC0000895813009F086CF642775274627572774
:100ED0006427752784819581DC01A61BB70BBD01B2
:100EE0006150710977CF08950895FC016370668B96
:100EF0008481958126813781613039F0633029F012
:100F00009187808733872287089531872087938749
:100F1000828708956F927F928F929F92AF92BF9235
:100F2000CF92DF92EF92FF920F931F93CF93DF93B5
:100F3000EC014B015A0169013801E881F981028411
:100F4000F385E02D0995E881F9810288F389E02D88
:100F500087019601A501B401CE010995A501460DB1
:100F6000571D41505109E881F9810288F389E02D2C
:100F70009601B401CE010995E881F9810088F189D3
:100F8000E02D9301A501B401CE010995C80CD91C2F
:100F9000B60161507109E881F9810088F189E02D7D
:100FA0009301A501CE010995E881F9810688F789A9
:100FB000E02DCE01DF91CF911F910F91FF90EF9027
:100FC000DF90CF90BF90AF909F908F907F906F9069
:100FD00009948F929F92AF92BF92CF92DF92EF923D
:100FE000FF920F931F93CF93DF934C016B015A0134
:100FF000E901DC01ED91FC916217730781F404179C
:10100000150724F48B2D5801042F182F0A191B09DA
:1010100098012F5F3F4F048CF58DE02D12C04017D3
:10102000510709F52617370724F48D2D6901C62FBE
:10103000D82F9E012C193D092F5F3F4F068CF78D4D
:10104000E02D8701A501B601C4010995DF91CF917B
:101050001F910F91FF90EF90DF90CF90BF90AF90D6
:101060009F908F9008950284F385E02D0995D40117
:10107000ED91FC910488F589E02D9E01A501B60152
:10108000C4010995D401ED91FC910688F789E02D02
:10109000C401DF91CF911F910F91FF90EF90DF90EE
:1010A000CF90BF90AF909F908F900994EF92FF9256
:1010B0000F931F93DC011A960D911C911B971896A4
:1010C0002D913C911997ED91FC9100A0F1A1E02D9B
:1010D0007B0140E050E060E070E009951F910F91C6
:1010E000FF90EF9008954F925F926F927F928F9250
:1010F0009F92AF92BF92CF92DF92EF92FF920F93A7
:101100001F93CF93DF936C012B015A0139014801E2
:10111000DC01ED91FC910284F385E02D0995E2015B
:10112000640C751CD601ED91FC91C615D7055CF4D5
:101130000088F189E02D87019401A501BE01C60157
:1011400009952196EFCF0688F789E02DC601DF913A
:10115000CF911F910F91FF90EF90DF90CF90BF90B4
:10116000AF909F908F907F906F905F904F90099479
:101170008F929F92AF92BF92CF92DF92EF92FF92A7
:101180000F931F93CF93DF93EC015B014A01690139
:10119000E881F9810284F385E02D099595012C0DF4
:1011A0003D1D21503109E881F9810488F589E02D40
:1011B00078018401A401B501CE010995E881F98186
:1011C0000688F789E02DCE01DF91CF911F910F9115
:1011D000FF90EF90DF90CF90BF90AF909F908F9057
:1011E00009948F929F92AF92BF92CF92DF92EF922B
:1011F000FF920F931F93CF93DF93EC015B014A01A2
:1012000069017801E881F9810284F385E02D09956F
:10121000C80CD91C860101501109E881F9810488A4
:10122000F589E02D9501A401B501CE010995E8816C
:10123000F9810688F789E02DCE01DF91CF911F91CA
:101240000F91FF90EF90DF90CF90BF90AF909F9065
:101250008F9009940895EF92FF920F931F93DC01F2
:10126000ED91FC9100A0F1A1E02D09951F910F9146
:10127000FF90EF9008950F931F93DC01ED91FC9187
:10128000068CF78DE02D09951F910F9108950E940E
:101290008B270F931F93CF93DF93DC015696EC912E
:1012A0005697E23071F0E330E9F0E13079F5FB0177
:1012B00014960D90BC91A02DA41BB50BA21BB30BD3
:1012C00018C0EC01EC81FD81E61BF70BBF016150FA
:1012D0007109EE81FF81DF01A41BB50BAD01421B3B
:1012E000530B14C0DA01EC01EE81FF81E61BF70B12
:1012F0003197F7FD0DC0EC014E815F81E417F507D2
:101300003CF4AF01BD010E94301802C00E94971842
:10131000DF91CF911F910F9108950F931F93DC01DF
:101320005696EC915697E23061F0E33009F1E130E6
:1013300081F51496ED91FC911597E41BF50B31970F
:1013400023C0DC011496ED91FC911597DF01A61BDB
:10135000B70BBD01DC011696ED91FC911797DF01EB
:10136000A41BB50BAD0141505109621B730B11C099
:10137000FA01DC0116964D915C911797DA01A61BD4
:10138000B70BBD01621B730BAB01BF010E94971825
:101390000CC057FD0AC0DC011696ED91FC91179721
:1013A0004E175F0714F40E9430181F910F91089593
:1013B0008F929F92AF92CF92EF92FF920F931F93D3
:1013C000CF93DF93EC01262F898D9A8D009709F03A
:1013D00042C06A3059F41D861C862D898E859F85F2
:1013E00038E0239F800D911D112443C06D3009F416
:1013F000AAC08F898823C9F03C898C859D8546E0E9
:10140000349F800D911D112448855985481759072F
:1014100064F41D861C863D898E859F8548E0349F37
:10142000800D911D11249F878E87EA88FB8808898B
:1014300019894E855F856C857D85AD88CC88CE0108
:101440000E94FC152C898C859D8536E0239F800D9C
:10145000911D11243EC06A3079F41D861C862D89A9
:10146000FC013896E4918E859F852E9F800D911DFD
:1014700011249F878E8767C06D3009F464C0FC011A
:1014800034963491631708F45EC03296E491E617FF
:1014900008F459C0462F431B342FFC013296859027
:1014A000949047E0349F800C911C1124F4013296F3
:1014B00034913196E491332311F0E1110DC0F40120
:1014C0003496E4912C898C859D85E29F800D911D39
:1014D00011249D878C8737C0F401359644915F892C
:1014E000552319F15C89E32FF0E0E40FF11D47FD6E
:1014F000FA955E9FB0015F9F700D11244C855D854C
:10150000460F571F688579856417750774F41D8623
:101510001C863D89FC013896E4918E859F853E9F0F
:10152000800D911D11249F878E87EA88FB8808898A
:1015300019894E855F856C857D85AD88CC88CE0107
:101540000E94FC15BCCF81E090E0DF91CF911F910C
:101550000F91FF90EF90CF90AF909F908F90089554
:101560001F920F920FB60F9211242F933F934F9318
:101570005F936F937F938F939F93AF93BF93EF93FB
:10158000FF93E0910201F09103010995FF91EF9122
:10159000BF91AF919F918F917F916F915F914F918B
:1015A0003F912F910F900FBE0F901F9018951F9293
:1015B0000F920FB60F9211242F933F934F935F9387
:1015C0006F937F938F939F93AF93BF93EF93FF930B
:1015D000E0910001F09101010995FF91EF91BF9118
:1015E000AF919F918F917F916F915F914F913F91BB
:1015F0002F910F900FBE0F901F901895DC01ED9169
:10160000FC910190F081E02D09946115710579F04C
:10161000FB0101900020E9F73197AF01461B570B02
:10162000DC01ED91FC910280F381E02D099480E0D2
:1016300090E008958F929F92AF92BF92EF92FF92A7
:101640000F931F93CF93DF93CDB7DEB7A1970FB65C
:10165000F894DEBF0FBECDBF7C01FA01CB0119A209
:10166000223008F42AE08E010F5D1F4F822E912C4C
:10167000A12CB12CBF01A50194010E940624F901FF
:10168000CA01015011096A3014F4605D01C0695C3F
:10169000D8016C93232B242B252B61F7B801C701AC
:1016A0000E94050BA1960FB6F894DEBF0FBECDBF0A
:1016B000DF91CF911F910F91FF90EF90BF90AF906E
:1016C0009F908F9008957F928F929F92AF92BF923A
:1016D000CF92DF92EF92FF920F931F93CF93DF93FE
:1016E0008C016A017B01722E9A01AB01C701B60120
:1016F0000E946526882319F067E072E027C0460142
:101700005701E894B7F82FEF3FEF4FE75FE7C501C8
:10171000B4010E94652681110DC02FEF3FEF4FE706
:101720005FE7C501B4010E949B2418161CF46BE00E
:1017300072E00CC02FEF3FEF4FE75FE4C701B60147
:101740000E94F325181694F46FE072E0C801DF914F
:10175000CF911F910F91FF90EF90DF90CF90BF90AE
:10176000AF909F908F907F900C94050B2FEF3FEFE1
:101770004FE75FECC701B6010E949B2487FDE4CFD1
:1017800020E030E0A901C701B6010E949B2487FF39
:101790000AC06DE2C8010E94FE0AEC01F7FAF0945B
:1017A000F7F8F09402C0C0E0D0E0B12C60E070E047
:1017B00080E09FE37B1441F020E030E040E251E420
:1017C0000E94A024B394F6CFA70196010E942F2473
:1017D0006B017C010E9412254B015C012AE0AB01E8
:1017E000BC01C8010E941A0BC80FD91F7720A9F1AC
:1017F000C501B4010E9441259B01AC01C701B6019E
:101800000E942E246B017C016EE2C8010E94FE0A38
:10181000C80FD91F20E030E040E251E4C701B60113
:101820000E94F8254B015C010E9412256B017C018E
:10183000C8010E94AC10C80FD91FB60180E090E02B
:101840000E9441259B01AC01C501B4010E942E24D8
:101850006B017C017A947110DDCFCE01DF91CF91C5
:101860001F910F91FF90EF90DF90CF90BF90AF90BE
:101870009F908F907F9008950C94050B1F920F926C
:101880000FB60F9211242F933F934F935F936F9353
:101890007F938F939F93AF93BF93EF93FF9382E9CF
:1018A00092E00E941C06FF91EF91BF91AF919F9132
:1018B0008F917F916F915F914F913F912F910F90F9
:1018C0000FBE0F901F9018951F920F920FB60F9298
:1018D00011242F938F939F93EF93FF93E091A20294
:1018E000F091A3028081E091A802F091A90282FD0B
:1018F00012C090818091AB028F5F8F732091AC02F8
:10190000821751F0E091AB02F0E0EE56FD4F958F5B
:101910008093AB0201C08081FF91EF919F918F91E5
:101920002F910F900FBE0F901F90189508958EBDA8
:1019300000000DB407FEFDCF8EB508951F93CF9321
:10194000DF93FC01858D968D009729F1162FEF010D
:1019500021A131E030936E022093900210926F0229
:1019600010929102DC01ED91FC910190F081E02D4B
:1019700060E009958D8D9E8DDC01ED91FC910190CB
:10198000F081E02D612F09958D8D9E8DDF91CF9196
:101990001F910C94890DA5A5B6A59C9183A980954E
:1019A00089238C93838D948D892B31F0862FDF9141
:1019B000CF911F910C94970C28E030E080E8A1A50E
:1019C000B2A591A9462F482319F04C91942B03C03E
:1019D0004C91909594239C93A3A5B4A54C9192A966
:1019E000942B9C93A3A5B4A54C9192A99095942374
:1019F0009C9386952150310911F7DF91CF911F916A
:101A000008958CBD9DBD08951F93CF93DF93EC0186
:101A1000162F8D8D9E8D892BB1F02DA93EA94FA932
:101A200058AD60E074E284EF90E00E940624DA0191
:101A3000C9014097A109B109B695A79597958795D2
:101A40008093B8000FC08B8D9C8D892B21F08EADBB
:101A50009FAD0E94010DEFA5F8A990818CA98095FA
:101A600089238083111102C066EA01C067EACE01B2
:101A70000E949E0C8D8D9E8D892BB1F029AD3AADC3
:101A80004BAD5CAD60E074E284EF90E00E94062410
:101A9000DA01C9014097A109B109B695A7959795B3
:101AA00087958093B80006C0EFA5F8A990818CA90E
:101AB000892B8083DF91CF911F9108950F931F93FE
:101AC000CF93DF938C01C0E0D0E0F801EC0FFD1F55
:101AD0006491662341F082E992E00E943E06892BE0
:101AE00011F02196F2CFCE01DF91CF911F910F918E
:101AF0000895CF93DF930E945E0DEC0160E771E0E3
:101B000082E992E00E94050B8C0F9D1FDF91CF911F
:101B1000089530919102313208F04BC080916D02EE
:101B20008111FCCF9091900222E020936D0221E080
:101B300020936C022FEF20936B0210926A02309375
:101B40006902E0E7F2E0A9E4B2E020E0321721F018
:101B500041914D932F5FFACF109248022091480295
:101B6000990F922B9093480290914702913061F423
:101B700010924702909148029093BB009091BC0054
:101B800093FDF8CF95EC01C095EE9093BC00909139
:101B90006D029230E1F390916B029F3F79F080915A
:101BA0006B02803241F080916B02803331F084E02F
:101BB00005C081E003C082E001C083E010926F02A3
:101BC0001092910210926E020895DF92EF92FF92AE
:101BD0000F931F93CF93DF93D82ED92FC62F8091C9
:101BE0004C0390914D03009709F454C02091500389
:101BF00031E030936E022093900210926F021092A7
:101C00009102DC01ED91FC910190F081E02D60E00A
:101C10000995ED2CFD2E11E0D1E080914C039091BF
:101C20004D03CC2371F11032C8F00E94890D8091D0
:101C30005003D0936E028093900210926F02109224
:101C4000910280914C0390914D03DC01ED91FC9148
:101C50000190F081E02D60E0099511E080914C0346
:101C600090914D03F7016491DC01ED91FC9101909D
:101C7000F081E02D09951F5FC150BFEFEB1AFB0A01
:101C8000CCCFDF91CF911F910F91FF90EF90DF901C
:101C90000C94890DE0915C03F0915D03908180913B
:101CA00062038095892380830D2D1D2FCC2309F499
:101CB00039C0F801849120914A0330914B03232BC2
:101CC00031F00E94970CC1500F5F1F4FEFCF28E0FB
:101CD00030E040E8E0915803F0915903909160039F
:101CE000582F542319F05081952B03C050819095A3
:101CF00095239083E0915A03F0915B03508190917A
:101D00006103952B9083E0915A03F0915B0350811E
:101D100090916103909595239083469521503109C8
:101D2000C9F6D1CFDF91CF911F910F91FF90EF9026
:101D3000DF900895EF92FF920F931F93CF93DF935D
:101D400080914C0390914D03892BD1F02091640335
:101D500030916503409166035091670360E074E23F
:101D600084EF90E00E940624DA01C9014097A1099E
:101D7000B109B695A795979587958093B80016C039
:101D800080914A0390914B03892B31F080916D0330
:101D900090916E030E94010DE0915E03F0915F034C
:101DA00090818091630380958923808365E081E839
:101DB00095E00E94E50D6091330361508FE293E05E
:101DC0000E949E0C2091350330913603C90107967D
:101DD00097FD079633E0959587953A95E1F7209121
:101DE000330330913403829F8001839F100D929FB3
:101DF000100D1124C0914E03D0914F0380914C03DC
:101E000090914D030C0F1D1F009709F44CC02091B9
:101E1000500331E030936E022093900210926F02D3
:101E200010929102DC01ED91FC910190F081E02D86
:101E300060E40995FF24F394EE24E39480914C032D
:101E400090914D030C171D0759F1BFE1BF15D0F458
:101E50000E94890D80915003E0926E02809390025F
:101E600010926F021092910280914C0390914D0359
:101E7000DC01ED91FC910190F081E02D60E4099589
:101E8000FF24F39480914C0390914D036991DC0100
:101E9000ED91FC910190F081E02D0995F394CECF66
:101EA0000E94890D41C0E0915C03F0915D03908137
:101EB00080916203892B80830C171D07A9F18991FA
:101EC00020914A0330914B03232B19F00E94970C69
:101ED000F3CF28E030E040E8E0915803F091590357
:101EE00090916003582F542319F05081952B03C013
:101EF0005081909595239083E0915A03F0915B0374
:101F0000508190916103952B9083E0915A03F09159
:101F10005B03508190916103909595239083469542
:101F200021503109C9F6C8CF80914C0390914D03DF
:101F3000892BD1F0209168033091690340916A03A5
:101F400050916B0360E074E284EF90E00E940624FD
:101F5000DA01C9014097A109B109B695A7959795EE
:101F600087958093B80017C0E0915E03F0915F03FE
:101F7000908180916303892B808380914A039091A3
:101F80004B03892B41F0DF91CF911F910F91FF906F
:101F9000EF900C94960CDF91CF911F910F91FF90D1
:101FA000EF9008952091350330913603C9010796CB
:101FB00097FD079623E0959587952A95E1F720915F
:101FC000330330913403829FA001839F500D929F71
:101FD000500D112460E070E080914E0390914F030A
:101FE0000C9490273F924F925F926F927F928F92C4
:101FF0009F92AF92BF92CF92DF92EF92FF920F9398
:102000001F93CF93DF9300D000D000D0CDB7DEB7C1
:102010002C013B014A015901C901079697FD07961A
:102020009C0193E0359527959A95E1F73C832B83A6
:10203000C12CD12CE12CF12C312CC3018E0D9F1D14
:102040009A838983E016F106C4F51E821D822D81D4
:102050003E812A153B054CF5C90187709927892BCC
:1020600011F0330C0EC0ED81FE81F7FD379683E051
:10207000F595E7958A95E1F7EC0DFD1DE80DF91D45
:10208000349037FE0CC021E030E049815A816D81E7
:102090007E81640D751D8FE293E00E9407118D8192
:1020A0009E8101969E838D83D2CF9FEFE91AF90A14
:1020B0002B813C81C20ED31EC0CF26960FB6F8945A
:1020C000DEBF0FBECDBFDF91CF911F910F91FF906B
:1020D000EF90DF90CF90BF90AF909F908F907F90C8
:1020E0006F905F904F903F900895CF93DF93BC0126
:1020F0008FE293E00E94050BEC0160E771E08FE254
:1021000093E00E94050B8C0F9D1FDF91CF910895E6
:10211000CF93DF93E0E7F5E08491E7EAF5E0D4912F
:10212000E3E9F5E0C491CC2391F081110E944C19B0
:10213000EC2FF0E0EE0FFF1FEA57FA4FA591B49194
:10214000EC91ED2381E090E021F480E002C080E09A
:1021500090E0DF91CF910895AB0160E070E02AE05C
:102160000C941A0BCF92DF92EF92FF920F931F9372
:10217000CF93DF936B01770FEE08FF08F7FE1BC0CC
:10218000EC016DE20E94FE0A8C0144275527BA013A
:102190004C195D096E097F092AE0CE010E941A0BD5
:1021A000800F911FDF91CF911F910F91FF90EF90C2
:1021B000DF90CF9008952AE0B701A601DF91CF917B
:1021C0001F910F91FF90EF90DF90CF900C941A0B1E
:1021D00081E480937C0080917A00806480937A000F
:1021E00080917A0086FDFCCF809178002091790063
:1021F00090E0922B08950F931F93DC01ED91FC91D9
:10220000048CF58DE02D09951F910F910895DC0147
:10221000ED91FC910084F185E02D09942F923F927D
:102220004F925F926F927F928F929F92AF92BF92E6
:10223000CF92DF92EF92FF920F931F93CF93DF9392
:1022400000D000D000D0CDB7DEB72C017E836D83E7
:102250006A015901C801FC82EB824801841A950A7F
:1022600097FE03C091948194910835012D813E81A0
:10227000621A730A77FE03C071946194710868143E
:1022800079045CF43A2D2B2D5C01832F922F3D8134
:102290002E81DE82CD82C32ED22EAD81BE81AA16C2
:1022A000BB065CF43C2D2D2D6C01832F922F3D81BC
:1022B0002E81BE82AD82A32EB22E85012D813E815C
:1022C000021B130B1C012C183D0837FE03C0319470
:1022D00021943108780117FF03C03FEFE31AF30A96
:1022E000F594E794C816D9062CF08FEF9FEF9A83E8
:1022F000898304C0A1E0B0E0BA83A9832D813E8127
:10230000A216B30624F1D201ED91FC910484F58567
:10231000E02D2B813C816814790424F44D815E8189
:10232000B60103C0A6016D817E81C2010995E21844
:10233000F308F7FE06C029813A81C20ED31EE00ED3
:10234000F11E8D819E8101969E838D83D7CF269627
:102350000FB6F894DEBF0FBECDBFDF91CF911F91B6
:102360000F91FF90EF90DF90CF90BF90AF909F9034
:102370008F907F906F905F904F903F902F90089537
:1023800085ED8093BC008091BC0084FDFCCF109251
:102390006D0208954091BF03262F30E0240F311DB8
:1023A00021323105DCF420916D022430C9F4FC01A6
:1023B00080E090E0861758F43091BF032191DC0152
:1023C000A156BC4FA30FB11D2C930196F3CF809162
:1023D000BF03680F6093BF0380E0089581E0089514
:1023E00082E0089508950895E091190280911802FD
:1023F000E81730F4F0E0E158FC4F808190E0089558
:102400008FEF9FEF0895909119028091180298170D
:1024100050F4E92FF0E0E158FC4F208130E09F5F5D
:102420009093190202C02FEF3FEFC90108958091E8
:10243000180290E020911902821B91090895CF9211
:10244000DF92EF92FF920F931F93CF93DF937C0164
:10245000CB018A0120916E02222389F0EB016B01EE
:10246000C40ED51ECC15DD0569F06991D701ED913B
:10247000FC910190F081E02DC7010995F3CF642F05
:102480000E94CA11C801DF91CF911F910F91FF9057
:10249000EF90DF90CF900895CF93DF931F92CDB749
:1024A000DEB7698320916E022223D1F02091910240
:1024B000203240F021E030E0FC013383228380E0D1
:1024C00090E015C080916F02E82FF0E0E059FD4FD9
:1024D000998190838F5F80936F028093910205C0F2
:1024E00061E0CE0101960E94CA1181E090E00F9058
:1024F000DF91CF910895089580E090E008950E94C3
:102500001A1A60931A0270931B0280931C02909314
:102510001D0281E080931E0208950E941A1A6093A2
:102520001A0270931B0280931C0290931D0281E09B
:1025300080931F0208951F920F920FB60F921124DD
:102540002F933F934F935F936F937F938F939F93BB
:10255000AF93BF93EF93FF938091B900887F80364C
:1025600009F49CC068F5883209F45BC090F48031AE
:1025700009F454C038F4882309F4F6C0883009F40B
:102580004DC0F6C0883109F44CC0803209F45DC0FA
:10259000EFC0803409F468C048F4803309F455C0B2
:1025A000883309F0E5C080936B02D8C0803509F408
:1025B0004FC0883509F45DC0883409F0D9C0D6C051
:1025C000883909F4C7C0A8F4883709F467C038F41B
:1025D000883609F463C0803709F460C0C9C0883800
:1025E00009F4B8C0803909F45FC0803809F0C0C070
:1025F0005BC0803B09F486C038F4803A09F466C0B9
:10260000883A09F47FC0B4C0803C09F4A7C0883C74
:1026100009F4A4C0883B09F48AC0AAC0809148028A
:1026200010C090916A0280916902981770F5E0914C
:102630006A0281E08E0F80936A02F0E0E75BFD4F53
:1026400080818093BB0085EC86C080936B028EC036
:10265000E0916A0281E08E0F80936A028091BB0054
:10266000F0E0E75BFD4F808390916A028091690200
:102670006EC0E0916A0281E08E0F80936A028091C1
:10268000BB00F0E0E75BFD4F808380916C0281111D
:102690006DC081E08093470284EA61C083E080934B
:1026A0006D021092E103CFCF8091E103803208F0F8
:1026B00051C0E091E10381E08E0F8093E1038091AE
:1026C000BB00F0E0EF53FC4F8083BDCF85EC8093DF
:1026D000BC0010926D028091E103803230F4E091F1
:1026E000E103F0E0EF53FC4F10826091E10370E0F2
:1026F000E0911402F091150281EC93E0099510929B
:10270000E10336C084E080936D021092C003109202
:10271000BF03E0911602F091170209958091BF0363
:10272000811105C081E08093BF0310929F03E09167
:10273000C00381E08E0F8093C003F0E0E156FC4FB0
:1027400080818093BB009091C0038091BF03981754
:1027500008F479CF85E88093BC000AC085EC8093AB
:10276000BC0010926D0204C010926B020E94C01156
:10277000FF91EF91BF91AF919F918F917F916F9159
:102780005F914F913F912F910F900FBE0F901F902F
:102790001895DC0180E0615098F02D91982F9227D8
:1027A000E92FEF70F0E0E854FA4F249192959F7072
:1027B000E92FF0E0E853FA4FE491822F8E27EBCF18
:1027C0000895FC0190810180F281E02DF8948181CF
:1027D000892B81832281892F809528232283A7E05A
:1027E000B0E01197F1F7218182238183A3E2B0E069
:1027F0001197F1F780817894EFECF0E03197F1F7E1
:10280000982381E009F480E00895FC019081018023
:10281000F281E02D892F809560FF12C0F89422810B
:10282000822382838181892B8183A3E2B0E0119787
:10283000F1F78281982B9283789487ED90E011C014
:10284000F8942281822382838181892B8183AFEF57
:10285000B0E01197F1F78281982B928378948FE002
:1028600090E00197F1F70895DF92EF92FF920F93B6
:102870001F93CF93DF93EC01D62EE42E08E010E0F7
:10288000FF24F39461E08D2D8F2109F460E0CE01E7
:102890000E940514FF0C01501109A1F7E11010C0AE
:1028A000F894E981FA8191818881809589238183D7
:1028B000E981FA8192818881809589238283789445
:1028C000DF91CF911F910F91FF90EF90DF900895CE
:1028D000DC012C911196ED91FC911297F894818175
:1028E000922F90958923818378948DE743E050E07F
:1028F000815021F1DA011197F1F730813223C1F3D0
:10290000F8948281892382838181822B81837894C8
:10291000ABE7B7E01197F1F7F894818198239183A1
:1029200083E191E00197F1F78081282381E009F0AC
:1029300080E07894E3E6F6E03197F1F70895EF92BE
:10294000FF920F931F93CF93DF93EC01162F0E94FA
:102950006814882349F11C3CA1F078F4153519F569
:1029600040E065E5CE010E9434148E010F5E1F4FDA
:102970007E0189E1E80EF11C0AC01C3E11F0103FF7
:1029800091F440E0612FCE010E9434140AC0F80196
:1029900061918F0140E0CE010E9434140E151F0595
:1029A000B1F781E001C080E0DF91CF911F910F91DD
:1029B000FF90EF9008958F929F92AF92BF92CF9227
:1029C000DF92EF92FF920F931F93CF93DF93EC016F
:1029D00065E50E949F14882329F040E06EEBCE014C
:1029E0000E9434148E01075E1F4F5E0182E2A80E22
:1029F000B11C480188E0C82ED12CF12CEE24E394C0
:102A0000CE010E94E1138111FE28EE0CE1E0CE1A06
:102A1000D108B1F7F801F1928F01EA15FB0551F7E2
:102A200068E0C4010E94C91391E029A1281390E035
:102A3000892FDF91CF911F910F91FF90EF90DF9041
:102A4000CF90BF90AF909F908F9008951F93CF939A
:102A5000DF93EC011BA165E50E949F14882339F0E8
:102A600041E0111140E064E4CE010E9434148BA1D6
:102A7000882331F0CE010E94E1138823D9F31FC0CF
:102A80008AA18A3089F038F48930C9F46EE570E0A3
:102A900080E090E012C08B3061F08C3081F46EEEFB
:102AA00072E080E090E009C06CEB70E080E090E0C4
:102AB00004C067E771E080E090E00E94E019CE0179
:102AC0000E94DB14898D6A8D9AA19A3031F09B3077
:102AD00031F0993029F4887F03C08C7F01C08E7F4C
:102AE00070E0762F6627680F711D072E000C880B8B
:102AF000990B0E94432520E030E040E85DE30E940E
:102B0000F825DF91CF911F9108950F931F93CF93D5
:102B1000DF938C01EB010E94F0238883C8010196AA
:102B20000E94F0238983CE01DF91CF911F910F91F5
:102B30000895AF92BF92DF92EF92FF920F931F938F
:102B4000CF93DF93EC017B018B015C0182E0A80E47
:102B5000B11CF801D1908F01CE010E94F023D8164C
:102B600021F06D2DCE010E94F8232196CA15DB05B8
:102B700081F7C701DF91CF911F910F91FF90EF90E7
:102B8000DF90BF90AF9008953FB7F8948091E7032E
:102B90009091E803A091E903B091EA0326B5A89BC0
:102BA00005C02F3F19F00196A11DB11D3FBFBA2FDF
:102BB000A92F982F8827820F911DA11DB11DBC013F
:102BC000CD0142E0660F771F881F991F4A95D1F704
:102BD0000895CF93DF93BC0182E992E00E94AC108C
:102BE000EC0160E771E082E992E00E94050B8C0F36
:102BF0009D1FDF91CF9108952F923F924F925F9248
:102C00006F927F928F929F92AF92BF92CF92DF92FC
:102C1000EF92FF920F931F93CF93DF93CDB7DEB761
:102C20006B970FB6F894DEBF0FBECDBF9B8F8A8F18
:102C30001B014A01D22E198708873701A982DC01BE
:102C400059962D913C915A972115310509F0FFC0F5
:102C500018968D919C911997681779070CF0E7C128
:102C60001A968D919C911B97481759070CF0DFC15C
:102C7000EC2DF0E0FB83EA839B0146E0C49E200D2F
:102C8000311D11243D872C87121613060CF0CFC17D
:102C90006A2D70E07B876A8783E0660F771F8A95CD
:102CA000E1F77F876E87CB01880D991D18161906ED
:102CB0000CF0BDC158968C91811104C08FEA8D151E
:102CC00008F4D394AA8DBB8DED91FC9111970284E9
:102CD000F385E02DCD010995B5E0DB9EC0011124FF
:102CE000EC2DF0E0F98BE88B91012B5F3F4F3B8B94
:102CF0002A8B3D822C822101AC01421953095D8B44
:102D00004C8B7981672F70E07F8B6E8BC4010896A6
:102D1000998F888FEC89FD89E40DF51DE450FA4FF9
:102D2000D49054019F828E82D0FE16C0AA8DBB8D96
:102D3000ED91FC91B1E0CB1209C02981213031F431
:102D40000484F585E02D2885398519C00684F7852A
:102D5000E02DE884F9841DC048855985461557053E
:102D600019F1AA8DBB8DED91FC91B1E0CB120DC094
:102D70002981213051F40484F585E02D9301A501CA
:102D8000B2018A8D9B8D09950FC00684F785E02DD1
:102D900073010A851B852A813B814E815F816C818D
:102DA0007D818A8D9B8D0995D6943FEFA31AB30A36
:102DB0004E815F816E897F89460F571F5F834E83E7
:102DC000888D998DA816B90609F0AECF9FEF491AE4
:102DD000590AAC81BD81E889F989AE0FBF1FBD8357
:102DE000AC832A893B894216530609F093CF488564
:102DF00059854615570509F4F8C0AA8DBB8DED918C
:102E0000FC91B1E0CB1211C02981213071F4B101E4
:102E10006B5F7F4F0088F189E02D830128E030E06F
:102E2000A4018A8D9B8D0995E0C06C857D854A81C2
:102E30005B81641B750B0684F785E02D73010E859D
:102E40001F859A01A4018A8D9B8D0995CEC0F90139
:102E50003496E491DE1AF901329685919491B7E0A7
:102E6000DB9E800D911D1124F901259134913B8B3E
:102E70002A8BFC01259134915901FC013296549022
:102E8000319634913C87329674903196149141E09A
:102E90004C1518F05981523068F0672D072C000C42
:102EA000770B7D836C83812F012E000C990B9B8304
:102EB0008A8304C01B821A821D821C82AA8DBB8D4C
:102EC000ED91FC9111970284F385E02DCD010995D8
:102ED000412CD12C612CF981EF2FF0E0FF83EE83A0
:102EE0002C2D30E03B872A87A401410F511D17FD8F
:102EF0005A955F8B4E8BB101670D711D77FC7A95EA
:102F0000798F688F7C85671608F06FC0262D30E0BA
:102F10004A815B81420F531FAE81BF81A49FC001D4
:102F2000A59F900DB49F900D1124F401E80FF91F97
:102F3000F98BE88B842D712C4E895F89420F531FCA
:102F40005D8B4C8B751408F04DC051E0580F5E87B7
:102F5000877041F4C5010196EA89FB89EA0DFB1DE2
:102F6000D4905C01D7FE3AC061E0C61216C07981E8
:102F7000713099F4AA8DBB8DED91FC911197048469
:102F8000F585E02D288539854C895D89688D798D99
:102F9000670D711DCD01099521C08C819D81870D23
:102FA000911DEA85FB858E9FB0018F9F700D9E9FBE
:102FB000700D1124620D731DAA8DBB8DED91FC91D6
:102FC00011970684F785E02DE884F9840E811F812E
:102FD0002A853B8548895989CD010995DD0C739473
:102FE0008E85B0CF450C63948DCFAA8DBB8DED91AE
:102FF000FC9111970688F789E02DCD016B960FB6ED
:10300000F894DEBF0FBECDBFDF91CF911F910F911E
:10301000FF90EF90DF90CF90BF90AF909F908F90F8
:103020007F906F905F904F903F902F9009946B9698
:103030000FB6F894DEBF0FBECDBFDF91CF911F91C9
:103040000F91FF90EF90DF90CF90BF90AF909F9047
:103050008F907F906F905F904F903F902F9008954A
:103060000F931F93CF93DF9377FF04C0260F371F73
:1030700060E070E0DC011496CD91DC911597FB01C6
:10308000E20FF31FCE17DF071CF49E01261B370B40
:10309000121613060CF046C0FA0157FD3796DF01F1
:1030A000E3E0B595A795EA95E1F7AC9FF001AD9FF8
:1030B000F00DBC9FF00D11246E0F7F1FDC015F9699
:1030C000ED91FC919097E60FF71F4770552781E02F
:1030D00090E001C0880F4A95EAF7482F01301105AA
:1030E00039F078F002301105E9F42E0F3F1F13C0BC
:1030F0002E0F3F1FE217F307A9F08081842B8193E5
:10310000F9CF80952E0F3F1FE217F30759F09081FA
:1031100098239193F9CFE217F30721F08081842758
:103120008193F9CFDF91CF911F910F910895EF9285
:10313000FF920F931F93CF93DF93EC0177FDA5C010
:10314000EC80FD806E157F050CF09FC057FF04C01A
:10315000240F351F40E050E08E819F81FA01E20F7D
:10316000F31F8E179F071CF49C01241B350B1216AE
:1031700013060CF08AC0922F842F8695869586952B
:103180008E9DD0018F9DB00D11246A0F7B1FAF8DD6
:10319000B8A1A60FB71F4770B1F188E0841B482F74
:1031A000682F70E0FB01EC50FA4FE491281798F477
:1031B000621B71092FEF30E002C0359527956A95A3
:1031C000E2F7E2230130110549F078F002301105F1
:1031D00009F05BC00EC00130110519F48C91E82B89
:1031E0000AC00130110508F049C0E0958C91E82330
:1031F00002C08C91E827EC93941708F446C02C8108
:103200003D81A20FB31FE92FE41BE830F8F0023034
:10321000110561F48E2F9C9190959C932C813D819A
:10322000A20FB31F88508830B0F70FC081E001159E
:10323000110509F480E081959E2F8C932C813D81AE
:10324000A20FB31F98509830C0F7E770EE23E9F053
:10325000F0E0E451FA4FE4910130110539F048F003
:103260000230110591F48C91E82706C08C91E82B6F
:1032700003C0E0958C91E823EC9307C00230110560
:1032800009F4B7CFAE0DBF1DBECFDF91CF911F9117
:103290000F91FF90EF900895833081F028F48130F2
:1032A00099F08230A1F008958730A9F08830B9F004
:1032B0008430D1F4809180008F7D03C080918000A4
:1032C0008F7780938000089584B58F7702C084B58E
:1032D0008F7D84BD08958091B0008F7703C0809169
:1032E000B0008F7D8093B00008951F93CF93DF933C
:1032F000282F30E0F901E359FA4F8491F901EC5598
:10330000FA4FD491F901E057FA4FC491CC23C1F0A0
:10331000162F81110E944C19EC2FF0E0EE0FFF1FC9
:10332000EE51FA4FA591B4919FB7F894111104C0D2
:103330008C91D095D82302C0EC91DE2BDC939FBFFB
:10334000DF91CF911F910895CF93DF9390E0FC011F
:10335000EC55FA4F2491FC01E057FA4F84918823F1
:1033600061F190E0880F991FFC01E852FA4FC59176
:10337000D491FC01EE51FA4FA591B491611109C0AD
:103380009FB7F8948881209582238883EC912E231F
:103390000BC0623061F49FB7F8948881322F30956A
:1033A00083238883EC912E2B2C939FBF06C08FB76D
:1033B000F894E8812E2B28838FBFDF91CF91089559
:1033C0008F929F92AF92BF92CF92DF92EF92FF9235
:1033D0006B017C010E94C4154B015C01C114D10436
:1033E000E104F104F1F00E94C415DC01CB0188195D
:1033F0009909AA09BB09883E9340A105B10570F35C
:1034000021E0C21AD108E108F10888EE880E83E0B5
:10341000981EA11CB11CC114D104E104F10419F7D8
:10342000DDCFFF90EF90DF90CF90BF90AF909F9057
:103430008F9008952FB7F8946091E3037091E4039F
:103440008091E5039091E6032FBF08951F920F929C
:103450000FB60F9211242F933F938F939F93AF93A7
:10346000BF938091E3039091E403A091E503B091B1
:10347000E6033091E20323E0230F2D3720F4019679
:10348000A11DB11D05C026E8230F0296A11DB11D87
:103490002093E2038093E3039093E403A093E50376
:1034A000B093E6038091E7039091E803A091E903CC
:1034B000B091EA030196A11DB11D8093E70390939B
:1034C000E803A093E903B093EA03BF91AF919F9102
:1034D0008F913F912F910F900FBE0F901F901895D5
:1034E000CF93DF9300D0CDB7DEB7789484B58260F8
:1034F00084BD84B5816084BD85B5826085BD85B598
:10350000816085BD80916E00816080936E00109215
:103510008100809181008260809381008091810090
:103520008160809381008091800081608093800021
:103530008091B10084608093B1008091B00081607F
:103540008093B00080917A00846080937A008091AB
:103550007A00826080937A0080917A008160809303
:103560007A0080917A00806880937A001092C1007E
:10357000E091A202F091A30282E08083E0919E029A
:10358000F0919F021082E091A002F091A1028FECD5
:1035900080831092AA02E091A602F091A70286E031
:1035A0008083E091A402F091A502808180618083F4
:1035B000E091A402F091A502808188608083E0916F
:1035C000A402F091A502808180688083E091A4022A
:1035D000F091A50280818F7D80836EE571E082E9A4
:1035E00092E00E943C0CE0917103F091720313860B
:1035F00015861486DF011B9633961E92EA17FB0789
:10360000E1F7AA24A3940091710310917203F801C9
:10361000858581115EC0C8010E946814882309F461
:1036200058C040E060EFC8010E943414EE24E394D7
:10363000C12CB12CFF24F394C8010E94E113D82EB1
:10364000C8010E94E113F1E0DF1203C08130C1F430
:1036500037C02C2D30E0D8121DC0F8018385F81634
:1036600030F4E20FF31F83818E2151F402C08F15D5
:1036700039F0D12CF8E0FF1560F0F801F48609C0AC
:10368000F801EC0DF11D83818E298383DD24D39411
:1036900009C0BF2CF801E20FF31F93818E2D809596
:1036A000892383836D2DC8010E940514F394EE0CC9
:1036B00019F4C394EE24E394F7E0FC1508F0BCCFB2
:1036C00020E42F1530F4F801B386B11086C2A58628
:1036D00084C2F80113861586148680914E0390915A
:1036E0004F03892B09F0BFC2209135033091360377
:1036F000C901079697FD079623E0959587952A952A
:10370000E1F72091330330913403AC01429FC001B3
:10371000439F900D529F900D11240E946A26909312
:103720004F0380934E03892B09F09DC283E595E0FA
:103730000E94790D0E94D20F12E010934303109360
:10374000440381E090E0909342038093410390937F
:10375000400380933F030E949A0E0E94D20F109262
:103760003C0310923B0310923E0310923D0383E70B
:1037700091E00E94751081E080934303809344039D
:103780008CE791E00E9475100E949A0E10934303FB
:10379000109344036AE871E082E992E00E943C0CD5
:1037A00080E090E00E94F023482F50E060E070E05D
:1037B0002AE082E992E00E941A0B6AE971E082E94C
:1037C00092E00E943C0C81E090E00E94F023482FA0
:1037D00050E060E070E02AE082E992E00E941A0B7B
:1037E00060E771E082E992E00E94050B6CE971E00C
:1037F00082E992E00E943C0C82E090E00E94F0237B
:10380000482F50E060E070E02AE082E992E00E94F8
:103810001A0B6AE971E082E992E00E943C0C83E0B5
:1038200090E00E94F023482F50E060E070E02AE032
:1038300082E992E00E941A0B60E771E082E992E06F
:103840000E94050B81E090E00E94F023082F80E0A9
:1038500090E00E94F023F82E83E090E00E94F02395
:10386000182F82E090E00E94F023682F70E06F191B
:10387000710980E090E00E9441252B013C01612FFD
:1038800070E0601B710980E090E00E9441259B017F
:10389000AC01C301B2010E94A0242B013C01609342
:1038A0003E0270933F0280934002909341026F2D3D
:1038B00070E080E090E00E9441256B017C01602F68
:1038C00070E080E090E00E944125A30192010E94F7
:1038D000F8259B01AC01C701B6010E942E2460931C
:1038E000420270934302809344029093450262E047
:1038F00083E00E94A41962E082E00E94A4198DE88E
:1039000092E1909303018093020180916900837F8B
:10391000886080936900E99A8FE792E190930101B2
:1039200080930001809169008C7F826080936900A0
:10393000E89AAA24A394BB24B39488248394912C5A
:103940009091460280911F02992309F488C09091BA
:103950003602911112C010922F0210922E02109274
:103960003102109230021092330210923202109201
:10397000350210923402B0923602811104C0809157
:103980001E028823A1F010E00E948810892B09F004
:10399000A6C30E948810892B09F0A1C380911F0241
:1039A000811166C480911E02811162C498C3009186
:1039B0000401109105010E941A1A2B013C0180910B
:1039C0006F03909170030E9426156B017C010E9489
:1039D000D20F10923C0310923B0310923E031092C0
:1039E0003D0322E0B701A6018FE293E00E94630B42
:1039F00067EF8FE293E00E94FE0A8AEE91E00E9458
:103A0000751080912A0290912B02A0912C02B09106
:103A10002D02481A590A6A0A7B0A57E945165104C9
:103A2000610471047CF00E941A1A60932A02709358
:103A30002B0280932C0290932D02809129028A25DB
:103A40008093290280912902882309F4C1C0B8011A
:103A50008FE293E00E94B2106CEE71E0B5C081116C
:103A600004C080911E028823D1F10E941A1A00918D
:103A70001A0210911B0220911C0230911D02DC01E0
:103A8000CB01801B910BA20BB30B893E9340A10588
:103A9000B105B4F0B09246020E94D20F10923C03DE
:103AA00010923B0310923E0310923D0382EF91E08F
:103AB0000E94751088EF91E00E9475100E949A0E86
:103AC0000E948810892B09F062C40E948810892BFB
:103AD00009F05DC480914602811159C4C6CF80911E
:103AE0006F03909170030E9426156B017C010E9468
:103AF000E8108C01BC01990F880B990B0E9443259B
:103B000020913E0230913F0240914002509141028B
:103B10000E94F825209142023091430240914402D4
:103B2000509145020E942F242B013C016DEF71E062
:103B300082E992E00E943C0C22E0B701A60182E9F2
:103B400092E00E94630B65E072E082E992E00E94DD
:103B50003C0CB80182E992E00E94B21065E072E08C
:103B600082E992E00E943C0C22E0B301A20182E9CA
:103B700092E00E94630B60E771E082E992E00E94AC
:103B8000050B0E94D20F10923C0310923B0310923F
:103B90003E0310923D0322E0B701A6018FE293E0BD
:103BA0000E94630B67EF8FE293E00E94FE0A8AEEA9
:103BB00091E00E94751022E0B301A2018FE293E030
:103BC0000E94630B6FEE71E08FE293E00E943C0C69
:103BD0000E949A0E0E94AD06B3CEF801838188231D
:103BE00009F477CDF801339630E2E32E32E0F32E7C
:103BF000055F1F4FD70181918D930E171F07D9F7CE
:103C000080912002883209F0FECC67E080E292E0E9
:103C10000E94C91390912702891729F08EE690E03F
:103C20000E94790D5ACD10E08BE690E00E945E0D67
:103C3000F70141917F0150E060E070E020E182E90E
:103C400092E00E941A0B173021F088E690E00E9463
:103C50005E0D1F5F183041F760E771E082E992E086
:103C60000E94050BD0CC0E94D20F209135033091D9
:103C70003603809133039091340321323105A4F04F
:103C8000B9016054710977FF02C06F5F7F4F75956E
:103C900067958255910997FD019600E410E022E5B1
:103CA00030E04DE752E013C0B9016052710977FF6F
:103CB00002C06F5F7F4F759567958357910997FD98
:103CC000019600E210E023E730E04DE950E09595E1
:103CD00087950E94F20F82E08093510380914C03FC
:103CE00090914D03892BB9F18CE38093500310928E
:103CF00019021092180210926F0210929102109203
:103D00006D0281E080936C021092470261E082E1D3
:103D10000E94751961E083E10E9475198091B900D4
:103D20008E7F8093B9008091B9008D7F8093B90018
:103D300088E48093B80085E48093BC0082EF91E131
:103D4000909317028093160283EF91E190931502EE
:103D500080931402BEC061E0809155030E94A419B3
:103D600061E0809156030E94A41980915503082EAA
:103D7000000C990BFC01E057FA4FE491F0E0EE0FD4
:103D8000FF1FEE51FA4F2591349130935D0320933C
:103D90005C03FC01EC55FA4FE491E09362038091DF
:103DA0005603082E000C990BFC01E057FA4FE491E2
:103DB000F0E0EE0FFF1FEE51FA4FA591B491B093D2
:103DC0005F03A0935E03FC01EC55FA4FE491E0938E
:103DD00063038C91E82BEC9380914A0390914B0301
:103DE000892B09F434C01FB7F894809128028111FF
:103DF00027C0EAE9F5E08491EEEAF5E09491E82F36
:103E0000F0E0EE0FFF1FE852FA4FA591B491EC914C
:103E1000E92321F461E08AE00E94751961E08AE0FB
:103E20000E94A4198CB580618CBD8CB580648CBD5A
:103E300061E08DE00E94A41961E08BE00E94A4196A
:103E4000809128028F5F809328021FBF42C061E0EB
:103E5000809153030E94A41961E0809154030E9451
:103E6000A41980915303082E000C990BFC01E05714
:103E7000FA4FE491F0E0EE0FFF1FEE51FA4F25915B
:103E800034913093590320935803FC01EC55FA4FB9
:103E9000E491E093600380915403082E000C990B89
:103EA000FC01E057FA4FE491F0E0EE0FFF1FEE51F6
:103EB000FA4FA591B491B0935B03A0935A03FC0110
:103EC000EC55FA4FE491E09361038C91E095E8237F
:103ED000EC938091570387FD1EC061E00E94A419F6
:103EE00061E0809157030E94751961E070E080E005
:103EF00090E00E94E01960E0809157030E947519DC
:103F00006AE070E080E090E00E94E01961E080915A
:103F100057030E94751980914C0390914D03892B92
:103F2000D1F0209164033091650340916603509174
:103F3000670360E074E284EF90E00E940624DA01F7
:103F4000C9014097A109B109B695A795979587959D
:103F50008093B80016C080914A0390914B03892B3F
:103F600031F080916D0390916E030E94010DE091FC
:103F70005E03F0915F0390818091630380958923B4
:103F8000808364E089E990E00E94E50D609135034B
:103F900061508FE293E00E949E0C64E085E990E01E
:103FA0000E94E50D80915103813011F460E101C060
:103FB00064E18FE293E00E949E0C64E081E990E06E
:103FC0000E94E50D8FE880936C03809133039091FC
:103FD00034038038910591F4809135039091360334
:103FE00080349105E9F480915103813011F48FE917
:103FF00001C08FEC80936C0312E113C080369105F1
:1040000079F48091350390913603409749F480917B
:104010005103813011F480E101C08FEA80936C0379
:1040200012E06AED8FE293E00E949E0C612F8FE216
:1040300093E00E949E0C61E88FE293E00E949E0C48
:1040400060916C038FE293E00E949E0C69ED8FE219
:1040500093E00E949E0C80915103813011F462E242
:1040600001C061EF8FE293E00E949E0C66E08BE856
:1040700090E00E94E50D80914C0390914D03892BB7
:10408000D1F0209168033091690340916A03509107
:104090006B0360E074E284EF90E00E940624DA0192
:1040A000C9014097A109B109B695A795979587953C
:1040B0008093B80011C0E0915E03F0915F0390819E
:1040C00080916303892B808380914A0390914B03F5
:1040D000892B11F00E94960C8DE395E029CB20915D
:1040E0001F028091040190910501222311F0019695
:1040F00001C00197909305018093040110921F0263
:1041000010921E02112309F452CC90920701809262
:1041100006011092460260E372E080E090E00E94A7
:1041200099156EE272E084E090E00E94991564E3D4
:1041300072E088E090E00E94991562E372E08CE002
:1041400090E00E9499156AEC71E082E992E00E9489
:104150003C0CBE016F5F7F4F80E090E00E948515B0
:1041600069817A8182E992E00E94AC106AE971E08B
:1041700082E992E00E943C0CBE016F5F7F4F84E0B9
:1041800090E00E94851589819A810E94E9156AED67
:1041900071E082E992E00E943C0CBE016F5F7F4FAC
:1041A00088E090E00E94851569817A8182E992E039
:1041B0000E94AC106AE971E082E992E00E943C0C36
:1041C000BE016F5F7F4F8CE090E00E948515898172
:1041D0009A810E94E915C0902E02D0902F02009182
:1041E00030021091310260913202709133026C19E9
:1041F0007D0980E090E00E9441252B013C01609107
:10420000340270913502601B710B80E090E00E94D7
:1042100041259B01AC01C301B2010E94A0242B01E6
:104220003C0160933E0270933F0280934002909362
:104230004102B60180E090E00E9441256B017C01C3
:10424000B80180E090E00E944125A30192010E9404
:10425000F8259B01AC01C701B6010E942E24609392
:104260004202709343028093440290934502B2CC81
:104270000E941A1A40901A0250901B0260901C0271
:1042800070901D02DC01CB0184199509A609B709BC
:10429000893E9340A105B1050CF476CB111174CB86
:1042A0002091060130910701809104019091050150
:1042B0002130310571F590933102809330020E94D4
:1042C000E81090932F0280932E026CEA71E082E94D
:1042D00092E00E943C0C609130027091310282E9C0
:1042E00092E00E94AC106AE971E082E992E00E94DB
:1042F0003C0C80912E0290912F020E94E915809132
:1043000006019091070101969093070180930601A1
:1043100025C090933502809334020E94E810909358
:1043200033028093320265EB71E082E992E00E94F1
:104330003C0C609134027091350282E992E00E9457
:10434000AC106AE971E082E992E00E943C0C809135
:104350003202909133020E94E91511E00E94D20FBF
:1043600010923C0310923B0310923E0310923D03C7
:104370008EEB91E00E94751084EC91E00E94751024
:104380000E949A0E10921F0210921E02FDCA1092F5
:104390001F0210921E021ECCCF93DF93EC0160E04F
:1043A00084E00E94A419E8EAF5E0E491E883E4E9F6
:1043B000F5E0E491F0E0EE0FFF1FEA57FA4F859128
:1043C00094919A8389831B861D861C86FE013B96E9
:1043D00023961292EC17FD07E1F7DF91CF91089534
:1043E0006F927F928F929F92AF92BF92CF92DF9205
:1043F000EF92FF920F931F93CF93DF93109295024A
:104400001092940288EE93E0A0E0B0E080939602D0
:1044100090939702A0939802B093990222E131E021
:10442000309393022093920225EC30E030939F0268
:1044300020939E0224EC30E03093A1022093A0024E
:1044400020EC30E03093A3022093A20221EC30E074
:104450003093A5022093A40222EC30E03093A7020F
:104460002093A60226EC30E03093A9022093A80204
:104470001092AB021092AC021092AD021092AE02FA
:1044800010927603109275038093770390937803CC
:10449000A0937903B0937A0384E291E0909374033C
:1044A000809373038EE090E00E946A26EC010E94E4
:1044B000CC21D0937203C09371038EE290E00E94EE
:1044C0006A26EC010E94CC211CA61DA66CECCE0134
:1044D0000E949F14882329F040E064EBCE010E94E3
:1044E0003414CE010E94E1138F87812C912C54014A
:1044F0008394662463948E010C5D1F4F7E0181E1DD
:10450000E80EF11C8DA58111E2C060EFCE010E9482
:104510009F14882309F4DBC0712CD12CCE010E949A
:10452000E113C82ECE010E94E113CC2021F0882394
:1045300011F01CA644C04D2D47702D2D26952695B3
:10454000269530E0C110C8C08111D6C08CA5D81600
:1045500009F4C0C08D1508F4CEC0FE01E20FF31FB0
:1045600084A190E0042E02C0959587950A94E2F705
:1045700080FFC1C0AFC08D2D869586958695F801C8
:10458000E80FF11D608170E08D2D877002C0759578
:1045900067958A95E2F76170CE010E940514D39465
:1045A00080E4D81609F4CDC0CE010E94E113C82ED4
:1045B000CE010E94E113CC20F1F28823E1F2D093E6
:1045C0007003C0936F03109232031092310320E8FE
:1045D00030E0309334032093330380E290E09093F3
:1045E0003603809335033093380320933703909339
:1045F0003A03809339031092450310923C031092C2
:104600003B0310923E0310923D0381E080934403EC
:10461000809343032FEF3FEF3093420320934103F6
:104620003093400320933F03809346031092470347
:10463000109249031092480386E391E0909330036F
:1046400080932F0310924B0310924A0383E793E069
:1046500090934D0380934C0310924F0310924E039E
:104660008FEF80935303809354038093550380937B
:1046700056038093570380E89AE1A6E0B0E0809368
:10468000640390936503A0936603B093670380EA85
:1046900096E8A1E0B0E08093680390936903A0934B
:1046A0006A03B0936B0380E580936D0310926E03F1
:1046B000DF91CF911F910F91FF90EF90DF90CF90FE
:1046C000BF90AF909F908F907F906F9008951CA6A1
:1046D0001DA675CFCC24C394FE01E20FF31FD501B4
:1046E000C40104C0880F991FAA1FBB1F4A95D2F7A7
:1046F00024A1822B10C07D2CFE01E20FF31FD501F7
:10470000C40104C0880F991FAA1FBB1F4A95D2F786
:10471000809594A1892384A36C2DCE010E94051459
:10472000D39480E4D812FACE7CA6711001C06DA695
:1047300060EFCE010E949F14882309F440CFD12C52
:1047400033CF88E0F801D70101900D928A95E1F707
:10475000CE010E94DB14882309F431CFCE010E94E0
:10476000CC238AA365E5CE010E949F14882329F0FB
:1047700040E064EBCE010E943414CE010E94E113AC
:104780008BA3CE010E94CC239E85981708F48E87B8
:1047900088898F5F888BB6CEFC01858D8F3351F071
:1047A00018F48F3151F008C08F3549F08F3721F45C
:1047B0008CE008958AE00895089589E008958BE0DB
:1047C000089586E391E09093300380932F038091C6
:1047D0004E0390914F03009711F00C940227089517
:1047E000F999FECF92BD81BDF89A992780B50895B9
:1047F000262FF999FECF1FBA92BD81BD20BD0FB6FD
:10480000F894FA9AF99A0FBE01960895A1E21A2E29
:10481000AA1BBB1BFD010DC0AA1FBB1FEE1FFF1F64
:10482000A217B307E407F50720F0A21BB30BE40BB4
:10483000F50B661F771F881F991F1A9469F76095FB
:104840007095809590959B01AC01BD01CF010895B5
:10485000EE0FFF1F0590F491E02D09945058BB27EF
:10486000AA270E9446240C94B9250E94AB2538F053
:104870000E94B22520F039F49F3F19F426F40C94DD
:10488000A8250EF4E095E7FB0C94A225E92F0E94E1
:10489000CA2558F3BA17620773078407950720F0F3
:1048A00079F4A6F50C94EC250EF4E0950B2EBA2FB6
:1048B000A02D0B01B90190010C01CA01A001112426
:1048C000FF27591B99F0593F50F4503E68F11A16D2
:1048D000F040A22F232F342F4427585FF3CF469563
:1048E00037952795A795F0405395C9F77EF41F1685
:1048F000BA0B620B730B840BBAF09150A1F0FF0F4F
:10490000BB1F661F771F881FC2F70EC0BA0F621F3A
:10491000731F841F48F4879577956795B795F7952A
:104920009E3F08F0B0CF9395880F08F09927EE0FBF
:104930009795879508950E947E2508F481E0089553
:104940000E94B4240C94B9250E94B22558F00E940C
:10495000AB2540F029F45F3F29F00C94A2255111BA
:104960000C94ED250C94A8250E94CA2568F3992380
:10497000B1F3552391F3951B550BBB27AA2762175B
:104980007307840738F09F5F5F4F220F331F441F68
:10499000AA1FA9F335D00E2E3AF0E0E832D091509C
:1049A0005040E695001CCAF72BD0FE2F29D0660F89
:1049B000771F881FBB1F261737074807AB07B0E8CC
:1049C00009F0BB0B802DBF01FF2793585F4F3AF0D2
:1049D0009E3F510578F00C94A2250C94ED255F3F85
:1049E000E4F3983ED4F3869577956795B795F79558
:1049F0009F5FC9F7880F911D9695879597F9089540
:104A0000E1E0660F771F881FBB1F621773078407DB
:104A1000BA0720F0621B730B840BBA0BEE1F88F7EA
:104A2000E09508950E94D22588F09F5798F0B92FFD
:104A30009927B751B0F0E1F0660F771F881F991FD3
:104A40001AF0BA95C9F714C0B13091F00E94EC2564
:104A5000B1E008950C94EC25672F782F8827B85F74
:104A600039F0B93FCCF3869577956795B395D9F72B
:104A70003EF490958095709561957F4F8F4F9F4F35
:104A80000895E89409C097FB3EF490958095709541
:104A900061957F4F8F4F9F4F9923A9F0F92F96E98A
:104AA000BB279395F695879577956795B795F111FF
:104AB000F8CFFAF4BB0F11F460FF1BC06F5F7F4F9C
:104AC0008F4F9F4F16C0882311F096E911C07723AE
:104AD00021F09EE8872F762F05C0662371F096E8B7
:104AE000862F70E060E02AF09A95660F771F881F86
:104AF000DAF7880F9695879597F90895990F00082A
:104B0000550FAA0BE0E8FEEF16161706E807F9079F
:104B1000C0F012161306E407F50798F0621B730B3A
:104B2000840B950B39F40A2661F0232B242B252BBB
:104B300021F408950A2609F4A140A6958FEF811D5E
:104B4000811D089597F99F6780E870E060E00895FF
:104B50009FEF80EC089500240A9416161706180695
:104B60000906089500240A94121613061406050671
:104B70000895092E0394000C11F4882352F0BB0F02
:104B800040F4BF2B11F460FF04C06F5F7F4F8F4F65
:104B90009F4F089557FD9058440F551F59F05F3FA0
:104BA00071F04795880F97FB991F61F09F3F79F04F
:104BB00087950895121613061406551FF2CF4695D1
:104BC000F1DF08C0161617061806991FF1CF869553
:104BD0007105610508940895E894BB276627772737
:104BE000CB0197F908950E947E2508F48FEF089570
:104BF0000E940B260C94B9250E94AB2538F00E9428
:104C0000B22520F0952311F00C94A2250C94A82530
:104C100011240C94ED250E94CA2570F3959FC1F3D1
:104C2000950F50E0551F629FF001729FBB27F00D5A
:104C3000B11D639FAA27F00DB11DAA1F649F6627AF
:104C4000B00DA11D661F829F2227B00DA11D621FFE
:104C5000739FB00DA11D621F839FA00D611D221FB8
:104C6000749F3327A00D611D231F849F600D211D9C
:104C7000822F762F6A2F11249F5750409AF0F1F01F
:104C800088234AF0EE0FFF1FBB1F661F771F881F88
:104C900091505040A9F79E3F510580F00C94A225F9
:104CA0000C94ED255F3FE4F3983ED4F38695779519
:104CB0006795B795F795E7959F5FC1F7FE2B880F2E
:104CC000911D9695879597F908950E947E25880BEA
:104CD000990B08950F931F93CF93DF938230910523
:104CE00010F482E090E0E091ED03F091EE0320E01B
:104CF00030E0A0E0B0E0309719F1408151810281AD
:104D0000138148175907C8F08417950769F410975D
:104D100031F012960C93129713961C9327C00093B0
:104D2000ED031093EE0322C02115310519F042174F
:104D3000530718F49A01BD01EF01DF01F801DBCF41
:104D400021153105F9F0281B390B2430310580F489
:104D50008A819B816115710521F0FB019383828318
:104D600004C09093EE038093ED03FE01329644C09D
:104D7000FE01E20FF31F8193919322503109398391
:104D800028833AC02091EB033091EC03232B41F4AC
:104D900020910A0130910B013093EC032093EB0337
:104DA00020910801309109012115310541F42DB7F9
:104DB0003EB740910C0150910D01241B350BE09141
:104DC000EB03F091EC03E217F307A0F42E1B3F0B6B
:104DD0002817390778F0AC014E5F5F4F241735076D
:104DE00048F04E0F5F1F5093EC034093EB03819309
:104DF000919302C0E0E0F0E0CF01DF91CF911F91ED
:104E00000F910895CF93DF93009709F481C0FC01BF
:104E1000329713821282A091ED03B091EE031097A6
:104E200081F420813181820F931F2091EB03309117
:104E3000EC032817390751F5F093EC03E093EB03EB
:104E400067C0ED0120E030E0CE17DF0740F44A8173
:104E50005B819E0141155105F1F0EA01F5CFD38345
:104E6000C28340815181840F951FC817D90759F417
:104E700088819981840F951F0296918380838A810E
:104E80009B81938382832115310529F4F093EE03EE
:104E9000E093ED033DC0E901FB83EA834991599119
:104EA000C40FD51FEC17FD0761F480819181840F39
:104EB000951F0296E90199838883828193819B8360
:104EC0008A83E0E0F0E012968D919C911397009711
:104ED00019F0FD01DC01F7CF8D919C9111979D0197
:104EE0002E5F3F4F820F931F2091EB033091EC0315
:104EF0002817390769F4309729F41092EE031092BD
:104F0000ED0302C013821282B093EC03A093EB0373
:104F1000DF91CF91089581E090E0F8940C94972769
:104F2000DC0101C06D9341505040E0F7089515E059
:104F3000CFE7D5E004C0FE010E9428242196C038A6
:084F4000D107C9F7F894FFCF77
:104F4800AA05AA05040001000000EF0320000000E4
:104F580000003E06AB05D5058B060606E405F805F8
:104F6800000000004C121F127C122A0917120312AB
:104F7800F41100000000D809AB057C127B12B706BB
:104F88002A0907112B09FB103B090E112A0975077D
:104F9800040D49098D0973085608E9078A075365FE
:104FA80072636820746865726D6F6D6574657200F0
:104FB8000D0A007048206D6574657200696E7A7913
:104FC8006E69657220446F6D7500454550524F4DAE
:104FD8005F6C6F61645F305F31002C004545505253
:104FE8004F4D5F6C6F61645F325F330073616D704A
:104FF8006C655F300073616D706C655F3100504F98
:10500800494E5400534156454400454550524F4D72
:105018005F736176655F305F3100454550524F4D93
:105028005F736176655F325F330043002E30207016
:10503800480043414C4942004D4F4445006D65616D
:1050480073757265003B006E616E00696E66006F75
:045058007666000078
:00000001FF
