:100000000C9456050C94A4180C947D180C947E0541
:100010000C947E050C947E050C947E050C947E0554
:100020000C947E050C947E050C947E050C947E0544
:100030000C947E050C947E050C947E050C947E0534
:100040000C9433180C947E050C94F1180C94CB1876
:100050000C947E050C947E050C947E050C947E0514
:100060000C9423190C947E05005EBCE2613FDD8395
:10007000C29C7E20A3FD1F41009D23BE46DB65F888
:100080008C11AF32CA57E97400000000003E5B4F8C
:100090005B3E3E6B4F6B3E1C3E7C3E1C183C7E3CE8
:1000A000181C577D571C1C5E7F5E1C00183C1800F6
:1000B000FFE7C3E7FF0018241800FFE7DBE7FF3086
:1000C000483A060E2629792926407F050507407FF4
:1000D00005253F5A3CE73C5A7F3E1C1C08081C1C67
:1000E0003E7F14227F22145F5F005F5F06097F015D
:1000F0007F006689956A606060606094A2FFA29448
:1001000008047E040810207E201008082A1C080815
:100110001C2A08081E101010100C1E0C1E0C303863
:100120003E3830060E3E0E06000000000000005F64
:1001300000000007000700147F147F14242A7F2A80
:100140001223130864623649562050000807030042
:10015000001C2241000041221C002A1C7F1C2A088E
:10016000083E0808008070300008080808080000F1
:1001700060600020100804023E5149453E00427F65
:10018000400072494949462141494D331814127FB4
:100190001027454545393C4A494931412111090754
:1001A0003649494936464949291E000014000000D5
:1001B00040340000000814224114141414140041A7
:1001C00022140802015909063E415D594E7C121164
:1001D000127C7F494949363E414141227F4141419C
:1001E0003E7F494949417F090909013E4141517317
:1001F0007F0808087F00417F41002040413F017F88
:10020000081422417F404040407F021C027F7F044F
:1002100008107F3E4141413E7F090909063E415198
:10022000215E7F09192946264949493203017F0188
:10023000033F4040403F1F2040201F3F4038403F89
:10024000631408146303047804036159494D43009F
:100250007F4141410204081020004141417F0402D6
:10026000010204404040404000030708002054546D
:1002700078407F284444383844444428384444284B
:100280007F385454541800087E090218A4A49C789E
:100290007F0804047800447D40002040403D007FFA
:1002A0001028440000417F40007C047804787C08DA
:1002B0000404783844444438FC18242418182424AE
:1002C00018FC7C08040408485454542404043F4493
:1002D000243C4040207C1C2040201C3C4030403CC2
:1002E00044281028444C9090907C4464544C440022
:1002F0000836410000007700000041360800020186
:100300000204023C2623263C1EA1A161123A404071
:10031000207A3854545559215555794122545478EE
:1003200042215554784020545579400C1E52721287
:100330003955555559395454545939555454580010
:1003400000457C410002457D420001457C407D1214
:1003500011127DF0282528F07C5455450020545476
:100360007C547C0A097F4932494949323A44444421
:100370003A324A4848303A4141217A3A424020785C
:10038000009DA0A07D3D4242423D3D4040403D3C5D
:1003900024FF2424487E4943662B2FFC2F2BFF0982
:1003A00029F620C0887E0903205454794100004476
:1003B0007D413048484A32384040227A007A0A0A61
:1003C000727D0D19317D2629292F282629292926D4
:1003D00030484D4020380808080808080808382F19
:1003E00010C8ACBA2F102834FA00007B00000814A3
:1003F0002A142222142A14085500550055AA55AA79
:1004000055AAFF55FF55FF000000FF00101010FF18
:1004100000141414FF001010FF00FF1010F010F073
:10042000141414FC001414F700FF0000FF00FF1464
:1004300014F404FC141417101F10101F101F1414B0
:10044000141F00101010F0000000001F10101010FA
:100450001F10101010F010000000FF1010101010EE
:1004600010101010FF10000000FF140000FF00FF2C
:1004700000001F10170000FC04F4141417101714C8
:1004800014F404F40000FF00F714141414141414EA
:10049000F700F7141414171410101F101F1414145D
:1004A000F4141010F010F000001F101F0000001FC7
:1004B00014000000FC140000F010F01010FF10FFFA
:1004C000141414FF141010101F00000000F010FF8F
:1004D000FFFFFFFFF0F0F0F0F0FFFFFF0000000073
:1004E00000FFFF0F0F0F0F0F3844443844FC4A4AF7
:1004F0004A347E02020606027E027E0263554941AC
:10050000633844443C04407E201E2006027E0202E2
:1005100099A5E7A5991C2A492A1C4C7201724C30F6
:100520004A4D4D303048784830BC625A463D3E49CD
:100530004949007E0101017E2A2A2A2A2A44445F71
:10054000444440514A444040444A51400000FF0165
:1005500003E080FF000008086B6B08361236243673
:10056000060F090F060000181800000010100030D8
:1005700040FF0101001F01011E00191D1712003C60
:100580003C3C3C00000000002200FF210000010371
:10059000070F1F3F7F0080C0E0F0F8FCFEDB40A4A7
:1005A000A62EAF2000A1C8D300408DAED580A800F4
:1005B00000600000000000000000000000000000DB
:1005C000E00000000000000000000000000001E06A
:1005D0000000000000000000000000000001F0002A
:1005E00000000000000000000000000003F0000018
:1005F000000000000000000000000007F000000004
:100600000000000000000000000007F800000000EB
:100610000000000000000000000FF800000003C010
:10062000007E000001E0007F0FF800000003C00022
:10063000FE000001E000FFEFF800000003C000FE34
:10064000000001E000FFFFF800000003C000F00020
:1006500000000F007FFE7FC0000003C000F000001C
:10066000000F003FFE7FF83FF1FBCFFCFEF3BC3DE7
:10067000EFE01FFE7FFF7FFBFFDFFEFEFFBC3DEFD5
:10068000E01FC6FFFF7FFBFFDFFEFEFFBC3DEFE08C
:100690000FE3C7FE787BC3DE1EF0FFBC3DEF000713
:1006A000FF87FC787BC3DE1EF0F83C3DEF0001FFC6
:1006B000FFF0007BC3C01EF0F03C3DEF0001F37F74
:1006C000E03FFBC3CFFEF0F03C3DEF0003E33F8093
:1006D0007FFBC3DFFEF0F03C3DEF0007E73C007816
:1006E0007BC3DE1EF0F03C3DEF0007FFBE00787BD1
:1006F000C3DE1EF0F03C3DEF0007FFFE00787BC339
:10070000DE1EF0F03C3DEF000FFFFE007FFBFFDF41
:10071000FEF0F03FFDEFE00FFFFF007FFBFFDFFE8D
:10072000F0F03FFDEFE00FF9FF003E79F9CF9EF0CA
:10073000F01F3DE7E01FF1FF000000000000000097
:10074000000000001F80FF007FFFFFFFFFFFFFFF93
:10075000FFFFE01C007F007FFFFFFFFEB46D888D70
:1007600018E000001F007FFFFFFFFE95AD7DB5770D
:10077000E000000F007FFFFFFFFEA5AD9D8D19E09B
:10078000000006007FFFFFFFFEB5ADEDB57EE00087
:1007900000000000018000000000000000000003D5
:1007A0008000000000000000000007C00000000002
:1007B000000000000007C000000000000000000072
:1007C0000FC00000000000000000001FE00000005B
:1007D0000000000000001FE000000000000000001A
:1007E000003FE00000000000000000003FF00000BB
:1007F000000000000000007FF0000000000000008A
:100800001FF87FF0000000000000003FFE7FF000B6
:100810000000000000003FFF7FF00000000000002B
:10082000001FFFFBE0000000000000000FFFF9FFC9
:10083000C00000000000000FFFF9FFF800000000FA
:10084000000007FFF1FFFF00000000000003FC7341
:10085000FFFF80000000000001FE3FFFFF8000005E
:1008600000000000FF1E0FFF000000000000007FDE
:10087000FE1FFC000000000000003FFFFFF800002A
:1008800000000000000FDFFFE0000000000000009B
:100890001F19FFC0000000000000003F3CFF0000E7
:1008A0000000000000007E7CF80000000000000056
:1008B000007FFE7C0000000000000000FFFFFC0045
:1008C00000000000000000FFFFFE0000000000002C
:1008D0000000FFFFFE0000000000000001FFEFFE2F
:1008E0000000000000000001FFCFFE00000000003B
:1008F000000003FF07FE0000000000000003FC07EB
:10090000FE0000000000000003F003FE00000000F5
:10091000000000018000FE00000000000000000058
:10092000007E000000000000000000003E0000000B
:10093000000000000000000C000000000000078024
:1009400000FC000003C0000000078001FC00000361
:10095000C0000000078001FC000003C00000000789
:100960008001E00000001E000000078001E00000A0
:10097000001E007FE3F79FF9FDE7787BDFC0FFF7FC
:10098000FFBFFDFDFF787BDFC0FFF7FFBFFDFDFF71
:10099000787BDFC0F0F787BC3DE1FF787BDE00F0BD
:1009A000F787BC3DE1F0787BDE0000F787803DE112
:1009B000E0787BDE007FF7879FFDE1E0787BDE005B
:1009C000FFF787BFFDE1E0787BDE00F0F787BC3DF5
:1009D000E1E0787BDE00F0F787BC3DE1E0787BDE8C
:1009E00000F0F787BC3DE1E0787BDE00FFF7FFBF5A
:1009F000FDE1E07FFBDFC0FFF7FFBFFDE1E07FFB34
:100A0000DFC07CF3F39F3DE1E03E7BCFC000000000
:100A10000000000000000000FFFFFFFFFFFFFFFFDE
:100A2000FFFFC0FFFFFFFFFD68DB111A31C0FFFFB2
:100A3000FFFFFD2B5AFB6AEFC0FFFFFFFFFD4B5B83
:100A40003B1A33C0FFFFFFFFFD6B5BDB6AFDC0009D
:100A5000000000240027002A0000000000250028D4
:100A6000002B000000000800020100000304070042
:100A70000000000000000000000000230026002904
:100A80000004040404040404040202020202020337
:100A90000303030303010204081020408001020441
:100AA000081020010204081020007B1A11241FBE28
:100AB000CFEFD8E0DEBFCDBF11E0A0E0B1E0EEE5C2
:100AC000FEE402C005900D92AA3AB107D9F723E0DF
:100AD000AAEAB1E001C01D92AC34B207E1F715E01B
:100AE000C6E5D5E004C02197FE010E94BA23C535B2
:100AF000D107C9F70E94E11B0C942D270C9400002C
:100B00003F924F925F926F927F928F929F92AF929D
:100B1000BF92CF92DF92EF92FF920F931F93CF93EA
:100B2000DF9300D000D0CDB7DEB79C838B833B0131
:100B30006A015901DC01ED91FC910284F385E02DFD
:100B400009952801B7E04B0E511C93E0559447944A
:100B50009A95E1F7C6018E0D9F1D9A838983912C8A
:100B6000812C312CF12CE12CC70187709927330C93
:100B7000892B59F4F70183E0F595E7958A95E1F71C
:100B8000E80DF91DEA0DFB1D349037FE10C0AB8156
:100B9000BC81ED91FC9111970484F585E02D21E055
:100BA00030E0A601B701660D771DCD010995BFEFB5
:100BB000EB1AFB0A0E151F05B9F68FEFC81AD80AF3
:100BC000840C951CA981BA81CA16DB0659F6AB8143
:100BD000BC81ED91FC9111970688F789E02DCD013C
:100BE0000F900F900F900F90DF91CF911F910F9169
:100BF000FF90EF90DF90CF90BF90AF909F908F903D
:100C00007F906F905F904F903F90099481E4809324
:100C10007C0080917A00806480937A0080917A00D1
:100C200086FDFCCF80917800909179000895833003
:100C300081F028F4813099F08230A9F0089587304E
:100C4000A9F08830C9F08430B1F4809180008F7DA4
:100C500003C0809180008F7780938000089584B5D1
:100C60008F7784BD089584B58F7DFBCF8091B000D0
:100C70008F778093B00008958091B0008F7DF9CF79
:100C8000CF93DF93282F30E0F901ED59F54F849190
:100C9000F901EB56F54FD491F901EF57F54FC49197
:100CA000CC23A1F081110E941706EC2FF0E0EE0F8B
:100CB000FF1FE958F54FA591B491EC91ED2381E028
:100CC00090E009F480E0DF91CF91089580E090E01A
:100CD000FACF1F93CF93DF93282F30E0F901ED591E
:100CE000F54F8491F901EB56F54FD491F901EF5787
:100CF000F54FC491CC23A9F0162F81110E9417063D
:100D0000EC2FF0E0EE0FFF1FE75AF54FA591B491DD
:100D10008FB7F894EC91111108C0D095DE23DC93C5
:100D20008FBFDF91CF911F910895DE2BF8CFCF9326
:100D3000DF9390E0FC01EB56F54F24918F57954FD0
:100D4000FC0184918823C9F090E0880F991FFC0171
:100D5000E15BF54FA591B491FC01E75AF54FC591C0
:100D6000D49161110DC09FB7F8948C912095822386
:100D70008C938881282328839FBFDF91CF9108958A
:100D8000623051F49FB7F8943C91822F8095832371
:100D90008C93E8812E2BEFCF8FB7F894EC912E2B0C
:100DA0002C938FBFEACF3FB7F89480918F02909138
:100DB0009002A0919102B091920226B5A89B05C025
:100DC0002F3F19F00196A11DB11D3FBFBA2FA92FCA
:100DD000982F8827BC01CD01620F711D811D911DC7
:100DE00042E0660F771F881F991F4A95D1F7089533
:100DF0008F929F92AF92BF92CF92DF92EF92FF922B
:100E00004B015C010E94D3066B017C010E94D3065A
:100E10006C197D098E099F09683E73408105910513
:100E2000A8F321E0821A9108A108B10888EEC80E43
:100E300083E0D81EE11CF11C81149104A104B104CB
:100E400029F7FF90EF90DF90CF90BF90AF909F90E9
:100E50008F9008952FB7F89460918B0270918C0257
:100E600080918D0290918E022FBF089581E0809332
:100E70006E02089581E080936D02089508950895AB
:100E80000895DC01ED91FC910190F081E02D099431
:100E9000AF92BF92CF92DF92EF92FF920F931F9388
:100EA000CF93DF936C017B018B01040F151FEB01C6
:100EB0005E01AE18BF08C017D10759F06991D6017D
:100EC000ED91FC910190F081E02DC6010995892BEF
:100ED00079F7C501DF91CF911F910F91FF90EF90AE
:100EE000DF90CF90BF90AF900895FC01538D448D5B
:100EF000252F30E0842F90E0821B930B541710F0C5
:100F0000CF96089501970895FC01918D828D9817D1
:100F100061F0A28DAE0FBF2FB11D5D968C91928DA9
:100F20009F5F9F73928F90E008958FEF9FEF0895DA
:100F3000FC01918D828D981731F0828DE80FF11DA3
:100F4000858D90E008958FEF9FEF0895FC01918DBE
:100F5000228D892F90E0805C9F4F821B91098F73B7
:100F60009927089583E992E00E94A60721E0892B42
:100F700009F420E0822F089580E090E0892B29F089
:100F80000E94B20781110C9400000895FC01A48D09
:100F9000A80FB92FB11DA35ABF4F2C91848D90E09B
:100FA00001968F739927848FA689B7892C93A0897E
:100FB000B1898C91837080648C93938D848D981308
:100FC00006C00288F389E02D80818F7D808308959B
:100FD000EF92FF920F931F93CF93DF93EC0181E089
:100FE000888F9B8D8C8D98131AC0E889F989808130
:100FF00085FF15C09FB7F894EE89FF896083E88963
:10100000F98980818370806480839FBF81E090E054
:10101000DF91CF911F910F91FF90EF900895F62EE1
:101020000B8D10E00F5F1F4F0F731127E02E8C8D7B
:101030008E110CC00FB607FCFACFE889F9898081C0
:1010400085FFF5CFCE010E94C607F1CFEB8DEC0FE7
:10105000FD2FF11DE35AFF4FF0829FB7F8940B8FDD
:10106000EA89FB8980818062CFCFCF93DF93EC0147
:10107000888D8823B9F0AA89BB89E889F9898C9180
:1010800085FD03C0808186FD0DC00FB607FCF7CF3C
:101090008C9185FFF2CF808185FFEDCFCE010E943C
:1010A000C607E9CFDF91CF910895EF92FF920F939A
:1010B0001F93CF93DF93EC01EC80FD806E157F05CD
:1010C0000CF070C057FF04C0240F351F50E040E003
:1010D0008E819F81FA01E20FF31F8E179F071CF488
:1010E0009C01241B350B121613060CF05BC0922FCB
:1010F000842F8695869586958E9DD0018F9DB00D07
:1011000011246A0F7B1FAF8DB8A1A60FB71F4770C0
:1011100049F188E0841B482F682F70E0FB01EB56F3
:10112000FA4FE491281708F063C0621B71092FEF92
:1011300030E002C0359527956A95E2F7E223013049
:10114000110539F0B0F10230110561F58C91E827F5
:1011500002C08C91E82BEC93941720F12C813D81F7
:10116000A20FB31FE92FE41BE83078F0023011051D
:1011700021F58E2F9C9190959C932C813D81A20FFF
:10118000B31F88508830B0F7E770EE2359F0F0E0D5
:10119000E357FA4FE49101301105F9F010F10230F4
:1011A000110519F1DF91CF911F910F91FF90EF90F1
:1011B0000895E0958C91E823CECF81E001151105CB
:1011C00009F480E081959E2F8C932C813D81A20FA4
:1011D000B31F98509830C0F7D7CF8C91E82BEC9381
:1011E000E1CFE0958C91E823FACF8C91E827F7CFF7
:1011F0000130110509F4ADCFE0F20230110509F418
:10120000A5CFAE0DBF1DAECF0F931F93CF93DF932E
:1012100077FF04C0260F371F70E060E0DC011496F2
:10122000CD91DC91FB01E20FF31FCE17DF071CF419
:101230009E01261B370B121613064CF5FA0157FDBB
:101240003796A3E0F595E795AA95E1F7EC9FD001D5
:10125000ED9FB00DFC9FB00D11246A0F7B1FDC01C8
:101260005F96ED91FC91E60FF71F4770552781E0DF
:1012700090E001C0880F4A95EAF7482F0130110528
:1012800059F0A8F02E0F3F1F02301105E1F0DF9159
:10129000CF911F910F9108952E0F3F1FE217F30773
:1012A000B1F38191DF011197842B8C93F7CF809557
:1012B0002E0F3F1FE217F30751F39191DF011197B2
:1012C00098239C93F7CFE217F30709F38191DF018D
:1012D000119784278C93F7CF0F931F93FA01DC01AA
:1012E00056964C9156974230E9F04330A1F1413087
:1012F00061F514964D915C91DA01AE1BBF0BFD01B7
:10130000E21BF30B77FD0BC0DC0116964D915C914F
:101310006417750724F4AB01BF010E9404091F91F3
:101320000F91089514964D915C91DA01A61BB70BAD
:10133000BD0161507109DC0116964D915C91DA0195
:10134000AE1BBF0BFD01E21BF30B77FDE8CFAF0136
:101350000E945508E4CF16964D915C91DA01A61BC8
:10136000B70BBD0161507109CDCF0F931F93FA01E7
:10137000DC0156964C9156974230A9F0433091F1DA
:10138000413019F514964D915C91DA01AE1BBF0BFB
:10139000FD013197F7FD04C0AB01BF010E94550864
:1013A0001F910F91089514964D915C91DA01A61B3F
:1013B000B70BBD01DC0116964D915C91DA01AE1BB5
:1013C000BF0BFD013197621B730BF7FDE9CFDC0109
:1013D00016964D915C91E417F50714F7AF010E9442
:1013E0000409DECF16964D915C91DA01A61BB70B6E
:1013F000BD01621B730BCECFFC0177FD64C08085FD
:101400009185681779070CF05EC057FD5CC0828536
:101410009385481759070CF056C086898230B1F081
:10142000833029F1813041F484819581841B950BAF
:10143000AB01BC01615071092130310509F108F49B
:1014400043C02230310509F463C008958481958139
:10145000DC01A61BB70BBD01615071098681978124
:10146000DC01A41BB50BAD0141505109E5CF8681CC
:101470009781861B970BBA01AC0141505109DCCF13
:10148000CA0157FD0796A3E095958795AA95E1F7C0
:10149000A481B5818A9F90018B9F300D9A9F300D5A
:1014A0001124620F731F078CF0A1E02DE60FF71FC8
:1014B0004770552721E030E001C0220F4A95EAF736
:1014C0008081822B80830895CA0157FD079633E0FF
:1014D000959587953A95E1F7A481B5818A9F90010A
:1014E0008B9F300D9A9F300D1124620F731F078C54
:1014F000F0A1E02DE60FF71F4770552781E090E03F
:1015000001C0880F4A95EAF7809590818923DACF48
:10151000CA0157FD079623E0959587952A95E1F72F
:10152000A481B5818A9F90018B9F300D9A9F300DC9
:101530001124620F731F078CF0A1E02DE60FF71F37
:101540004770552721E030E001C0220F4A95EAF7A5
:1015500080818227B7CF08958EBD00000DB407FEAD
:10156000FDCF8EB508958CBD9DBD08950895FC01F5
:101570006370668B8481958126813781613039F073
:10158000633029F0918780873387228708953187D8
:1015900020879387828708952F923F924F925F9280
:1015A0006F927F928F929F92AF92BF92CF92DF9273
:1015B000EF92FF920F931F93CF93DF93CDB7DEB7D8
:1015C0006A970FB6F894DEBF0FBECDBF9A8F898F92
:1015D0007A8369834A01D22E18870F833701BC2C86
:1015E000DC0159962D913C915A972115310509F04E
:1015F00015C118968D919C911997681779070CF071
:10160000D7C11A968D919C91481759070CF0D0C1FB
:101610004C2C512CB6E0CB9E600D711D11247C87A3
:101620006B87161617060CF0C3C1EA2DF0E0FA8797
:10163000E98793E0EE0FFF1F9A95E1F7F88BEF87AC
:10164000CF01840F951F181619060CF0B1C1A98D92
:10165000BA8D58968C91811104C0BFEABD1508F46B
:10166000D394A98DBA8DED91FC9111970284F385E5
:10167000E02DCD010995B5E0DB9EC0011124E98183
:10168000FA81FC83EB83312C212C9C0128573F4F9E
:10169000388F2F8B4A2D50E05E8B4D8BEF89F88D64
:1016A000E20DF31D44919E828D82D12CC12C698163
:1016B0007A81620D731D7A8B698B842F90E09C8BED
:1016C0008B8BE98DFA8DA081B18140FF82C0F1E062
:1016D000BF126FC0AF126DC01C96ED91FC912F81AF
:1016E0003885A4014C0D5D1D69897A89898D9A8D93
:1016F0000995EB89FC89F595E7954E2F5FEFC51AA3
:10170000D50A6D817E818D899E89680F791F7E83C0
:101710006D8398E0C916D10481F6AFEF2A1A3A0A10
:10172000EB81FC81E40DF51DFC83EB83F5E02F16C6
:10173000310409F0B3CF2F81388526153705B9F06C
:10174000A98DBA8DED91FC91B1E0BB1257C0AB12DF
:1017500055C069817A816B5F7F4F0088F189E02DE8
:10176000830128E030E0A401898D9A8D0995A98D27
:10177000BA8DED91FC9111970688F789E02DCD0186
:101780006A960FB6F894DEBF0FBECDBFDF91CF9142
:101790001F910F91FF90EF90DF90CF90BF90AF908F
:1017A0009F908F907F906F905F904F903F902F9081
:1017B00009941E96ED91FC91EF80F88409851A85B5
:1017C00092014D815E816B817C81898D9A8D099515
:1017D00090CF2F8138852615370509F48ACF31E05F
:1017E000B31207C0A31205C01C96ED91FC919301A2
:1017F00078CF1E96ED91FC917301E0CF6B857C85CF
:10180000641975090684F785E02D73010F85188921
:101810009201A401898D9A8D0995A9CFF901349679
:101820009491329745915491D91AB7E0DB9E400DBF
:10183000511D1124F901259134913C8B2B8BFA0118
:1018400025903490FA013296749031963491398B08
:10185000329664903196449041E04C1518F04A1548
:1018600008F07FC0662D062C000C770B7C836B8301
:10187000842D042C000C990B9E838D83A98DBA8D29
:10188000ED91FC9111970284F385E02DCD0109952E
:10189000512CD12CC12CEA2DF0E0FA87E9872B2DB1
:1018A00030E03C872B87A401440D511D47FC5A951D
:1018B000588F4F8B69817A81660D711D67FC7A950F
:1018C0007E876D877989C71608F051CF2C2D30E0BF
:1018D0004D815E81420F531FA985BA854A9FC00181
:1018E0004B9F900D5A9F900D1124FC01E80DF91D9E
:1018F000F88BEF87852D612C4F89588D420F531F30
:101900005E8B4D8B671408F050C044244394480EFE
:10191000877041F4C1010196EB89FC89E20DF31D4A
:10192000D4901C01D7FE19C0A98DBA8DED91FC9100
:10193000662D70E0B1E0BB1219C0AB1217C02D8547
:101940003E85620F731F0484F585E02D2F81388555
:101950004D895E89898D9A8D0995DD0C6394842D5E
:10196000D1CF1E821D821C821B8288CF4B815C815D
:10197000640F751FAB85BC856A9FC0016B9F900D7E
:101980007A9F900D112469817A81680F791F0684EE
:10199000F785E02DEF80F88409851A859D014F8534
:1019A0005889898D9A8D0995D8CF570CC3948ACFC1
:1019B0006A960FB6F894DEBF0FBECDBFDF91CF9110
:1019C0001F910F91FF90EF90DF90CF90BF90AF905D
:1019D0009F908F907F906F905F904F903F902F904F
:1019E00008958F929F92AF92CF92EF92FF920F93B2
:1019F0001F93CF93DF93EC01262F898D9A8D00974B
:101A000009F051C06A30D1F41D861C868D8948E0EA
:101A1000849F900111248E859F85820F931F9F873D
:101A20008E8781E090E0DF91CF911F910F91FF9021
:101A3000EF90CF90AF909F908F9008956D3089F385
:101A4000CC88AD888F898823C1F08C859D8536E050
:101A5000C39E800D911D112448855985481759074B
:101A600064F44E855F851D861C8638E0A39EC00108
:101A70001124840F951F9F878E87EA88FB88088929
:101A800019894E855F856C857D85CE010E94CC0AC3
:101A90002C898C859D8546E0249F800D911D112405
:101AA0009D878C87BECF6A3069F41D861C86FC0139
:101AB0003896E4912D898E859F85E29F800D911D3A
:101AC0001124ADCF6D3009F4ACCFFC0134963491C4
:101AD000631708F4A6CF3296E491E61708F4A1CF75
:101AE000FC01329685909490462F431B342F47E09B
:101AF000349F800C911C1124F4013296349131965C
:101B0000E4913323A9F1EE2399F1CC88F4013596C1
:101B1000E491AD884F89442301F10E2E000CFF0B98
:101B2000E30FF11DCE9EA001CF9E500D11246C85B8
:101B30007D85460F571F68857985641775076CF496
:101B40004E855F851D861C86FC013896E491AE9E0D
:101B5000400D511D11245F874E87EA88FB88088954
:101B600019894E855F856C857D85CE010E94CC0AE2
:101B7000F4013496E4912C898C859D85E29F800D3B
:101B8000911D11248DCF6F927F928F929F92AF9271
:101B9000BF92CF92DF92EF92FF920F931F93CF935A
:101BA000DF93EC016B015A0139014801E881F981A9
:101BB0000284F385E02D0995E881F9810288F38993
:101BC000E02D87019301A501B601CE010995A5017C
:101BD000480D591D41505109E881F9810288F38966
:101BE000E02D9301B601CE010995E881F9810088C5
:101BF000F189E02D9401A501B601CE010995C60C2D
:101C0000D71CB60161507109E881F9810088F1891A
:101C1000E02D9401A501CE010995E881F98106889E
:101C2000F789E02DCE01DF91CF911F910F91FF90A9
:101C3000EF90DF90CF90BF90AF909F908F907F906C
:101C40006F9009946F927F928F929F92AF92BF9202
:101C5000CF92DF92EF92FF920F931F93CF93DF9378
:101C60005C01EB016A01490138018701DC01ED915A
:101C7000FC916217730719F5641675062CF0962D02
:101C8000872D3A01C92ED82E9601261937092F5FC4
:101C90003F4F048CF58DE02DA301BE01C5010995D0
:101CA000DF91CF911F910F91FF90EF90DF90CF9038
:101CB000BF90AF909F908F907F906F900895461542
:101CC000570591F42617370724F0892D4B01C22FB1
:101CD000D82F9E01281939092F5F3F4F068CF78DA9
:101CE000E02DA601B401DACF0284F385E02D099539
:101CF000D501ED91FC910488F589E02D83019401D3
:101D0000A601BE01C5010995D501ED91FC9106889A
:101D1000F789E02DC501DF91CF911F910F91FF90C1
:101D2000EF90DF90CF90BF90AF909F908F907F907B
:101D30006F900994EF92FF920F931F93DC011A9614
:101D40000D911C911B9718962D913C911997ED912F
:101D5000FC9100A0F1A1E02D7B0150E040E070E09B
:101D600060E009951F910F91FF90EF9008954F92B9
:101D70005F926F927F928F929F92AF92BF92CF921B
:101D8000DF92EF92FF920F931F93CF93DF936C013B
:101D90002B015A0139014801DC01ED91FC910284CB
:101DA000F385E02D0995E201640C751CD601ED91D7
:101DB000FC91C615D7055CF40088F189E02D8701F8
:101DC0009401A501BE01C60109952196EFCF0688B1
:101DD000F789E02DC601DF91CF911F910F91FF9000
:101DE000EF90DF90CF90BF90AF909F908F907F90BB
:101DF0006F905F904F9009948F929F92AF92BF9295
:101E0000CF92DF92EF92FF920F931F93CF93DF93C6
:101E1000EC015B014A016901E881F9810284F385E3
:101E2000E02D099595012C0D3D1D21503109E881CA
:101E3000F9810488F589E02D78018401A401B501B8
:101E4000CE010995E881F9810688F789E02DCE0158
:101E5000DF91CF911F910F91FF90EF90DF90CF9086
:101E6000BF90AF909F908F9009948F929F92AF9266
:101E7000BF92CF92DF92EF92FF920F931F93CF9377
:101E8000DF93EC015B014A0169017801E881F98186
:101E90000284F385E02D0995C80CD91C86010150F8
:101EA0001109E881F9810488F589E02D9501A401E3
:101EB000B501CE010995E881F9810688F789E02D01
:101EC000CE01DF91CF911F910F91FF90EF90DF90A6
:101ED000CF90BF90AF909F908F9009940895EF920C
:101EE000FF920F931F93DC01ED91FC9100A0F1A1F3
:101EF000E02D09951F910F91FF90EF9008950F939A
:101F00001F93DC01ED91FC91068CF78DE02D099576
:101F10001F910F9108950F931F93DC01ED91FC9198
:101F2000048CF58DE02D09951F910F910895DC012A
:101F3000ED91FC910084F185E02D09942F923F9260
:101F40004F925F926F927F928F929F92AF92BF92C9
:101F5000CF92DF92EF92FF920F931F93CF93DF9375
:101F600000D000D000D0CDB7DEB73C016A013E837F
:101F70002D83FC82EB825801A41AB50AB7FE03C078
:101F8000B194A194B1088D809E80861A970A97FE1D
:101F900003C09194819491088A149B045CF0902F63
:101FA000812F0D811E819D838E839C2D8D2D6B0134
:101FB000692F782F0C151D055CF09D818E817E8325
:101FC0006D83692F782F902F812F8601C92ED82EEF
:101FD0001601201A310A2B012D813E81421A530A23
:101FE00057FE03C0519441945108710137FE03C05C
:101FF0003FEFE31AF30AF594E7948D819E818617EB
:1020000097075CF5A1E0B0E0BA83A983C016D106BA
:102010004CF1D301ED91FC910484F585E02D2B81E9
:102020003C81A8016D817E818A149B041CF04D8146
:102030005E81B801C3010995E418F508F7FE0AC0EE
:102040002D813E8189819A81280F391F3E832D83FE
:10205000E20CF31C0F5F1F4FD9CF2FEF3FEF3A83F6
:102060002983D4CF26960FB6F894DEBF0FBECDBF1E
:10207000DF91CF911F910F91FF90EF90DF90CF9064
:10208000BF90AF909F908F907F906F905F904F9098
:102090003F902F900895089520911002260F332726
:1020A000331F21323105ECF420913402FC0190E021
:1020B00080E0243069F082E00895A091100221911F
:1020C000AC0140515E4FA40FB52FB11D2C9301966A
:1020D000861798F380911002680F6093100280E0D9
:1020E000089581E008951092340281E080933602D1
:1020F0001092350261E082E10E94690661E083E1AD
:102100000E946906E9EBF0E080818E7F8083808108
:102110008D7F808388E48093B80085E48093BC0041
:102120000895CF93DF9391E09093EF018823B9F066
:10213000C091B800D091BA008091BC008A7B809396
:10214000BC0060E082E10E94690660E083E10E94D9
:1021500069060E947310D093BA00C093B800DF9153
:10216000CF910895E091640280916302E81730F402
:10217000F0E0E653FE4F808190E008958FEF9FEFEF
:10218000089590916402809163022FEF3FEF9817BA
:1021900048F4E92FF0E0E653FE4F208130E09F5FE6
:1021A00090936402C9010895809163029091640242
:1021B000891B990B0895CF92DF92EF92FF920F93B4
:1021C0001F93CF93DF937C01CB018A0120915B02A7
:1021D000222389F0EB016B01C40ED51ECC15DD0561
:1021E00069F06991D701ED91FC910190F081E02DAA
:1021F000C7010995F3CF642F0E944C10C801DF91ED
:10220000CF911F910F91FF90EF90DF90CF900895A5
:10221000CF93DF931F92CDB7DEB7698320915B0226
:102220002223F9F020916102203258F021E030E0C1
:10223000FC013383228390E080E00F90DF91CF9107
:10224000089580916202E82FF0E0E655FE4F9981F3
:1022500090838F5F809362028093610281E090E0BF
:10226000ECCF61E0CE0101960E944C10F7CFCF92E7
:10227000DF92EF92FF920F931F93CF93DF93D09152
:10228000610281E0D13208F09CC0C0915A020E94E4
:10229000D3066B017C018091340281116CC082E015
:1022A0008093340281E0809336028FEF8093330273
:1022B00010925802D0935702AAEAB1E0E7E3F2E0A5
:1022C00080E0D8138DC01092590280915902CC0F32
:1022D000C82BC093590280913502813009F084C027
:1022E000109235020E94D3066B017C018091590245
:1022F0008093BB008091EB019091EC01A091ED01E6
:10230000B091EE01892B8A2B8B2BA1F00E94D30672
:102310000091EB011091EC012091ED013091EE0163
:102320006C197D098E099F090617170728073907B9
:1023300008F442C08091BC0083FDD8CF85EC809327
:10234000BC000E94D3066B017C0180913402823074
:1023500009F44CC0809133028F3F09F469C0809129
:102360003302803209F466C080913302803309F46D
:1023700063C084E026C08091EB019091EC01A091B4
:10238000ED01B091EE01892B8A2B8B2B09F483CFC1
:102390000E94D3060091EB011091EC012091ED0118
:1023A0003091EE016C197D098E099F0906171707F8
:1023B0002807390708F06FCF8091EA010E94911039
:1023C00085E0109262021092610210925B02DF912E
:1023D000CF911F910F91FF90EF90DF90CF900895D4
:1023E0009D9191938F5F6DCF85EEA9CF8091EB0189
:1023F0009091EC01A091ED01B091EE01892B8A2B17
:102400008B2B09F4A2CF0E94D3060091EB0110910F
:10241000EC012091ED013091EE016C197D098E09DE
:102420009F09061717072807390708F08ECFC4CF72
:1024300080E0C7CF82E0C5CF83E0C3CFDF92EF92C9
:10244000FF920F931F93CF93DF93EC01D62E072FAC
:10245000142F8D8D9E8D009709F44DC029A131E078
:1024600030935B0220935A02109262021092610232
:10247000DC01ED91FC910190F081E02D60E0099587
:10248000ED2CF02E01E0DD24D39411508D8D9E8D26
:102490001F3F41F10032B0F00E9437118D8D9E8DAB
:1024A00029A1D0925B0220935A02109262021092EC
:1024B0006102DC01ED91FC910190F081E02D60E082
:1024C000099501E08D8D9E8DF7016491DC01ED9100
:1024D000FC910190F081E02D09950F5FBFEFEB1AA1
:1024E000FB0AD3CFDF91CF911F910F91FF90EF9017
:1024F000DF900C943711EDA5FEA590818BA98095F6
:1025000089238083E62EF72E115070F1F701849114
:102510002B8D3C8D232B31F00E94AC0AEFEFEE1A8D
:10252000FE0AF2CF28E030E040E8E9A5FAA599A933
:10253000582F5423A9F05081952B9083EBA5FCA52F
:1025400090815AA9952B9083EBA5FCA550819AA95F
:1025500090959523908346952150310931F7DECF30
:10256000508190959523E9CFDF91CF911F910F91E5
:10257000FF90EF90DF9008951F93CF93DF93EC01CE
:102580008D8D9E8D009721F1162F29A131E030937A
:102590005B0220935A021092620210926102DC01E7
:1025A000ED91FC910190F081E02D60E009958D8D19
:1025B0009E8DDC01ED91FC910190F081E02D612F69
:1025C00009958D8D9E8DDF91CF911F910C943711C0
:1025D000ADA5BEA59C918BA9809589238C938B8DED
:1025E0009C8D892B31F0862FDF91CF911F910C9418
:1025F000AC0A28E030E080E8A9A5BAA599A9462F41
:102600004823C1F04C91942B9C93ABA5BCA59C9105
:102610004AA9942B9C93ABA5BCA54C919AA99095E3
:1026200094239C9386952150310931F7DF91CF9106
:102630001F9108954C9190959423E6CF1F93CF93CB
:10264000DF93EC01162F8D8D9E8D892BB1F12DA975
:102650003EA94FA958AD60E074E284EF90E00E947B
:1026600098232051310941095109569547953795CD
:1026700027952093B80066EA111167EACE010E94FF
:10268000BC128D8D9E8D892B41F129AD3AAD4BAD9C
:102690005CAD60E074E284EF90E00E9498232051EA
:1026A000310941095109569547953795279520934A
:1026B000B800DF91CF911F9108958B8D9C8D892B50
:1026C00021F08EAD9FAD0E94B30AEFA5F8A99081CD
:1026D0008CA9809589238083CECFEFA5F8A980812E
:1026E0009CA9892B8083E5CFCF92DF92EF92FF9256
:1026F0000F931F93CF93DF93EC018D8D9E8D892BCC
:1027000009F47FC02DA93EA94FA958AD60E074E23D
:1027100084EF90E00E94982320513109410951092A
:1027200056954795379527952093B80045E068E87A
:1027300075E0CE010E941E126C816150CE010E9494
:10274000BC122E813F81C901079697FD079623E0B1
:10275000959587952A95E1F72C813D81829F70019F
:10276000839FF00C929FF00C11240F8D18A18D8D7A
:102770009E8DE00EF11E009709F477C029A131E08B
:1027800030935B0220935A0210926202109261020F
:10279000DC01ED91FC910190F081E02D60E4099560
:1027A000DD24D394CC24C3948D8D9E8DE016F10648
:1027B000C1F1BFE1BD15B8F40E9437118D8D9E8D1A
:1027C00029A1C0925B0220935A02109262021092D9
:1027D0006102DC01ED91FC910190F081E02D60E45B
:1027E0000995DD24D3948D8D9E8DF80161918F0123
:1027F000DC01ED91FC910190F081E02D0995D394DD
:10280000D3CF8B8D9C8D892B21F08EAD9FAD0E94F7
:10281000B30AEFA5F8A990818CA9809589238083BC
:1028200085CF0E9437118D8D9E8D892B09F452C062
:1028300029AD3AAD4BAD5CAD60E074E284EF90E061
:102840000E94982320513109410951095695479515
:10285000379527952093B800DF91CF911F910F9165
:10286000FF90EF90DF90CF900895EDA5FEA58081B9
:102870009BA9892B8083E016F106A9F2F8018191CA
:102880008F012B8D3C8D232B19F00E94AC0AF3CFC6
:1028900028E030E040E8E9A5FAA599A9582F54238B
:1028A000A9F05081952B9083EBA5FCA590815AA9A6
:1028B000952B9083EBA5FCA550819AA99095952323
:1028C000908346952150310931F7D5CF50819095AD
:1028D0009523E9CFEFA5F8A980819CA9892B808356
:1028E000BBCF90E080E00895DC0180E0615090F083
:1028F0009D919827E92FEF70F0E0E859FF4F249160
:10290000E92FE295EF70F0E0E858FF4FE491822F55
:102910008E27ECCF0895DC012C911196ED91FC915E
:10292000F8948181822B81839281322F3095932379
:10293000928387E090E00197F1F78181832381837F
:1029400083E290E00197F1F790817894EFECF0E06A
:102950003197F1F7922381E009F480E00895FC01BA
:1029600090810180F281E02D292F209560FF14C015
:10297000F8948281822382838181892B8183A3E2DF
:10298000B0E01197F1F78281982B9283789487EDCC
:1029900090E00197F1F70895F89482818223828371
:1029A0008181892B8183AFEFB0E01197F1F78281AC
:1029B000982B928378948FE090E0EBCFDF92EF92A8
:1029C000FF920F931F93CF93DF93EC01D62EE42E4B
:1029D00008E010E0FF24F39461E08D2D8F2109F4CD
:1029E00060E0CE010E94AF14FF0C01501109A1F765
:1029F000E11010C0F894E981FA8191818881809575
:102A000089238183E981FA81928188818095892354
:102A100082837894DF91CF911F910F91FF90EF9077
:102A2000DF900895FC0190810180F281E02DF894FF
:102A30008181292F20958223818378943DE743E08B
:102A400050E0315029F1DA011197F1F780818923A3
:102A5000C1F3F8948281822382838181892B8183CF
:102A60007894ABE7B7E01197F1F7F894818182236E
:102A70008183A3E1B1E01197F1F78081982381E090
:102A800009F080E07894E3E6F6E03197F1F70895F5
:102A900080E00895EF92FF920F931F93CF93DF93FF
:102AA000EC01162F0E941215882389F01C3C49F076
:102AB00020F4153599F080E00AC01C3E11F0103F5B
:102AC000D1F740E0612FCE010E94DE1481E0DF915A
:102AD000CF911F910F91FF90EF90089540E065E531
:102AE000CE010E94DE148E010F5E1F4F7E0189E130
:102AF000E80EF11CF80161918F0140E0CE010E94C7
:102B0000DE140E151F05B1F7E1CF8F929F92AF92A1
:102B1000BF92CF92DF92EF92FF920F931F93CF93CA
:102B2000DF93EC0165E50E944A15882329F040E017
:102B30006EEBCE010E94DE148E01075E1F4F5E0118
:102B400082E2A80EB11C480188E0C82ED12CF12CDD
:102B5000EE24E394CE010E948B148111FE28EE0C2A
:102B6000E1E0CE1AD108B1F7F801F1928F01EA1530
:102B7000FB0551F768E0C4010E94741491E029A19B
:102B8000281390E0892FDF91CF911F910F91FF9033
:102B9000EF90DF90CF90BF90AF909F908F9008956F
:102BA0001F93CF93DF93EC011BA165E50E944A15AB
:102BB000882339F041E0111140E064E4CE010E9425
:102BC000DE148BA1882341F1CE010E948B1488234F
:102BD000D9F3CE010E948515698D8A8D9AA19A300C
:102BE000D9F19B30D9F1993009F4687F90E0982FA2
:102BF0008827680F792F711D072E000C880B990B01
:102C00000E94D52420E030E040E85DE30E948A2560
:102C1000DF91CF911F9108958AA18A3099F048F4ED
:102C20008930B9F66EE570E080E090E00E94F80629
:102C3000D0CF8B3061F08C3061F66EEE72E080E0C8
:102C400090E0F4CF6CEB70E080E090E0EFCF67E7CE
:102C500071E080E090E0EACF6C7FC8CF6E7FC6CF96
:102C60000E942127FB0101900020E9F73197AF0175
:102C7000461B570BDC01ED91FC910280F381E02DA6
:102C800009948F929F92AF92BF92EF92FF920F930F
:102C90001F93CF93DF93CDB7DEB7A1970FB6F8940C
:102CA000DEBF0FBECDBF7C01FA01CB0119A22230DD
:102CB00008F42AE08E010F5D1F4F822E912CB12C5B
:102CC000A12CBF01A50194010E949823F901CA011A
:102CD0006A300CF5605DD8016E938D01232B242B97
:102CE000252B79F790E080E0109721F0BD01C70116
:102CF0000E943216A1960FB6F894DEBF0FBECDBF6C
:102D0000DF91CF911F910F91FF90EF90BF90AF9007
:102D10009F908F900895695CDECF2F923F924F92E3
:102D20005F926F927F928F929F92AF92BF92CF925B
:102D3000DF92EF92FF921F93CF93DF93EC016A0132
:102D40007B01722EAB019601CB01B6010E94F725E3
:102D50006CE571E0811126C046015701E894B7F88F
:102D60002FEF3FEF4FE75FE7C501B4010E94F72562
:102D700081110CC02FEF3FEF4FE75FE7C501B401B2
:102D80000E942D2460E671E0181664F02FEF3FEFEB
:102D90004FE75FE4C701B6010E9485251816B4F419
:102DA00064E671E0CE01DF91CF911F91FF90EF902B
:102DB000DF90CF90BF90AF909F908F907F906F905B
:102DC0005F904F903F902F900C9432162FEF3FEF73
:102DD0004FE75FECC701B6010E942D2487FDE0CFCD
:102DE00020E030E0A901C701B6010E942D24312C5A
:102DF000212C87FF09C06DE2CE010E9441071C0112
:102E0000F7FAF094F7F8F09410E060E070E080E0FA
:102E10009FE3711641F020E030E040E251E40E946F
:102E200032241F5FF6CFA70196010E94C1232B0118
:102E30003C010E94A4244B015C012AE0BC01A401D6
:102E4000CE010E9441167C01E20CF31C1123C1F15A
:102E5000C501B4010E94D3249B01AC01C301B2019E
:102E60000E94C0234B015C016EE2CE010E9441072B
:102E7000E80EF91E115020F120E030E040E251E46C
:102E8000C501B4010E948A252B013C010E94A424A3
:102E90004B01B12CA12C2AE0B501A401CE010E9466
:102EA0004116E80EF91EC501B4010E94D3249B010E
:102EB000AC01C301B2010E94C0234B015C01DACF17
:102EC000C701DF91CF911F91FF90EF90DF90CF90DE
:102ED000BF90AF909F908F907F906F905F904F903A
:102EE0003F902F9008950F931F93CF93DF93EC01A2
:102EF0000E9432168C0168E671E0CE010E94321603
:102F0000800F911FDF91CF911F910F910895FC01C8
:102F1000868197819C01295F3F4F37FF02C0295F5F
:102F20003F4F83E0359527958A95E1F78481958118
:102F3000289FA001299F500D389F500D112470E04B
:102F400060E0878D90A10C942627CF93DF93EC014E
:102F50000E9487171D861C861F861E866BE671E001
:102F6000CE010E94731761E771E0CE010E947317D2
:102F7000CE010E94741364EF71E080E090E0DF9175
:102F8000CF910C94F80685ED8093BC008091EB0105
:102F90009091EC01A091ED01B091EE010796A11D79
:102FA000B11D23E0B695A795979587952A95D1F7FA
:102FB0002091BC0024FD03C010923402089540917A
:102FC000EB015091EC016091ED017091EE01452B08
:102FD000462B472B69F30097A105B10541F025E386
:102FE0002A95F1F700000197A109B109E1CF80917D
:102FF000EA010C9491100F931F93CF93DF938C01F0
:10300000EB010E9482238883C80101960E948223DB
:103010008983CE01DF91CF911F910F910895FF9287
:103020000F931F93CF93DF93EC018B01FB01F08093
:103030000E948223F81621F06F2DCE010E948A2370
:10304000F801F1802196CE010E948223F81621F02A
:103050006F2DCE010E948A23C801DF91CF911F916D
:103060000F91FF9008951F920F920FB60F921124A7
:103070002F933F938F939F93AF93BF9380918B0236
:1030800090918C02A0918D02B0918E0230918A02B3
:1030900023E0230F2D3758F50196A11DB11D209374
:1030A0008A0280938B0290938C02A0938D02B0933E
:1030B0008E0280918F0290919002A0919102B09126
:1030C00092020196A11DB11D80938F0290939002F0
:1030D000A0939102B0939202BF91AF919F918F9173
:1030E0003F912F910F900FBE0F901F90189526E8DB
:1030F000230F0296A11DB11DD2CF1F920F920FB6C2
:103100000F9211242F933F934F935F936F937F936D
:103110008F939F93AF93BF93EF93FF93E09102013F
:10312000F09103010995FF91EF91BF91AF919F91AC
:103130008F917F916F915F914F913F912F910F9060
:103140000FBE0F901F9018951F920F920FB60F92FF
:1031500011242F933F934F935F936F937F938F939C
:103160009F93AF93BF93EF93FF93E0910001F09192
:1031700001010995FF91EF91BF91AF919F918F91BF
:103180007F916F915F914F913F912F910F900FBE63
:103190000F901F9018951F920F920FB60F92112447
:1031A0002F933F934F935F936F937F938F939F934F
:1031B000AF93BF93EF93FF9383E992E00E94C6071A
:1031C000FF91EF91BF91AF919F918F917F916F91FF
:1031D0005F914F913F912F910F900FBE0F901F90D5
:1031E00018951F920F920FB60F9211242F938F9361
:1031F0009F93EF93FF93E091A302F091A40280814B
:10320000E091A902F091AA0282FD1BC090818091F9
:10321000AC028F5F8F732091AD02821741F0E09175
:10322000AC02F0E0ED56FD4F958F8093AC02FF911C
:10323000EF919F918F912F910F900FBE0F901F9044
:1032400018958081F4CF1F920F920FB60F92112420
:103250002F933F934F935F936F937F938F939F939E
:10326000AF93BF93EF93FF938091B900887F80362F
:1032700009F44AC0F0F5883209F4A7C018F5803186
:1032800009F49BC0B8F4882309F4F9C0883009F424
:1032900094C0FF91EF91BF91AF919F918F917F91DA
:1032A0006F915F914F913F912F910F900FBE0F90B3
:1032B0001F901895883109F488C0803251F78093A7
:1032C000330214C0803409F49DC040F48033B9F354
:1032D0008833F9F68093330285ECB0C0803509F469
:1032E00085C0883509F496C0883499F60E94C317C2
:1032F000D0CF883909F48CC038F5883729F050F4DC
:10330000883611F0803729F683E0809334021092DA
:10331000320257C0883809F47BC0803919F08038F0
:1033200009F0B7CF80913202803208F071C0E0918D
:10333000320281E08E0F809332028091BB00F0E078
:10334000EE5EFD4F80833DC0803B39F0E0F4803A73
:1033500009F479C0883A09F09CCF84E08093340264
:103360001092110210921002E0915F02F09160023F
:1033700009958091100281110FC081E080931002A5
:103380001092F00109C0803C09F4A6CF883C09F4F2
:10339000A3CF883B09F07DCFE091110281E08E0F31
:1033A00080931102F0E0E051FE4F80818093BB00DA
:1033B000909111028091100229C08091590280934E
:1033C000BB0085EC8093BC0064CF90915802809143
:1033D0005702981758F5E091580281E08E0F8093BC
:1033E0005802F0E0E95CFD4F8081E9CFE09158029E
:1033F00081E08E0F809358028091BB00F0E0E95C81
:10340000FD4F808390915802809157029817C8F21F
:1034100085E8D8CFE091580281E08E0F8093580262
:103420008091BB00F0E0E95CFD4F80838091360223
:1034300081115CCF81E08093350284EA8093BC00E7
:103440001092340226CF85EC8093BC001092340297
:1034500080913202803230F4E0913202F0E0EE5E90
:10346000FD4F10826091320270E0E0915D02F091B8
:103470005E0282E192E00995109232020ACF109228
:10348000330234CFCF93DF93EC0160E084E00E94FD
:103490009706E9E9FAE0E491E883E5E8FAE0E491E7
:1034A000F0E0EE0FFF1FE958F54F859194919A8354
:1034B00089831B861D861C861A86198618861F829C
:1034C0001E821D821C821B82DF91CF910895FC0118
:1034D000858D8F3351F018F48F3149F008958F3571
:1034E00041F08F37D9F78CE008958AE0089589E09C
:1034F00008958BE008954F925F926F927F928F9222
:103500009F92AF92BF92CF92DF92EF92FF920F9372
:103510001F93CF93DF93109296021092950288EE3C
:1035200093E0A0E0B0E08093970290939802A0937C
:103530009902B0939A022CE331E0309394022093E5
:10354000930225EC30E03093A00220939F0224ECFC
:1035500030E03093A2022093A10220EC30E03093BF
:10356000A4022093A30221EC30E03093A602209322
:10357000A50222EC30E03093A8022093A70226ECAB
:1035800030E03093AA022093A9021092AC0210926C
:10359000AD021092AE021092AF021092330310925D
:1035A00032038093340390933503A0933603B09392
:1035B00037038EE491E090933103809330038EE0E3
:1035C00090E00E94FC25EC010E94421AD093470330
:1035D000C09346038EE290E00E94FC25EC010E941D
:1035E000421A1CA61DA66CECCE010E944A15882327
:1035F00029F040E064EBCE010E94DE14CE010E946F
:103600008B148F87812C912C54018394772473948D
:103610007E0124E2E20EF11C6E0131E1C30ED11CE9
:103620000DA50111CBC060EFCE010E944A15882381
:1036300009F4C4C0512C10E0CE010E948B14682EF6
:10364000CE010E948B146620C1F08823B1F01CA625
:10365000D0934503C0934403DF91CF911F910F9105
:10366000FF90EF90DF90CF90BF90AF909F908F90A2
:103670007F906F905F904F900895912F9770E12FFA
:10368000E695E695E695EC0FFD2FF11D44A061103F
:1036900082C0811185C08CA5811709F47EC0811775
:1036A00008F47DC0242D30E0092E02C03595279501
:1036B0000A94E2F7322F317020FF71C0B501A401E6
:1036C00004C0440F551F661F771F9A95D2F7CA0191
:1036D000842984A3632E662DCE010E94AF141F5F40
:1036E000103409F0A9CF5CA6511001C07DA660EF8F
:1036F000CE010E944A15882309F4AACFCE010E9468
:103700008B14182FCE010E948B14112311F08111FC
:103710009FCFE02FE695E695E695EE0DFF2DF11D86
:10372000608170E0802F877002C0759567958A95DB
:10373000E2F76170CE010E94AF140F5F0034F1F622
:1037400088E0F701D60101900D928A95E1F7CE014C
:103750000E948515882309F47BCFCE010E94671A49
:103760008AA365E5CE010E944A15882329F040E02E
:1037700064EBCE010E94DE14CE010E948B148BA359
:10378000CE010E94671A9E85981708F48E87888953
:103790008F5F888B45CF362D91CF31E08FCF512E63
:1037A000A501940104C0220F331F441F551F9A9591
:1037B000D2F7C9018095842184A38DCF1CA61DA6B4
:1037C00047CFCF93DF9300D000D0CDB7DEB778944A
:1037D00084B5826084BD84B5816084BD85B5826016
:1037E00085BD85B5816085BD80916E0081608093C7
:1037F0006E00109281008091810082608093810030
:103800008091810081608093810000E810E08091C8
:1038100080008160809380008091B10084608093FB
:10382000B1008091B00081608093B00080917A00F7
:10383000846080937A0080917A00826080937A001D
:1038400080917A00816080937A0080917A0080680C
:1038500080937A001092C10080E490E00E94FC25E1
:103860006C01DC0113961C921E92129715961C9304
:103870000E93149780E290E017969C938E93169780
:1038800019961C930E9318971B969C938E931A97D8
:1038900056961C9256971D961C921E921C971F9628
:1038A0001C921E921E9781E055968C9355975496C4
:1038B0008C9354972FEF3FEF53963C932E93529750
:1038C00051963C932E93509757968C9357975896B2
:1038D0001C9258975A961C921E92599780E191E03B
:1038E00011969C938E935C961C921E925B9780E33C
:1038F00093E05E969C938E935D9790961C921E9299
:103900005F978FEF94968C93949795968C93959759
:1039100096968C93969797968C93979798968C9368
:1039200080E89AE1A6E0B0E0F60185AB96ABA7ABE4
:10393000B0AF80EA96E8A1E0B0E081AF92AFA3AF6C
:10394000B4AF80E586AF17AEE091A302F091A40278
:1039500082E08083E0919F02F091A0021082E091CA
:10396000A102F091A2028FEC80831092AB02E09151
:10397000A702F091A80286E08083E091A502F09171
:10398000A602808180618083E091A502F091A60269
:10399000808188608083E091A502F091A6028081F9
:1039A00080688083E091A502F091A60280818F7DDE
:1039B0008083D6015F968D919C919097892B29F1F8
:1039C000C6010E948717F6018681978164817581FF
:1039D000813291050CF0F0C1AC014052510957FF02
:1039E00002C04F5F5F4F559547956357710977FF49
:1039F00002C06F5F7F4F75956795F0E2EF2EF12C57
:103A000003E710E02FEA35E0EFC116962D913C91C7
:103A1000C901079697FD079623E0959587952A9506
:103A2000E1F7F60124813581AC01429FC001439F3B
:103A3000900D529F900D11240E94FC25D601909666
:103A40009C938E935F97892B09F0BACFC6010E9491
:103A5000871782E0F601848B858B81E090E0938B61
:103A6000828B918B808BC6010E947413D092770257
:103A7000C0927602E0914603F091470313861586C3
:103A80001486128611861086178216821582148279
:103A90001382AA24A3940091460310914703D801EE
:103AA0001D968C91882309F474C3F801138615863A
:103AB00014860091760210917702C8010E94871740
:103AC000D8011D961C921E921C971F961C921E9246
:103AD0001E9766E771E0C8010E94731781E0F80144
:103AE000848B858B62E871E0C8010E947317C8015E
:103AF0000E94741382E0D80154968C935497559683
:103B00008C9364EF71E080E090E00E94F806BE01C3
:103B10006D5F7F4F90E080E00E94FB17BE016F5FFA
:103B20007F4F84E090E00E94FB1709811A81EB80AF
:103B3000FC80BE016D5F7F4F88E090E00E94FB1724
:103B4000BE016F5F7F4F8CE090E00E94FB176B819E
:103B50007C816E197F09072E000C880B990B0E943F
:103B6000D5244B015C0169817A81601B710B072EA2
:103B7000000C880B990B0E94D5249B01AC01C50158
:103B8000B4010E9432244B015C0180923C0390926C
:103B90003D03A0923E03B0923F03B701FF0C880B98
:103BA000990B0E94D5246B017C01B801110F880B81
:103BB000990B0E94D524A50194010E948A259B019E
:103BC000AC01C701B6010E94C0236093400370930B
:103BD0004103809342039093430361E085E00E9498
:103BE000970661E085E00E94690662E083E00E943A
:103BF000970662E082E00E94970686E397E0909342
:103C000003018093020180916900837F8860809323
:103C10006900E99A8AE397E090930101809300019B
:103C2000809169008C7F826080936900E89A81E0CE
:103C300090E0909389028093880230E0632E30E018
:103C4000732E10916E02111105C080916D028823B0
:103C500009F457C30E942A076B017C010E942A07BE
:103C60006C197D098E099F09613D77408105910599
:103C70000CF41AC310926D0210926E0201E010E073
:103C8000C0908802D090890232E0C316D10409F4B2
:103C900055C343E0C416D10409F4B3C351E0C516BB
:103CA000D10409F07DC080914403909145030E94A6
:103CB000D0151B012C010E940606BC01990F880B30
:103CC000990B0E94D52420913C0330913D034091F3
:103CD0003E0350913F030E948A252091400330917A
:103CE000410340914203509143030E94C1234B0181
:103CF0005C01E0907602F090770222E0B201A1012F
:103D000083E992E00E948D1660E971E083E992E018
:103D10000E94321622E0B501A40183E992E00E94DC
:103D20008D1668E671E083E992E00E943216C701C1
:103D30000E948717D7011D961C921E921C971F96F2
:103D40001C921E921E9722E0B201A101C7010E949F
:103D50008D1667EFC7010E94410762E971E0C70154
:103D60000E94731722E0B501A401C7010E948D16BD
:103D700067EA71E0C7010E943216C7010E947413FE
:103D80000130110509F038C38091760290917702D5
:103D90000E94A517E3E0F0E0F0938902E093880227
:103DA0006114710409F44DCF0E94B207882309F40D
:103DB00048CF0E94000045CFAC014054510957FF45
:103DC00002C04F5F5F4F559547956255710977FF68
:103DD00002C06F5F7F4F7595679510E4E12EF12C5F
:103DE00002E510E02FE837E0C6010E94800582E07E
:103DF000F60182A3858D968D892B09F4D4C08CE3BE
:103E000081A31092640210926302109262021092D7
:103E100061020E9473108EE397E09093600280939A
:103E20005F028FE397E090935E0280935D02D6017C
:103E300098968C9187FD1FC061E00E94970661E013
:103E4000F60180A50E94690661E070E080E090E0E4
:103E50000E94F80660E0D60198968C910E9469064F
:103E60006AE070E080E090E00E94F80661E0F60110
:103E700080A50E946906D6015D968D919C915E9702
:103E8000892B09F453C1D5962D913D914D915C91AB
:103E9000D89760E074E284EF90E00E94982320516C
:103EA0003109410951095695479537952795209332
:103EB000B80044E06BEA75E0C6010E941E12F601EC
:103EC00066816150C6010E94BC1244E067EA75E059
:103ED000C6010E941E12D60192968C9160E181303B
:103EE00009F064E1C6010E94BC1244E063EA75E097
:103EF000C6010E941E128FE8F60185AF848195816C
:103F00008038910509F029C1868197818034910517
:103F100009F031C182A1813009F01DC18FE9D601BC
:103F2000DD968C9312E16AEDC6010E94BC12612FEE
:103F3000C6010E94BC1261E8C6010E94BC12F601D3
:103F400065ADC6010E94BC1269EDC6010E94BC129B
:103F5000D60192968C9162E2813009F061EFC60140
:103F60000E94BC1246E06DE975E0C6010E941E1277
:103F7000F601858D968D892B09F401C121AD32ADF5
:103F800043AD54AD60E074E284EF90E00E9498236A
:103F90002051310941095109569547953795279583
:103FA0002093B80053CD61E086A10E94970661E09E
:103FB000F60187A10E949706D60196968C91969756
:103FC000082E000C990BFC01EF57F54FE491F0E03F
:103FD000EE0FFF1FE75AF54F25913491F60136A7F2
:103FE00025A7FC01EB56F54FE491D396EC93D397BC
:103FF00097968C91082E000C990BFC01EF57F54F0A
:10400000E491F0E0EE0FFF1FE75AF54FA591B49150
:10401000F601B0ABA7A7FC01EB56F54F9491F60162
:1040200094AB8C91E92FE82BEC93D6015B968D91A4
:104030009C91892B09F434C01FB7F89480915C02DD
:10404000811127C0EBE8FAE08491EFE9FAE094915E
:10405000E82FF0E0EE0FFF1FE15BF54FA591B49163
:10406000EC91E92321F461E08AE00E94690661E0B5
:104070008AE00E9497068CB580618CBD8CB5806407
:104080008CBD61E08DE00E94970661E08BE00E94AC
:10409000970680915C028F5F80935C021FBFC7CE42
:1040A00061E0F60184A10E94970661E0D601959631
:1040B0008C910E949706F60184A1082E000C990BA2
:1040C000FC01EF57F54FE491F0E0EE0FFF1FE75AC8
:1040D000F54F25913491D6019A963C932E9399975A
:1040E000FC01EB56F54FE491D196EC93D197959660
:1040F0008C91082E000C990BFC01EF57F54FE491C1
:10410000F0E0EE0FFF1FE75AF54FA591B491F601CD
:10411000B4A7A3A7FC01EB56F54F9491F60192AB1F
:104120008C91E92FE095E823EC9381CEF601838D05
:10413000948D892B21F086AD97AD0E94B30AD601EC
:104140009F96ED91FC91D0979081D4968C9180951B
:1041500089238083AECE8FECE2CE8036910559F470
:1041600086819781409739F482A1813031F480E1D2
:10417000D601DD968C9312E0D6CE8FEAF9CFD60128
:1041800007A4F0A9E02D8081D4969C91892B80838F
:104190005DCCC8010E94121581110AC0D8011B967E
:1041A0001C921B971D961C921D971C961C9281CCED
:1041B00040E060EFC8010E94DE14EE24E394C12CBD
:1041C000B12CFF24F394C8010E948B14D82EC8018F
:1041D0000E948B14B1E0DB122EC0813009F04DC07B
:1041E000E0E4EF1508F061CCD8011B96BC921B9758
:1041F000B11002C01D96AC92F8018381882309F4A6
:1042000054CC3396A5E6B2E0055F1F4F81918D93A4
:104210000E171F07D9F780916502883209F03BCC51
:1042200067E085E692E00E94741490916C02891711
:1042300009F431CC3ECCEC2DF0E0D81214C0D801FA
:104240001B968C911B97F816B0F4AE0FBF1F1396F8
:104250008C918E2191F4D12CB8E0BF1518F0D801C3
:104260001C96FC92BF2CE00FF11F83819E2D909530
:10427000892383830AC08F11EECFF801EC0DF11D65
:1042800083818E298383DD24D3946D2DC8010E9400
:10429000AF14F394EE0C19F4C394EE24E394B7E056
:1042A000BC1508F090CF9CCF83E00E944006892B7C
:1042B00031F482E00E944006892B09F4CFCC0E94A1
:1042C0002A076C197D098E099F09613D7740810598
:1042D00091056CF022E030E030938902209388024F
:1042E00010926D0210926E0202E010E0C9CC83E0E1
:1042F0000E944006892B29F482E00E944006892B07
:10430000F1F683E00E944006892B19F410E000E0EA
:10431000B7CC82E00E944006892BC1F380916D02E8
:10432000882329F010926D0204E010E0A9CC11233B
:1043300069F310926E0203E010E0A2CC8091440376
:10434000909145030E94D0151B012C01E09076024C
:10435000F090770222E0BC01A10183E992E00E9483
:104360008D1660E971E083E992E00E94321622E046
:10437000812C912C5401B501A40183E992E00E94A3
:104380008D1668E671E083E992E00E943216C7015B
:104390000E948717D7011D961C921E921C971F968C
:1043A0001C921E921E9722E0B201A101C7010E9439
:1043B0008D1667EFC7010E94410762E971E0C701EE
:1043C0000E94731722E0B501A401C7010E948D1657
:1043D00064E971E0C7010E943216C7010E9474139C
:1043E0000130110549F480917602909177020E9484
:1043F000A517E4E0F0E0D0CCD0928902C092880208
:10440000CFCC80918002811113C01092790210925A
:10441000780210927B0210927A0210927D02109222
:104420007C0210927F0210927E02F1E0F0938002F3
:1044300080914403909145030E94D0154B015C018B
:104440000330110509F4E8C00430110509F4DAC09D
:10445000E0907602F09077020130110509F0E2C099
:10446000C7010E948717D7011D961C921E921C97A8
:104470001F961C921E921E9766E971E0C7010E946A
:1044800073176CE971E0C7010E947317C7010E949E
:10449000741364EF71E080E090E00E94F806E09011
:1044A0006F02F0907002C701880F991F880F991F43
:1044B000FC01E858FD4F6F018091040190910501C6
:1044C000938382830E940606D6018D939C93BFEF4F
:1044D000EB1AFB0AE2E0EE16F10429F0F09270020A
:1044E000E0926F025DCC1092700210926F02809188
:1044F0007A0290917B029A838983BE016F5F7F4F1E
:1045000090E080E00E940F188091780290917902EB
:104510009A838983BE016F5F7F4F84E090E00E94A1
:104520000F1880917E0290917F029A838983BE0149
:104530006F5F7F4F88E090E00E940F1880917C02AF
:1045400090917D029A838983BE016F5F7F4F8CE0DB
:1045500090E00E940F18C0907802D0907902E0900D
:104560007A02F0907B0260917C0270917D026C195E
:104570007D09072E000C880B990B0E94D5244B0156
:104580005C0160917E0270917F026E197F09072E97
:10459000000C880B990B0E94D5249B01AC01C5012E
:1045A000B4010E9432244B015C0180923C03909242
:1045B0003D03A0923E03B0923F03B601DD0C880B91
:1045C000990B0E94D5241B012C01B701FF0C880B0D
:1045D000990B0E94D524A50194010E948A259B0174
:1045E000AC01C201B1010E94C023609340037093EB
:1045F00041038093420390934303109389020093F5
:104600008802CECB8091040190910501019790938F
:10461000050180930401C4CB8091040190910501B0
:104620000196F5CF00910401109105010E942A071F
:104630001B012C01C7010E948717D7011D961C92F0
:104640001E921C971F961C921E921E9722E0B50187
:10465000A401C7010E948D1667EFC7010E944107A0
:1046600062E971E0C7010E94731780917202909114
:104670007302A0917402B0917502281A390A4A0A8D
:104680005B0AB7E92B1631044104510484F00E94FF
:104690002A0760937202709373028093740290935E
:1046A000750280917102E1E08E2780937102809102
:1046B0007102882309F14801110FAA08BB082AE0FA
:1046C000B501A401B7FE0CC06DE2C7010E9441070D
:1046D00044275527BA01481959096A097B092AE074
:1046E000C7010E94411664EA71E0C7010E943216B8
:1046F000C7010E94741354CB62EA71E0C7010E94A3
:104700003216F1CFF999FECF92BD81BDF89A992763
:1047100080B50895262FF999FECF1FBA92BD81BDAD
:1047200020BD0FB6F894FA9AF99A0FBE0196089533
:10473000A1E21A2EAA1BBB1BFD010DC0AA1FBB1FA5
:10474000EE1FFF1FA217B307E407F50720F0A21B17
:10475000B30BE40BF50B661F771F881F991F1A9484
:1047600069F760957095809590959B01AC01BD01AE
:10477000CF010895EE0FFF1F0590F491E02D0994ED
:104780005058BB27AA270E94D8230C944B250E947F
:104790003D2538F00E94442520F039F49F3F19F45C
:1047A00026F40C943A250EF4E095E7FB0C9434259E
:1047B000E92F0E945C2558F3BA1762077307840734
:1047C000950720F079F4A6F50C947E250EF4E0957B
:1047D0000B2EBA2FA02D0B01B90190010C01CA01BB
:1047E000A0011124FF27591B99F0593F50F4503E66
:1047F00068F11A16F040A22F232F342F4427585F58
:10480000F3CF469537952795A795F0405395C9F76F
:104810007EF41F16BA0B620B730B840BBAF0915027
:10482000A1F0FF0FBB1F661F771F881FC2F70EC0C6
:10483000BA0F621F731F841F48F487957795679599
:10484000B795F7959E3F08F0B0CF9395880F08F085
:104850009927EE0F9795879508950E94102508F4E3
:1048600081E008950E9446240C944B250E94442523
:1048700058F00E943D2540F029F45F3F29F00C9448
:10488000342551110C947F250C943A250E945C2507
:1048900068F39923B1F3552391F3951B550BBB276F
:1048A000AA2762177307840738F09F5F5F4F220FB4
:1048B000331F441FAA1FA9F335D00E2E3AF0E0E8AB
:1048C00032D091505040E695001CCAF72BD0FE2FF5
:1048D00029D0660F771F881FBB1F26173707480789
:1048E000AB07B0E809F0BB0B802DBF01FF27935841
:1048F0005F4F3AF09E3F510578F00C9434250C94AC
:104900007F255F3FE4F3983ED4F3869577956795CE
:10491000B795F7959F5FC9F7880F911D9695879575
:1049200097F90895E1E0660F771F881FBB1F621794
:1049300073078407BA0720F0621B730B840BBA0B52
:10494000EE1F88F7E09508950E94642588F09F5730
:1049500098F0B92F9927B751B0F0E1F0660F771FA3
:10496000881F991F1AF0BA95C9F714C0B13091F099
:104970000E947E25B1E008950C947E25672F782F44
:104980008827B85F39F0B93FCCF38695779567955E
:10499000B395D9F73EF490958095709561957F4FCA
:1049A0008F4F9F4F0895E89409C097FB3EF4909570
:1049B0008095709561957F4F8F4F9F4F9923A9F0F8
:1049C000F92F96E9BB279395F69587957795679587
:1049D000B795F111F8CFFAF4BB0F11F460FF1BC0CB
:1049E0006F5F7F4F8F4F9F4F16C0882311F096E95E
:1049F00011C0772321F09EE8872F762F05C066230C
:104A000071F096E8862F70E060E02AF09A95660FC4
:104A1000771F881FDAF7880F9695879597F908957D
:104A2000990F0008550FAA0BE0E8FEEF16161706BF
:104A3000E807F907C0F012161306E407F50798F027
:104A4000621B730B840B950B39F40A2661F0232B40
:104A5000242B252B21F408950A2609F4A140A695BC
:104A60008FEF811D811D089597F99F6780E870E0A1
:104A700060E008959FEF80EC089500240A941616D4
:104A8000170618060906089500240A94121613063C
:104A9000140605060895092E0394000C11F48823CA
:104AA00052F0BB0F40F4BF2B11F460FF04C06F5FE6
:104AB0007F4F8F4F9F4F089557FD9058440F551FBC
:104AC00059F05F3F71F04795880F97FB991F61F090
:104AD0009F3F79F087950895121613061406551F07
:104AE000F2CF4695F1DF08C0161617061806991F73
:104AF000F1CF86957105610508940895E894BB2768
:104B000066277727CB0197F908950E94102508F4AE
:104B10008FEF08950E949D250C944B250E943D2502
:104B200038F00E94442520F0952311F00C94342590
:104B30000C943A2511240C947F250E945C2570F377
:104B4000959FC1F3950F50E0551F629FF001729F32
:104B5000BB27F00DB11D639FAA27F00DB11DAA1F41
:104B6000649F6627B00DA11D661F829F2227B00D8E
:104B7000A11D621F739FB00DA11D621F839FA00D19
:104B8000611D221F749F3327A00D611D231F849F69
:104B9000600D211D822F762F6A2F11249F575040C0
:104BA0009AF0F1F088234AF0EE0FFF1FBB1F661F3B
:104BB000771F881F91505040A9F79E3F510580F004
:104BC0000C9434250C947F255F3FE4F3983ED4F396
:104BD000869577956795B795F795E7959F5FC1F7A8
:104BE000FE2B880F911D9695879597F908950E9441
:104BF0001025880B990B08950F931F93CF93DF9384
:104C00008230910510F482E090E0E0914A03F09147
:104C10004B0330E020E0B0E0A0E0309799F421159C
:104C2000310509F44AC0281B390B24303105D8F569
:104C30008A819B816115710589F1FB0193838283D0
:104C4000FE0111C04081518102811381481759072B
:104C5000E0F04817590799F4109761F012960C93F9
:104C6000129713961C933296CF01DF91CF911F912B
:104C70000F91089500934A0310934B03F4CF21152D
:104C8000310551F04217530738F0A901DB019A01B1
:104C9000BD01DF01F801C1CFEF01F9CF90934B03C4
:104CA00080934A03CDCFFE01E20FF31F81939193CE
:104CB0002250310939832883D7CF2091480330917E
:104CC0004903232B41F420910801309109013093CD
:104CD00049032093480320910601309107012115D3
:104CE000310541F42DB73EB740910A0150910B01B7
:104CF000241B350BE0914803F0914903E217F307B9
:104D0000A0F42E1B3F0B2817390778F0AC014E5F3B
:104D10005F4F2417350748F04E0F5F1F509349032C
:104D200040934803819391939FCFF0E0E0E09CCFC4
:104D3000CF93DF930097E9F0FC0132971382128240
:104D4000A0914A03B0914B03ED0130E020E01097B1
:104D5000A1F420813181820F931F2091480330916B
:104D600049032817390709F061C0F0934903E0931C
:104D70004803DF91CF910895EA01CE17DF07E8F5E8
:104D80004A815B819E0141155105B1F7E901FB8321
:104D9000EA8349915991C40FD51FEC17FD0761F4BF
:104DA000808191810296840F951FE9019983888300
:104DB000828193819B838A83F0E0E0E012968D915B
:104DC0009C9113970097B9F52D913C911197CD01C6
:104DD0000296820F931F20914803309149032817B0
:104DE000390739F6309751F510924B0310924A0368
:104DF000B0934903A0934803BCCFD383C2834081BF
:104E00005181840F951FC817D90761F44E5F5F4F1A
:104E100088819981480F591F518340838A819B81E2
:104E2000938382832115310509F0B0CFF0934B03B2
:104E3000E0934A039ECFFD01DC01C0CF13821282B2
:104E4000D7CF81E090E0F8940C942D27DC0101C0CD
:0E4E50006D9341505040E0F70895F894FFCF65
:104E5E0040074007040000004C03800000000000E3
:104E6E00F10C480771144B10FC096E0F970F6F0F62
:104E7E008B0F7F0F9E0F6E0FB70A1E136C09B509AD
:104E8E00B70E9A0E220EC30D00000000E807480769
:104E9E0075073508A607840798070000000008115B
:104EAE00DB1071146E0FD410C110B2106E616E0053
:104EBE00696E66006F7666000D0A0043414C4942EA
:104ECE00004D4F44450070482F4543206D65746575
:104EDE007200696E7A796E69657220446F6D750025
:104EEE002C0043003F00504F494E5400534156454D
:0A4EFE00440020002E302070480010
:00000001FF
