:100000000C9457050C94920A0C946B0A0C947F057F
:100010000C947F050C947F050C947F050C947F0550
:100020000C947F050C947F050C947F050C947F0540
:100030000C947F050C947F050C947F050C947F0530
:100040000C94BA190C947F050C94200C0C94FA0BA8
:100050000C947F050C947F050C947F050C947F0510
:100060000C9442120C947F05DB40A4A62EAF200016
:10007000A1C8D300408DAED580A80000600000006C
:100080000000000000000000000000E00000000090
:1000900000000000000000000001E000000000007F
:1000A000000000000000000001F00000000000005F
:1000B0000000000000000003F0000000000000004D
:1000C00000000000000007F0000000000000000039
:1000D000000000000007F800000000000000000021
:1000E000000000000FF800000003C0007E000001C7
:1000F000E0007F0FF800000003C000FE000001E0F8
:1001000000FFEFF800000003C000FE000001E00067
:10011000FFFFF800000003C000F00000000F007FA8
:10012000FE7FC0000003C000F00000000F003FFE93
:100130007FF83FF1FBCFFCFEF3BC3DEFE01FFE7FFD
:10014000FF7FFBFFDFFEFEFFBC3DEFE01FC6FFFFB2
:100150007FFBFFDFFEFEFFBC3DEFE00FE3C7FE7855
:100160007BC3DE1EF0FFBC3DEF0007FF87FC787B02
:10017000C3DE1EF0F83C3DEF0001FFFFF0007BC343
:10018000C01EF0F03C3DEF0001F37FE03FFBC3CF2A
:10019000FEF0F03C3DEF0003E33F807FFBC3DFFE5A
:1001A000F0F03C3DEF0007E73C00787BC3DE1EF03B
:1001B000F03C3DEF0007FFBE00787BC3DE1EF0F091
:1001C0003C3DEF0007FFFE00787BC3DE1EF0F03CF5
:1001D0003DEF000FFFFE007FFBFFDFFEF0F03FFD75
:1001E000EFE00FFFFF007FFBFFDFFEF0F03FFDEFD2
:1001F000E00FF9FF003E79F9CF9EF0F01F3DE7E0F8
:100200001FF1FF0000000000000000000000001FC0
:1002100080FF007FFFFFFFFFFFFFFFFFFFE01C00ED
:100220007F007FFFFFFFFEB46D888D18E000001F88
:10023000007FFFFFFFFE95AD7DB577E000000F006A
:100240007FFFFFFFFEA5AD9D8D19E0000006007F3A
:10025000FFFFFFFEB5ADEDB57EE000000000000140
:10026000800000000000000000000380000000008B
:10027000000000000007C0000000000000000000B7
:1002800007C00000000000000000000FC0000000D8
:100290000000000000001FE000000000000000005F
:1002A000001FE00000000000000000003FE0000030
:1002B000000000000000003FF0000000000000000F
:1002C00000007FF0000000000000001FF87FF00039
:1002D0000000000000003FFE7FF000000000000072
:1002E000003FFF7FF0000000000000001FFFFBE068
:1002F000000000000000000FFFF9FFC00000000038
:1003000000000FFFF9FFF800000000000007FFF1F8
:10031000FFFF00000000000003FC73FFFF800000EF
:1003200000000001FE3FFFFF80000000000000FF12
:100330001E0FFF000000000000007FFE1FFC0000F9
:1003400000000000003FFFFFF80000000000000078
:100350000FDFFFE0000000000000001F19FFC000D9
:100360000000000000003F3CFF0000000000000013
:10037000007E7CF800000000000000007FFE7C0092
:1003800000000000000000FFFFFC00000000000073
:100390000000FFFFFE0000000000000000FFFFFE65
:1003A0000000000000000001FFEFFE000000000060
:1003B000000001FFCFFE0000000000000003FF0767
:1003C000FE0000000000000003FC07FE000000002B
:1003D00000000003F003FE000000000000000180A8
:1003E00000FE000000000000000000007E00000091
:1003F000000000000000003E0000000000000000BF
:1004000000000C000000000000078000FC0000035A
:10041000C0000000078001FC000003C000000007CE
:100420008001FC000003C0000000078001E0000024
:10043000001E000000078001E00000001E007FE3B6
:10044000F79FF9FDE7787BDFC0FFF7FFBFFDFDFFFA
:10045000787BDFC0FFF7FFBFFDFDFF787BDFC0F0DB
:10046000F787BC3DE1FF787BDE00F0F787BC3DE11C
:10047000F0787BDE0000F787803DE1E0787BDE00EE
:100480007FF7879FFDE1E0787BDE00FFF787BFFD08
:10049000E1E0787BDE00F0F787BC3DE1E0787BDED1
:1004A00000F0F787BC3DE1E0787BDE00F0F787BC29
:1004B0003DE1E0787BDE00FFF7FFBFFDE1E07FFB81
:1004C000DFC0FFF7FFBFFDE1E07FFBDFC07CF3F3A0
:1004D0009F3DE1E03E7BCFC0000000000000000037
:1004E000000000FFFFFFFFFFFFFFFFFFFFC0FFFF58
:1004F000FFFFFD68DB111A31C0FFFFFFFFFD2B5A24
:10050000FB6AEFC0FFFFFFFFFD4B5B3B1A33C0FFF1
:10051000FFFFFFFD6B5BDB6AFDC00000000800020F
:10052000010000030407000000000000000022009A
:10053000FF2100000000002300260029000404041D
:10054000040404040402020202020203030303037C
:100550000301020408102040800102040810200159
:100560000204081020005EBCE2613FDD83C29C7E75
:1005700020A3FD1F41009D23BE46DB65F88C11AF13
:1005800032CA57E97400000000240027002A000046
:10059000000000250028002B00000103070F1F3F6B
:1005A0007F0080C0E0F0F8FCFE00000000003E5B31
:1005B0004F5B3E3E6B4F6B3E1C3E7C3E1C183C7EB0
:1005C0003C181C577D571C1C5E7F5E1C00183C1895
:1005D00000FFE7C3E7FF0018241800FFE7DBE7FF91
:1005E00030483A060E2629792926407F050507401E
:1005F0007F05253F5A3CE73C5A7F3E1C1C08081CDF
:100600001C3E7F14227F22145F5F005F5F06097F1C
:10061000017F006689956A606060606094A2FFA2B5
:100620009408047E040810207E201008082A1C0864
:10063000081C2A08081E101010100C1E0C1E0C306E
:10064000383E3830060E3E0E060000000000000066
:100650005F00000007000700147F147F14242A7F26
:100660002A122313086462364956205000080703F3
:1006700000001C2241000041221C002A1C7F1C2A71
:1006800008083E08080080703000080808080800C4
:100690000060600020100804023E5149453E0042BF
:1006A0007F400072494949462141494D331814128F
:1006B0007F1027454545393C4A49493141211109B7
:1006C000073649494936464949291E0000140000A9
:1006D00000403400000008142241141414141400C3
:1006E0004122140802015909063E415D594E7C120F
:1006F00011127C7F494949363E414141227F4141A7
:10070000413E7F494949417F090909013E41415123
:10071000737F0808087F00417F41002040413F016E
:100720007F081422417F404040407F021C027F7FAF
:100730000408107F3E4141413E7F090909063E41C0
:1007400051215E7F09192946264949493203017F13
:1007500001033F4040403F1F2040201F3F403840A2
:100760003F631408146303047804036159494D433B
:10077000007F4141410204081020004141417F04B3
:10078000020102044040404040000307080020549A
:100790005478407F284444383844444428384444FA
:1007A000287F385454541800087E090218A4A49CC9
:1007B000787F0804047800447D40002040403D00DC
:1007C0007F1028440000417F40007C047804787C3E
:1007D000080404783844444438FC182424181824A5
:1007E0002418FC7C08040408485454542404043F8E
:1007F00044243C4040207C1C2040201C3C40304095
:100800003C44281028444C9090907C4464544C44C0
:100810000008364100000077000000413608000261
:10082000010204023C2623263C1EA1A161123A408B
:1008300040207A3854545559215555794122545401
:100840007842215554784020545579400C1E5272FC
:1008500012395555555939545454593955545458D9
:100860000000457C410002457D420001457C407D01
:100870001211127DF0282528F07C54554500205493
:10088000547C547C0A097F4932494949323A4444EC
:10089000443A324A4848303A4141217A3A4240206B
:1008A00078009DA0A07D3D4242423D3D4040403DFC
:1008B0003C24FF2424487E4943662B2FFC2F2BFF2A
:1008C0000929F620C0887E0903205454794100008C
:1008D000447D413048484A32384040227A007A0A02
:1008E0000A727D0D19317D2629292F2826292929CB
:1008F0002630484D402038080808080808080838FD
:100900002F10C8ACBA2F102834FA00007B00000862
:10091000142A142222142A14085500550055AA55E9
:10092000AA55AAFF55FF55FF000000FF0010101048
:10093000FF00141414FF001010FF00FF1010F0103F
:10094000F0141414FC001414F700FF0000FF00FF63
:100950001414F404FC141417101F10101F101F148B
:1009600014141F00101010F0000000001F101010D1
:10097000101F10101010F010000000FF10101010C9
:100980001010101010FF10000000FF140000FF00F6
:10099000FF00001F10170000FC04F41414171017B8
:1009A0001414F404F40000FF00F7141414141414C5
:1009B00014F700F7141414171410101F101F141438
:1009C00014F4141010F010F000001F101F000000AD
:1009D0001F14000000FC140000F010F01010FF10B5
:1009E000FF141414FF141010101F00000000F0106A
:1009F000FFFFFFFFFFF0F0F0F0F0FFFFFF0000004F
:100A00000000FFFF0F0F0F0F0F3844443844FC4A1B
:100A10004A4A347E02020606027E027E026355497D
:100A200041633844443C04407E201E2006027E027E
:100A30000299A5E7A5991C2A492A1C4C7201724CFF
:100A4000304A4D4D303048784830BC625A463D3EC1
:100A5000494949007E0101017E2A2A2A2A2A444462
:100A60005F444440514A444040444A51400000FFE2
:100A70000103E080FF000008086B6B083612362483
:100A800036060F090F0600001818000000101000AD
:100A90003040FF0101001F01011E00191D17120047
:100AA0003C3C3C3C000000000000B720A822112480
:100AB0001FBECFEFD8E0DEBFCDBF11E0A0E0B1E0B8
:100AC000E6EDFCE402C005900D92AE3AB107D9F70D
:100AD00023E0AEEAB1E001C01D92A938B207E1F708
:100AE00015E0C6E5D5E004C02197FE010E94EF2283
:100AF000C535D107C9F70E94041A0C945E260C94E0
:100B000000000895CF92DF92EF92FF920F931F9310
:100B1000CF93DF936C017A018B01C0E0D0E0CE155A
:100B2000DF0581F0D8016D918D01D601ED91FC9129
:100B30000190F081E02DC6010995892B11F02196D5
:100B4000EECF7E01C701DF91CF911F910F91FF90F2
:100B5000EF90DF90CF900895FC01538D448D252FA9
:100B600030E0842F90E0821B930B541710F0CF9647
:100B7000089501970895FC01918D828D981761F079
:100B8000828DDF01A80FB11D5D968C91928D9F5FC4
:100B90009F73928F90E008958FEF9FEF0895FC016F
:100BA000918D828D981731F0828DE80FF11D858D22
:100BB00090E008958FEF9FEF0895FC01918D228DB5
:100BC000892F90E0805C9F4F821B91098F7399273A
:100BD000089584E292E00E94DD0521E0892B09F46A
:100BE00020E0822F0895FC01848DDF01A80FB11D44
:100BF000A35ABF4F2C91848D90E001968F73992753
:100C0000848FA689B7892C93A089B1898C91837030
:100C100080648C93938D848D981306C00288F38929
:100C2000E02D80818F7D80830895EF92FF920F9356
:100C30001F93CF93DF93EC0181E0888F9B8D8C8D88
:100C4000981305C0E889F989808185FD26C0F62EB4
:100C50000B8D10E00F5F1F4F0F731127E02E8C8D4F
:100C6000E8120CC00FB607FCFACFE889F989808139
:100C700085FFF5CFCE010E94F305F1CF8B8DFE01EC
:100C8000E80FF11DE35AFF4FF0829FB7F8940B8FE6
:100C9000EA89FB89808180620AC09FB7F894EE8957
:100CA000FF896083E889F98980818370806480830B
:100CB0009FBF81E090E0DF91CF911F910F91FF9056
:100CC000EF900895CF93DF93EC01888D8823C9F0CE
:100CD000EA89FB89808185FD05C0A889B9898C9145
:100CE00086FD0FC00FB607FCF5CF808185FFF2CFE0
:100CF000A889B9898C9185FFEDCFCE010E94F305BB
:100D0000E7CFDF91CF91089580E090E0892B29F023
:100D10000E94E90581110C9400000895FC0177FD03
:100D2000B9C080859185681779070CF0B3C057FD6D
:100D3000B1C082859385481759070CF008958689BC
:100D4000823079F484819581DC01A61BB70BBD014B
:100D50006150710986819781DC01A41BB50BAD013F
:100D60000EC0833009F084C064277527CA01862726
:100D700097276827792746815781481B590B41508F
:100D800051092130310531F048F12230310509F4A3
:100D90004AC00895CA0157FD07969C01A3E0359506
:100DA0002795AA95E1F7A481B5812A9FC0012B9FC1
:100DB000900D3A9F900D1124680F791F078CF0A1B8
:100DC000E02DE60FF71F4770552781E090E001C046
:100DD000880F4A95EAF79081892B48C0CA0157FDD0
:100DE00007969C0193E0359527959A95E1F7A481A4
:100DF000B5812A9FC0012B9F900D3A9F900D112421
:100E0000680F791F078CF0A1E02DE60FF71F4770E0
:100E1000552781E090E001C0880F4A95EAF7809558
:100E20009081892323C0CA0157FD07969C0183E066
:100E3000359527958A95E1F7A481B5812A9FC00150
:100E40002B9F900D3A9F900D1124680F791F078CEE
:100E5000F0A1E02DE60FF71F4770552781E090E0E5
:100E600001C0880F4A95EAF7908189278083089509
:100E7000813009F086CF64277527462757276427D6
:100E8000752784819581DC01A61BB70BBD016150DC
:100E9000710977CF08950895FC016370668B848192
:100EA000958126813781613039F0633029F091874F
:100EB00080873387228708953187208793878287A9
:100EC00008956F927F928F929F92AF92BF92CF922E
:100ED000DF92EF92FF920F931F93CF93DF93EC017A
:100EE0004B015A0169013801E881F9810284F385D7
:100EF000E02D0995E881F9810288F389E02D8701C9
:100F00009601A501B401CE010995A501460D571D15
:100F100041505109E881F9810288F389E02D960159
:100F2000B401CE010995E881F9810088F189E02DAD
:100F30009301A501B401CE010995C80CD91CB601D5
:100F400061507109E881F9810088F189E02D9301F0
:100F5000A501CE010995E881F9810688F789E02D80
:100F6000CE01DF91CF911F910F91FF90EF90DF9015
:100F7000CF90BF90AF909F908F907F906F9009948B
:100F80008F929F92AF92BF92CF92DF92EF92FF9299
:100F90000F931F93CF93DF934C016B015A01E9012B
:100FA000DC01ED91FC916217730781F404171507BA
:100FB00024F48B2D5801042F182F0A191B099801AE
:100FC0002F5F3F4F048CF58DE02D12C04017510765
:100FD00009F52617370724F48D2D6901C62FD82F60
:100FE0009E012C193D092F5F3F4F068CF78DE02D98
:100FF0008701A501B601C4010995DF91CF911F9129
:101000000F91FF90EF90DF90CF90BF90AF909F90A7
:101010008F9008950284F385E02D0995D401ED9118
:10102000FC910488F589E02D9E01A501B601C4015B
:101030000995D401ED91FC910688F789E02DC40152
:10104000DF91CF911F910F91FF90EF90DF90CF90A4
:10105000BF90AF909F908F900994EF92FF920F9363
:101060001F93DC011A960D911C911B9718962D91D8
:101070003C911997ED91FC9100A0F1A1E02D7B012D
:1010800040E050E060E070E009951F910F91FF9003
:10109000EF9008954F925F926F927F928F929F92FE
:1010A000AF92BF92CF92DF92EF92FF920F931F9376
:1010B000CF93DF936C012B015A0139014801DC0108
:1010C000ED91FC910284F385E02D0995E201640C19
:1010D000751CD601ED91FC91C615D7055CF400880E
:1010E000F189E02D87019401A501BE01C601099592
:1010F0002196EFCF0688F789E02DC601DF91CF91C9
:101100001F910F91FF90EF90DF90CF90BF90AF9025
:101110009F908F907F906F905F904F9009948F92E7
:101120009F92AF92BF92CF92DF92EF92FF920F9376
:101130001F93CF93DF93EC015B014A016901E881C2
:10114000F9810284F385E02D099595012C0D3D1D53
:1011500021503109E881F9810488F589E02D780171
:101160008401A401B501CE010995E881F9810688C1
:10117000F789E02DCE01DF91CF911F910F91FF9064
:10118000EF90DF90CF90BF90AF909F908F90099499
:101190008F929F92AF92BF92CF92DF92EF92FF9287
:1011A0000F931F93CF93DF93EC015B014A01690119
:1011B0007801E881F9810284F385E02D0995C80C56
:1011C000D91C860101501109E881F9810488F5894B
:1011D000E02D9501A401B501CE010995E881F981C1
:1011E0000688F789E02DCE01DF91CF911F910F91F5
:1011F000FF90EF90DF90CF90BF90AF909F908F9037
:10120000099408950E9452260F931F93CF93DF9362
:10121000DC015696EC915697E23071F0E330E9F03C
:10122000E13079F5FB0114960D90BC91A02DA41B23
:10123000B50BA21BB30B18C0EC01EC81FD81E61BC2
:10124000F70BBF0161507109EE81FF81DF01A41B23
:10125000B50BAD01421B530B14C0DA01EC01EE815A
:10126000FF81E61BF70B3197F7FD0DC0EC014E81B6
:101270005F81E417F5073CF4AF01BD010E94C4177C
:1012800002C00E942B18DF91CF911F910F910895FA
:101290000F931F93DC015696EC915697E23061F064
:1012A000E33009F1E13081F51496ED91FC91159749
:1012B000E41BF50B319723C0DC011496ED91FC91F2
:1012C0001597DF01A61BB70BBD01DC011696ED914A
:1012D000FC911797DF01A41BB50BAD0141505109DB
:1012E000621B730B11C0FA01DC0116964D915C91E3
:1012F0001797DA01A61BB70BBD01621B730BAB017D
:10130000BF010E942B180CC057FD0AC0DC011696C5
:10131000ED91FC9117974E175F0714F40E94C417C4
:101320001F910F9108958F929F92AF92CF92EF925B
:10133000FF920F931F93CF93DF93EC01262F898D9C
:101340009A8D009709F042C06A3059F41D861C86B8
:101350002D898E859F8538E0239F800D911D112456
:1013600043C06D3009F4AAC08F898823C9F03C8935
:101370008C859D8546E0349F800D911D1124488504
:1013800059854817590764F41D861C863D898E854A
:101390009F8548E0349F800D911D11249F878E8783
:1013A000EA88FB88088919894E855F856C857D856B
:1013B000AD88CC88CE010E9490152C898C859D85A6
:1013C00036E0239F800D911D11243EC06A3079F4D0
:1013D0001D861C862D89FC013896E4918E859F859B
:1013E0002E9F800D911D11249F878E8767C06D30C1
:1013F00009F464C0FC0134963491631708F45EC0AC
:101400003296E491E61708F459C0462F431B342F57
:10141000FC0132968590949047E0349F800C911C9B
:101420001124F401329634913196E491332311F072
:10143000E1110DC0F4013496E4912C898C859D85D1
:10144000E29F800D911D11249D878C8737C0F40188
:10145000359644915F89552319F15C89E32FF0E0BB
:10146000E40FF11D47FDFA955E9FB0015F9F700D7F
:1014700011244C855D85460F571F68857985641753
:10148000750774F41D861C863D89FC013896E4912D
:101490008E859F853E9F800D911D11249F878E878D
:1014A000EA88FB88088919894E855F856C857D856A
:1014B000AD88CC88CE010E949015BCCF81E090E031
:1014C000DF91CF911F910F91FF90EF90CF90AF9050
:1014D0009F908F9008951F920F920FB60F92112434
:1014E0002F933F934F935F936F937F938F939F932C
:1014F000AF93BF93EF93FF93E0910201F09103014B
:101500000995FF91EF91BF91AF919F918F917F913D
:101510006F915F914F913F912F910F900FBE0F9060
:101520001F9018951F920F920FB60F9211242F93B0
:101530003F934F935F936F937F938F939F93AF935B
:10154000BF93EF93FF93E0910001F09101010995A2
:10155000FF91EF91BF91AF919F918F917F916F918B
:101560005F914F913F912F910F900FBE0F901F9061
:101570001895DC01ED91FC910190F081E02D09942A
:101580006115710579F0FB0101900020E9F73197B1
:10159000AF01461B570BDC01ED91FC910280F381FA
:1015A000E02D099480E090E008958F929F92AF9291
:1015B000BF92EF92FF920F931F93CF93DF93CDB71C
:1015C000DEB7A1970FB6F894DEBF0FBECDBF7C018A
:1015D000FA01CB0119A2223008F42AE08E010F5D36
:1015E0001F4F822E912CA12CB12CBF01A50194017B
:1015F0000E94CD22F901CA01015011096A3014F488
:10160000605D01C0695CD8016C93232B242B252BD2
:1016100061F7B801C7010E94C00AA1960FB6F894FD
:10162000DEBF0FBECDBFDF91CF911F910F91FF9015
:10163000EF90BF90AF909F908F9008957F928F9280
:101640009F92AF92BF92CF92DF92EF92FF920F9351
:101650001F93CF93DF938C016A017B01722E9A0155
:10166000AB01C701B6010E942C25882319F061EA5D
:1016700071E027C046015701E894B7F82FEF3FEF1C
:101680004FE75FE7C501B4010E942C2581110DC011
:101690002FEF3FEF4FE75FE7C501B4010E946223E0
:1016A00018161CF465EA71E00CC02FEF3FEF4FE70E
:1016B0005FE4C701B6010E94BA24181694F469EADF
:1016C00071E0C801DF91CF911F910F91FF90EF90D2
:1016D000DF90CF90BF90AF909F908F907F900C94B1
:1016E000C00A2FEF3FEF4FE75FECC701B6010E9442
:1016F000622387FDE4CF20E030E0A901C701B601F5
:101700000E94622387FF0AC06DE2C8010E94B90AE5
:10171000EC01F7FAF094F7F8F09402C0C0E0D0E0E2
:10172000B12C60E070E080E09FE37B1441F020E0AA
:1017300030E040E251E40E946723B394F6CFA70162
:1017400096010E94F6226B017C010E94D9234B0175
:101750005C012AE0AB01BC01C8010E94D50AC80F98
:10176000D91F7720C1F1C501B4010E9408249B0153
:10177000AC01C701B6010E94F5226B017C016EE24B
:10178000C8010E94B90AC80FD91F20E030E040E22A
:1017900051E4C701B6010E94BF244B015C010E94C5
:1017A000D9236B01E12CF12C2AE0B701A601C80175
:1017B0000E94D50AC80FD91FC701B6010E9408248C
:1017C0009B01AC01C501B4010E94F5226B017C01B3
:1017D0007A947110DACFCE01DF91CF911F910F91E2
:1017E000FF90EF90DF90CF90BF90AF909F908F9041
:1017F0007F9008951F920F920FB60F9211242F938E
:101800003F934F935F936F937F938F939F93AF9388
:10181000BF93EF93FF9384E292E00E94F305FF9160
:10182000EF91BF91AF919F918F917F916F915F9158
:101830004F913F912F910F900FBE0F901F901895D1
:101840001F920F920FB60F9211242F938F939F9395
:10185000EF93FF93E0913402F09135028081E091A3
:101860003A02F0913B0282FD12C0908180913D02CC
:101870008F5F8F7320913E02821751F0E0913D02FD
:10188000F0E0EC5DFD4F958F80933D0201C08081BB
:10189000FF91EF919F918F912F910F900FBE0F901D
:1018A0001F90189508958EBD00000DB407FEFDCF62
:1018B0008EB508951F93CF93DF93FC01858D968D90
:1018C000009729F1162FEF0121A131E0309300029A
:1018D000209322021092010210922302DC01ED916A
:1018E000FC910190F081E02D60E009958D8D9E8D39
:1018F000DC01ED91FC910190F081E02D612F0995C3
:101900008D8D9E8DDF91CF911F910C941A0DA5A501
:10191000B6A59C9183A9809589238C93838D948D02
:10192000892B31F0862FDF91CF911F910C94530CAE
:1019300028E030E080E8A1A5B2A591A9462F482370
:1019400019F04C91942B03C04C91909594239C9347
:10195000A3A5B4A54C9192A9942B9C93A3A5B4A53F
:101960004C9192A9909594239C938695215031098E
:1019700011F7DF91CF911F9108958CBD9DBD089502
:101980001F93CF93DF93EC01162F8D8D9E8D892BA6
:10199000B1F02DA93EA94FA958AD60E074E284EFE3
:1019A00090E00E94CD22DA01C9014097A109B10956
:1019B000B695A795979587958093B8000FC08B8DA6
:1019C0009C8D892B21F08EAD9FAD0E94BD0CEFA5A3
:1019D000F8A990818CA9809589238083111102C078
:1019E00066EA01C067EACE010E945A0C8D8D9E8D79
:1019F000892BB1F029AD3AAD4BAD5CAD60E074E23E
:101A000084EF90E00E94CD22DA01C9014097A1093C
:101A1000B109B695A795979587958093B80006C0AC
:101A2000EFA5F8A990818CA9892B8083DF91CF91B4
:101A30001F91089530912302313208F04BC08091FC
:101A4000FF018111FCCF9091220222E02093FF013F
:101A500021E02093FE012FEF2093FD011092FC0165
:101A60003093FB01E2E0F2E0ABEDB1E020E03217B1
:101A700021F041914D932F5FFACF1092DA0120911E
:101A8000DA01990F922B9093DA019091D90191305C
:101A900061F41092D9019091DA019093BB0090917A
:101AA000BC0093FDF8CF95EC01C095EE9093BC007F
:101AB0009091FF019230E1F39091FD019F3F79F009
:101AC0008091FD01803241F08091FD01803331F041
:101AD00084E005C081E003C082E001C083E0109291
:101AE000010210922302109200020895DF92EF92F9
:101AF000FF920F931F93CF93DF93D82ED92FC62F2A
:101B00008091E6029091E702009709F454C0209179
:101B1000EA0231E030930002209322021092010287
:101B200010922302DC01ED91FC910190F081E02DF7
:101B300060E00995ED2CFD2E11E0D1E08091E602E8
:101B40009091E702CC2371F11032C8F00E941A0D77
:101B50008091EA02D0930002809322021092010247
:101B6000109223028091E6029091E702DC01ED9150
:101B7000FC910190F081E02D60E0099511E08091E9
:101B8000E6029091E702F7016491DC01ED91FC918E
:101B90000190F081E02D09951F5FC150BFEFEB1A56
:101BA000FB0ACCCFDF91CF911F910F91FF90EF9067
:101BB000DF900C941A0DE091F602F091F7029081FB
:101BC0008091FC028095892380830D2D1D2FCC23CD
:101BD00009F439C0F80184912091E4023091E502C2
:101BE000232B31F00E94530CC1500F5F1F4FEFCFDA
:101BF00028E030E040E8E091F202F091F3029091A9
:101C0000FA02582F542319F05081952B03C05081AC
:101C1000909595239083E091F402F091F502508124
:101C20009091FB02952B9083E091F402F091F502E4
:101C300050819091FB029095952390834695215079
:101C40003109C9F6D1CFDF91CF911F910F91FF904C
:101C5000EF90DF900895EF92FF920F931F93CF9331
:101C6000DF938091E6029091E702892BD1F02091D9
:101C7000FE023091FF02409100035091010360E0A9
:101C800074E284EF90E00E94CD22DA01C90140970E
:101C9000A109B109B695A795979587958093B80046
:101CA00016C08091E4029091E502892B31F0809179
:101CB0000703909108030E94BD0CE091F802F09197
:101CC000F90290818091FD0280958923808365E0EF
:101CD0008EE295E00E94760D6091CD02615089EC14
:101CE00092E00E945A0C2091CF023091D002C9019B
:101CF000079697FD079633E0959587953A95E1F716
:101D00002091CD023091CE02829F8001839F100DE1
:101D1000929F100D1124C091E802D091E9028091A8
:101D2000E6029091E7020C0F1D1F009709F44CC0CA
:101D30002091EA0231E030930002209322021092B7
:101D4000010210922302DC01ED91FC910190F081DF
:101D5000E02D60E40995FF24F394EE24E394809150
:101D6000E6029091E7020C171D0759F1BFE1BF157C
:101D7000D0F40E941A0D8091EA02E0920002809352
:101D8000220210920102109223028091E6029091A9
:101D9000E702DC01ED91FC910190F081E02D60E41F
:101DA0000995FF24F3948091E6029091E7026991EE
:101DB000DC01ED91FC910190F081E02D0995F39407
:101DC000CECF0E941A0D41C0E091F602F091F702C9
:101DD00090818091FC02892B80830C171D07A9F14B
:101DE00089912091E4023091E502232B19F00E94A1
:101DF000530CF3CF28E030E040E8E091F202F0919C
:101E0000F3029091FA02582F542319F05081952B28
:101E100003C05081909595239083E091F402F09156
:101E2000F50250819091FB02952B9083E091F40292
:101E3000F091F50250819091FB029095952390834B
:101E4000469521503109C9F6C8CF8091E60290919C
:101E5000E702892BD1F020910203309103034091D6
:101E600004035091050360E074E284EF90E00E9467
:101E7000CD22DA01C9014097A109B109B695A7950C
:101E8000979587958093B80017C0E091F802F0917C
:101E9000F90290818091FD02892B80838091E40278
:101EA0009091E502892B41F0DF91CF911F910F9125
:101EB000FF90EF900C94520CDF91CF911F910F91F6
:101EC000FF90EF9008952091CF023091D002C90188
:101ED000079697FD079623E0959587952A95E1F754
:101EE0002091CD023091CE02829FA001839F500DA0
:101EF000929F500D112460E070E08091E802909173
:101F0000E9020C9457263F924F925F926F927F9214
:101F10008F929F92AF92BF92CF92DF92EF92FF92F9
:101F20000F931F93CF93DF9300D000D000D0CDB795
:101F3000DEB72C013B014A015901C901079697FD03
:101F400007969C0193E0359527959A95E1F73C8398
:101F50002B83C12CD12CE12CF12C312CC3018E0D03
:101F60009F1D9A838983E016F106C4F51E821D82A7
:101F70002D813E812A153B054CF5C90187709927B3
:101F8000892B11F0330C0EC0ED81FE81F7FD3796E1
:101F900083E0F595E7958A95E1F7EC0DFD1DE80DD9
:101FA000F91D349037FE0CC021E030E049815A81A0
:101FB0006D817E81640D751D89EC92E00E94AE10EA
:101FC0008D819E8101969E838D83D2CF9FEFE91AEA
:101FD000F90A2B813C81C20ED31EC0CF26960FB6C4
:101FE000F894DEBF0FBECDBFDF91CF911F910F914F
:101FF000FF90EF90DF90CF90BF90AF909F908F9029
:102000007F906F905F904F903F900895CF93DF93B4
:10201000BC0189EC92E00E94C00AEC016EE971E01B
:1020200089EC92E00E94C00A8C0F9D1FDF91CF9136
:102030000895CF93DF93EDE1F5E08491E4E5F5E0D9
:10204000D491E0E4F5E0C491CC2391F081110E9499
:10205000E018EC2FF0E0EE0FFF1FED5CFA4FA591BA
:10206000B491EC91ED2381E090E021F480E002C096
:1020700080E090E0DF91CF910895CF92DF92EF92D0
:10208000FF920F931F93CF93DF936B01770FEE08AF
:10209000FF08F7FE1BC0EC016DE20E94B90A8C013B
:1020A00044275527BA014C195D096E097F092AE0BA
:1020B000CE010E94D50A800F911FDF91CF911F9111
:1020C0000F91FF90EF90DF90CF9008952AE0B70135
:1020D000A601DF91CF911F910F91FF90EF90DF90BC
:1020E000CF900C94D50A81E480937C0080917A0093
:1020F000806480937A0080917A0086FDFCCF809185
:1021000078002091790090E0922B0895EF92FF9251
:102110000F931F93DC01ED91FC9100A0F1A1E02D44
:1021200009951F910F91FF90EF9008950F931F93C2
:10213000DC01ED91FC91068CF78DE02D09951F9146
:102140000F9108950F931F93DC01ED91FC91048C86
:10215000F58DE02D09951F910F910895DC01ED910A
:10216000FC910084F185E02D09942F923F924F92CB
:102170005F926F927F928F929F92AF92BF92CF9217
:10218000DF92EF92FF920F931F93CF93DF9300D0D4
:1021900000D000D0CDB7DEB72C017E836D836A01FD
:1021A0005901C801FC82EB824801841A950A97FE06
:1021B00003C091948194910835012D813E81621A6A
:1021C000730A77FE03C071946194710868147904EE
:1021D0005CF43A2D2B2D5C01832F922F3D812E81B3
:1021E000DE82CD82C32ED22EAD81BE81AA16BB0661
:1021F0005CF43C2D2D2D6C01832F922F3D812E817F
:10220000BE82AD82A32EB22E85012D813E81021B9E
:10221000130B1C012C183D0837FE03C03194219488
:102220003108780117FF03C03FEFE31AF30AF59472
:10223000E794C816D9062CF08FEF9FEF9A83898315
:1022400004C0A1E0B0E0BA83A9832D813E81A2162B
:10225000B30624F1D201ED91FC910484F585E02DC3
:102260002B813C816814790424F44D815E81B60190
:1022700003C0A6016D817E81C2010995E218F308B1
:10228000F7FE06C029813A81C20ED31EE00EF11E70
:102290008D819E8101969E838D83D7CF26960FB622
:1022A000F894DEBF0FBECDBFDF91CF911F910F918C
:1022B000FF90EF90DF90CF90BF90AF909F908F9066
:1022C0007F906F905F904F903F902F90089585ED95
:1022D0008093BC008091BC0084FDFCCF1092FF0174
:1022E000089540915903262F30E0240F311D2132EB
:1022F0003105DCF42091FF012430C9F4FC0180E0B9
:1023000090E0861758F4309159032191DC01A75CC5
:10231000BC4FA30FB11D2C930196F3CF80915903AD
:10232000680F6093590380E0089581E0089582E08A
:10233000089508950895E091B3018091B201E817DE
:1023400030F4F0E0E75EFC4F808190E008958FEF7D
:102350009FEF08959091B3018091B201981750F4C6
:10236000E92FF0E0E75EFC4F208130E09F5F909323
:10237000B30102C02FEF3FEFC90108958091B20170
:1023800090E02091B301821B91090895CF92DF92D2
:10239000EF92FF920F931F93CF93DF937C01CB01BA
:1023A0008A0120910002222389F0EB016B01C40E07
:1023B000D51ECC15DD0569F06991D701ED91FC9131
:1023C0000190F081E02DC7010995F3CF642F0E94A1
:1023D0007111C801DF91CF911F910F91FF90EF9084
:1023E000DF90CF900895CF93DF931F92CDB7DEB7E4
:1023F0006983209100022223D1F020912302203210
:1024000040F021E030E0FC013383228380E090E063
:1024100015C080910102E82FF0E0EE5FFD4F998139
:1024200090838F5F809301028093230205C061E057
:10243000CE0101960E94711181E090E00F90DF9132
:10244000CF910895089580E090E008950E94AE191C
:102450006093B4017093B5018093B6019093B70176
:1024600081E08093B80108950E94AE196093B40191
:102470007093B5018093B6019093B70181E080938A
:10248000B90108951F920F920FB60F9211242F9346
:102490003F934F935F936F937F938F939F93AF93EC
:1024A000BF93EF93FF938091B900887F803609F442
:1024B0009CC068F5883209F45BC090F4803109F45F
:1024C00054C038F4882309F4F6C0883009F44DC0AC
:1024D000F6C0883109F44CC0803209F45DC0EFC009
:1024E000803409F468C048F4803309F455C0883357
:1024F00009F0E5C08093FD01D8C0803509F44FC0D4
:10250000883509F45DC0883409F0D9C0D6C088394F
:1025100009F4C7C0A8F4883709F467C038F48836CE
:1025200009F463C0803709F460C0C9C0883809F471
:10253000B8C0803909F45FC0803809F0C0C05BC002
:10254000803B09F486C038F4803A09F466C0883AC2
:1025500009F47FC0B4C0803C09F4A7C0883C09F4EA
:10256000A4C0883B09F48AC0AAC08091DA0110C0D7
:102570009091FC018091FB01981770F5E091FC01AE
:1025800081E08E0F8093FC01F0E0E552FE4F8081E8
:102590008093BB0085EC86C08093FD018EC0E091E6
:1025A000FC0181E08E0F8093FC018091BB00F0E084
:1025B000E552FE4F80839091FC018091FB016EC03B
:1025C000E091FC0181E08E0F8093FC018091BB00C3
:1025D000F0E0E552FE4F80838091FE0181116DC0D5
:1025E00081E08093D90184EA61C083E08093FF0198
:1025F00010927B03CFCF80917B03803208F051C0D3
:10260000E0917B0381E08E0F80937B038091BB0080
:10261000F0E0E55AFC4F8083BDCF85EC8093BC0091
:102620001092FF0180917B03803230F4E0917B03B4
:10263000F0E0E55AFC4F108260917B0370E0E0917E
:10264000AE01F091AF018BE593E0099510927B0309
:1026500036C084E08093FF0110925A031092590310
:10266000E091B001F091B101099580915903811178
:1026700005C081E08093590310923903E0915A0319
:1026800081E08E0F80935A03F0E0E75CFC4F80817D
:102690008093BB0090915A0380915903981708F4D6
:1026A00079CF85E88093BC000AC085EC8093BC009C
:1026B0001092FF0104C01092FD010E946711FF916A
:1026C000EF91BF91AF919F918F917F916F915F91AA
:1026D0004F913F912F910F900FBE0F901F90189523
:1026E000DC0180E0615098F02D91982F9227E92F1E
:1026F000EF70F0E0EB59FA4F249192959F70E92F1B
:10270000F0E0EB58FA4FE491822F8E27EBCF08953B
:10271000FC0190810180F281E02DF8948181892B68
:1027200081832281892F809528232283A7E0B0E02E
:102730001197F1F7218182238183A3E2B0E0119701
:10274000F1F780817894EFECF0E03197F1F798237E
:1027500081E009F480E00895FC0190810180F2811C
:10276000E02D892F809560FF12C0F894228182238A
:1027700082838181892B8183A3E2B0E01197F1F7F5
:102780008281982B9283789487ED90E011C0F89421
:102790002281822382838181892B8183AFEFB0E004
:1027A0001197F1F78281982B928378948FE090E0D3
:1027B0000197F1F70895DF92EF92FF920F931F9325
:1027C000CF93DF93EC01D62EE42E08E010E0FF2437
:1027D000F39461E08D2D8F2109F460E0CE010E9419
:1027E000AC13FF0C01501109A1F7E11010C0F894CF
:1027F000E981FA8191818881809589238183E981AA
:10280000FA81928188818095892382837894DF91EF
:10281000CF911F910F91FF90EF90DF900895DC0111
:102820002C911196ED91FC911297F8948181922F41
:1028300090958923818378948DE743E050E081501F
:1028400021F1DA011197F1F730813223C1F3F894C5
:102850008281892382838181822B81837894ABE773
:10286000B7E01197F1F7F89481819823918383E180
:1028700091E00197F1F78081282381E009F080E061
:102880007894E3E6F6E03197F1F70895EF92FF923E
:102890000F931F93CF93DF93EC01162F0E940F1419
:1028A000882349F11C3CA1F078F4153519F540E076
:1028B00065E5CE010E94DB138E010F5E1F4F7E0186
:1028C00089E1E80EF11C0AC01C3E11F0103F91F4A2
:1028D00040E0612FCE010E94DB130AC0F801619134
:1028E0008F0140E0CE010E94DB130E151F05B1F7EA
:1028F00081E001C080E0DF91CF911F910F91FF90A7
:10290000EF9008958F929F92AF92BF92CF92DF92F5
:10291000EF92FF920F931F93CF93DF93EC0165E546
:102920000E944614882329F040E06EEBCE010E94FD
:10293000DB138E01075E1F4F5E0182E2A80EB11C01
:10294000480188E0C82ED12CF12CEE24E394CE016E
:102950000E9488138111FE28EE0CE1E0CE1AD10806
:10296000B1F7F801F1928F01EA15FB0551F768E024
:10297000C4010E94701391E029A1281390E0892FCF
:10298000DF91CF911F910F91FF90EF90DF90CF904B
:10299000BF90AF909F908F9008951F93CF93DF9338
:1029A000EC011BA165E50E944614882339F041E043
:1029B000111140E064E4CE010E94DB138BA1882357
:1029C00031F0CE010E9488138823D9F31FC08AA159
:1029D0008A3089F038F48930C9F46EE570E080E01F
:1029E00090E012C08B3061F08C3081F46EEE72E0BA
:1029F00080E090E009C06CEB70E080E090E004C003
:102A000067E771E080E090E00E947419CE010E94B7
:102A10008214898D6A8D9AA19A3031F09B3031F001
:102A2000993029F4887F03C08C7F01C08E7F70E0CD
:102A3000762F6627680F711D072E000C880B990BE7
:102A40000E940A2420E030E040E85DE30E94BF24B9
:102A5000DF91CF911F9108950F931F93CF93DF9331
:102A60008C01EB010E94B7228883C80101960E9465
:102A7000B7228983CE01DF91CF911F910F910895E5
:102A8000AF92BF92DF92EF92FF920F931F93CF937B
:102A9000DF93EC017B018B015C0182E0A80EB11C8D
:102AA000F801D1908F01CE010E94B722D81621F0F3
:102AB0006D2DCE010E94BF222196CA15DB0581F73C
:102AC000C701DF91CF911F910F91FF90EF90DF90A1
:102AD000BF90AF9008953FB7F89480918103909193
:102AE0008203A0918303B091840326B5A89B05C0FF
:102AF0002F3F19F00196A11DB11D3FBFBA2FA92F7D
:102B0000982F8827820F911DA11DB11DBC01CD01F9
:102B100042E0660F771F881F991F4A95D1F70895E5
:102B20002F923F924F925F926F927F928F929F92DD
:102B3000AF92BF92CF92DF92EF92FF920F931F93CB
:102B4000CF93DF93CDB7DEB76B970FB6F894DEBFA8
:102B50000FBECDBF9B8F8A8F1B014A01D22E1987D2
:102B600008873701A982DC0159962D913C915A972B
:102B70002115310509F0FFC018968D919C91199788
:102B8000681779070CF0E7C11A968D919C911B97F5
:102B9000481759070CF0DFC1EC2DF0E0FB83EA8306
:102BA0009B0146E0C49E200D311D11243D872C87DA
:102BB000121613060CF0CFC16A2D70E07B876A876E
:102BC00083E0660F771F8A95E1F77F876E87CB01D9
:102BD000880D991D181619060CF0BDC158968C91D8
:102BE000811104C08FEA8D1508F4D394AA8DBB8D92
:102BF000ED91FC9111970284F385E02DCD010995AB
:102C0000B5E0DB9EC0011124EC2DF0E0F98BE88BE0
:102C100091012B5F3F4F3B8B2A8B3D822C82210100
:102C2000AC01421953095D8B4C8B7981672F70E0A1
:102C30007F8B6E8BC4010896998F888FEC89FD89F4
:102C4000E40DF51DE755FA4FD49054019F828E8212
:102C5000D0FE16C0AA8DBB8DED91FC91B1E0CB12D8
:102C600009C02981213031F40484F585E02D2885BF
:102C7000398519C00684F785E02DE884F9841DC0E4
:102C8000488559854615570519F1AA8DBB8DED91DB
:102C9000FC91B1E0CB120DC02981213051F40484A4
:102CA000F585E02D9301A501B2018A8D9B8D0995D3
:102CB0000FC00684F785E02D73010A851B852A81E4
:102CC0003B814E815F816C817D818A8D9B8D0995D1
:102CD000D6943FEFA31AB30A4E815F816E897F8934
:102CE000460F571F5F834E83888D998DA816B906AE
:102CF00009F0AECF9FEF491A590AAC81BD81E8892E
:102D0000F989AE0FBF1FBD83AC832A893B89421668
:102D1000530609F093CF488559854615570509F4A0
:102D2000F8C0AA8DBB8DED91FC91B1E0CB1211C022
:102D30002981213071F4B1016B5F7F4F0088F189E7
:102D4000E02D830128E030E0A4018A8D9B8D099558
:102D5000E0C06C857D854A815B81641B750B0684B0
:102D6000F785E02D73010E851F859A01A4018A8DD8
:102D70009B8D0995CEC0F9013496E491DE1AF901D4
:102D8000329685919491B7E0DB9E800D911D1124C0
:102D9000F901259134913B8B2A8BFC0125913491CB
:102DA0005901FC0132965490319634913C87329609
:102DB00074903196149141E04C1518F059815230BD
:102DC00068F0672D072C000C770B7D836C83812FB7
:102DD000012E000C990B9B838A8304C01B821A82EC
:102DE0001D821C82AA8DBB8DED91FC9111970284EE
:102DF000F385E02DCD010995412CD12C612CF98171
:102E0000EF2FF0E0FF83EE832C2D30E03B872A8705
:102E1000A401410F511D17FD5A955F8B4E8BB101D7
:102E2000670D711D77FC7A95798F688F7C856716A1
:102E300008F06FC0262D30E04A815B81420F531F9E
:102E4000AE81BF81A49FC001A59F900DB49F900D3E
:102E50001124F401E80FF91FF98BE88B842D712CF4
:102E60004E895F89420F531F5D8B4C8B751408F0A0
:102E70004DC051E0580F5E87877041F4C50101963F
:102E8000EA89FB89EA0DFB1DD4905C01D7FE3AC0AC
:102E900061E0C61216C07981713099F4AA8DBB8D9C
:102EA000ED91FC9111970484F585E02D28853985F5
:102EB0004C895D89688D798D670D711DCD010995EE
:102EC00021C08C819D81870D911DEA85FB858E9F98
:102ED000B0018F9F700D9E9F700D1124620D731DA8
:102EE000AA8DBB8DED91FC9111970684F785E02D9D
:102EF000E884F9840E811F812A853B854889598998
:102F0000CD010995DD0C73948E85B0CF450C63948B
:102F10008DCFAA8DBB8DED91FC9111970688F78915
:102F2000E02DCD016B960FB6F894DEBF0FBECDBF7E
:102F3000DF91CF911F910F91FF90EF90DF90CF9095
:102F4000BF90AF909F908F907F906F905F904F90C9
:102F50003F902F9009946B960FB6F894DEBF0FBE8A
:102F6000CDBFDF91CF911F910F91FF90EF90DF9038
:102F7000CF90BF90AF909F908F907F906F905F9019
:102F80004F903F902F9008950F931F93CF93DF930F
:102F900077FF04C0260F371F60E070E0DC01149655
:102FA000CD91DC911597FB01E20FF31FCE17DF07E0
:102FB0001CF49E01261B370B121613060CF046C09C
:102FC000FA0157FD3796DF01E3E0B595A795EA953D
:102FD000E1F7AC9FF001AD9FF00DBC9FF00D112407
:102FE0006E0F7F1FDC015F96ED91FC919097E60FCD
:102FF000F71F4770552781E090E001C0880F4A9580
:10300000EAF7482F0130110539F078F00230110548
:10301000E9F42E0F3F1F13C02E0F3F1FE217F307D7
:10302000A9F08081842B8193F9CF80952E0F3F1FCB
:10303000E217F30759F0908198239193F9CFE217A3
:10304000F30721F0808184278193F9CFDF91CF911D
:103050001F910F910895EF92FF920F931F93CF93BB
:10306000DF93EC0177FDA5C0EC80FD806E157F0538
:103070000CF09FC057FF04C0240F351F40E050E004
:103080008E819F81FA01E20FF31F8E179F071CF4B8
:103090009C01241B350B121613060CF08AC0922FCC
:1030A000842F8695869586958E9DD0018F9DB00D37
:1030B00011246A0F7B1FAF8DB8A1A60FB71F4770F1
:1030C000B1F188E0841B482F682F70E0FB01EF55B9
:1030D000FA4FE491281798F4621B71092FEF30E042
:1030E00002C0359527956A95E2F7E2230130110574
:1030F00049F078F00230110509F05BC00EC00130D4
:10310000110519F48C91E82B0AC00130110508F063
:1031100049C0E0958C91E82302C08C91E827EC939C
:10312000941708F446C02C813D81A20FB31FE92FEC
:10313000E41BE830F8F00230110561F48E2F9C9109
:1031400090959C932C813D81A20FB31F88508830AD
:10315000B0F70FC081E00115110509F480E08195F9
:103160009E2F8C932C813D81A20FB31F98509830D5
:10317000C0F7E770EE23E9F0F0E0E756FA4FE4918C
:103180000130110539F048F00230110591F48C91AD
:10319000E82706C08C91E82B03C0E0958C91E823CA
:1031A000EC9307C00230110509F4B7CFAE0DBF1D77
:1031B000BECFDF91CF911F910F91FF90EF900895B7
:1031C000833081F028F4813099F08230A1F00895A5
:1031D0008730A9F08830B9F08430D1F48091800034
:1031E0008F7D03C0809180008F7780938000089549
:1031F00084B58F7702C084B58F7D84BD089580919A
:10320000B0008F7703C08091B0008F7D8093B000B5
:1032100008951F93CF93DF93282F30E0F901E65EE6
:10322000FA4F8491F901EF5AFA4FD491F901E35C16
:10323000FA4FC491CC23C1F0162F81110E94E018DF
:10324000EC2FF0E0EE0FFF1FE157FA4FA591B4917C
:103250009FB7F894111104C08C91D095D82302C067
:10326000EC91DE2BDC939FBFDF91CF911F910895EE
:10327000CF93DF9390E0FC01EF5AFA4F2491FC01C9
:10328000E35CFA4F8491882361F190E0880F991FE5
:10329000FC01EB57FA4FC591D491FC01E157FA4F6D
:1032A000A591B491611109C09FB7F89488812095C8
:1032B00082238883EC912E230BC0623061F49FB788
:1032C000F8948881322F309583238883EC912E2BBC
:1032D0002C939FBF06C08FB7F894E8812E2B2883CC
:1032E0008FBFDF91CF9108958F929F92AF92BF923F
:1032F000CF92DF92EF92FF926B017C010E946B15DF
:103300004B015C01C114D104E104F104F1F00E940D
:103310006B15DC01CB0188199909AA09BB09883E04
:103320009340A105B10570F321E0C21AD108E1086C
:10333000F10888EE880E83E0981EA11CB11CC11410
:10334000D104E104F10419F7DDCFFF90EF90DF9095
:10335000CF90BF90AF909F908F9008952FB7F89423
:1033600060917D0370917E0380917F039091800333
:103370002FBF08951F920F920FB60F9211242F9313
:103380003F938F939F93AF93BF9380917D039091D1
:103390007E03A0917F03B091800330917C0323E0F2
:1033A000230F2D3720F40196A11DB11D05C026E87D
:1033B000230F0296A11DB11D20937C0380937D03F2
:1033C00090937E03A0937F03B09380038091810349
:1033D00090918203A0918303B09184030196A11D73
:1033E000B11D8093810390938203A0938303B093D4
:1033F0008403BF91AF919F918F913F912F910F9037
:103400000FBE0F901F901895CF93DF9300D000D080
:10341000CDB7DEB7789484B5826084BD84B5816011
:1034200084BD85B5826085BD85B5816085BD80918F
:103430006E00816080936E00109281008091810007
:1034400082608093810080918100816080938100FF
:10345000809180008160809380008091B1008460C1
:103460008093B1008091B00081608093B000809122
:103470007A00846080937A0080917A0082608093E1
:103480007A0080917A00816080937A0080917A003E
:10349000806880937A001092C100E0913402F0912C
:1034A000350282E08083E0913002F0913102108297
:1034B000E0913202F09133028FEC808310923C0253
:1034C000E0913802F091390286E08083E091360283
:1034D000F0913702808180618083E0913602F09123
:1034E0003702808188608083E0913602F091370254
:1034F000808180688083E0913602F091370280817C
:103500008F7D8083E0910B03F0910C031386158669
:103510001486DF011B9633961E92AE17BF07E1F7A4
:10352000AA24A39400910B0310910C03F801858544
:1035300081116DC0C8010E940F14882309F467C06F
:1035400040E060EFC8010E94DB13EE24E394C12C3D
:10355000B12CFF24F394C8010E948813D82EC8010F
:103560000E948813F1E0DF1203C08130C1F437C03C
:103570002C2D30E0D8121DC0F8018385F81630F4E8
:10358000E20FF31F83818E2151F402C08F1539F0B1
:10359000D12CF8E0FF1560F0F801F48609C0F801BD
:1035A000EC0DF11D83818E298383DD24D39409C022
:1035B000BF2CF801E20FF31F93818E2D8095892394
:1035C00083836D2DC8010E94AC13F394EE0C19F4A3
:1035D000C394EE24E394F7E0FC1508F0BCCF20E49C
:1035E0002F15A8F4F801B386B11001C0A586F80123
:1035F0008381882361F0F8013396AAEBB1E0055F7F
:103600001F4F81918D930E171F07D9F705C0F80141
:103610001386158614860FC08091BA01883209F08E
:1036200081CF67E08AEB91E00E9470139091C10115
:10363000891709F477CF8091E8029091E902892BEC
:1036400011F52091CF023091D002C901079697FD64
:10365000079623E0959587952A95E1F72091CD026D
:103660003091CE02AC01429FC001439F900D529F0A
:10367000900D11240E9431259093E9028093E80275
:10368000892B09F42CC10E94630F2091CF02309145
:10369000D0028091CD029091CE02213231050CF4FE
:1036A0002DC3B9016054710977FF02C06F5F7F4F6E
:1036B000759567958255910997FD019600E410E094
:1036C00022E530E04AE552E0959587950E94830F08
:1036D00082E08093EB028091E6029091E702892BD1
:1036E00009F420C38CE38093EA021092B301109294
:1036F000B20110920102109223021092FF0181E0A8
:103700008093FE011092D90161E082E10E940919C3
:1037100061E083E10E9409198091B9008E7F809356
:10372000B9008091B9008D7F8093B90088E48093BF
:10373000B80085E48093BC0089E991E19093B101E0
:103740008093B0018AE991E19093AF018093AE013B
:103750008091F10287FD1EC061E00E94381961E08E
:103760008091F1020E94091961E070E080E090E030
:103770000E94741960E08091F1020E9409196AE0C8
:1037800070E080E090E00E94741961E08091F102A5
:103790000E9409198091E6029091E702892B09F4B1
:1037A00080C32091FE023091FF02409100035091AE
:1037B000010360E074E284EF90E00E94CD22DA0120
:1037C000C9014097A109B109B695A7959795879525
:1037D0008093B80064E086E790E00E94760D6091E7
:1037E000CF02615089EC92E00E945A0C64E082E7BB
:1037F00090E00E94760D8091EB02813009F068C361
:1038000060E189EC92E00E945A0C64E08EE690E060
:103810000E94760D8FE8809306038091CD029091EF
:10382000CE028038910509F057C38091CF02909164
:10383000D0028034910509F061C38091EB028130A0
:1038400009F048C38FE98093060312E16AED89EC21
:1038500092E00E945A0C612F89EC92E00E945A0C6F
:1038600061E889EC92E00E945A0C6091060389ECB1
:1038700092E00E945A0C69ED89EC92E00E945A0C89
:103880008091EB02813009F03BC362E289EC92E067
:103890000E945A0C66E088E690E00E94760D8091C6
:1038A000E6029091E702892B09F42CC320910203D0
:1038B00030910303409104035091050360E074E2EA
:1038C00084EF90E00E94CD22DA01C9014097A1095E
:1038D000B109B695A795979587958093B8000E94F2
:1038E000630F12E01093DD021093DE0281E090E09E
:1038F0009093DC028093DB029093DA028093D902EA
:103900000E942B0E0E94630F1092D6021092D502D5
:103910001092D8021092D7028EE591E00E94061014
:1039200081E08093DD028093DE0287E691E00E94D1
:1039300006100E942B0E1093DD021093DE02BE01D2
:103940006D5F7F4F80E090E00E942C15BE016F5F9D
:103950007F4F84E090E00E942C1509811A81EB8052
:10396000FC80BE016D5F7F4F88E090E00E942C15C7
:10397000BE016F5F7F4F8CE090E00E942C156B8141
:103980007C816E197F09072E000C880B990B0E9411
:103990000A244B015C0169817A81601B710B072E3F
:1039A000000C880B990B0E940A249B01AC01C501F5
:1039B000B4010E9467234B015C016093C1027093C4
:1039C000C2028093C3029093C402B701FF0C880B1C
:1039D000990B0E940A246B017C01B801110F880B1E
:1039E000990B0E940A24A50194010E94BF249B0107
:1039F000AC01C701B6010E94F5226093C502709325
:103A0000C6028093C7029093C80262E083E00E94DE
:103A1000381962E082E00E94381984E392E19093C1
:103A200003018093020180916900837F8860809305
:103A30006900E99A86E292E1909301018093000186
:103A4000809169008C7F826080936900E89A882465
:103A500083949924939422242394312C92E0A92EC8
:103A6000B12C9091D8018091B901992309F488C0B3
:103A70009091D001911112C01092C9011092C80109
:103A80001092CB011092CA011092CD011092CC017C
:103A90001092CF011092CE019092D001811104C0FA
:103AA0008091B8018823A1F010E00E941910892BA1
:103AB00009F03BC20E941910892B09F036C280918F
:103AC000B9018111D5C28091B8018111D1C22DC235
:103AD00000910401109105010E94AE192B013C01D7
:103AE0008091090390910A030E94CD146B017C011F
:103AF0000E94630F1092D6021092D5021092D80243
:103B00001092D70222E0B701A60189EC92E00E9450
:103B10001E0B67EF89EC92E00E94B90A81E891E000
:103B20000E9406108091C4019091C501A091C60128
:103B3000B091C701481A590A6A0A7B0A57E9451623
:103B40005104610471047CF00E94AE196093C401B9
:103B50007093C5018093C6019093C7018091C30102
:103B600088258093C3018091C301882309F4C1C0D3
:103B7000B80189EC92E00E943D1063E871E0B5C0A5
:103B8000811104C08091B8018823D1F10E94AE193F
:103B90000091B4011091B5012091B6013091B701A7
:103BA000DC01CB01801B910BA20BB30B893E934030
:103BB000A105B105B4F09092D8010E94630F109254
:103BC000D6021092D5021092D8021092D70289E83C
:103BD00091E00E9406108FE891E00E9406100E947A
:103BE0002B0E0E941910892B09F098C20E941910FF
:103BF000892B09F093C28091D80181118FC2C6CF61
:103C00008091090390910A030E94CD146B017C01FD
:103C10000E9473108C01BC01990F880B990B0E94B4
:103C20000A242091C1023091C2024091C3025091F6
:103C3000C4020E94BF242091C5023091C602409167
:103C4000C7025091C8020E94F6222B013C0164E990
:103C500071E084E292E00E94C00A22E0B701A6016E
:103C600084E292E00E941E0B6CE971E084E292E033
:103C70000E94C00AB80184E292E00E943D106CE903
:103C800071E084E292E00E94C00A22E0B301A20146
:103C900084E292E00E941E0B6EE971E084E292E001
:103CA0000E94C00A0E94630F1092D6021092D502A1
:103CB0001092D8021092D70222E0B701A60189EC37
:103CC00092E00E941E0B67EF89EC92E00E94B90A15
:103CD00081E891E00E94061022E0B301A20189EC84
:103CE00092E00E941E0B66E871E089EC92E00E946F
:103CF000C00A0E942B0E0E948406B3CEB901605206
:103D0000710977FF02C06F5F7F4F75956795835785
:103D1000910997FD019600E210E023E730E04AE7C1
:103D200050E0D2CC61E08091EF020E94381961E04E
:103D30008091F0020E9438198091EF02082E000C49
:103D4000990BFC01E35CFA4FE491F0E0EE0FFF1FEA
:103D5000E157FA4F259134913093F7022093F60200
:103D6000FC01EF5AFA4FE491E093FC028091F002DB
:103D7000082E000C990BFC01E35CFA4FE491F0E093
:103D8000EE0FFF1FE157FA4FA591B491B093F902DE
:103D9000A093F802FC01EF5AFA4FE491E093FD0280
:103DA0008C91E82BEC938091E4029091E502892BB1
:103DB00009F434C01FB7F8948091C201811127C063
:103DC000E7E4F5E08491EBE5F5E09491E82FF0E08D
:103DD000EE0FFF1FEB57FA4FA591B491EC91E92339
:103DE00021F461E08AE00E94091961E08AE00E9402
:103DF00038198CB580618CBD8CB580648CBD61E058
:103E00008DE00E94381961E08BE00E9438198091A2
:103E1000C2018F5F8093C2011FBF9ACC61E0809185
:103E2000ED020E94381961E08091EE020E9438197B
:103E30008091ED02082E000C990BFC01E35CFA4F17
:103E4000E491F0E0EE0FFF1FE157FA4F2591349116
:103E50003093F3022093F202FC01EF5AFA4FE491FF
:103E6000E093FA028091EE02082E000C990BFC01FF
:103E7000E35CFA4FE491F0E0EE0FFF1FE157FA4FD9
:103E8000A591B491B093F502A093F402FC01EF5A0E
:103E9000FA4FE491E093FB028C91E095E823EC93D8
:103EA00057CC8091E4029091E502892B31F080910A
:103EB0000703909108030E94BD0CE091F802F09175
:103EC000F90290818091FD0280958923808382CCC4
:103ED00064E197CC8FECB7CC8036910579F4809172
:103EE000CF029091D002409749F48091EB0281304B
:103EF00011F480E101C08FEA8093060312E0A6CCA2
:103F000061EFC4CCE091F802F091F90290818091C8
:103F1000FD02892B80838091E4029091E502892B38
:103F200009F4DDCC0E94520CDACC2091B9018091C9
:103F3000040190910501222311F0019601C001971F
:103F400090930501809304011092B9011092B80179
:103F5000112309F4BDCD3092070120920601109281
:103F6000D8018091CA019091CB019A838983BE01C7
:103F70006F5F7F4F80E090E00E9440158091C80104
:103F80009091C9019A838983BE016F5F7F4F84E05E
:103F900090E00E9440158091CE019091CF019A83CC
:103FA0008983BE016F5F7F4F88E090E00E944015DB
:103FB0008091CC019091CD019A838983BE016F5F7E
:103FC0007F4F8CE090E00E944015E090C801F09097
:103FD000C9010091CA011091CB016091CC0170918F
:103FE000CD016E197F09072E000C880B990B0E94DA
:103FF0000A242B013C016091CE017091CF01601B1E
:10400000710B072E000C880B990B0E940A249B0150
:10401000AC01C301B2010E9467232B013C016093F4
:10402000C1027093C2028093C3029093C402B7018D
:10403000FF0C880B990B0E940A246B017C01B801CC
:10404000110F880B990B0E940A24A30192010E9470
:10405000BF249B01AC01C701B6010E94F522609309
:10406000C5027093C6028093C7029093C80243CEE4
:104070000E94AE194090B4015090B5016090B60115
:104080007090B701DC01CB0184199509A609B70925
:10409000893E9340A105B1050CF407CD111105CD62
:1040A0002091060130910701809104019091050152
:1040B0002130310579F49093CB018093CA010E949D
:1040C00073109093C9018093C801B0920701A09228
:1040D00006010BC09093CF018093CE010E94731014
:1040E0009093CD018093CC0111E00E94630F109258
:1040F000D6021092D5021092D8021092D70285E70C
:1041000091E00E9406108BE791E00E9406100E9449
:104110002B0E1092B9011092B801C7CC1092B901C0
:104120001092B801E8CDCF93DF93EC0160E084E01A
:104130000E943819E5E5F5E0E491E883E1E4F5E073
:10414000E491F0E0EE0FFF1FED5CFA4F8591949142
:104150009A8389831B861D861C86FE013B962396C7
:104160001292EC17FD07E1F7DF91CF9108956F925E
:104170007F928F929F92AF92BF92CF92DF92EF92F7
:10418000FF920F931F93CF93DF9310922702109209
:10419000260288EE93E0A0E0B0E08093280290939E
:1041A0002902A0932A02B0932B0222E131E030933E
:1041B00025022093240225EC30E030933102209335
:1041C000300224EC30E0309333022093320220ECB2
:1041D00030E0309335022093340221EC30E030930C
:1041E00037022093360222EC30E0309339022093DC
:1041F000380226EC30E030933B0220933A021092D2
:104200003D0210923E0210923F0210924002109224
:10421000100310920F038093110390931203A09345
:104220001303B093140384E291E090930E03809300
:104230000D038EE090E00E943125EC010E94932056
:10424000D0930C03C0930B038EE290E00E943125C3
:10425000EC010E9493201CA61DA66CECCE010E94CE
:104260004614882329F040E064EBCE010E94DB1362
:10427000CE010E9488138F87812C912C5401839446
:10428000662463948E010C5D1F4F7E0181E1E80E70
:10429000F11C8DA58111E2C060EFCE010E94461491
:1042A000882309F4DBC0712CD12CCE010E94881325
:1042B000C82ECE010E948813CC2021F0882311F053
:1042C0001CA644C04D2D47702D2D2695269526956C
:1042D00030E0C110C8C08111D6C08CA5D81609F431
:1042E000C0C08D1508F4CEC0FE01E20FF31F84A1FB
:1042F00090E0042E02C0959587950A94E2F780FF1E
:10430000C1C0AFC08D2D869586958695F801E80FC2
:10431000F11D608170E08D2D877002C075956795E5
:104320008A95E2F76170CE010E94AC13D39480E4C9
:10433000D81609F4CDC0CE010E948813C82ECE0134
:104340000E948813CC20F1F28823E1F2D0930A0373
:10435000C09309031092CC021092CB0220E830E007
:104360003093CE022093CD0280E290E09093D00271
:104370008093CF023093D2022093D1029093D40243
:104380008093D3021092DF021092D6021092D502CF
:104390001092D8021092D70281E08093DE028093BF
:1043A000DD022FEF3FEF3093DC022093DB023093EE
:1043B000DA022093D9028093E0021092E102109277
:1043C000E3021092E20286E391E09093CA028093A6
:1043D000C9021092E5021092E4028DE093E09093FE
:1043E000E7028093E6021092E9021092E8028FEF52
:1043F0008093ED028093EE028093EF028093F002AF
:104400008093F10280E89AE1A6E0B0E08093FE029A
:104410009093FF02A0930003B093010380EA96E813
:10442000A1E0B0E08093020390930303A093040300
:10443000B093050380E58093070310920803DF9192
:10444000CF911F910F91FF90EF90DF90CF90BF9091
:10445000AF909F908F907F906F9008951CA61DA69F
:1044600075CFCC24C394FE01E20FF31FD501C40124
:1044700004C0880F991FAA1FBB1F4A95D2F724A119
:10448000822B10C07D2CFE01E20FF31FD501C40169
:1044900004C0880F991FAA1FBB1F4A95D2F78095A9
:1044A00094A1892384A36C2DCE010E94AC13D394D4
:1044B00080E4D812FACE7CA6711001C06DA660EF20
:1044C000CE010E944614882309F440CFD12C33CF6B
:1044D00088E0F801D70101900D928A95E1F7CE01AD
:1044E0000E948214882309F431CFCE010E949322C6
:1044F0008AA365E5CE010E944614882329F040E096
:1045000064EBCE010E94DB13CE010E9488138BA3C3
:10451000CE010E9493229E85981708F48E87888981
:104520008F5F888BB6CEFC01858D8F3351F018F4E8
:104530008F3151F008C08F3549F08F3721F48CE06E
:1045400008958AE00895089589E008958BE008951C
:1045500086E391E09093CA028093C9028091E802B9
:104560009091E902009711F00C94C9250895F999EA
:10457000FECF92BD81BDF89A992780B50895262F68
:10458000F999FECF1FBA92BD81BD20BD0FB6F89438
:10459000FA9AF99A0FBE01960895A1E21A2EAA1B63
:1045A000BB1BFD010DC0AA1FBB1FEE1FFF1FA217E3
:1045B000B307E407F50720F0A21BB30BE40BF50BE0
:1045C000661F771F881F991F1A9469F76095709569
:1045D000809590959B01AC01BD01CF010895EE0F30
:1045E000FF1F0590F491E02D09945058BB27AA278E
:1045F0000E940D230C9480240E94722438F00E94A3
:10460000792420F039F49F3F19F426F40C946F2498
:104610000EF4E095E7FB0C946924E92F0E949124A5
:1046200058F3BA17620773078407950720F079F4E7
:10463000A6F50C94B3240EF4E0950B2EBA2FA02D02
:104640000B01B90190010C01CA01A0011124FF273F
:10465000591B99F0593F50F4503E68F11A16F0403A
:10466000A22F232F342F4427585FF3CF4695379539
:104670002795A795F0405395C9F77EF41F16BA0BFE
:10468000620B730B840BBAF09150A1F0FF0FBB1FAC
:10469000661F771F881FC2F70EC0BA0F621F731FF5
:1046A000841F48F4879577956795B795F7959E3F52
:1046B00008F0B0CF9395880F08F09927EE0F9795E3
:1046C000879508950E94452408F481E008950E948A
:1046D0007B230C9480240E94792458F00E94722439
:1046E00040F029F45F3F29F00C94692451110C9497
:1046F000B4240C946F240E94912468F39923B1F39D
:10470000552391F3951B550BBB27AA2762177307F7
:10471000840738F09F5F5F4F220F331F441FAA1F8B
:10472000A9F335D00E2E3AF0E0E832D09150504047
:10473000E695001CCAF72BD0FE2F29D0660F771FF5
:10474000881FBB1F261737074807AB07B0E809F0DB
:10475000BB0B802DBF01FF2793585F4F3AF09E3F60
:10476000510578F00C9469240C94B4245F3FE4F371
:10477000983ED4F3869577956795B795F7959F5FA3
:10478000C9F7880F911D9695879597F90895E1E0EF
:10479000660F771F881FBB1F621773078407BA074E
:1047A00020F0621B730B840BBA0BEE1F88F7E095A9
:1047B00008950E94992488F09F5798F0B92F99275F
:1047C000B751B0F0E1F0660F771F881F991F1AF0FC
:1047D000BA95C9F714C0B13091F00E94B324B1E08A
:1047E00008950C94B324672F782F8827B85F39F089
:1047F000B93FCCF3869577956795B395D9F73EF495
:1048000090958095709561957F4F8F4F9F4F08953C
:10481000E89409C097FB3EF490958095709561955A
:104820007F4F8F4F9F4F9923A9F0F92F96E9BB2710
:104830009395F695879577956795B795F111F8CF8C
:10484000FAF4BB0F11F460FF1BC06F5F7F4F8F4FF7
:104850009F4F16C0882311F096E911C0772321F0ED
:104860009EE8872F762F05C0662371F096E8862F85
:1048700070E060E02AF09A95660F771F881FDAF7DC
:10488000880F9695879597F90895990F0008550F09
:10489000AA0BE0E8FEEF16161706E807F907C0F0C6
:1048A00012161306E407F50798F0621B730B840BCE
:1048B000950B39F40A2661F0232B242B252B21F4A8
:1048C00008950A2609F4A140A6958FEF811D811D48
:1048D000089597F99F6780E870E060E008959FEF82
:1048E00080EC089500240A94161617061806090687
:1048F000089500240A941216130614060506089556
:10490000092E0394000C11F4882352F0BB0F40F4DD
:10491000BF2B11F460FF04C06F5F7F4F8F4F9F4F1D
:10492000089557FD9058440F551F59F05F3F71F09F
:104930004795880F97FB991F61F09F3F79F0879506
:104940000895121613061406551FF2CF4695F1DF8F
:1049500008C0161617061806991FF1CF869571051F
:10496000610508940895E894BB2766277727CB0153
:1049700097F908950E94452408F48FEF08950E9446
:10498000D2240C9480240E94722438F00E9479244E
:1049900020F0952311F00C9469240C946F241124B9
:1049A0000C94B4240E94912470F3959FC1F3950F49
:1049B00050E0551F629FF001729FBB27F00DB11DA3
:1049C000639FAA27F00DB11DAA1F649F6627B00D33
:1049D000A11D661F829F2227B00DA11D621F739F1C
:1049E000B00DA11D621F839FA00D611D221F749F2A
:1049F0003327A00D611D231F849F600D211D822F71
:104A0000762F6A2F11249F5750409AF0F1F0882397
:104A10004AF0EE0FFF1FBB1F661F771F881F9150C4
:104A20005040A9F79E3F510580F00C9469240C94E6
:104A3000B4245F3FE4F3983ED4F386957795679569
:104A4000B795F795E7959F5FC1F7FE2B880F911DEE
:104A50009695879597F908950E944524880B990BA0
:104A600008950F931F93CF93DF938230910510F435
:104A700082E090E0E0918703F091880320E030E04D
:104A8000A0E0B0E0309719F140815181028113819B
:104A900048175907C8F08417950769F4109731F043
:104AA00012960C93129713961C9327C000938703BA
:104AB0001093880322C02115310519F042175307BE
:104AC00018F49A01BD01EF01DF01F801DBCF2115D8
:104AD0003105F9F0281B390B2430310580F48A8127
:104AE0009B816115710521F0FB019383828304C0D2
:104AF0009093880380938703FE01329644C0FE01A1
:104B0000E20FF31F81939193225031093983288357
:104B10003AC02091850330918603232B41F42091E4
:104B20000A0130910B013093860320938503209175
:104B30000801309109012115310541F42DB73EB727
:104B400040910C0150910D01241B350BE091850320
:104B5000F0918603E217F307A0F42E1B3F0B2817F2
:104B6000390778F0AC014E5F5F4F2417350748F0E6
:104B70004E0F5F1F5093860340938503819391935B
:104B800002C0E0E0F0E0CF01DF91CF911F910F91E3
:104B90000895CF93DF93009709F481C0FC01329709
:104BA00013821282A0918703B0918803109781F439
:104BB00020813181820F931F2091850330918603DC
:104BC0002817390751F5F0938603E093850367C0F2
:104BD000ED0120E030E0CE17DF0740F44A815B8131
:104BE0009E0141155105F1F0EA01F5CFD383C2834F
:104BF00040815181840F951FC817D90759F48881C6
:104C00009981840F951F0296918380838A819B816D
:104C1000938382832115310529F4F0938803E0936F
:104C200087033DC0E901FB83EA8349915991C40F91
:104C3000D51FEC17FD0761F480819181840F951FCA
:104C40000296E90199838883828193819B838A8379
:104C5000E0E0F0E012968D919C911397009719F087
:104C6000FD01DC01F7CF8D919C9111979D012E5F85
:104C70003F4F820F931F20918503309186032817A1
:104C8000390769F4309729F410928803109287034A
:104C900002C013821282B0938603A0938503DF9132
:104CA000CF91089581E090E0F8940C945E26DC01A9
:104CB00001C06D9341505040E0F7089515E0C6E5FE
:104CC000D5E004C0FE010E94EF222196C735D1072E
:064CD000C9F7F894FFCFC4
:104CD6008105810504000100000089032000000011
:104CE600000015068205AC056206DD05BB05CF058D
:104CF60000000000F311C61123120109BE11AA110A
:104D06009B110000000093098205231222128E06D1
:104D16000109AE108610A2109610B51001094C07B5
:104D2600C00C040948094A082D08C00761077048E5
:104D3600206D6574657200696E7A796E6965722098
:104D4600446F6D7500504F494E54005341564544CB
:104D56000043002E302070480043414C4942004D2C
:104D66004F4445006D656173757265003B000D0A21
:0E4D7600006E616E00696E66006F766600006A
:00000001FF
