:100000000C9457050C9457180C9430180C947F05D9
:100010000C947F050C947F050C947F050C947F0550
:100020000C947F050C947F050C947F050C947F0540
:100030000C947F050C947F050C947F050C947F0530
:100040000C94E6170C947F050C94A4180C947E185D
:100050000C947F050C947F050C947F050C947F0510
:100060000C94D6180C947F05005EBCE2613FDD83E2
:10007000C29C7E20A3FD1F41009D23BE46DB65F888
:100080008C11AF32CA57E97400000000003E5B4F8C
:100090005B3E3E6B4F6B3E1C3E7C3E1C183C7E3CE8
:1000A000181C577D571C1C5E7F5E1C00183C1800F6
:1000B000FFE7C3E7FF0018241800FFE7DBE7FF3086
:1000C000483A060E2629792926407F050507407FF4
:1000D00005253F5A3CE73C5A7F3E1C1C08081C1C67
:1000E0003E7F14227F22145F5F005F5F06097F015D
:1000F0007F006689956A606060606094A2FFA29448
:1001000008047E040810207E201008082A1C080815
:100110001C2A08081E101010100C1E0C1E0C303863
:100120003E3830060E3E0E06000000000000005F64
:1001300000000007000700147F147F14242A7F2A80
:100140001223130864623649562050000807030042
:10015000001C2241000041221C002A1C7F1C2A088E
:10016000083E0808008070300008080808080000F1
:1001700060600020100804023E5149453E00427F65
:10018000400072494949462141494D331814127FB4
:100190001027454545393C4A494931412111090754
:1001A0003649494936464949291E000014000000D5
:1001B00040340000000814224114141414140041A7
:1001C00022140802015909063E415D594E7C121164
:1001D000127C7F494949363E414141227F4141419C
:1001E0003E7F494949417F090909013E4141517317
:1001F0007F0808087F00417F41002040413F017F88
:10020000081422417F404040407F021C027F7F044F
:1002100008107F3E4141413E7F090909063E415198
:10022000215E7F09192946264949493203017F0188
:10023000033F4040403F1F2040201F3F4038403F89
:10024000631408146303047804036159494D43009F
:100250007F4141410204081020004141417F0402D6
:10026000010204404040404000030708002054546D
:1002700078407F284444383844444428384444284B
:100280007F385454541800087E090218A4A49C789E
:100290007F0804047800447D40002040403D007FFA
:1002A0001028440000417F40007C047804787C08DA
:1002B0000404783844444438FC18242418182424AE
:1002C00018FC7C08040408485454542404043F4493
:1002D000243C4040207C1C2040201C3C4030403CC2
:1002E00044281028444C9090907C4464544C440022
:1002F0000836410000007700000041360800020186
:100300000204023C2623263C1EA1A161123A404071
:10031000207A3854545559215555794122545478EE
:1003200042215554784020545579400C1E52721287
:100330003955555559395454545939555454580010
:1003400000457C410002457D420001457C407D1214
:1003500011127DF0282528F07C5455450020545476
:100360007C547C0A097F4932494949323A44444421
:100370003A324A4848303A4141217A3A424020785C
:10038000009DA0A07D3D4242423D3D4040403D3C5D
:1003900024FF2424487E4943662B2FFC2F2BFF0982
:1003A00029F620C0887E0903205454794100004476
:1003B0007D413048484A32384040227A007A0A0A61
:1003C000727D0D19317D2629292F282629292926D4
:1003D00030484D4020380808080808080808382F19
:1003E00010C8ACBA2F102834FA00007B00000814A3
:1003F0002A142222142A14085500550055AA55AA79
:1004000055AAFF55FF55FF000000FF00101010FF18
:1004100000141414FF001010FF00FF1010F010F073
:10042000141414FC001414F700FF0000FF00FF1464
:1004300014F404FC141417101F10101F101F1414B0
:10044000141F00101010F0000000001F10101010FA
:100450001F10101010F010000000FF1010101010EE
:1004600010101010FF10000000FF140000FF00FF2C
:1004700000001F10170000FC04F4141417101714C8
:1004800014F404F40000FF00F714141414141414EA
:10049000F700F7141414171410101F101F1414145D
:1004A000F4141010F010F000001F101F0000001FC7
:1004B00014000000FC140000F010F01010FF10FFFA
:1004C000141414FF141010101F00000000F010FF8F
:1004D000FFFFFFFFF0F0F0F0F0FFFFFF0000000073
:1004E00000FFFF0F0F0F0F0F3844443844FC4A4AF7
:1004F0004A347E02020606027E027E0263554941AC
:10050000633844443C04407E201E2006027E0202E2
:1005100099A5E7A5991C2A492A1C4C7201724C30F6
:100520004A4D4D303048784830BC625A463D3E49CD
:100530004949007E0101017E2A2A2A2A2A44445F71
:10054000444440514A444040444A51400000FF0165
:1005500003E080FF000008086B6B08361236243673
:10056000060F090F060000181800000010100030D8
:1005700040FF0101001F01011E00191D1712003C60
:100580003C3C3C0000000000000103070F1F3F7FC0
:100590000080C0E0F0F8FCFE00000008000201004E
:1005A000000304070000000000000000000000003D
:1005B0002300260029002200FF2100000000002463
:1005C0000027002A00DB40A4A62EAF2000A1C8D33C
:1005D00000408DAED580A8010204081020408001A3
:1005E0000204081020010204081020000000002569
:1005F0000028002B00040404040404040402020282
:100600000202020303030303030000600000000072
:1006100000000000000000000000E00000000000FA
:10062000000000000000000001E0000000000000E9
:100630000000000000000001F000000000000000C9
:1006400000000000000003F00000000000000000B7
:10065000000000000007F0000000000000000000A3
:100660000000000007F8000000000000000000008B
:100670000000000FF800000003C0007E000001E051
:10068000007F0FF800000003C000FE000001E00042
:10069000FFEFF800000003C000FE000001E000FFD3
:1006A000FFF800000003C000F00000000F007FFE14
:1006B0007FC0000003C000F00000000F003FFE7F7D
:1006C000F83FF1FBCFFCFEF3BC3DEFE01FFE7FFFE8
:1006D0007FFBFFDFFEFEFFBC3DEFE01FC6FFFF7F9D
:1006E000FBFFDFFEFEFFBC3DEFE00FE3C7FE787BC4
:1006F000C3DE1EF0FFBC3DEF0007FF87FC787BC325
:10070000DE1EF0F83C3DEF0001FFFFF0007BC3C0B0
:100710001EF0F03C3DEF0001F37FE03FFBC3CFFE56
:10072000F0F03C3DEF0003E33F807FFBC3DFFEF0D2
:10073000F03C3DEF0007E73C00787BC3DE1EF0F0A5
:100740003C3DEF0007FFBE00787BC3DE1EF0F03CAF
:100750003DEF0007FFFE00787BC3DE1EF0F03C3D5E
:10076000EF000FFFFE007FFBFFDFFEF0F03FFDEF2D
:10077000E00FFFFF007FFBFFDFFEF0F03FFDEFE04B
:100780000FF9FF003E79F9CF9EF0F01F3DE7E01F23
:10079000F1FF0000000000000000000000001F80CA
:1007A000FF007FFFFFFFFFFFFFFFFFFFE01C007F59
:1007B000007FFFFFFFFEB46D888D18E000001F0072
:1007C0007FFFFFFFFE95AD7DB577E000000F007F56
:1007D000FFFFFFFEA5AD9D8D19E0000006007FFF25
:1007E000FFFFFEB5ADEDB57EE0000000000001802A
:1007F0000000000000000000000380000000000076
:100800000000000007C0000000000000000000071A
:10081000C00000000000000000000FC00000000049
:1008200000000000001FE0000000000000000000C9
:100830001FE00000000000000000003FE00000009A
:100840000000000000003FF0000000000000000079
:10085000007FF0000000000000001FF87FF00000A3
:1008600000000000003FFE7FF000000000000000DC
:100870003FFF7FF0000000000000001FFFFBE000D2
:100880000000000000000FFFF9FFC00000000000A2
:10089000000FFFF9FFF800000000000007FFF1FF64
:1008A000FF00000000000003FC73FFFF8000000059
:1008B000000001FE3FFFFF80000000000000FF1E5F
:1008C0000FFF000000000000007FFE1FFC00000082
:1008D000000000003FFFFFF8000000000000000FD4
:1008E000DFFFE0000000000000001F19FFC0000053
:1008F00000000000003F3CFF00000000000000007E
:100900007E7CF800000000000000007FFE7C0000FC
:10091000000000000000FFFFFC00000000000000DD
:1009200000FFFFFE0000000000000000FFFFFE00CF
:1009300000000000000001FFEFFE000000000000CA
:100940000001FFCFFE0000000000000003FF07FED3
:100950000000000000000003FC07FE000000000093
:10096000000003F003FE0000000000000001800012
:10097000FE000000000000000000007E00000000FB
:100980000000000000003E00000000000000000029
:10099000000C000000000000078000FC000003C005
:1009A000000000078001FC000003C0000000078079
:1009B00001FC000003C0000000078001E00000000F
:1009C0001E000000078001E00000001E007FE3F72A
:1009D0009FF9FDE7787BDFC0FFF7FFBFFDFDFF78E4
:1009E0007BDFC0FFF7FFBFFDFDFF787BDFC0F0F7C7
:1009F00087BC3DE1FF787BDE00F0F787BC3DE1F08E
:100A0000787BDE0000F787803DE1E0787BDE007FC9
:100A1000F7879FFDE1E0787BDE00FFF787BFFDE110
:100A2000E0787BDE00F0F787BC3DE1E0787BDE001C
:100A3000F0F787BC3DE1E0787BDE00F0F787BC3D56
:100A4000E1E0787BDE00FFF7FFBFFDE1E07FFBDF49
:100A5000C0FFF7FFBFFDE1E07FFBDFC07CF3F39F4A
:100A60003DE1E03E7BCFC000000000000000000040
:100A70000000FFFFFFFFFFFFFFFFFFFFC0FFFFFFC3
:100A8000FFFD68DB111A31C0FFFFFFFFFD2B5AFB92
:100A90006AEFC0FFFFFFFFFD4B5B3B1A33C0FFFF58
:100AA000FFFFFD6B5BDB6AFDC0008F1ACD231124B5
:100AB0001FBECFEFD8E0DEBFCDBF11E0A0E0B1E0B8
:100AC000E8E2FFE402C005900D92AA3AB107D9F717
:100AD00023E0AAEAB1E001C01D92AA3AB207E1F709
:100AE00015E0C6E5D5E004C02197FE010E9414245C
:100AF000C535D107C9F70E94971E0C9487270C941F
:100B0000000008950895089581E480937C00809109
:100B10007A00806480937A0080917A0086FDFCCF11
:100B200080917800909179000895833081F028F4C5
:100B3000813099F08230A9F008958730A9F088308B
:100B4000C9F08430B1F4809180008F7D03C0809122
:100B500080008F7780938000089584B58F7784BD5F
:100B6000089584B58F7DFBCF8091B0008F778093FF
:100B7000B00008958091B0008F7DF9CFCF93DF93BF
:100B8000282F30E0F901E856FA4F8491F901E95233
:100B9000FA4FD491F901EB50FA4FC491CC23A1F054
:100BA00081110E949505EC2FF0E0EE0FFF1FE45538
:100BB000FA4FA591B491EC91ED2381E090E009F416
:100BC00080E0DF91CF91089580E090E0FACF1F930D
:100BD000CF93DF93282F30E0F901E856FA4F849144
:100BE000F901E952FA4FD491F901EB50FA4FC4914F
:100BF000CC23A9F0162F81110E949505EC2FF0E06F
:100C0000EE0FFF1FE551FA4FA591B4918FB7F894FD
:100C1000EC91111108C0D095DE23DC938FBFDF91DA
:100C2000CF911F910895DE2BF8CFCF93DF9390E003
:100C3000FC01E952FA4F24918B509A4FFC018491A8
:100C40008823C9F090E0880F991FFC01E554FA4F02
:100C5000A591B491FC01E551FA4FC591D491611170
:100C60000DC09FB7F8948C91209582238C93888136
:100C7000282328839FBFDF91CF910895623051F4DC
:100C80009FB7F8943C91822F809583238C93E881C1
:100C90002E2BEFCF8FB7F894EC912E2B2C938FBF88
:100CA000EACF3FB7F8948091A2029091A302A0915D
:100CB000A402B091A50226B5A89B05C02F3F19F04C
:100CC0000196A11DB11D3FBFBA2FA92F982F8827CC
:100CD000BC01CD01620F711D811D911D42E0660FA7
:100CE000771F881F991F4A95D1F708958F929F9279
:100CF000AF92BF92CF92DF92EF92FF924B015C01D5
:100D00000E9451066B017C010E9451066C197D09FD
:100D10008E099F09683E734081059105A8F321E083
:100D2000821A9108A108B10888EEC80E83E0D81E87
:100D3000E11CF11C81149104A104B10429F7FF9076
:100D4000EF90DF90CF90BF90AF909F908F900895DD
:100D50002FB7F89460919E0270919F028091A0023B
:100D60009091A1022FBF089581E0809363020895BE
:100D700081E08093620208950895DC01ED91FC9179
:100D80000190F081E02D0994AF92BF92CF92DF9253
:100D9000EF92FF920F931F93CF93DF936C017B0130
:100DA0008B01040F151FEB015E01AE18BF08C017C1
:100DB000D10759F06991D601ED91FC910190F08134
:100DC000E02DC6010995892B79F7C501DF91CF91F7
:100DD0001F910F91FF90EF90DF90CF90BF90AF9059
:100DE0000895FC01538D448D252F30E0842F90E031
:100DF000821B930B541710F0CF9608950197089516
:100E0000FC01918D828D981761F0A28DAE0FBF2FDE
:100E1000B11D5D968C91928D9F5F9F73928F90E034
:100E200008958FEF9FEF0895FC01918D828D9817A3
:100E300031F0828DE80FF11D858D90E008958FEFE0
:100E40009FEF0895FC01918D228D892F90E0805CA9
:100E50009F4F821B91098F739927089588EA92E02A
:100E60000E94220721E0892B09F420E0822F0895B7
:100E700080E090E0892B29F00E942E0781110C94CC
:100E800000000895FC01A48DA80FB92FB11DA35A2D
:100E9000BF4F2C91848D90E001968F739927848F9A
:100EA000A689B7892C93A089B1898C9183708064BD
:100EB0008C93938D848D981306C00288F389E02D5E
:100EC00080818F7D80830895EF92FF920F931F930F
:100ED000CF93DF93EC0181E0888F9B8D8C8D9813ED
:100EE0001AC0E889F989808185FF15C09FB7F894F9
:100EF000EE89FF896083E889F98980818370806445
:100F000080839FBF81E090E0DF91CF911F910F918F
:100F1000FF90EF900895F62E0B8D10E00F5F1F4F9E
:100F20000F731127E02E8C8D8E110CC00FB607FCAD
:100F3000FACFE889F989808185FFF5CFCE010E943B
:100F40004207F1CFEB8DEC0FFD2FF11DE35AFF4F60
:100F5000F0829FB7F8940B8FEA89FB8980818062C9
:100F6000CFCFCF93DF93EC01888D8823B9F0AA8986
:100F7000BB89E889F9898C9185FD03C0808186FD54
:100F80000DC00FB607FCF7CF8C9185FFF2CF8081A3
:100F900085FFEDCFCE010E944207E9CFDF91CF91CF
:100FA0000895EF92FF920F931F93CF93DF93EC017D
:100FB000EC80FD806E157F050CF070C057FF04C0FB
:100FC000240F351F50E040E08E819F81FA01E20F2F
:100FD000F31F8E179F071CF49C01241B350B121660
:100FE00013060CF05BC0922F842F8695869586950C
:100FF0008E9DD0018F9DB00D11246A0F7B1FAF8D88
:10100000B8A1A60FB71F477049F188E0841B482F8D
:10101000682F70E0FB01E057FA4FE491281708F0C1
:1010200063C0621B71092FEF30E002C03595279530
:101030006A95E2F7E2230130110539F0B0F1023090
:10104000110561F58C91E82702C08C91E82BEC9397
:10105000941720F12C813D81A20FB31FE92FE41BCF
:10106000E83078F00230110521F58E2F9C91909593
:101070009C932C813D81A20FB31F88508830B0F71C
:10108000E770EE2359F0F0E0E857FA4FE4910130B1
:101090001105F9F010F10230110519F1DF91CF912E
:1010A0001F910F91FF90EF900895E0958C91E823A8
:1010B000CECF81E00115110509F480E081959E2FC6
:1010C0008C932C813D81A20FB31F98509830C0F7AC
:1010D000D7CF8C91E82BEC93E1CFE0958C91E8236E
:1010E000FACF8C91E827F7CF0130110509F4ADCF85
:1010F000E0F20230110509F4A5CFAE0DBF1DAECF51
:101100000F931F93CF93DF9377FF04C0260F371FF2
:1011100070E060E0DC011496CD91DC91FB01E20F00
:10112000F31FCE17DF071CF49E01261B370B121688
:1011300013064CF5FA0157FD3796A3E0F595E795B0
:10114000AA95E1F7EC9FD001ED9FB00DFC9FB00D8B
:1011500011246A0F7B1FDC015F96ED91FC91E60F75
:10116000F71F4770552781E090E001C0880F4A952E
:10117000EAF7482F0130110559F0A8F02E0F3F1F54
:1011800002301105E1F0DF91CF911F910F91089589
:101190002E0F3F1FE217F307B1F38191DF01119783
:1011A000842B8C93F7CF80952E0F3F1FE217F30708
:1011B00051F39191DF01119798239C93F7CFE21798
:1011C000F30709F38191DF01119784278C93F7CFFF
:1011D0000F931F93FA01DC0156964C9156974230BB
:1011E000E9F04330A1F1413061F514964D915C91E5
:1011F000DA01AE1BBF0BFD01E21BF30B77FD0BC049
:10120000DC0116964D915C916417750724F4AB01CF
:10121000BF010E9480081F910F91089514964D916F
:101220005C91DA01A61BB70BBD0161507109DC01AD
:1012300016964D915C91DA01AE1BBF0BFD01E21BCE
:10124000F30B77FDE8CFAF010E94D107E4CF1696EC
:101250004D915C91DA01A61BB70BBD01615071097C
:10126000CDCF0F931F93FA01DC0156964C91569700
:101270004230A9F0433091F1413019F514964D9167
:101280005C91DA01AE1BBF0BFD013197F7FD04C085
:10129000AB01BF010E94D1071F910F9108951496D1
:1012A0004D915C91DA01A61BB70BBD01DC011696CE
:1012B0004D915C91DA01AE1BBF0BFD013197621BB2
:1012C000730BF7FDE9CFDC0116964D915C91E417A5
:1012D000F50714F7AF010E948008DECF16964D91F6
:1012E0005C91DA01A61BB70BBD01621B730BCECF5D
:1012F000FC0177FD64C080859185681779070CF043
:101300005EC057FD5CC082859385481759070CF075
:1013100056C086898230B1F0833029F1813041F4A2
:1013200084819581841B950BAB01BC0161507109CF
:101330002130310509F108F443C02230310509F4A8
:1013400063C0089584819581DC01A61BB70BBD01A4
:101350006150710986819781DC01A41BB50BAD0139
:1013600041505109E5CF86819781861B970BBA01C1
:10137000AC0141505109DCCFCA0157FD0796A3E0EB
:1013800095958795AA95E1F7A481B5818A9F9001EB
:101390008B9F300D9A9F300D1124620F731F078CA5
:1013A000F0A1E02DE60FF71F4770552721E030E050
:1013B00001C0220F4A95EAF78081822B808308952D
:1013C000CA0157FD079633E0959587953A95E1F761
:1013D000A481B5818A9F90018B9F300D9A9F300D1B
:1013E0001124620F731F078CF0A1E02DE60FF71F89
:1013F0004770552781E090E001C0880F4A95EAF7D1
:10140000809590818923DACFCA0157FD079623E0A2
:10141000959587952A95E1F7A481B5818A9F9001DA
:101420008B9F300D9A9F300D1124620F731F078C14
:10143000F0A1E02DE60FF71F4770552721E030E0BF
:1014400001C0220F4A95EAF780818227B7CF08951D
:101450008EBD00000DB407FEFDCF8EB508958CBD86
:101460009DBD08950895FC016370668B848195810C
:1014700026813781613039F0633029F09187808788
:10148000338722870895318720879387828708953D
:101490002F923F924F925F926F927F928F929F9284
:1014A000AF92BF92CF92DF92EF92FF920F931F9372
:1014B000CF93DF93CDB7DEB76A970FB6F894DEBF50
:1014C0000FBECDBF9A8F898F7A8369834A01D22E4E
:1014D00018870F833701BC2CDC0159962D913C9164
:1014E0005A972115310509F015C118968D919C91D7
:1014F0001997681779070CF0D7C11A968D919C91AE
:10150000481759070CF0D0C14C2C512CB6E0CB9E9B
:10151000600D711D11247C876B87161617060CF061
:10152000C3C1EA2DF0E0FA87E98793E0EE0FFF1FD1
:101530009A95E1F7F88BEF87CF01840F951F181666
:1015400019060CF0B1C1A98DBA8D58968C918111F4
:1015500004C0BFEABD1508F4D394A98DBA8DED91EE
:10156000FC9111970284F385E02DCD010995B5E03A
:10157000DB9EC0011124E981FA81FC83EB83312CCD
:10158000212C9C0128573F4F388F2F8B4A2D50E03C
:101590005E8B4D8BEF89F88DE20DF31D44919E8299
:1015A0008D82D12CC12C69817A81620D731D7A8B59
:1015B000698B842F90E09C8B8B8BE98DFA8DA081B9
:1015C000B18140FF82C0F1E0BF126FC0AF126DC0A9
:1015D0001C96ED91FC912F813885A4014C0D5D1D69
:1015E00069897A89898D9A8D0995EB89FC89F595A8
:1015F000E7954E2F5FEFC51AD50A6D817E818D89E3
:101600009E89680F791F7E836D8398E0C916D10487
:1016100081F6AFEF2A1A3A0AEB81FC81E40DF51D41
:10162000FC83EB83F5E02F16310409F0B3CF2F8153
:10163000388526153705B9F0A98DBA8DED91FC9145
:10164000B1E0BB1257C0AB1255C069817A816B5FA4
:101650007F4F0088F189E02D830128E030E0A4016C
:10166000898D9A8D0995A98DBA8DED91FC9111976F
:101670000688F789E02DCD016A960FB6F894DEBF93
:101680000FBECDBFDF91CF911F910F91FF90EF90D3
:10169000DF90CF90BF90AF909F908F907F906F9092
:1016A0005F904F903F902F9009941E96ED91FC9182
:1016B000EF80F88409851A8592014D815E816B81E6
:1016C0007C81898D9A8D099590CF2F81388526153B
:1016D000370509F48ACF31E0B31207C0A31205C061
:1016E0001C96ED91FC91930178CF1E96ED91FC91A3
:1016F0007301E0CF6B857C85641975090684F785D5
:10170000E02D73010F8518899201A401898D9A8DAE
:101710000995A9CFF9013496949132974591549146
:10172000D91AB7E0DB9E400D511D1124F901259116
:1017300034913C8B2B8BFA0125903490FA01329630
:10174000749031963491398B3296649031964490EE
:1017500041E04C1518F04A1508F07FC0662D062CA4
:10176000000C770B7C836B83842D042C000C990B6D
:101770009E838D83A98DBA8DED91FC911197028482
:10178000F385E02DCD010995512CD12CC12CEA2DEA
:10179000F0E0FA87E9872B2D30E03C872B87A40106
:1017A000440D511D47FC5A95588F4F8B69817A81A2
:1017B000660D711D67FC7A957E876D877989C716DE
:1017C00008F051CF2C2D30E04D815E81420F531F28
:1017D000A985BA854A9FC0014B9F900D5A9F900DD5
:1017E0001124FC01E80DF91DF88BEF87852D612C84
:1017F0004F89588D420F531F5E8B4D8B671408F035
:1018000050C044244394480E877041F4C1010196AE
:10181000EB89FC89E20DF31DD4901C01D7FE19C0A1
:10182000A98DBA8DED91FC91662D70E0B1E0BB12EF
:1018300019C0AB1217C02D853E85620F731F04843B
:10184000F585E02D2F8138854D895E89898D9A8DAA
:101850000995DD0C6394842DD1CF1E821D821C82DC
:101860001B8288CF4B815C81640F751FAB85BC8563
:101870006A9FC0016B9F900D7A9F900D1124698122
:101880007A81680F791F0684F785E02DEF80F88450
:1018900009851A859D014F855889898D9A8D0995ED
:1018A000D8CF570CC3948ACF6A960FB6F894DEBF90
:1018B0000FBECDBFDF91CF911F910F91FF90EF90A1
:1018C000DF90CF90BF90AF909F908F907F906F9060
:1018D0005F904F903F902F9008958F929F92AF927C
:1018E000CF92EF92FF920F931F93CF93DF93EC0170
:1018F000262F898D9A8D009709F051C06A30D1F456
:101900001D861C868D8948E0849F900111248E8558
:101910009F85820F931F9F878E8781E090E0DF91E4
:10192000CF911F910F91FF90EF90CF90AF909F902C
:101930008F9008956D3089F3CC88AD888F89882386
:10194000C1F08C859D8536E0C39E800D911D1124CC
:10195000488559854817590764F44E855F851D866B
:101960001C8638E0A39EC0011124840F951F9F8719
:101970008E87EA88FB88088919894E855F856C8582
:101980007D85CE010E94480A2C898C859D8546E084
:10199000249F800D911D11249D878C87BECF6A30B6
:1019A00069F41D861C86FC013896E4912D898E858C
:1019B0009F85E29F800D911D1124ADCF6D3009F4FC
:1019C000ACCFFC0134963491631708F4A6CF32965D
:1019D000E491E61708F4A1CFFC013296859094902B
:1019E000462F431B342F47E0349F800C911C112459
:1019F000F401329634913196E4913323A9F1EE2328
:101A000099F1CC88F4013596E491AD884F8944234F
:101A100001F10E2E000CFF0BE30FF11DCE9EA00175
:101A2000CF9E500D11246C857D85460F571F68850C
:101A30007985641775076CF44E855F851D861C8655
:101A4000FC013896E491AE9E400D511D11245F8734
:101A50004E87EA88FB88088919894E855F856C85E1
:101A60007D85CE010E94480AF4013496E4912C89C8
:101A70008C859D85E29F800D911D11248DCF6F92E5
:101A80007F928F929F92AF92BF92CF92DF92EF920E
:101A9000FF920F931F93CF93DF93EC016B015A01D9
:101AA00039014801E881F9810284F385E02D099527
:101AB000E881F9810288F389E02D87019301A5016E
:101AC000B601CE010995A501480D591D4150510996
:101AD000E881F9810288F389E02D9301B601CE01F6
:101AE0000995E881F9810088F189E02D9401A5012B
:101AF000B601CE010995C60CD71CB601615071091B
:101B0000E881F9810088F189E02D9401A501CE01D9
:101B10000995E881F9810688F789E02DCE01DF91EA
:101B2000CF911F910F91FF90EF90DF90CF90BF90DA
:101B3000AF909F908F907F906F9009946F927F925B
:101B40008F929F92AF92BF92CF92DF92EF92FF92CD
:101B50000F931F93CF93DF935C01EB016A0149015F
:101B600038018701DC01ED91FC916217730719F5CB
:101B7000641675062CF0962D872D3A01C92ED82EA5
:101B80009601261937092F5F3F4F048CF58DE02D04
:101B9000A301BE01C5010995DF91CF911F910F915E
:101BA000FF90EF90DF90CF90BF90AF909F908F907D
:101BB0007F906F9008954615570591F426173707C3
:101BC00024F0892D4B01C22FD82F9E0128193909E5
:101BD0002F5F3F4F068CF78DE02DA601B401DACFC1
:101BE0000284F385E02D0995D501ED91FC910488DF
:101BF000F589E02D83019401A601BE01C501099577
:101C0000D501ED91FC910688F789E02DC501DF91A2
:101C1000CF911F910F91FF90EF90DF90CF90BF90E9
:101C2000AF909F908F907F906F900994EF92FF926A
:101C30000F931F93DC011A960D911C911B97189618
:101C40002D913C911997ED91FC9100A0F1A1E02D0F
:101C50007B0150E040E070E060E009951F910F913A
:101C6000FF90EF9008954F925F926F927F928F92C4
:101C70009F92AF92BF92CF92DF92EF92FF920F931B
:101C80001F93CF93DF936C012B015A013901480157
:101C9000DC01ED91FC910284F385E02D0995E201D0
:101CA000640C751CD601ED91FC91C615D7055CF44A
:101CB0000088F189E02D87019401A501BE01C601CC
:101CC00009952196EFCF0688F789E02DC601DF91AF
:101CD000CF911F910F91FF90EF90DF90CF90BF9029
:101CE000AF909F908F907F906F905F904F900994EE
:101CF0008F929F92AF92BF92CF92DF92EF92FF921C
:101D00000F931F93CF93DF93EC015B014A016901AD
:101D1000E881F9810284F385E02D099595012C0D68
:101D20003D1D21503109E881F9810488F589E02DB4
:101D300078018401A401B501CE010995E881F981FA
:101D40000688F789E02DCE01DF91CF911F910F9189
:101D5000FF90EF90DF90CF90BF90AF909F908F90CB
:101D600009948F929F92AF92BF92CF92DF92EF929F
:101D7000FF920F931F93CF93DF93EC015B014A0116
:101D800069017801E881F9810284F385E02D0995E4
:101D9000C80CD91C860101501109E881F981048819
:101DA000F589E02D9501A401B501CE010995E881E1
:101DB000F9810688F789E02DCE01DF91CF911F913F
:101DC0000F91FF90EF90DF90CF90BF90AF909F90DA
:101DD0008F900994EF92FF920F931F93DC01ED9186
:101DE000FC9100A0F1A1E02D09951F910F91FF90AA
:101DF000EF9008950F931F93DC01ED91FC91068CF9
:101E0000F78DE02D09951F910F9108950F931F9362
:101E1000DC01ED91FC91048CF58DE02D09951F916D
:101E20000F910895DC01ED91FC910084F185E02D86
:101E300009942F923F924F925F926F927F928F926E
:101E40009F92AF92BF92CF92DF92EF92FF920F9349
:101E50001F93CF93DF9300D000D000D0CDB7DEB773
:101E60003C016A013E832D83FC82EB825801A41A57
:101E7000B50AB7FE03C0B194A194B1088D809E80CD
:101E8000861A970A97FE03C09194819491088A1448
:101E90009B045CF0902F812F0D811E819D838E838A
:101EA0009C2D8D2D6B01692F782F0C151D055CF075
:101EB0009D818E817E836D83692F782F902F812F56
:101EC0008601C92ED82E1601201A310A2B012D8128
:101ED0003E81421A530A57FE03C05194419451085F
:101EE000710137FE03C03FEFE31AF30AF594E7945C
:101EF0008D819E81861797075CF5A1E0B0E0BA83DB
:101F0000A983C016D1064CF1D301ED91FC91048454
:101F1000F585E02D2B813C81A8016D817E818A149D
:101F20009B041CF04D815E81B801C3010995E41842
:101F3000F508F7FE0AC02D813E8189819A81280F1C
:101F4000391F3E832D83E20CF31C0F5F1F4FD9CF47
:101F50002FEF3FEF3A832983D4CF26960FB6F8941C
:101F6000DEBF0FBECDBFDF91CF911F910F91FF90CC
:101F7000EF90DF90CF90BF90AF909F908F907F9029
:101F80006F905F904F903F902F900895089520910B
:101F90001002260F3327331F21323105ECF4209134
:101FA0003402FC0190E080E0243069F082E0089582
:101FB000A09110022191AC0140515E4FA40FB52FAA
:101FC000B11D2C930196861798F380911002680F2B
:101FD0006093100280E0089581E008951092340229
:101FE00081E0809336021092350261E082E10E9426
:101FF000E70561E083E10E94E705E9EBF0E080811D
:102000008E7F808380818D7F808388E48093B80079
:1020100085E48093BC000895CF93DF9391E0909383
:10202000EF018823B9F0C091B800D091BA00809137
:10203000BC008A7B8093BC0060E082E10E94E705DF
:1020400060E083E10E94E7050E94EE0FD093BA00A2
:10205000C093B800DF91CF910895E0914D03809136
:102060004C03E81730F4F0E0E653FE4F808190E037
:1020700008958FEF9FEF089590914D0380914C0349
:102080002FEF3FEF981748F4E92FF0E0E653FE4FAB
:10209000208130E09F5F90934D03C90108958091A6
:1020A0004C0390914D03891B990B0895CF92DF92B9
:1020B000EF92FF920F931F93CF93DF937C01CB019D
:1020C0008A012091A702222389F0EB016B01C40E43
:1020D000D51ECC15DD0569F06991D701ED91FC9114
:1020E0000190F081E02DC7010995F3CF642F0E9484
:1020F000C70FC801DF91CF911F910F91FF90EF9013
:10210000DF90CF900895CF93DF931F92CDB7DEB7C6
:1021100069832091A7022223F9F020914A032032FB
:1021200058F021E030E0FC013383228390E080E02E
:102130000F90DF91CF91089580914B03E82FF0E04D
:10214000E655FE4F998190838F5F80934B03809378
:102150004A0381E090E0ECCF61E0CE0101960E945D
:10216000C70FF7CFCF92DF92EF92FF920F931F939B
:10217000CF93DF93D0914A0381E0D13208F09CC025
:10218000C091A6020E9451066B017C01809134022D
:1021900081116CC082E08093340281E0809336022A
:1021A0008FEF8093330210925802D0935702AAEA1D
:1021B000B1E0E7E3F2E080E0D8138DC0109259025D
:1021C00080915902CC0FC82BC093590280913502DF
:1021D000813009F084C0109235020E9451066B01D3
:1021E0007C01809159028093BB008091EB0190911A
:1021F000EC01A091ED01B091EE01892B8A2B8B2B84
:10220000A1F00E9451060091EB011091EC01209188
:10221000ED013091EE016C197D098E099F090617B9
:1022200017072807390708F442C08091BC0083FDD6
:10223000D8CF85EC8093BC000E9451066B017C01D5
:1022400080913402823009F44CC0809133028F3F78
:1022500009F469C080913302803209F466C080912C
:102260003302803309F463C084E026C08091EB011F
:102270009091EC01A091ED01B091EE01892B8A2B98
:102280008B2B09F483CF0E9451060091EB01109132
:10229000EC012091ED013091EE016C197D098E0960
:1022A0009F09061717072807390708F06FCF809195
:1022B000EA010E940C1085E010924B0310924A0331
:1022C0001092A702DF91CF911F910F91FF90EF9095
:1022D000DF90CF9008959D9191938F5F6DCF85EEA4
:1022E000A9CF8091EB019091EC01A091ED01B0910B
:1022F000EE01892B8A2B8B2B09F4A2CF0E94510669
:102300000091EB011091EC012091ED013091EE0173
:102310006C197D098E099F090617170728073907C9
:1023200008F08ECFC4CF80E0C7CF82E0C5CF83E076
:10233000C3CFFF920F931F93CF93DF93F82ED92F24
:10234000C62F80917F0390918003009709F452C0BB
:102350002091830331E03093A7022093A6021092CC
:102360004B0310924A03DC01ED91FC910190F08146
:10237000E02D60E009950F2D1D2FD1E0FF24F3948F
:10238000C15080917F0390918003CF3F61F1D032A3
:10239000C8F00E94B21080917F0390918003209139
:1023A0008303F092A7022093A60210924B0310928F
:1023B0004A03DC01ED91FC910190F081E02D60E099
:1023C0000995D1E080917F0390918003F801649199
:1023D000DC01ED91FC910190F081E02D0995DF5F2A
:1023E0000F5F1F4FCDCFDF91CF911F910F91FF90C6
:1023F0000C94B210E0918F03F09190039081809142
:1024000095038095892380830F2D1D2FC15008F4DB
:1024100038C0F801849120917D0330917E03232BF5
:1024200029F00E94280A0F5F1F4FF0CF28E030E00C
:1024300040E8E0918B03F0918C0390919303582F27
:102440005423D9F05081952B9083E0918D03F09126
:102450008E03908150919403952B9083E0918D038E
:10246000F0918E03508190919403909595239083E1
:10247000469521503109E9F6D6CF508190959523A4
:10248000E3CFDF91CF911F910F91FF9008951F939C
:10249000CF93DF93EC018D8D9E8D009721F1162F48
:1024A00029A131E03093A7022093A60210924B039A
:1024B00010924A03DC01ED91FC910190F081E02D36
:1024C00060E009958D8D9E8DDC01ED91FC91019070
:1024D000F081E02D612F09958D8D9E8DDF91CF913B
:1024E0001F910C94B210ADA5BEA59C918BA98095AF
:1024F00089238C938B8D9C8D892B31F0862FDF91D6
:10250000CF911F910C94280A28E030E080E8A9A51B
:10251000BAA599A9462F4823C1F04C91942B9C93BE
:10252000ABA5BCA59C914AA9942B9C93ABA5BCA53B
:102530004C919AA9909594239C93869521503109AA
:1025400031F7DF91CF911F9108954C91909594238D
:10255000E6CFEF92FF920F931F93CF93DF9380917B
:102560007F0390918003892B09F493C020919703F6
:10257000309198034091990350919A0360E074E27E
:1025800084EF90E00E94F223205131094109510962
:1025900056954795379527952093B80065E086EBCB
:1025A00095E00E94991160916603615082E693E084
:1025B0000E9447122091680330916903C901079670
:1025C00097FD079623E0959587952A95E1F7209149
:1025D000660330916703829F8001839F100D929F55
:1025E000100D1124C0918103D091820380917F034B
:1025F000909180030C0F1D1F009709F489C0209152
:10260000830331E03093A7022093A60210924B037C
:1026100010924A03DC01ED91FC910190F081E02DD4
:1026200060E40995FF24F394EE24E39480917F0302
:10263000909180030C171D0709F442C0BFE1BF153C
:10264000D0F40E94B21080917F039091800320917A
:102650008303E092A7022093A60210924B031092EC
:102660004A03DC01ED91FC910190F081E02D60E4E2
:102670000995FF24F39480917F03909180036991E1
:10268000DC01ED91FC910190F081E02D0995F3942E
:10269000CDCF80917D0390917E03892B31F0809185
:1026A000A0039091A1030E942F0AE0919103F09161
:1026B00092039081809196038095892380836ECFC9
:1026C0000E94B21080917F0390918003892B09F4BE
:1026D00060C020919B0330919C0340919D035091D9
:1026E0009E0360E074E284EF90E00E94F2232051A8
:1026F00031094109510956954795379527952093FA
:10270000B800DF91CF911F910F91FF90EF90089546
:10271000E0918F03F0919003808190919503892B34
:1027200080830C171D0771F2899120917D033091F0
:102730007E03232B19F00E94280AF3CF28E030E013
:1027400040E8E0918B03F0918C0390919303582F14
:102750005423D9F05081952B9083E0918D03F09113
:102760008E03908150919403952B9083E0918D037B
:10277000F0918E03508190919403909595239083CE
:10278000469521503109E9F6CCCF5081909595239B
:10279000E3CFE0919103F0919203808190919603B1
:1027A000892B8083AECF1F93CF93DF93EC01162F3D
:1027B0008D8D9E8D892BB1F12DA93EA94FA958ADC4
:1027C00060E074E284EF90E00E94F223205131092E
:1027D0004109510956954795379527952093B8009B
:1027E00066EA111167EACE010E9447128D8D9E8D17
:1027F000892B41F129AD3AAD4BAD5CAD60E074E29F
:1028000084EF90E00E94F2232051310941095109DF
:1028100056954795379527952093B800DF91CF912E
:102820001F9108958B8D9C8D892B21F08EAD9FADCE
:102830000E942F0AEFA5F8A990818CA98095892381
:102840008083CECFEFA5F8A980819CA9892B8083B6
:10285000E5CF90E080E00895DC0180E0615090F0E9
:102860009D919827E92FEF70F0E0E859FF4F2491F0
:10287000E92FE295EF70F0E0E858FF4FE491822FE6
:102880008E27ECCF0895DC012C911196ED91FC91EF
:10289000F8948181822B81839281322F309593230A
:1028A000928387E090E00197F1F781818323818310
:1028B00083E290E00197F1F790817894EFECF0E0FB
:1028C0003197F1F7922381E009F480E00895FC014B
:1028D00090810180F281E02D292F209560FF14C0A6
:1028E000F8948281822382838181892B8183A3E270
:1028F000B0E01197F1F78281982B9283789487ED5D
:1029000090E00197F1F70895F89482818223828301
:102910008181892B8183AFEFB0E01197F1F782813C
:10292000982B928378948FE090E0EBCFDF92EF9238
:10293000FF920F931F93CF93DF93EC01D62EE42EDB
:1029400008E010E0FF24F39461E08D2D8F2109F45D
:1029500060E0CE010E946714FF0C01501109A1F73D
:10296000E11010C0F894E981FA8191818881809505
:1029700089238183E981FA819281888180958923E5
:1029800082837894DF91CF911F910F91FF90EF9008
:10299000DF900895FC0190810180F281E02DF89490
:1029A0008181292F20958223818378943DE743E01C
:1029B00050E0315029F1DA011197F1F78081892334
:1029C000C1F3F8948281822382838181892B818360
:1029D0007894ABE7B7E01197F1F7F89481818223FF
:1029E0008183A3E1B1E01197F1F78081982381E021
:1029F00009F080E07894E3E6F6E03197F1F7089586
:102A000080E00895EF92FF920F931F93CF93DF938F
:102A1000EC01162F0E94CA14882389F01C3C49F04F
:102A200020F4153599F080E00AC01C3E11F0103FEB
:102A3000D1F740E0612FCE010E94961481E0DF9132
:102A4000CF911F910F91FF90EF90089540E065E5C1
:102A5000CE010E9496148E010F5E1F4F7E0189E108
:102A6000E80EF11CF80161918F0140E0CE010E9457
:102A700096140E151F05B1F7E1CF8F929F92AF927A
:102A8000BF92CF92DF92EF92FF920F931F93CF935B
:102A9000DF93EC0165E50E940215882329F040E0F0
:102AA0006EEBCE010E9496148E01075E1F4F5E01F1
:102AB00082E2A80EB11C480188E0C82ED12CF12C6E
:102AC000EE24E394CE010E9443148111FE28EE0C03
:102AD000E1E0CE1AD108B1F7F801F1928F01EA15C1
:102AE000FB0551F768E0C4010E942C1491E029A174
:102AF000281390E0892FDF91CF911F910F91FF90C4
:102B0000EF90DF90CF90BF90AF909F908F900895FF
:102B10001F93CF93DF93EC011BA165E50E94021583
:102B2000882339F041E0111140E064E4CE010E94B5
:102B300096148BA1882341F1CE010E94431488236F
:102B4000D9F3CE010E943D15698D8A8D9AA19A30E4
:102B5000D9F19B30D9F1993009F4687F90E0982F32
:102B60008827680F792F711D072E000C880B990B91
:102B70000E942F2520E030E040E85DE30E94E4253C
:102B8000DF91CF911F9108958AA18A3099F048F47E
:102B90008930B9F66EE570E080E090E00E9476063C
:102BA000D0CF8B3061F08C3061F66EEE72E080E059
:102BB00090E0F4CF6CEB70E080E090E0EFCF67E75F
:102BC00071E080E090E0EACF6C7FC8CF6E7FC6CF27
:102BD0002091680330916903C901079697FD079614
:102BE00023E0959587952A95E1F72091660330912A
:102BF0006703829FA001839F500D929F500D112467
:102C000070E060E080918103909182030C948027B2
:102C10000E947B27FB0101900020E9F73197AF016B
:102C2000461B570BDC01ED91FC910280F381E02DF6
:102C300009948F929F92AF92BF92EF92FF920F935F
:102C40001F93CF93DF93CDB7DEB7A1970FB6F8945C
:102C5000DEBF0FBECDBF7C01FA01CB0119A222302D
:102C600008F42AE08E010F5D1F4F822E912CB12CAB
:102C7000A12CBF01A50194010E94F223F901CA0110
:102C80006A300CF5605DD8016E938D01232B242BE7
:102C9000252B79F790E080E0109721F0BD01C70166
:102CA0000E940A16A1960FB6F894DEBF0FBECDBFE4
:102CB000DF91CF911F910F91FF90EF90BF90AF9058
:102CC0009F908F900895695CDECFCF93DF93BC0116
:102CD00082E693E00E940A16EC016CE571E082E660
:102CE00093E00E940A168C0F9D1FDF91CF910895EB
:102CF0000E94E815E2E6F3E015861486178616862C
:102D00008FE591E00E94651685E691E00E946516C8
:102D10000E94A91264EF71E080E090E00C947606C6
:102D20002F923F924F925F926F927F928F929F92DB
:102D3000AF92BF92CF92DF92EF92FF921F93CF9309
:102D4000DF93EC016A017B01722EAB019601CB018E
:102D5000B6010E9451266AE671E0811126C0460143
:102D60005701E894B7F82FEF3FEF4FE75FE7C50152
:102D7000B4010E94512681110CC02FEF3FEF4FE7A5
:102D80005FE7C501B4010E9487246EE671E0181662
:102D900064F02FEF3FEF4FE75FE4C701B6010E94F9
:102DA000DF251816B4F462E771E0CE01DF91CF9110
:102DB0001F91FF90EF90DF90CF90BF90AF909F90CA
:102DC0008F907F906F905F904F903F902F900C94DA
:102DD0000A162FEF3FEF4FE75FECC701B6010E94E5
:102DE000872487FDE0CF20E030E0A901C701B601CC
:102DF0000E948724312C212C87FF09C06DE2CE016F
:102E00000E94BD061C01F7FAF094F7F8F09410E068
:102E100060E070E080E09FE3711641F020E030E078
:102E200040E251E40E948C241F5FF6CFA701960177
:102E30000E941B242B013C010E94FE244B015C01DB
:102E40002AE0BC01A401CE010E9419167C01E20C0B
:102E5000F31C1123C1F1C501B4010E942D259B0172
:102E6000AC01C301B2010E941A244B015C016EE265
:102E7000CE010E94BD06E80EF91E115020F120E09F
:102E800030E040E251E4C501B4010E94E4252B0189
:102E90003C010E94FE244B01B12CA12C2AE0B5017B
:102EA000A401CE010E941916E80EF91EC501B40155
:102EB0000E942D259B01AC01C301B2010E941A247E
:102EC0004B015C01DACFC701DF91CF911F91FF90D9
:102ED000EF90DF90CF90BF90AF909F908F907F90BA
:102EE0006F905F904F903F902F90089585ED809365
:102EF000BC008091EB019091EC01A091ED01B091AB
:102F0000EE010796A11DB11D23E0B695A7959795F3
:102F100087952A95D1F72091BC0024FD03C010921B
:102F2000340208954091EB015091EC016091ED0164
:102F30007091EE01452B462B472B69F30097A105B5
:102F4000B10541F025E32A95F1F700000197A109A9
:102F5000B109E1CF8091EA010C940C100F931F93FB
:102F6000CF93DF938C01EB010E94DC238883C8019F
:102F700001960E94DC238983CE01DF91CF911F91BE
:102F80000F910895FF920F931F93CF93DF93EC015E
:102F90008B01FB01F0800E94DC23F81621F06F2DDD
:102FA000CE010E94E423F801F1802196CE010E9417
:102FB000DC23F81621F06F2DCE010E94E423C80116
:102FC000DF91CF911F910F91FF9008951F920F9263
:102FD0000FB60F9211242F933F938F939F93AF932C
:102FE000BF9380919E0290919F02A091A002B09108
:102FF000A10230919D0223E0230F2D3758F5019651
:10300000A11DB11D20939D0280939E0290939F026B
:10301000A093A002B093A1028091A2029091A3027A
:10302000A091A402B091A5020196A11DB11D8093AB
:10303000A2029093A302A093A402B093A502BF9111
:10304000AF919F918F913F912F910F900FBE0F9055
:103050001F90189526E8230F0296A11DB11DD2CF0F
:103060001F920F920FB60F9211242F933F934F93FD
:103070005F936F937F938F939F93AF93BF93EF93E0
:10308000FF93E0910201F09103010995FF91EF9107
:10309000BF91AF919F918F917F916F915F914F9170
:1030A0003F912F910F900FBE0F901F9018951F9278
:1030B0000F920FB60F9211242F933F934F935F936C
:1030C0006F937F938F939F93AF93BF93EF93FF93F0
:1030D000E0910001F09101010995FF91EF91BF91FD
:1030E000AF919F918F917F916F915F914F913F91A0
:1030F0002F910F900FBE0F901F9018951F920F9257
:103100000FB60F9211242F933F934F935F936F93BA
:103110007F938F939F93AF93BF93EF93FF9388EA2F
:1031200092E00E944207FF91EF91BF91AF919F9172
:103130008F917F916F915F914F913F912F910F9060
:103140000FBE0F901F9018951F920F920FB60F92FF
:1031500011242F938F939F93EF93FF93E091B802E5
:10316000F091B9028081E091BE02F091BF0282FD30
:103170001BC090818091C1028F5F8F732091C2022A
:10318000821741F0E091C102F0E0E855FD4F958FC4
:103190008093C102FF91EF919F918F912F910F909A
:1031A0000FBE0F901F9018958081F4CF1F920F9241
:1031B0000FB60F9211242F933F934F935F936F930A
:1031C0007F938F939F93AF93BF93EF93FF938091E0
:1031D000B900887F803609F44AC0F0F5883209F4D6
:1031E000A7C018F5803109F49BC0B8F4882309F40E
:1031F000F9C0883009F494C0FF91EF91BF91AF916D
:103200009F918F917F916F915F914F913F912F91FE
:103210000F900FBE0F901F901895883109F488C049
:10322000803251F78093330214C0803409F49DC07A
:1032300040F48033B9F38833F9F68093330285EC98
:10324000B0C0803509F485C0883509F496C088344B
:1032500099F60E947617D0CF883909F48CC038F5DA
:10326000883729F050F4883611F0803729F683E04A
:10327000809334021092320257C0883809F47BC020
:10328000803919F0803809F0B7CF8091320280324E
:1032900008F071C0E091320281E08E0F809332021B
:1032A0008091BB00F0E0EE5EFD4F80833DC0803B2F
:1032B00039F0E0F4803A09F479C0883A09F09CCFFB
:1032C00084E0809334021092110210921002E09177
:1032D0004803F091490309958091100281110FC0B4
:1032E00081E0809310021092F00109C0803C09F443
:1032F000A6CF883C09F4A3CF883B09F07DCFE091AD
:10330000110281E08E0F80931102F0E0E051FE4F38
:1033100080818093BB00909111028091100229C09E
:10332000809159028093BB0085EC8093BC0064CFF0
:103330009091580280915702981758F5E0915802E1
:1033400081E08E0F80935802F0E0E95CFD4F8081B0
:10335000E9CFE091580281E08E0F8093580280916E
:10336000BB00F0E0E95CFD4F8083909158028091B2
:1033700057029817C8F285E8D8CFE091580281E04B
:103380008E0F809358028091BB00F0E0E95CFD4F06
:1033900080838091360281115CCF81E08093350279
:1033A00084EA8093BC001092340226CF85EC80938F
:1033B000BC001092340280913202803230F4E091ED
:1033C0003202F0E0EE5EFD4F10826091320270E05A
:1033D000E0914603F091470382E192E00995109253
:1033E00032020ACF1092330234CFCF93DF93EC0135
:1033F00060E084E00E941506EBEDF5E0E491E883DF
:10340000E9EFF5E0E491F0E0EE0FFF1FE455FA4F2D
:10341000859194919A8389831B861D861C861A86C2
:10342000198618861F821E821D821C821B82DF91D4
:10343000CF9108953F924F925F926F927F928F92B9
:103440009F92AF92BF92CF92DF92EF92FF920F9333
:103450001F93CF93DF935C017B014A01690139011E
:1034600087E0680E711C93E0759467949A95E1F774
:103470002B01400E511E10E000E0312CD0E0C0E0E6
:10348000CE0187709927330C892B59F4FE0183E014
:10349000F595E7958A95E1F7E00FF11FE80DF91D25
:1034A000349037FE0AC021E030E0A701B5016C0F6F
:1034B0007D1F82E693E00E94120F2196CC16DD0656
:1034C000F9F68FEFE81AF80A060D171DE414F50453
:1034D000A9F6DF91CF911F910F91FF90EF90DF90B0
:1034E000CF90BF90AF909F908F907F906F905F90A4
:1034F0004F903F900895FC01858D8F3351F018F463
:103500008F3149F008958F3541F08F37D9F78CE02E
:1035100008958AE0089589E008958BE008955F9208
:103520006F927F928F929F92AF92BF92CF92DF92D3
:10353000EF92FF920F931F93CF93DF931092AB0202
:103540001092AA0288EE93E0A0E0B0E08093AC0273
:103550009093AD02A093AE02B093AF0220E131E0B0
:103560003093A9022093A80225EC30E03093B502F5
:103570002093B40224EC30E03093B7022093B602DB
:1035800020EC30E03093B9022093B80221EC30E017
:103590003093BB022093BA0222EC30E03093BD029C
:1035A0002093BC0226EC30E03093BF022093BE0291
:1035B0001092C1021092C2021092C3021092C40271
:1035C000109251031092500380935203909353032F
:1035D000A0935403B093550382E291E090934F037C
:1035E00080934E038EE090E00E945626EC010E94EC
:1035F000F519D093A503C093A4038EE290E00E9436
:103600005626EC010E94F5191CA61DA66CECCE01F5
:103610000E940215882329F040E064EBCE010E944D
:103620009614CE010E9443148F87812C912C540153
:103630008394552453947E0184E2E80EF11C6E01BC
:1036400081E1C80ED11C0DA5011165C260EFCE014C
:103650000E940215882309F45EC2612C10E0CE019D
:103660000E944314782ECE010E944314772009F45F
:10367000B3C1882309F4B0C11CA6D093A303C0939F
:10368000A203109265031092640320E830E03093A7
:1036900067032093660380E290E090936903809330
:1036A000680330936B0320936A0390936D038093B8
:1036B0006C031092780310926F0310926E031092B5
:1036C00071031092700381E08093770380937603F7
:1036D0002FEF3FEF30937503209374033093730300
:1036E000209372038093790310927A0310927C03E3
:1036F00010927B0384E391E09093630380936203D1
:1037000010927E0310927D038EE493E090938003E9
:1037100080937F038FEF809386038093870380934A
:1037200088038093890380938A0380E89AE1A6E066
:10373000B0E08093970390939803A0939903B0937C
:103740009A0380EA96E8A1E0B0E080939B0390930F
:103750009C03A0939D03B0939E0380E58093A003F8
:103760001092A10380E092E00E945626909382037B
:1037700080938103892B09F40DC10E94E8152091E3
:103780006803309169038091660390916703B901E2
:10379000213231050CF4C2C16054710977FF02C0B7
:1037A0006F5F7F4F759567958255910997FD0196DB
:1037B00000E410E022E530E049EE57E0959587956A
:1037C0000E941A1A82E08093840380917F03909173
:1037D0008003892B09F4B5C18CE380938303109295
:1037E0004D0310924C0310924B0310924A030E9417
:1037F000EE0F81E895E0909349038093480382E8B7
:1038000095E0909347038093460380918A0387FD58
:103810001EC061E00E94150661E080918A030E944B
:10382000E70561E070E080E090E00E94760660E0ED
:1038300080918A030E94E7056AE070E080E090E0F2
:103840000E94760661E080918A030E94E7058091DC
:103850007F0390918003892B09F432C22091970352
:10386000309198034091990350919A0360E074E27B
:1038700084EF90E00E94F22320513109410951095F
:1038800056954795379527952093B80064E083EDCA
:1038900095E00E94991160916803615082E693E07F
:1038A0000E94471264E08FEC95E00E94991180918C
:1038B000840360E1813009F064E182E693E00E94D4
:1038C000471264E08BEC95E00E9499118FE8809399
:1038D0009F0380916603909167038038910509F0FA
:1038E00008C280916803909169038034910509F0C2
:1038F00010C280918403813009F0F9C18FE980936F
:103900009F03C2E16AED82E693E00E9447126C2FAA
:1039100082E693E00E94471261E882E693E00E940B
:10392000471260919F0382E693E00E94471269ED7F
:1039300082E693E00E9447128091840362E2813024
:1039400009F061EF82E693E00E94471266E085ECA1
:1039500095E00E94991180917F0390918003892BBB
:1039600009F4DBC120919B0330919C0340919D039E
:1039700050919E0360E074E284EF90E00E94F22395
:103980002051310941095109569547953795279599
:103990002093B8000E94E81582E08093760380931C
:1039A000770381E090E09093750380937403909384
:1039B000730380937203DF91CF911F910F91FF905A
:1039C000EF90DF90CF90BF90AF909F908F907F90BF
:1039D0006F905F900C94A912312F3770E12FE6950C
:1039E000E695E695EC0FFD2FF11D24A1711081C025
:1039F000811184C08CA5811709F47DC0811708F45A
:103A00007CC0822F90E0032E02C0959587950A9482
:103A1000E2F7982F917080FF70C0B501A40104C037
:103A2000440F551F661F771F3A95D2F7422B44A3C8
:103A3000792E672DCE010E9467141F5F103409F0A4
:103A40000ECE6CA6611001C05DA660EFCE010E9493
:103A50000215882309F411CECE010E944314182FB9
:103A6000CE010E944314112311F0811106CEE02FE4
:103A7000E695E695E695EE0DFF2DF11D608170E06F
:103A8000802F877002C0759567958A95E2F76170FF
:103A9000CE010E9467140F5F0034F1F688E0F70151
:103AA000D60101900D928A95E1F7CE010E943D1555
:103AB000882309F4E2CDCE010E947B1A8AA365E532
:103AC000CE010E940215882329F040E064EBCE016C
:103AD0000E949614CE010E9443148BA3CE010E9433
:103AE0007B1A9E85981708F48E8788898F5F888B4C
:103AF000AACD972D92CF91E090CF612ED501C40130
:103B000004C0880F991FAA1FBB1F3A95D2F7809552
:103B1000822384A38ECF1CA61DA6AFCD605271094F
:103B200077FF02C06F5F7F4F759567958357910947
:103B300097FD019600E210E023E730E049E056E00F
:103B40003DCE61E0809188030E94150661E080917E
:103B500089030E94150680918803082E000C990B9A
:103B6000FC01EB50FA4FE491F0E0EE0FFF1FE5513E
:103B7000FA4F259134913093900320938F03FC01E9
:103B8000E952FA4FE491E093950380918903082E5E
:103B9000000C990BFC01EB50FA4FE491F0E0EE0FB2
:103BA000FF1FE551FA4FA591B491B0939203A093F2
:103BB0009103FC01E952FA4FE491E09396038C9152
:103BC000E82BEC9380917D0390917E03892B09F47F
:103BD00034C0CFB7F89480914503811127C0EFEF2F
:103BE000F5E08491E1EEF5E09491E82FF0E0EE0F3E
:103BF000FF1FE554FA4FA591B491EC91E92321F40C
:103C000061E08AE00E94E70561E08AE00E94150613
:103C10008CB580618CBD8CB580648CBD61E08DE01D
:103C20000E94150661E08BE00E9415068091450315
:103C30008F5F80934503CFBFE8CD61E0809186031D
:103C40000E94150661E0809187030E94150680910D
:103C50008603082E000C990BFC01EB50FA4FE491FF
:103C6000F0E0EE0FFF1FE551FA4F259134913093AC
:103C70008C0320938B03FC01E952FA4FE491E0930B
:103C8000930380918703082E000C990BFC01EB50E5
:103C9000FA4FE491F0E0EE0FFF1FE551FA4FA591C6
:103CA000B491B0938E03A0938D03FC01E952FA4FB7
:103CB000E491E09394038C91E095E823EC93A5CDF7
:103CC00080917D0390917E03892B31F08091A00338
:103CD0009091A1030E942F0AE0919103F091920329
:103CE000908180919603809589238083CFCD8FEC3E
:103CF00006CE8036910569F480916803909169033E
:103D0000409739F480918403813029F480E18093D5
:103D10009F03C2E0F7CD8FEAFACFE0919103F091D3
:103D20009203808190919603892B808333CECF9329
:103D3000DF93CDB7DEB766970FB6F894DEBF0FBE40
:103D4000CDBF789484B5826084BD84B5816084BD24
:103D500085B5826085BD85B5816085BD80916E0029
:103D6000816080936E00109281008091810082605A
:103D70008093810080918100816080938100809197
:103D800080008160809380008091B1008460809386
:103D9000B1008091B00081608093B00080917A0082
:103DA000846080937A0080917A00826080937A00A8
:103DB00080917A00816080937A0080917A00806897
:103DC00080937A001092C100E091B802F091B9029C
:103DD00012E01083E091B402F091B5021082E091FC
:103DE000B602F091B7028FEC80831092C002E0918E
:103DF000BC02F091BD0286E08083E091BA02F091AE
:103E0000BB02808180618083E091BA02F091BB02A5
:103E1000808188608083E091BA02F091BB0280814A
:103E200080688083E091BA02F091BB0280818F7D2F
:103E300080830E94E81510926F0310926E03109217
:103E400071031092700381E080937603809377036F
:103E500086E791E00E94651682E891E00E9465166F
:103E60000E94A912109376031093770364EF71E018
:103E700080E090E00E947606E091A403F091A50313
:103E8000138615861486128611861086178216826E
:103E9000158214821382AA24A3940091A403109182
:103EA000A503D8011D968C91882309F4D7C0F80189
:103EB000138615861486BE016F5E7F4F90E080E00A
:103EC0000E94AE17BE016F5F7F4F82E090E00E94BC
:103ED000AE1769817A8190E080E00E942D254B0128
:103EE0005C0169897A8990E080E00E942D256B0150
:103EF0007C01BE016F5E7F4F84E090E00E94AE17B0
:103F0000BE016F5F7F4F86E090E00E94AE1769812F
:103F10007A8190E080E00E942D252B013C01698987
:103F20007A8990E080E00E942D25A70196010E94E9
:103F30001A246B8B7C8B8D8B9E8BA5019401C30106
:103F4000B2010E941A249B01AC016B897C898D8986
:103F50009E890E948C2460935A0370935B03809324
:103F60005C0390935D03A50194010E94E4259B01ED
:103F7000AC01C701B6010E941A2460935E037093DE
:103F80005F03809360039093610361E085E00E948A
:103F9000150661E085E00E94E70562E083E00E948B
:103FA000150662E082E00E94150684EB96E090938D
:103FB00003018093020180916900837F8860809370
:103FC0006900E99A88EB96E09093010180930001E3
:103FD000809169008C7F826080936900E89A81E01B
:103FE00090E090939C0280939B0233243394109131
:103FF0006302111105C080916202882309F4E0C0B8
:104000000E94A8066B017C010E94A8066C197D091C
:104010008E099F09613D7740810591050CF4A9C087
:10402000109262021092630201E010E080919B0204
:1040300090919C028230910509F48DC10CF0DDC095
:10404000019709F408C120E030E0232B81F20E949F
:104050002E07882361F20E940000C9CFC8010E9488
:10406000CA1481110AC0D8011B961C921B971D9679
:104070001C921D971C961C921ECF40E060EFC80159
:104080000E949614EE24E394C12CB12CFF24F394E7
:10409000C8010E944314D82EC8010E944314B1E005
:1040A000DB122EC0813009F04DC0E0E4EF1508F0BE
:1040B000FECED8011B96BC921B97B11002C01D9674
:1040C000AC92F8018381882309F4F1CE3396AAE5F6
:1040D000B2E0055F1F4F81918D930E171F07D9F72F
:1040E00080915A02883209F0D8CE67E08AE592E0E2
:1040F0000E942C1490916102891709F4CECEDBCE78
:10410000EC2DF0E0D81214C0D8011B968C911B97AF
:10411000F816B0F4AE0FBF1F13968C918E2191F458
:10412000D12CB8E0BF1518F0D8011C96FC92BF2C1A
:10413000E00FF11F83819E2D9095892383830AC010
:104140008F11EECFF801EC0DF11D83818E29838351
:10415000DD24D3946D2DC8010E946714F394EE0CF6
:1041600019F4C394EE24E394B7E0BC1508F090CFA3
:104170009CCF83E00E94BE05892B31F482E00E942F
:10418000BE05892B09F440CF0E94A8066C197D0951
:104190008E099F09613D7740810591053CF01092A1
:1041A00062021092630202E010E040CF83E00E94BE
:1041B000BE05892B29F482E00E94BE05892B21F7D8
:1041C00083E00E94BE05892B19F410E000E02ECF99
:1041D00082E00E94BE05892BC1F380916202882390
:1041E00029F01092620204E010E020CF112369F35D
:1041F0001092630203E010E019CF8330910509F4B7
:104200002AC1049709F01FCF8091930281111BCF1F
:1042100010928302109284021092850210928602FC
:1042200010928702109288021092890210928A02DC
:1042300010928B0210928C0210928D0210928E02BC
:1042400010928F021092900210929102109292029C
:1042500030929302F8CE8091A2039091A3030E9422
:1042600088154B015C010E948405BC01990F880BE5
:10427000990B0E942F2520915A0330915B034091A6
:104280005C0350915D030E94E42520915E03309110
:104290005F0340916003509161030E941B246B01F6
:1042A0007C0122E0B501A40188EA92E00E94901608
:1042B00060E971E088EA92E00E940A1622E0B70104
:1042C000A60188EA92E00E9490166CE571E088EA07
:1042D00092E00E940A160E94E81510926F03109255
:1042E0006E03109271031092700322E0B501A401D5
:1042F00082E693E00E94901667EF82E693E00E94C8
:10430000BD0682E991E00E94651622E0B701A60190
:1043100082E693E00E94901667EA71E082E693E0FD
:104320000E940A160E94A9120130110559F00230AC
:10433000110509F480C0E1E0F0E0F0939C02E09305
:104340009B0281CE0E94781683E090E090939C02BD
:1043500080939B0278CE8091A2039091A3030E9448
:1043600088154B015C010E948405BC01990F880BE4
:10437000990B0E942F2520915A0330915B034091A5
:104380005C0350915D030E94E42520915E0330910F
:104390005F0340916003509161030E941B246B01F5
:1043A0007C0122E0B501A40188EA92E00E94901607
:1043B00060E971E088EA92E00E940A1622E0B70103
:1043C000A60188EA92E00E9490166CE571E088EA06
:1043D00092E00E940A160E94E81510926F03109254
:1043E0006E03109271031092700322E0B501A401D4
:1043F00082E693E00E94901667EF82E693E00E94C7
:10440000BD0682E991E00E94651622E0B701A6018F
:1044100082E693E00E94901664E971E082E693E000
:104420000E940A160E94A9120130110559F00230AB
:10443000110509F480CFA2E0B0E0B0939C02A093F4
:104440009B0201CE0E94781624E030E030939C025B
:1044500020939B02F8CD80917B02811122C01092A3
:104460006B0210926C0210926D0210926E0210920A
:104470006F021092700210927102109272021092EA
:1044800073021092740210927502109276021092CA
:104490007702109278021092790210927A0230928A
:1044A0007B028091A2039091A3030E9488156B0167
:1044B0007C010330110509F40CC10430110509F425
:1044C000FEC00130110509F00AC10E94E8151092E2
:1044D0006F0310926E03109271031092700386E9BD
:1044E00091E00E9465168CE991E00E9465160E9499
:1044F000A91264EF71E080E090E00E947606C0901F
:104500006402D0906502C60123E0880F991F2A95A6
:10451000E1F7DC01A559BD4F7D0160910401709167
:104520000501072E000C880B990B0E942F25F7011F
:1045300064837583868397830E948405BC01990FE9
:10454000880B990B0E942F25D7016D937D938D9336
:104550009C931397BFEFCB1ADB0AE2E0CE16D1048F
:1045600029F0D0926502C09264026DCD109265026E
:104570001092640288E0EBE6F2E0DE011196019011
:104580000D928A95E1F788E0E3E7F2E0DE01199603
:1045900001900D928A95E1F749805A806B807C806A
:1045A000C984DA84EB84FC848D849E84AF84B888CB
:1045B0006D817E818F8198850E94FE247A8B698B24
:1045C000BE016F5E7F4F90E080E00E94C217C30182
:1045D000B2010E94FE247A8B698BBE016F5E7F4F11
:1045E00082E090E00E94C217C501B4010E94FE243F
:1045F0007A8B698BBE016F5E7F4F84E090E00E94F2
:10460000C217C701B6010E94FE247A8B698BBE01D6
:104610006F5E7F4F86E090E00E94C217C0906B02F1
:10462000D0906C02E0906D02F0906E0280906F026C
:1046300090907002A0907102B0907202A701960152
:10464000609173027091740280917502909176026C
:104650000E941A242B013C01A5019401609177026C
:10466000709178028091790290917A020E941A24C6
:104670009B01AC01C301B2010E948C249B01AC01DF
:1046800020935A0330935B0340935C0350935D0384
:10469000C501B4010E94E4259B01AC01C701B6012C
:1046A0000E941A2460935E0370935F0380936003FB
:1046B0009093610310939C0200939B02C4CC809161
:1046C00004019091050101979093050180930401E5
:1046D000BACC80910401909105010196F5CF10911B
:1046E00004010E94A8064B015C010E94E81510928B
:1046F0006F0310926E03109271031092700322E008
:10470000B701A60182E693E00E94901667EF82E669
:1047100093E00E94BD0682E991E00E9465168091B7
:10472000670290916802A0916902B0916A02881AAA
:10473000990AAA0ABB0AF7E98F169104A104B104E9
:104740007CF00E94A80660936702709368028093D1
:10475000690290936A0280916602832580936602C3
:1047600080916602882391F0412F50E070E060E074
:104770002AE082E693E00E94191664EA71E082E67C
:1047800093E00E940A160E94A9125DCC62EA71E0D1
:1047900082E693E00E940A16F0CF84E391E09093C2
:1047A0006303809362038091810390918203009759
:1047B00011F00C94F2260895F999FECF92BD81BDB7
:1047C000F89A992780B50895262FF999FECF1FBA38
:1047D00092BD81BD20BD0FB6F894FA9AF99A0FBE2A
:1047E00001960895A1E21A2EAA1BBB1BFD010DC064
:1047F000AA1FBB1FEE1FFF1FA217B307E407F50791
:1048000020F0A21BB30BE40BF50B661F771F881F6C
:10481000991F1A9469F760957095809590959B0102
:10482000AC01BD01CF010895EE0FFF1F0590F4917B
:10483000E02D09945058BB27AA270E9432240C94DB
:10484000A5250E94972538F00E949E2520F039F476
:104850009F3F19F426F40C9494250EF4E095E7FBA1
:104860000C948E25E92F0E94B62558F3BA176207DB
:1048700073078407950720F079F4A6F50C94D825E2
:104880000EF4E0950B2EBA2FA02D0B01B90190016B
:104890000C01CA01A0011124FF27591B99F0593FAF
:1048A00050F4503E68F11A16F040A22F232F342FF7
:1048B0004427585FF3CF469537952795A795F04045
:1048C0005395C9F77EF41F16BA0B620B730B840B5A
:1048D000BAF09150A1F0FF0FBB1F661F771F881F12
:1048E000C2F70EC0BA0F621F731F841F48F487956A
:1048F00077956795B795F7959E3F08F0B0CF93955C
:10490000880F08F09927EE0F9795879508950E94D4
:104910006A2508F481E008950E94A0240C94A5253E
:104920000E949E2558F00E94972540F029F45F3F91
:1049300029F00C948E2551110C94D9250C949425B2
:104940000E94B62568F39923B1F3552391F3951B83
:10495000550BBB27AA2762177307840738F09F5FA0
:104960005F4F220F331F441FAA1FA9F335D00E2E0D
:104970003AF0E0E832D091505040E695001CCAF77A
:104980002BD0FE2F29D0660F771F881FBB1F26173D
:1049900037074807AB07B0E809F0BB0B802DBF0114
:1049A000FF2793585F4F3AF09E3F510578F00C94E3
:1049B0008E250C94D9255F3FE4F3983ED4F3869579
:1049C00077956795B795F7959F5FC9F7880F911D04
:1049D0009695879597F90895E1E0660F771F881FF0
:1049E000BB1F621773078407BA0720F0621B730BA3
:1049F000840BBA0BEE1F88F7E09508950E94BE2540
:104A000088F09F5798F0B92F9927B751B0F0E1F08F
:104A1000660F771F881F991F1AF0BA95C9F714C03F
:104A2000B13091F00E94D825B1E008950C94D825BA
:104A3000672F782F8827B85F39F0B93FCCF3869578
:104A400077956795B395D9F73EF4909580957095D5
:104A500061957F4F8F4F9F4F0895E89409C097FB52
:104A60003EF490958095709561957F4F8F4F9F4F45
:104A70009923A9F0F92F96E9BB279395F695879589
:104A800077956795B795F111F8CFFAF4BB0F11F44C
:104A900060FF1BC06F5F7F4F8F4F9F4F16C08823F3
:104AA00011F096E911C0772321F09EE8872F762F29
:104AB00005C0662371F096E8862F70E060E02AF06A
:104AC0009A95660F771F881FDAF7880F9695879556
:104AD00097F90895990F0008550FAA0BE0E8FEEF2B
:104AE00016161706E807F907C0F012161306E407B2
:104AF000F50798F0621B730B840B950B39F40A26AB
:104B000061F0232B242B252B21F408950A2609F488
:104B1000A140A6958FEF811D811D089597F99F678C
:104B200080E870E060E008959FEF80EC0895002435
:104B30000A941616170618060906089500240A9402
:104B400012161306140605060895092E0394000C88
:104B500011F4882352F0BB0F40F4BF2B11F460FF17
:104B600004C06F5F7F4F8F4F9F4F089557FD905840
:104B7000440F551F59F05F3F71F04795880F97FB21
:104B8000991F61F09F3F79F08795089512161306DB
:104B90001406551FF2CF4695F1DF08C0161617060A
:104BA0001806991FF1CF869571056105089408953F
:104BB000E894BB2766277727CB0197F908950E94D1
:104BC0006A2508F48FEF08950E94F7250C94A52517
:104BD0000E94972538F00E949E2520F0952311F021
:104BE0000C948E250C94942511240C94D9250E94A4
:104BF000B62570F3959FC1F3950F50E0551F629F46
:104C0000F001729FBB27F00DB11D639FAA27F00D25
:104C1000B11DAA1F649F6627B00DA11D661F829F4C
:104C20002227B00DA11D621F739FB00DA11D621F31
:104C3000839FA00D611D221F749F3327A00D611D4E
:104C4000231F849F600D211D822F762F6A2F112430
:104C50009F5750409AF0F1F088234AF0EE0FFF1F63
:104C6000BB1F661F771F881F91505040A9F79E3FBA
:104C7000510580F00C948E250C94D9255F3FE4F308
:104C8000983ED4F3869577956795B795F795E79510
:104C90009F5FC1F7FE2B880F911D9695879597F919
:104CA00008950E946A25880B990B08950F931F930E
:104CB000CF93DF938230910510F482E090E0E09191
:104CC000A803F091A90330E020E0B0E0A0E0309725
:104CD00099F42115310509F44AC0281B390B2430F9
:104CE0003105D8F58A819B816115710589F1FB0138
:104CF00093838283FE0111C040815181028113811F
:104D000048175907E0F04817590799F4109761F0D0
:104D100012960C93129713961C933296CF01DF9143
:104D2000CF911F910F9108950093A8031093A903A9
:104D3000F4CF2115310551F04217530738F0A9017E
:104D4000DB019A01BD01DF01F801C1CFEF01F9CF0D
:104D50009093A9038093A803CDCFFE01E20FF31F28
:104D6000819391932250310939832883D7CF2091A1
:104D7000A6033091A703232B41F420910801309121
:104D800009013093A7032093A603209106013091D7
:104D900007012115310541F42DB73EB740910A01B5
:104DA00050910B01241B350BE091A603F091A70352
:104DB000E217F307A0F42E1B3F0B2817390778F0F2
:104DC000AC014E5F5F4F2417350748F04E0F5F1F51
:104DD0005093A7034093A603819391939FCFF0E054
:104DE000E0E09CCFCF93DF930097E9F0FC0132978E
:104DF00013821282A091A803B091A903ED0130E0C3
:104E000020E01097A1F420813181820F931F20911F
:104E1000A6033091A7032817390709F061C0F09362
:104E2000A703E093A603DF91CF910895EA01CE177F
:104E3000DF07E8F54A815B819E0141155105B1F715
:104E4000E901FB83EA8349915991C40FD51FEC17FF
:104E5000FD0761F4808191810296840F951FE9011D
:104E600099838883828193819B838A83F0E0E0E049
:104E700012968D919C9113970097B9F52D913C91C5
:104E80001197CD010296820F931F2091A6033091B6
:104E9000A7032817390739F6309751F51092A9035F
:104EA0001092A803B093A703A093A603BCCFD3830B
:104EB000C28340815181840F951FC817D90761F4BF
:104EC0004E5F5F4F88819981480F591F51834083FE
:104ED0008A819B81938382832115310509F0B0CFAC
:104EE000F093A903E093A8039ECFFD01DC01C0CF9E
:104EF00013821282D7CF81E090E0F8940C94872738
:104F0000DC0101C06D9341505040E0F7089515E079
:104F1000C6E5D5E004C0FE010E9414242196C735E1
:084F2000D107C9F7F894FFCF97
:104F2800BC06BC0604000000AA03800000000000C4
:104F38006407C406F106B10722070007140700003A
:104F4800000083105610291483054F103C102D10B3
:104F5800000000006D0CC4062914C60F78098305EB
:104F6800120FEA0E060FFA0E190F8305330AD31330
:104F7800E8083109330E160E9E0D3F0D0D0A004349
:104F8800414C4942004D4F4445006E616E00696EC8
:104F980066006F76660070482F4543206D6574651E
:104FA8007200696E7A796E69657220446F6D75005A
:104FB8002C0043003F00504F494E54005341564582
:0A4FC800440020002E302070480045
:00000001FF
